{"abi":[{"type":"constructor","inputs":[{"name":"_bankroll","type":"address","internalType":"address"},{"name":"_vrf","type":"address","internalType":"address"},{"name":"link_eth_feed","type":"address","internalType":"address"},{"name":"_forwarder","type":"address","internalType":"address"}],"stateMutability":"nonpayable"},{"type":"function","name":"Bankroll","inputs":[],"outputs":[{"name":"","type":"address","internalType":"contract IBankRoll"}],"stateMutability":"view"},{"type":"function","name":"CoinFlip_GetState","inputs":[{"name":"player","type":"address","internalType":"address"}],"outputs":[{"name":"","type":"tuple","internalType":"struct CoinFlip.CoinFlipGame","components":[{"name":"wager","type":"uint256","internalType":"uint256"},{"name":"stopGain","type":"uint256","internalType":"uint256"},{"name":"stopLoss","type":"uint256","internalType":"uint256"},{"name":"requestID","type":"uint256","internalType":"uint256"},{"name":"tokenAddress","type":"address","internalType":"address"},{"name":"blockNumber","type":"uint64","internalType":"uint64"},{"name":"numBets","type":"uint32","internalType":"uint32"},{"name":"maxPayout","type":"uint256","internalType":"uint256"},{"name":"isHeads","type":"bool","internalType":"bool"}]}],"stateMutability":"view"},{"type":"function","name":"CoinFlip_Play","inputs":[{"name":"wager","type":"uint256","internalType":"uint256"},{"name":"tokenAddress","type":"address","internalType":"address"},{"name":"isHeads","type":"bool","internalType":"bool"},{"name":"numBets","type":"uint32","internalType":"uint32"},{"name":"stopGain","type":"uint256","internalType":"uint256"},{"name":"stopLoss","type":"uint256","internalType":"uint256"}],"outputs":[],"stateMutability":"payable"},{"type":"function","name":"CoinFlip_Refund","inputs":[],"outputs":[],"stateMutability":"nonpayable"},{"type":"function","name":"LINK_ETH_FEED","inputs":[],"outputs":[{"name":"","type":"address","internalType":"contract IDecimalAggregator"}],"stateMutability":"view"},{"type":"function","name":"VRFFees","inputs":[],"outputs":[{"name":"","type":"uint256","internalType":"uint256"}],"stateMutability":"view"},{"type":"function","name":"_trustedForwarder","inputs":[],"outputs":[{"name":"","type":"address","internalType":"address"}],"stateMutability":"view"},{"type":"function","name":"acceptOwnership","inputs":[],"outputs":[],"stateMutability":"nonpayable"},{"type":"function","name":"getVRFFee","inputs":[{"name":"gasAmount","type":"uint256","internalType":"uint256"},{"name":"l1Multiplier","type":"uint256","internalType":"uint256"}],"outputs":[{"name":"fee","type":"uint256","internalType":"uint256"}],"stateMutability":"view"},{"type":"function","name":"isTrustedForwarder","inputs":[{"name":"forwarder","type":"address","internalType":"address"}],"outputs":[{"name":"","type":"bool","internalType":"bool"}],"stateMutability":"view"},{"type":"function","name":"owner","inputs":[],"outputs":[{"name":"","type":"address","internalType":"address"}],"stateMutability":"view"},{"type":"function","name":"rawFulfillRandomWords","inputs":[{"name":"requestId","type":"uint256","internalType":"uint256"},{"name":"randomWords","type":"uint256[]","internalType":"uint256[]"}],"outputs":[],"stateMutability":"nonpayable"},{"type":"function","name":"s_vrfCoordinator","inputs":[],"outputs":[{"name":"","type":"address","internalType":"contract IVRFCoordinatorV2Plus"}],"stateMutability":"view"},{"type":"function","name":"setBankroll","inputs":[{"name":"_bankRoll","type":"address","internalType":"address"}],"outputs":[],"stateMutability":"nonpayable"},{"type":"function","name":"setCoordinator","inputs":[{"name":"_vrfCoordinator","type":"address","internalType":"address"}],"outputs":[],"stateMutability":"nonpayable"},{"type":"function","name":"transferFees","inputs":[{"name":"to","type":"address","internalType":"address"}],"outputs":[],"stateMutability":"nonpayable"},{"type":"function","name":"transferOwnership","inputs":[{"name":"to","type":"address","internalType":"address"}],"outputs":[],"stateMutability":"nonpayable"},{"type":"event","name":"CoinFlip_Outcome_Event","inputs":[{"name":"playerAddress","type":"address","indexed":true,"internalType":"address"},{"name":"wager","type":"uint256","indexed":false,"internalType":"uint256"},{"name":"payout","type":"uint256","indexed":false,"internalType":"uint256"},{"name":"tokenAddress","type":"address","indexed":false,"internalType":"address"},{"name":"coinOutcomes","type":"uint8[]","indexed":false,"internalType":"uint8[]"},{"name":"payouts","type":"uint256[]","indexed":false,"internalType":"uint256[]"},{"name":"numGames","type":"uint32","indexed":false,"internalType":"uint32"}],"anonymous":false},{"type":"event","name":"CoinFlip_Play_Event","inputs":[{"name":"playerAddress","type":"address","indexed":true,"internalType":"address"},{"name":"wager","type":"uint256","indexed":false,"internalType":"uint256"},{"name":"tokenAddress","type":"address","indexed":false,"internalType":"address"},{"name":"isHeads","type":"bool","indexed":false,"internalType":"bool"},{"name":"numBets","type":"uint32","indexed":false,"internalType":"uint32"},{"name":"stopGain","type":"uint256","indexed":false,"internalType":"uint256"},{"name":"stopLoss","type":"uint256","indexed":false,"internalType":"uint256"},{"name":"VRFFee","type":"uint256","indexed":false,"internalType":"uint256"}],"anonymous":false},{"type":"event","name":"CoinFlip_Refund_Event","inputs":[{"name":"player","type":"address","indexed":true,"internalType":"address"},{"name":"wager","type":"uint256","indexed":false,"internalType":"uint256"},{"name":"tokenAddress","type":"address","indexed":false,"internalType":"address"}],"anonymous":false},{"type":"event","name":"CoordinatorSet","inputs":[{"name":"vrfCoordinator","type":"address","indexed":false,"internalType":"address"}],"anonymous":false},{"type":"event","name":"FeeTransferred","inputs":[{"name":"game","type":"address","indexed":false,"internalType":"address"},{"name":"player","type":"address","indexed":false,"internalType":"address"},{"name":"amount","type":"uint256","indexed":false,"internalType":"uint256"}],"anonymous":false},{"type":"event","name":"OwnershipTransferRequested","inputs":[{"name":"from","type":"address","indexed":true,"internalType":"address"},{"name":"to","type":"address","indexed":true,"internalType":"address"}],"anonymous":false},{"type":"event","name":"OwnershipTransferred","inputs":[{"name":"from","type":"address","indexed":true,"internalType":"address"},{"name":"to","type":"address","indexed":true,"internalType":"address"}],"anonymous":false},{"type":"event","name":"WagerTransferred","inputs":[{"name":"game","type":"address","indexed":false,"internalType":"address"},{"name":"token","type":"address","indexed":false,"internalType":"address"},{"name":"player","type":"address","indexed":false,"internalType":"address"},{"name":"amount","type":"uint256","indexed":false,"internalType":"uint256"}],"anonymous":false},{"type":"error","name":"AwaitingVRF","inputs":[{"name":"requestID","type":"uint256","internalType":"uint256"}]},{"type":"error","name":"BlockNumberTooLow","inputs":[{"name":"have","type":"uint256","internalType":"uint256"},{"name":"want","type":"uint256","internalType":"uint256"}]},{"type":"error","name":"InvalidNumBets","inputs":[{"name":"maxNumBets","type":"uint256","internalType":"uint256"}]},{"type":"error","name":"InvalidValue","inputs":[{"name":"required","type":"uint256","internalType":"uint256"},{"name":"sent","type":"uint256","internalType":"uint256"}]},{"type":"error","name":"NotApprovedBankroll","inputs":[]},{"type":"error","name":"NotAwaitingVRF","inputs":[]},{"type":"error","name":"NotOwner","inputs":[{"name":"want","type":"address","internalType":"address"},{"name":"have","type":"address","internalType":"address"}]},{"type":"error","name":"OnlyCoordinatorCanFulfill","inputs":[{"name":"have","type":"address","internalType":"address"},{"name":"want","type":"address","internalType":"address"}]},{"type":"error","name":"OnlyOwnerOrCoordinator","inputs":[{"name":"have","type":"address","internalType":"address"},{"name":"owner","type":"address","internalType":"address"},{"name":"coordinator","type":"address","internalType":"address"}]},{"type":"error","name":"PlayerSuspended","inputs":[{"name":"suspensionTime","type":"uint256","internalType":"uint256"}]},{"type":"error","name":"RefundFailed","inputs":[]},{"type":"error","name":"TransferFailed","inputs":[]},{"type":"error","name":"WagerAboveLimit","inputs":[{"name":"wager","type":"uint256","internalType":"uint256"},{"name":"maxWager","type":"uint256","internalType":"uint256"}]},{"type":"error","name":"ZeroAddress","inputs":[]},{"type":"error","name":"ZeroWager","inputs":[]}],"bytecode":{"object":"0x60806040527fabb65d5c6f9c8a5a1d2af242cbb644ce2157e5f9ca410a33e28106c9f1f3e9cc600a557f1770bdc7eec7771f7ba4ffd640f34260d7f095b79c92d34a5b2551d6f6cfd2be5f1b600b556003600c5f6101000a81548161ffff021916908361ffff160217905550622625a0600c60026101000a81548163ffffffff021916908363ffffffff16021790555034801561009a575f5ffd5b50604051614cf0380380614cf083398181016040528101906100bc9190610534565b8233805f60015f819055505f73ffffffffffffffffffffffffffffffffffffffff168273ffffffffffffffffffffffffffffffffffffffff1603610135576040517f08c379a000000000000000000000000000000000000000000000000000000000815260040161012c906105f2565b60405180910390fd5b8160015f6101000a81548173ffffffffffffffffffffffffffffffffffffffff021916908373ffffffffffffffffffffffffffffffffffffffff1602179055505f73ffffffffffffffffffffffffffffffffffffffff168173ffffffffffffffffffffffffffffffffffffffff16146101b8576101b7816103aa60201b60201c565b5b5050505f73ffffffffffffffffffffffffffffffffffffffff168173ffffffffffffffffffffffffffffffffffffffff1603610220576040517fd92e233d00000000000000000000000000000000000000000000000000000000815260040160405180910390fd5b8060035f6101000a81548173ffffffffffffffffffffffffffffffffffffffff021916908373ffffffffffffffffffffffffffffffffffffffff160217905550508360085f6101000a81548173ffffffffffffffffffffffffffffffffffffffff021916908373ffffffffffffffffffffffffffffffffffffffff1602179055508260055f6101000a81548173ffffffffffffffffffffffffffffffffffffffff021916908373ffffffffffffffffffffffffffffffffffffffff1602179055508260095f6101000a81548173ffffffffffffffffffffffffffffffffffffffff021916908373ffffffffffffffffffffffffffffffffffffffff1602179055508160075f6101000a81548173ffffffffffffffffffffffffffffffffffffffff021916908373ffffffffffffffffffffffffffffffffffffffff1602179055508060065f6101000a81548173ffffffffffffffffffffffffffffffffffffffff021916908373ffffffffffffffffffffffffffffffffffffffff16021790555050505050610678565b3373ffffffffffffffffffffffffffffffffffffffff168173ffffffffffffffffffffffffffffffffffffffff1603610418576040517f08c379a000000000000000000000000000000000000000000000000000000000815260040161040f9061065a565b60405180910390fd5b8060025f6101000a81548173ffffffffffffffffffffffffffffffffffffffff021916908373ffffffffffffffffffffffffffffffffffffffff1602179055508073ffffffffffffffffffffffffffffffffffffffff1660015f9054906101000a900473ffffffffffffffffffffffffffffffffffffffff1673ffffffffffffffffffffffffffffffffffffffff167fed8889f560326eb138920d842192f0eb3dd22b4f139c87a2c57538e05bae127860405160405180910390a350565b5f5ffd5b5f73ffffffffffffffffffffffffffffffffffffffff82169050919050565b5f610503826104da565b9050919050565b610513816104f9565b811461051d575f5ffd5b50565b5f8151905061052e8161050a565b92915050565b5f5f5f5f6080858703121561054c5761054b6104d6565b5b5f61055987828801610520565b945050602061056a87828801610520565b935050604061057b87828801610520565b925050606061058c87828801610520565b91505092959194509250565b5f82825260208201905092915050565b7f43616e6e6f7420736574206f776e657220746f207a65726f00000000000000005f82015250565b5f6105dc601883610598565b91506105e7826105a8565b602082019050919050565b5f6020820190508181035f830152610609816105d0565b9050919050565b7f43616e6e6f74207472616e7366657220746f2073656c660000000000000000005f82015250565b5f610644601783610598565b915061064f82610610565b602082019050919050565b5f6020820190508181035f83015261067181610638565b9050919050565b61466b806106855f395ff3fe6080604052600436106100fd575f3560e01c80638d7c16d211610094578063ad17836111610063578063ad178361146102e1578063baaa3edf1461030b578063bde8a93e14610347578063d0bcfc0c1461036f578063f2fde38b14610399576100fd565b80638d7c16d21461023b5780638da5cb5b146102655780638ea981171461028f5780639eccacf6146102b7576100fd565b806363dc4ef5116100d057806363dc4ef5146101a55780636d974773146101cd57806379ba5097146101e95780637df31284146101ff576100fd565b80631fe543e314610101578063522d2c241461012957806356c022bb1461013f578063572b6c0514610169575b5f5ffd5b34801561010c575f5ffd5b5061012760048036038101906101229190613218565b6103c1565b005b348015610134575f5ffd5b5061013d610485565b005b34801561014a575f5ffd5b506101536108b0565b60405161016091906132b4565b60405180910390f35b348015610174575f5ffd5b5061018f600480360381019061018a91906132f7565b6108d5565b60405161019c919061333c565b60405180910390f35b3480156101b0575f5ffd5b506101cb60048036038101906101c691906132f7565b61092d565b005b6101e760048036038101906101e291906133b8565b610bb5565b005b3480156101f4575f5ffd5b506101fd610fdb565b005b34801561020a575f5ffd5b50610225600480360381019061022091906132f7565b61116c565b6040516102329190613554565b60405180910390f35b348015610246575f5ffd5b5061024f6112bc565b60405161025c919061357d565b60405180910390f35b348015610270575f5ffd5b506102796112c2565b60405161028691906132b4565b60405180910390f35b34801561029a575f5ffd5b506102b560048036038101906102b091906132f7565b6112ea565b005b3480156102c2575f5ffd5b506102cb6114c7565b6040516102d891906135f1565b60405180910390f35b3480156102ec575f5ffd5b506102f56114ec565b604051610302919061362a565b60405180910390f35b348015610316575f5ffd5b50610331600480360381019061032c9190613643565b611511565b60405161033e919061357d565b60405180910390f35b348015610352575f5ffd5b5061036d600480360381019061036891906132f7565b611618565b005b34801561037a575f5ffd5b50610383611663565b60405161039091906136a1565b60405180910390f35b3480156103a4575f5ffd5b506103bf60048036038101906103ba91906132f7565b611688565b005b60035f9054906101000a900473ffffffffffffffffffffffffffffffffffffffff1673ffffffffffffffffffffffffffffffffffffffff163373ffffffffffffffffffffffffffffffffffffffff1614610475573360035f9054906101000a900473ffffffffffffffffffffffffffffffffffffffff166040517f1cf993f400000000000000000000000000000000000000000000000000000000815260040161046c9291906136ba565b60405180910390fd5b61048083838361169c565b505050565b61048d611cd0565b5f610496611d1d565b90505f600d5f8373ffffffffffffffffffffffffffffffffffffffff1673ffffffffffffffffffffffffffffffffffffffff1681526020019081526020015f2090505f816003015403610515576040517f49050b3000000000000000000000000000000000000000000000000000000000815260040160405180910390fd5b61051d611d52565b67ffffffffffffffff1660c88260040160149054906101000a900467ffffffffffffffff1661054c919061370e565b67ffffffffffffffff1611156105c657610564611d52565b60c88260040160149054906101000a900467ffffffffffffffff16610589919061370e565b6040517fb4ae675a0000000000000000000000000000000000000000000000000000000081526004016105bd929190613779565b60405180910390fd5b5f81600401601c9054906101000a900463ffffffff1663ffffffff16825f01546105f091906137a0565b90505f826004015f9054906101000a900473ffffffffffffffffffffffffffffffffffffffff16905061064a836004015f9054906101000a900473ffffffffffffffffffffffffffffffffffffffff168460050154611dec565b600e5f846003015481526020019081526020015f205f6101000a81549073ffffffffffffffffffffffffffffffffffffffff0219169055600d5f8573ffffffffffffffffffffffffffffffffffffffff1673ffffffffffffffffffffffffffffffffffffffff1681526020019081526020015f205f5f82015f9055600182015f9055600282015f9055600382015f9055600482015f6101000a81549073ffffffffffffffffffffffffffffffffffffffff02191690556004820160146101000a81549067ffffffffffffffff021916905560048201601c6101000a81549063ffffffff0219169055600582015f9055600682015f6101000a81549060ff021916905550505f73ffffffffffffffffffffffffffffffffffffffff168173ffffffffffffffffffffffffffffffffffffffff1603610826575f8473ffffffffffffffffffffffffffffffffffffffff16836040516107a69061380e565b5f6040518083038185875af1925050503d805f81146107e0576040519150601f19603f3d011682016040523d82523d5f602084013e6107e5565b606091505b5050905080610820576040517f90b8ec1800000000000000000000000000000000000000000000000000000000815260040160405180910390fd5b50610852565b61085184838373ffffffffffffffffffffffffffffffffffffffff16611e799092919063ffffffff16565b5b8373ffffffffffffffffffffffffffffffffffffffff167f60f5ec2f86c0cf8ae72815b61b05473a9382c1c34a74749680302b342c04138a838360405161089a929190613822565b60405180910390a2505050506108ae611eff565b565b60065f9054906101000a900473ffffffffffffffffffffffffffffffffffffffff1681565b5f60065f9054906101000a900473ffffffffffffffffffffffffffffffffffffffff1673ffffffffffffffffffffffffffffffffffffffff168273ffffffffffffffffffffffffffffffffffffffff16149050919050565b610935611cd0565b60085f9054906101000a900473ffffffffffffffffffffffffffffffffffffffff1673ffffffffffffffffffffffffffffffffffffffff1663893d20e86040518163ffffffff1660e01b8152600401602060405180830381865afa15801561099f573d5f5f3e3d5ffd5b505050506040513d601f19601f820116820180604052508101906109c3919061385d565b73ffffffffffffffffffffffffffffffffffffffff163373ffffffffffffffffffffffffffffffffffffffff1614610ac15760085f9054906101000a900473ffffffffffffffffffffffffffffffffffffffff1673ffffffffffffffffffffffffffffffffffffffff1663893d20e86040518163ffffffff1660e01b8152600401602060405180830381865afa158015610a5f573d5f5f3e3d5ffd5b505050506040513d601f19601f82011682018060405250810190610a83919061385d565b336040517f23295f0e000000000000000000000000000000000000000000000000000000008152600401610ab89291906136ba565b60405180910390fd5b5f60045490505f6004819055505f8273ffffffffffffffffffffffffffffffffffffffff1682604051610af39061380e565b5f6040518083038185875af1925050503d805f8114610b2d576040519150601f19603f3d011682016040523d82523d5f602084013e610b32565b606091505b5050905080610b6d576040517f90b8ec1800000000000000000000000000000000000000000000000000000000815260040160405180910390fd5b7f1d6298f49fc15449b78df91fcca6812136edc2972366cb70aa0d9145a308cd31308484604051610ba093929190613888565b60405180910390a15050610bb2611eff565b50565b610bbd611cd0565b5f610bc6611d1d565b90505f600d5f8373ffffffffffffffffffffffffffffffffffffffff1673ffffffffffffffffffffffffffffffffffffffff1681526020019081526020015f206003015414610c8c57600d5f8273ffffffffffffffffffffffffffffffffffffffff1673ffffffffffffffffffffffffffffffffffffffff1681526020019081526020015f20600301546040517f440db96e000000000000000000000000000000000000000000000000000000008152600401610c83919061357d565b60405180910390fd5b5f8463ffffffff16118015610ca8575060648463ffffffff1611155b610cea5760646040517f93107491000000000000000000000000000000000000000000000000000000008152600401610ce191906138f6565b60405180910390fd5b5f5f841115610d0f578463ffffffff1688610d0591906137a0565b9350839050610d3e565b612710614d588663ffffffff168a610d2791906137a0565b610d3191906137a0565b610d3b919061393c565b90505b610d488782611f08565b610d528888612075565b5f610d75888763ffffffff168b610d6991906137a0565b620aae6060168761217f565b90505f610d8187612655565b90506040518061012001604052808b81526020018781526020018681526020018281526020018a73ffffffffffffffffffffffffffffffffffffffff168152602001610dcb611d52565b67ffffffffffffffff1681526020018863ffffffff168152602001848152602001891515815250600d5f8673ffffffffffffffffffffffffffffffffffffffff1673ffffffffffffffffffffffffffffffffffffffff1681526020019081526020015f205f820151815f01556020820151816001015560408201518160020155606082015181600301556080820151816004015f6101000a81548173ffffffffffffffffffffffffffffffffffffffff021916908373ffffffffffffffffffffffffffffffffffffffff16021790555060a08201518160040160146101000a81548167ffffffffffffffff021916908367ffffffffffffffff16021790555060c082015181600401601c6101000a81548163ffffffff021916908363ffffffff16021790555060e08201518160050155610100820151816006015f6101000a81548160ff02191690831515021790555090505083600e5f8381526020019081526020015f205f6101000a81548173ffffffffffffffffffffffffffffffffffffffff021916908373ffffffffffffffffffffffffffffffffffffffff1602179055508373ffffffffffffffffffffffffffffffffffffffff167f9802308245dc39ec39c453355c93a84c961f728db54b5adeaad1cd29aa6f3f738b8b8b8b8b8b89604051610fbf979695949392919061397b565b60405180910390a250505050610fd3611eff565b505050505050565b60025f9054906101000a900473ffffffffffffffffffffffffffffffffffffffff1673ffffffffffffffffffffffffffffffffffffffff163373ffffffffffffffffffffffffffffffffffffffff161461106a576040517f08c379a000000000000000000000000000000000000000000000000000000000815260040161106190613a42565b60405180910390fd5b5f60015f9054906101000a900473ffffffffffffffffffffffffffffffffffffffff1690503360015f6101000a81548173ffffffffffffffffffffffffffffffffffffffff021916908373ffffffffffffffffffffffffffffffffffffffff1602179055505f60025f6101000a81548173ffffffffffffffffffffffffffffffffffffffff021916908373ffffffffffffffffffffffffffffffffffffffff1602179055503373ffffffffffffffffffffffffffffffffffffffff168173ffffffffffffffffffffffffffffffffffffffff167f8be0079c531659141344cd1fd0a4f28419497f9722a3daafe3b4186f6b6457e060405160405180910390a350565b611174613111565b600d5f8373ffffffffffffffffffffffffffffffffffffffff1673ffffffffffffffffffffffffffffffffffffffff1681526020019081526020015f20604051806101200160405290815f8201548152602001600182015481526020016002820154815260200160038201548152602001600482015f9054906101000a900473ffffffffffffffffffffffffffffffffffffffff1673ffffffffffffffffffffffffffffffffffffffff1673ffffffffffffffffffffffffffffffffffffffff1681526020016004820160149054906101000a900467ffffffffffffffff1667ffffffffffffffff1667ffffffffffffffff16815260200160048201601c9054906101000a900463ffffffff1663ffffffff1663ffffffff16815260200160058201548152602001600682015f9054906101000a900460ff1615151515815250509050919050565b60045481565b5f60015f9054906101000a900473ffffffffffffffffffffffffffffffffffffffff16905090565b6112f26112c2565b73ffffffffffffffffffffffffffffffffffffffff163373ffffffffffffffffffffffffffffffffffffffff161415801561137a575060035f9054906101000a900473ffffffffffffffffffffffffffffffffffffffff1673ffffffffffffffffffffffffffffffffffffffff163373ffffffffffffffffffffffffffffffffffffffff1614155b156113e857336113886112c2565b60035f9054906101000a900473ffffffffffffffffffffffffffffffffffffffff166040517f061db9c10000000000000000000000000000000000000000000000000000000081526004016113df93929190613a60565b60405180910390fd5b5f73ffffffffffffffffffffffffffffffffffffffff168173ffffffffffffffffffffffffffffffffffffffff160361144d576040517fd92e233d00000000000000000000000000000000000000000000000000000000815260040160405180910390fd5b8060035f6101000a81548173ffffffffffffffffffffffffffffffffffffffff021916908373ffffffffffffffffffffffffffffffffffffffff1602179055507fd1a6a14209a385a964d036e404cb5cfb71f4000cdb03c9366292430787261be6816040516114bc91906132b4565b60405180910390a150565b60035f9054906101000a900473ffffffffffffffffffffffffffffffffffffffff1681565b60075f9054906101000a900473ffffffffffffffffffffffffffffffffffffffff1681565b5f5f60075f9054906101000a900473ffffffffffffffffffffffffffffffffffffffff1673ffffffffffffffffffffffffffffffffffffffff1663feaf968c6040518163ffffffff1660e01b815260040160a060405180830381865afa15801561157d573d5f5f3e3d5ffd5b505050506040513d601f19601f820116820180604052508101906115a19190613b1b565b5050509150505f600a846115b3612771565b6115bd91906137a0565b6115c7919061393c565b9050670de0b6b3a76400008264e8d4a510006115e391906137a0565b6115ed919061393c565b81863a6115fa91906137a0565b6116049190613b92565b61160e9190613b92565b9250505092915050565b61162061280b565b8060085f6101000a81548173ffffffffffffffffffffffffffffffffffffffff021916908373ffffffffffffffffffffffffffffffffffffffff16021790555050565b60085f9054906101000a900473ffffffffffffffffffffffffffffffffffffffff1681565b61169061280b565b6116998161289c565b50565b5f600e5f8581526020019081526020015f205f9054906101000a900473ffffffffffffffffffffffffffffffffffffffff1690505f73ffffffffffffffffffffffffffffffffffffffff168173ffffffffffffffffffffffffffffffffffffffff1603611707575f5ffd5b5f600d5f8373ffffffffffffffffffffffffffffffffffffffff1673ffffffffffffffffffffffffffffffffffffffff1681526020019081526020015f2090505f5f5f5f84600401601c9054906101000a900463ffffffff1663ffffffff1667ffffffffffffffff81111561177f5761177e613bc5565b5b6040519080825280602002602001820160405280156117ad5781602001602082028036833780820191505090505b5090505f85600401601c9054906101000a900463ffffffff1663ffffffff1667ffffffffffffffff8111156117e5576117e4613bc5565b5b6040519080825280602002602001820160405280156118135781602001602082028036833780820191505090505b5090505f866004015f9054906101000a900473ffffffffffffffffffffffffffffffffffffffff1690505f93505b86600401601c9054906101000a900463ffffffff1663ffffffff168463ffffffff161015611ad4578660010154861215611ad457866002015461188390613bf2565b861315611ad45760028a8a8663ffffffff168181106118a5576118a4613c38565b5b905060200201356118b69190613c65565b838563ffffffff16815181106118cf576118ce613c38565b5b602002602001019060ff16908160ff16815250506001838563ffffffff16815181106118fe576118fd613c38565b5b602002602001015160ff1614801561192a575060011515876006015f9054906101000a900460ff161515145b156119cd57612710612648885f015461194391906137a0565b61194d919061393c565b866119589190613c95565b9550612710614d58885f015461196e91906137a0565b611978919061393c565b856119839190613b92565b9450612710614d58885f015461199991906137a0565b6119a3919061393c565b828563ffffffff16815181106119bc576119bb613c38565b5b602002602001018181525050611ac7565b5f838563ffffffff16815181106119e7576119e6613c38565b5b602002602001015160ff16148015611a1257505f1515876006015f9054906101000a900460ff161515145b15611ab557612710612648885f0154611a2b91906137a0565b611a35919061393c565b86611a409190613c95565b9550612710614d58885f0154611a5691906137a0565b611a60919061393c565b85611a6b9190613b92565b9450612710614d58885f0154611a8191906137a0565b611a8b919061393c565b828563ffffffff1681518110611aa457611aa3613c38565b5b602002602001018181525050611ac7565b865f015486611ac49190613cd6565b95505b8380600101945050611841565b611ae2818860050154611dec565b865f01548488600401601c9054906101000a900463ffffffff16611b069190613d16565b63ffffffff16611b1691906137a0565b85611b219190613b92565b94508773ffffffffffffffffffffffffffffffffffffffff167f063ba2c91a70f945b84c24531b0de813d66f430987169cb7d878431c04cb0004885f0154878487878a604051611b7696959493929190613eb8565b60405180910390a2611bb08188600401601c9054906101000a900463ffffffff1663ffffffff16895f0154611bab91906137a0565b6129c8565b600e5f8c81526020019081526020015f205f6101000a81549073ffffffffffffffffffffffffffffffffffffffff0219169055600d5f8973ffffffffffffffffffffffffffffffffffffffff1673ffffffffffffffffffffffffffffffffffffffff1681526020019081526020015f205f5f82015f9055600182015f9055600282015f9055600382015f9055600482015f6101000a81549073ffffffffffffffffffffffffffffffffffffffff02191690556004820160146101000a81549067ffffffffffffffff021916905560048201601c6101000a81549063ffffffff0219169055600582015f9055600682015f6101000a81549060ff021916905550505f8514611cc357611cc2888683612c29565b5b5050505050505050505050565b60025f5403611d14576040517f08c379a0000000000000000000000000000000000000000000000000000000008152600401611d0b90613f6f565b60405180910390fd5b60025f81905550565b5f60145f36905010158015611d375750611d36336108d5565b5b15611d4b57601436033560601c9050611d4f565b3390505b90565b5f5f46905061a4b1811480611d69575062066eed81145b15611de457606473ffffffffffffffffffffffffffffffffffffffff1663a3b1b31d6040518163ffffffff1660e01b8152600401602060405180830381865afa158015611db8573d5f5f3e3d5ffd5b505050506040513d601f19601f82011682018060405250810190611ddc9190613f8d565b915050611de9565b439150505b90565b60085f9054906101000a900473ffffffffffffffffffffffffffffffffffffffff1673ffffffffffffffffffffffffffffffffffffffff1663d6e982e583836040518363ffffffff1660e01b8152600401611e48929190613fb8565b5f604051808303815f87803b158015611e5f575f5ffd5b505af1158015611e71573d5f5f3e3d5ffd5b505050505050565b611efa8363a9059cbb60e01b8484604051602401611e98929190613fb8565b604051602081830303815290604052907bffffffffffffffffffffffffffffffffffffffffffffffffffffffff19166020820180517bffffffffffffffffffffffffffffffffffffffffffffffffffffffff8381831617835250505050612cb9565b505050565b60015f81905550565b5f60085f9054906101000a900473ffffffffffffffffffffffffffffffffffffffff1673ffffffffffffffffffffffffffffffffffffffff16636c24a76f846040518263ffffffff1660e01b8152600401611f6391906132b4565b602060405180830381865afa158015611f7e573d5f5f3e3d5ffd5b505050506040513d601f19601f82011682018060405250810190611fa29190613f8d565b905081811015611fe7576040517f08c379a0000000000000000000000000000000000000000000000000000000008152600401611fde9061404f565b60405180910390fd5b60085f9054906101000a900473ffffffffffffffffffffffffffffffffffffffff1673ffffffffffffffffffffffffffffffffffffffff16630638953784846040518363ffffffff1660e01b8152600401612043929190613fb8565b5f604051808303815f87803b15801561205a575f5ffd5b505af115801561206c573d5f5f3e3d5ffd5b50505050505050565b5f60085f9054906101000a900473ffffffffffffffffffffffffffffffffffffffff1673ffffffffffffffffffffffffffffffffffffffff16636c24a76f836040518263ffffffff1660e01b81526004016120d091906132b4565b602060405180830381865afa1580156120eb573d5f5f3e3d5ffd5b505050506040513d601f19601f8201168201806040525081019061210f9190613f8d565b90505f6305f5e100621120908361212691906137a0565b612130919061393c565b9050808411156121795783816040517fd53662aa00000000000000000000000000000000000000000000000000000000815260040161217092919061406d565b60405180910390fd5b50505050565b5f5f85036121b9576040517f07375c8400000000000000000000000000000000000000000000000000000000815260040160405180910390fd5b60085f9054906101000a900473ffffffffffffffffffffffffffffffffffffffff1673ffffffffffffffffffffffffffffffffffffffff1663bfd7f9cc30886040518363ffffffff1660e01b81526004016122159291906136ba565b602060405180830381865afa158015612230573d5f5f3e3d5ffd5b505050506040513d601f19601f8201168201806040525081019061225491906140a8565b61228a576040517f51c3b94f00000000000000000000000000000000000000000000000000000000815260040160405180910390fd5b5f5f60085f9054906101000a900473ffffffffffffffffffffffffffffffffffffffff1673ffffffffffffffffffffffffffffffffffffffff16630a5748a8856040518263ffffffff1660e01b81526004016122e691906132b4565b6040805180830381865afa158015612300573d5f5f3e3d5ffd5b505050506040513d601f19601f8201168201806040525081019061232491906140d3565b91509150811561236b57806040517f6c2775f5000000000000000000000000000000000000000000000000000000008152600401612362919061357d565b60405180910390fd5b6123758686611511565b92505f73ffffffffffffffffffffffffffffffffffffffff168873ffffffffffffffffffffffffffffffffffffffff160361242b5782876123b69190613b92565b3410156124075782876123c99190613b92565b346040517fde9b74a10000000000000000000000000000000000000000000000000000000081526004016123fe92919061406d565b60405180910390fd5b61242687846124169190613b92565b346124219190614111565b612d7f565b6124b4565b823410156124725782346040517fde9b74a100000000000000000000000000000000000000000000000000000000815260040161246992919061406d565b60405180910390fd5b61249f8430898b73ffffffffffffffffffffffffffffffffffffffff16612e2b909392919063ffffffff16565b6124b383346124ae9190614111565b612d7f565b5b5f60085f9054906101000a900473ffffffffffffffffffffffffffffffffffffffff1673ffffffffffffffffffffffffffffffffffffffff1663133d199a6040518163ffffffff1660e01b8152600401602060405180830381865afa15801561251f573d5f5f3e3d5ffd5b505050506040513d601f19601f820116820180604052508101906125439190613f8d565b90505f8111156125f4575f6103e8828a61255d91906137a0565b612567919061393c565b905060085f9054906101000a900473ffffffffffffffffffffffffffffffffffffffff1673ffffffffffffffffffffffffffffffffffffffff1663b0e27f7487836040518363ffffffff1660e01b81526004016125c5929190613fb8565b5f604051808303815f87803b1580156125dc575f5ffd5b505af11580156125ee573d5f5f3e3d5ffd5b50505050505b8360045f8282546126059190613b92565b925050819055507f312e2def0b1ae52334b8d967d371c7afe0625e9a3f4f70810e79cf351fe2a5a9308a878b6040516126419493929190614144565b60405180910390a150505095945050505050565b5f60095f9054906101000a900473ffffffffffffffffffffffffffffffffffffffff1673ffffffffffffffffffffffffffffffffffffffff16639b1c385e6040518060c00160405280600b548152602001600a548152602001600c5f9054906101000a900461ffff1661ffff168152602001600c60029054906101000a900463ffffffff1663ffffffff1681526020018563ffffffff16815260200161270b604051806020016040528060011515815250612eb4565b8152506040518263ffffffff1660e01b815260040161272a91906142b1565b6020604051808303815f875af1158015612746573d5f5f3e3d5ffd5b505050506040513d601f19601f8201168201806040525081019061276a9190613f8d565b9050919050565b5f5f46905061a4b1811480612788575062066eed81145b1561280357606c73ffffffffffffffffffffffffffffffffffffffff1663c6f7de0e6040518163ffffffff1660e01b8152600401602060405180830381865afa1580156127d7573d5f5f3e3d5ffd5b505050506040513d601f19601f820116820180604052508101906127fb9190613f8d565b915050612808565b5f9150505b90565b60015f9054906101000a900473ffffffffffffffffffffffffffffffffffffffff1673ffffffffffffffffffffffffffffffffffffffff163373ffffffffffffffffffffffffffffffffffffffff161461289a576040517f08c379a00000000000000000000000000000000000000000000000000000000081526004016128919061431b565b60405180910390fd5b565b3373ffffffffffffffffffffffffffffffffffffffff168173ffffffffffffffffffffffffffffffffffffffff160361290a576040517f08c379a000000000000000000000000000000000000000000000000000000000815260040161290190614383565b60405180910390fd5b8060025f6101000a81548173ffffffffffffffffffffffffffffffffffffffff021916908373ffffffffffffffffffffffffffffffffffffffff1602179055508073ffffffffffffffffffffffffffffffffffffffff1660015f9054906101000a900473ffffffffffffffffffffffffffffffffffffffff1673ffffffffffffffffffffffffffffffffffffffff167fed8889f560326eb138920d842192f0eb3dd22b4f139c87a2c57538e05bae127860405160405180910390a350565b5f73ffffffffffffffffffffffffffffffffffffffff168273ffffffffffffffffffffffffffffffffffffffff1603612ac1575f60085f9054906101000a900473ffffffffffffffffffffffffffffffffffffffff1673ffffffffffffffffffffffffffffffffffffffff1682604051612a419061380e565b5f6040518083038185875af1925050503d805f8114612a7b576040519150601f19603f3d011682016040523d82523d5f602084013e612a80565b606091505b5050905080612abb576040517ff0c49d4400000000000000000000000000000000000000000000000000000000815260040160405180910390fd5b50612be8565b8173ffffffffffffffffffffffffffffffffffffffff1663095ea7b360085f9054906101000a900473ffffffffffffffffffffffffffffffffffffffff16836040518363ffffffff1660e01b8152600401612b1d929190613fb8565b6020604051808303815f875af1158015612b39573d5f5f3e3d5ffd5b505050506040513d601f19601f82011682018060405250810190612b5d91906140a8565b5060085f9054906101000a900473ffffffffffffffffffffffffffffffffffffffff1673ffffffffffffffffffffffffffffffffffffffff166347e7ef2483836040518363ffffffff1660e01b8152600401612bba929190613fb8565b5f604051808303815f87803b158015612bd1575f5ffd5b505af1158015612be3573d5f5f3e3d5ffd5b505050505b7f312e2def0b1ae52334b8d967d371c7afe0625e9a3f4f70810e79cf351fe2a5a930833384604051612c1d9493929190614144565b60405180910390a15050565b60085f9054906101000a900473ffffffffffffffffffffffffffffffffffffffff1673ffffffffffffffffffffffffffffffffffffffff16636c025ec28484846040518463ffffffff1660e01b8152600401612c87939291906143a1565b5f604051808303815f87803b158015612c9e575f5ffd5b505af1158015612cb0573d5f5f3e3d5ffd5b50505050505050565b5f612d1a826040518060400160405280602081526020017f5361666545524332303a206c6f772d6c6576656c2063616c6c206661696c65648152508573ffffffffffffffffffffffffffffffffffffffff16612f4c9092919063ffffffff16565b90505f81511480612d3b575080806020019051810190612d3a91906140a8565b5b612d7a576040517f08c379a0000000000000000000000000000000000000000000000000000000008152600401612d7190614446565b60405180910390fd5b505050565b5f810315612e28575f3373ffffffffffffffffffffffffffffffffffffffff1682604051612dac9061380e565b5f6040518083038185875af1925050503d805f8114612de6576040519150601f19603f3d011682016040523d82523d5f602084013e612deb565b606091505b5050905080612e26576040517ff0c49d4400000000000000000000000000000000000000000000000000000000815260040160405180910390fd5b505b50565b612eae846323b872dd60e01b858585604051602401612e4c93929190613888565b604051602081830303815290604052907bffffffffffffffffffffffffffffffffffffffffffffffffffffffff19166020820180517bffffffffffffffffffffffffffffffffffffffffffffffffffffffff8381831617835250505050612cb9565b50505050565b60607f92fd13387c7fe7befbc38d303d6468778fb9731bc4583f17d92989c6fcfdeaaa82604051602401612ee8919061447e565b604051602081830303815290604052907bffffffffffffffffffffffffffffffffffffffffffffffffffffffff19166020820180517bffffffffffffffffffffffffffffffffffffffffffffffffffffffff83818316178352505050509050919050565b6060612f5a84845f85612f63565b90509392505050565b606082471015612fa8576040517f08c379a0000000000000000000000000000000000000000000000000000000008152600401612f9f90614507565b60405180910390fd5b5f5f8673ffffffffffffffffffffffffffffffffffffffff168587604051612fd09190614555565b5f6040518083038185875af1925050503d805f811461300a576040519150601f19603f3d011682016040523d82523d5f602084013e61300f565b606091505b50915091506130208783838761302c565b92505050949350505050565b6060831561308d575f83510361308557613045856130a0565b613084576040517f08c379a000000000000000000000000000000000000000000000000000000000815260040161307b906145b5565b60405180910390fd5b5b829050613098565b61309783836130c2565b5b949350505050565b5f5f8273ffffffffffffffffffffffffffffffffffffffff163b119050919050565b5f825111156130d45781518083602001fd5b806040517f08c379a00000000000000000000000000000000000000000000000000000000081526004016131089190614615565b60405180910390fd5b6040518061012001604052805f81526020015f81526020015f81526020015f81526020015f73ffffffffffffffffffffffffffffffffffffffff1681526020015f67ffffffffffffffff1681526020015f63ffffffff1681526020015f81526020015f151581525090565b5f5ffd5b5f5ffd5b5f819050919050565b61319681613184565b81146131a0575f5ffd5b50565b5f813590506131b18161318d565b92915050565b5f5ffd5b5f5ffd5b5f5ffd5b5f5f83601f8401126131d8576131d76131b7565b5b8235905067ffffffffffffffff8111156131f5576131f46131bb565b5b602083019150836020820283011115613211576132106131bf565b5b9250929050565b5f5f5f6040848603121561322f5761322e61317c565b5b5f61323c868287016131a3565b935050602084013567ffffffffffffffff81111561325d5761325c613180565b5b613269868287016131c3565b92509250509250925092565b5f73ffffffffffffffffffffffffffffffffffffffff82169050919050565b5f61329e82613275565b9050919050565b6132ae81613294565b82525050565b5f6020820190506132c75f8301846132a5565b92915050565b6132d681613294565b81146132e0575f5ffd5b50565b5f813590506132f1816132cd565b92915050565b5f6020828403121561330c5761330b61317c565b5b5f613319848285016132e3565b91505092915050565b5f8115159050919050565b61333681613322565b82525050565b5f60208201905061334f5f83018461332d565b92915050565b61335e81613322565b8114613368575f5ffd5b50565b5f8135905061337981613355565b92915050565b5f63ffffffff82169050919050565b6133978161337f565b81146133a1575f5ffd5b50565b5f813590506133b28161338e565b92915050565b5f5f5f5f5f5f60c087890312156133d2576133d161317c565b5b5f6133df89828a016131a3565b96505060206133f089828a016132e3565b955050604061340189828a0161336b565b945050606061341289828a016133a4565b935050608061342389828a016131a3565b92505060a061343489828a016131a3565b9150509295509295509295565b61344a81613184565b82525050565b61345981613294565b82525050565b5f67ffffffffffffffff82169050919050565b61347b8161345f565b82525050565b61348a8161337f565b82525050565b61349981613322565b82525050565b61012082015f8201516134b45f850182613441565b5060208201516134c76020850182613441565b5060408201516134da6040850182613441565b5060608201516134ed6060850182613441565b5060808201516135006080850182613450565b5060a082015161351360a0850182613472565b5060c082015161352660c0850182613481565b5060e082015161353960e0850182613441565b5061010082015161354e610100850182613490565b50505050565b5f610120820190506135685f83018461349f565b92915050565b61357781613184565b82525050565b5f6020820190506135905f83018461356e565b92915050565b5f819050919050565b5f6135b96135b46135af84613275565b613596565b613275565b9050919050565b5f6135ca8261359f565b9050919050565b5f6135db826135c0565b9050919050565b6135eb816135d1565b82525050565b5f6020820190506136045f8301846135e2565b92915050565b5f613614826135c0565b9050919050565b6136248161360a565b82525050565b5f60208201905061363d5f83018461361b565b92915050565b5f5f604083850312156136595761365861317c565b5b5f613666858286016131a3565b9250506020613677858286016131a3565b9150509250929050565b5f61368b826135c0565b9050919050565b61369b81613681565b82525050565b5f6020820190506136b45f830184613692565b92915050565b5f6040820190506136cd5f8301856132a5565b6136da60208301846132a5565b9392505050565b7f4e487b71000000000000000000000000000000000000000000000000000000005f52601160045260245ffd5b5f6137188261345f565b91506137238361345f565b9250828201905067ffffffffffffffff811115613743576137426136e1565b5b92915050565b5f61376361375e6137598461345f565b613596565b613184565b9050919050565b61377381613749565b82525050565b5f60408201905061378c5f83018561356e565b613799602083018461376a565b9392505050565b5f6137aa82613184565b91506137b583613184565b92508282026137c381613184565b915082820484148315176137da576137d96136e1565b5b5092915050565b5f81905092915050565b50565b5f6137f95f836137e1565b9150613804826137eb565b5f82019050919050565b5f613818826137ee565b9150819050919050565b5f6040820190506138355f83018561356e565b61384260208301846132a5565b9392505050565b5f81519050613857816132cd565b92915050565b5f602082840312156138725761387161317c565b5b5f61387f84828501613849565b91505092915050565b5f60608201905061389b5f8301866132a5565b6138a860208301856132a5565b6138b5604083018461356e565b949350505050565b5f819050919050565b5f6138e06138db6138d6846138bd565b613596565b613184565b9050919050565b6138f0816138c6565b82525050565b5f6020820190506139095f8301846138e7565b92915050565b7f4e487b71000000000000000000000000000000000000000000000000000000005f52601260045260245ffd5b5f61394682613184565b915061395183613184565b9250826139615761396061390f565b5b828204905092915050565b6139758161337f565b82525050565b5f60e08201905061398e5f83018a61356e565b61399b60208301896132a5565b6139a8604083018861332d565b6139b5606083018761396c565b6139c2608083018661356e565b6139cf60a083018561356e565b6139dc60c083018461356e565b98975050505050505050565b5f82825260208201905092915050565b7f4d7573742062652070726f706f736564206f776e6572000000000000000000005f82015250565b5f613a2c6016836139e8565b9150613a37826139f8565b602082019050919050565b5f6020820190508181035f830152613a5981613a20565b9050919050565b5f606082019050613a735f8301866132a5565b613a8060208301856132a5565b613a8d60408301846132a5565b949350505050565b5f69ffffffffffffffffffff82169050919050565b613ab381613a95565b8114613abd575f5ffd5b50565b5f81519050613ace81613aaa565b92915050565b5f819050919050565b613ae681613ad4565b8114613af0575f5ffd5b50565b5f81519050613b0181613add565b92915050565b5f81519050613b158161318d565b92915050565b5f5f5f5f5f60a08688031215613b3457613b3361317c565b5b5f613b4188828901613ac0565b9550506020613b5288828901613af3565b9450506040613b6388828901613b07565b9350506060613b7488828901613b07565b9250506080613b8588828901613ac0565b9150509295509295909350565b5f613b9c82613184565b9150613ba783613184565b9250828201905080821115613bbf57613bbe6136e1565b5b92915050565b7f4e487b71000000000000000000000000000000000000000000000000000000005f52604160045260245ffd5b5f613bfc82613ad4565b91507f80000000000000000000000000000000000000000000000000000000000000008203613c2e57613c2d6136e1565b5b815f039050919050565b7f4e487b71000000000000000000000000000000000000000000000000000000005f52603260045260245ffd5b5f613c6f82613184565b9150613c7a83613184565b925082613c8a57613c8961390f565b5b828206905092915050565b5f613c9f82613ad4565b9150613caa83613ad4565b92508282019050828112155f8312168382125f841215161715613cd057613ccf6136e1565b5b92915050565b5f613ce082613ad4565b9150613ceb83613ad4565b925082820390508181125f8412168282135f851215161715613d1057613d0f6136e1565b5b92915050565b5f613d208261337f565b9150613d2b8361337f565b9250828203905063ffffffff811115613d4757613d466136e1565b5b92915050565b5f81519050919050565b5f82825260208201905092915050565b5f819050602082019050919050565b5f60ff82169050919050565b613d8b81613d76565b82525050565b5f613d9c8383613d82565b60208301905092915050565b5f602082019050919050565b5f613dbe82613d4d565b613dc88185613d57565b9350613dd383613d67565b805f5b83811015613e03578151613dea8882613d91565b9750613df583613da8565b925050600181019050613dd6565b5085935050505092915050565b5f81519050919050565b5f82825260208201905092915050565b5f819050602082019050919050565b5f613e448383613441565b60208301905092915050565b5f602082019050919050565b5f613e6682613e10565b613e708185613e1a565b9350613e7b83613e2a565b805f5b83811015613eab578151613e928882613e39565b9750613e9d83613e50565b925050600181019050613e7e565b5085935050505092915050565b5f60c082019050613ecb5f83018961356e565b613ed8602083018861356e565b613ee560408301876132a5565b8181036060830152613ef78186613db4565b90508181036080830152613f0b8185613e5c565b9050613f1a60a083018461396c565b979650505050505050565b7f5265656e7472616e637947756172643a207265656e7472616e742063616c6c005f82015250565b5f613f59601f836139e8565b9150613f6482613f25565b602082019050919050565b5f6020820190508181035f830152613f8681613f4d565b9050919050565b5f60208284031215613fa257613fa161317c565b5b5f613faf84828501613b07565b91505092915050565b5f604082019050613fcb5f8301856132a5565b613fd8602083018461356e565b9392505050565b7f496e73756666696369656e742062616e6b726f6c6c20666f72206d61782070615f8201527f796f757400000000000000000000000000000000000000000000000000000000602082015250565b5f6140396024836139e8565b915061404482613fdf565b604082019050919050565b5f6020820190508181035f8301526140668161402d565b9050919050565b5f6040820190506140805f83018561356e565b61408d602083018461356e565b9392505050565b5f815190506140a281613355565b92915050565b5f602082840312156140bd576140bc61317c565b5b5f6140ca84828501614094565b91505092915050565b5f5f604083850312156140e9576140e861317c565b5b5f6140f685828601614094565b925050602061410785828601613b07565b9150509250929050565b5f61411b82613184565b915061412683613184565b925082820390508181111561413e5761413d6136e1565b5b92915050565b5f6080820190506141575f8301876132a5565b61416460208301866132a5565b61417160408301856132a5565b61417e606083018461356e565b95945050505050565b5f819050919050565b61419981614187565b82525050565b5f61ffff82169050919050565b6141b58161419f565b82525050565b5f81519050919050565b5f82825260208201905092915050565b8281835e5f83830152505050565b5f601f19601f8301169050919050565b5f6141fd826141bb565b61420781856141c5565b93506142178185602086016141d5565b614220816141e3565b840191505092915050565b5f60c083015f8301516142405f860182614190565b5060208301516142536020860182613441565b50604083015161426660408601826141ac565b5060608301516142796060860182613481565b50608083015161428c6080860182613481565b5060a083015184820360a08601526142a482826141f3565b9150508091505092915050565b5f6020820190508181035f8301526142c9818461422b565b905092915050565b7f4f6e6c792063616c6c61626c65206279206f776e6572000000000000000000005f82015250565b5f6143056016836139e8565b9150614310826142d1565b602082019050919050565b5f6020820190508181035f830152614332816142f9565b9050919050565b7f43616e6e6f74207472616e7366657220746f2073656c660000000000000000005f82015250565b5f61436d6017836139e8565b915061437882614339565b602082019050919050565b5f6020820190508181035f83015261439a81614361565b9050919050565b5f6060820190506143b45f8301866132a5565b6143c1602083018561356e565b6143ce60408301846132a5565b949350505050565b7f5361666545524332303a204552433230206f7065726174696f6e20646964206e5f8201527f6f74207375636365656400000000000000000000000000000000000000000000602082015250565b5f614430602a836139e8565b915061443b826143d6565b604082019050919050565b5f6020820190508181035f83015261445d81614424565b9050919050565b602082015f8201516144785f850182613490565b50505050565b5f6020820190506144915f830184614464565b92915050565b7f416464726573733a20696e73756666696369656e742062616c616e636520666f5f8201527f722063616c6c0000000000000000000000000000000000000000000000000000602082015250565b5f6144f16026836139e8565b91506144fc82614497565b604082019050919050565b5f6020820190508181035f83015261451e816144e5565b9050919050565b5f61452f826141bb565b61453981856137e1565b93506145498185602086016141d5565b80840191505092915050565b5f6145608284614525565b915081905092915050565b7f416464726573733a2063616c6c20746f206e6f6e2d636f6e74726163740000005f82015250565b5f61459f601d836139e8565b91506145aa8261456b565b602082019050919050565b5f6020820190508181035f8301526145cc81614593565b9050919050565b5f81519050919050565b5f6145e7826145d3565b6145f181856139e8565b93506146018185602086016141d5565b61460a816141e3565b840191505092915050565b5f6020820190508181035f83015261462d81846145dd565b90509291505056fea2646970667358221220e5abe778d209c749753c1964202fcea6f8120f692260b6ed276384e5b6bc297f64736f6c634300081c0033","linkReferences":{}},"methodIdentifiers":{"Bankroll()":"d0bcfc0c","CoinFlip_GetState(address)":"7df31284","CoinFlip_Play(uint256,address,bool,uint32,uint256,uint256)":"6d974773","CoinFlip_Refund()":"522d2c24","LINK_ETH_FEED()":"ad178361","VRFFees()":"8d7c16d2","_trustedForwarder()":"56c022bb","acceptOwnership()":"79ba5097","getVRFFee(uint256,uint256)":"baaa3edf","isTrustedForwarder(address)":"572b6c05","owner()":"8da5cb5b","rawFulfillRandomWords(uint256,uint256[])":"1fe543e3","s_vrfCoordinator()":"9eccacf6","setBankroll(address)":"bde8a93e","setCoordinator(address)":"8ea98117","transferFees(address)":"63dc4ef5","transferOwnership(address)":"f2fde38b"},"id":2}