{"abi":[{"type":"constructor","inputs":[{"name":"_bankroll","type":"address","internalType":"address"},{"name":"_vrf","type":"address","internalType":"address"},{"name":"link_eth_feed","type":"address","internalType":"address"},{"name":"_forwarder","type":"address","internalType":"address"}],"stateMutability":"nonpayable"},{"type":"function","name":"Bankroll","inputs":[],"outputs":[{"name":"","type":"address","internalType":"contract IBankRoll"}],"stateMutability":"view"},{"type":"function","name":"Blackjack_GetState","inputs":[{"name":"player","type":"address","internalType":"address"}],"outputs":[{"name":"","type":"tuple","internalType":"struct Blackjack.BlackjackGame","components":[{"name":"wager","type":"uint256","internalType":"uint256"},{"name":"requestID","type":"uint256","internalType":"uint256"},{"name":"tokenAddress","type":"address","internalType":"address"},{"name":"blockNumber","type":"uint64","internalType":"uint64"},{"name":"playerCards","type":"uint8[10]","internalType":"uint8[10]"},{"name":"dealerCards","type":"uint8[10]","internalType":"uint8[10]"},{"name":"playerCardCount","type":"uint8","internalType":"uint8"},{"name":"dealerCardCount","type":"uint8","internalType":"uint8"},{"name":"playerScore","type":"uint8","internalType":"uint8"},{"name":"dealerScore","type":"uint8","internalType":"uint8"},{"name":"playerBust","type":"bool","internalType":"bool"},{"name":"dealerBust","type":"bool","internalType":"bool"},{"name":"playerStand","type":"bool","internalType":"bool"},{"name":"gameActive","type":"bool","internalType":"bool"},{"name":"isInitialDeal","type":"bool","internalType":"bool"}]}],"stateMutability":"view"},{"type":"function","name":"Blackjack_Hit","inputs":[],"outputs":[],"stateMutability":"payable"},{"type":"function","name":"Blackjack_Refund","inputs":[],"outputs":[],"stateMutability":"nonpayable"},{"type":"function","name":"Blackjack_Stand","inputs":[],"outputs":[],"stateMutability":"nonpayable"},{"type":"function","name":"Blackjack_Start","inputs":[{"name":"wager","type":"uint256","internalType":"uint256"},{"name":"tokenAddress","type":"address","internalType":"address"}],"outputs":[],"stateMutability":"payable"},{"type":"function","name":"LINK_ETH_FEED","inputs":[],"outputs":[{"name":"","type":"address","internalType":"contract IDecimalAggregator"}],"stateMutability":"view"},{"type":"function","name":"VRFFees","inputs":[],"outputs":[{"name":"","type":"uint256","internalType":"uint256"}],"stateMutability":"view"},{"type":"function","name":"_trustedForwarder","inputs":[],"outputs":[{"name":"","type":"address","internalType":"address"}],"stateMutability":"view"},{"type":"function","name":"acceptOwnership","inputs":[],"outputs":[],"stateMutability":"nonpayable"},{"type":"function","name":"getVRFFee","inputs":[{"name":"gasAmount","type":"uint256","internalType":"uint256"},{"name":"l1Multiplier","type":"uint256","internalType":"uint256"}],"outputs":[{"name":"fee","type":"uint256","internalType":"uint256"}],"stateMutability":"view"},{"type":"function","name":"isTrustedForwarder","inputs":[{"name":"forwarder","type":"address","internalType":"address"}],"outputs":[{"name":"","type":"bool","internalType":"bool"}],"stateMutability":"view"},{"type":"function","name":"owner","inputs":[],"outputs":[{"name":"","type":"address","internalType":"address"}],"stateMutability":"view"},{"type":"function","name":"rawFulfillRandomWords","inputs":[{"name":"requestId","type":"uint256","internalType":"uint256"},{"name":"randomWords","type":"uint256[]","internalType":"uint256[]"}],"outputs":[],"stateMutability":"nonpayable"},{"type":"function","name":"s_vrfCoordinator","inputs":[],"outputs":[{"name":"","type":"address","internalType":"contract IVRFCoordinatorV2Plus"}],"stateMutability":"view"},{"type":"function","name":"setBankroll","inputs":[{"name":"_bankRoll","type":"address","internalType":"address"}],"outputs":[],"stateMutability":"nonpayable"},{"type":"function","name":"setCoordinator","inputs":[{"name":"_vrfCoordinator","type":"address","internalType":"address"}],"outputs":[],"stateMutability":"nonpayable"},{"type":"function","name":"transferFees","inputs":[{"name":"to","type":"address","internalType":"address"}],"outputs":[],"stateMutability":"nonpayable"},{"type":"function","name":"transferOwnership","inputs":[{"name":"to","type":"address","internalType":"address"}],"outputs":[],"stateMutability":"nonpayable"},{"type":"event","name":"Blackjack_Hit_Event","inputs":[{"name":"playerAddress","type":"address","indexed":true,"internalType":"address"},{"name":"newCard","type":"uint8","indexed":false,"internalType":"uint8"},{"name":"playerScore","type":"uint8","indexed":false,"internalType":"uint8"},{"name":"bust","type":"bool","indexed":false,"internalType":"bool"},{"name":"VRFFee","type":"uint256","indexed":false,"internalType":"uint256"}],"anonymous":false},{"type":"event","name":"Blackjack_Outcome_Event","inputs":[{"name":"playerAddress","type":"address","indexed":true,"internalType":"address"},{"name":"wager","type":"uint256","indexed":false,"internalType":"uint256"},{"name":"payout","type":"uint256","indexed":false,"internalType":"uint256"},{"name":"tokenAddress","type":"address","indexed":false,"internalType":"address"},{"name":"finalPlayerScore","type":"uint8","indexed":false,"internalType":"uint8"},{"name":"finalDealerScore","type":"uint8","indexed":false,"internalType":"uint8"},{"name":"playerWin","type":"bool","indexed":false,"internalType":"bool"},{"name":"push","type":"bool","indexed":false,"internalType":"bool"}],"anonymous":false},{"type":"event","name":"Blackjack_Refund_Event","inputs":[{"name":"player","type":"address","indexed":true,"internalType":"address"},{"name":"wager","type":"uint256","indexed":false,"internalType":"uint256"},{"name":"tokenAddress","type":"address","indexed":false,"internalType":"address"}],"anonymous":false},{"type":"event","name":"Blackjack_Start_Event","inputs":[{"name":"playerAddress","type":"address","indexed":true,"internalType":"address"},{"name":"wager","type":"uint256","indexed":false,"internalType":"uint256"},{"name":"tokenAddress","type":"address","indexed":false,"internalType":"address"},{"name":"playerCards","type":"uint8[2]","indexed":false,"internalType":"uint8[2]"},{"name":"dealerUpCard","type":"uint8","indexed":false,"internalType":"uint8"},{"name":"playerScore","type":"uint8","indexed":false,"internalType":"uint8"},{"name":"VRFFee","type":"uint256","indexed":false,"internalType":"uint256"}],"anonymous":false},{"type":"event","name":"CoordinatorSet","inputs":[{"name":"vrfCoordinator","type":"address","indexed":false,"internalType":"address"}],"anonymous":false},{"type":"event","name":"FeeTransferred","inputs":[{"name":"game","type":"address","indexed":false,"internalType":"address"},{"name":"player","type":"address","indexed":false,"internalType":"address"},{"name":"amount","type":"uint256","indexed":false,"internalType":"uint256"}],"anonymous":false},{"type":"event","name":"OwnershipTransferRequested","inputs":[{"name":"from","type":"address","indexed":true,"internalType":"address"},{"name":"to","type":"address","indexed":true,"internalType":"address"}],"anonymous":false},{"type":"event","name":"OwnershipTransferred","inputs":[{"name":"from","type":"address","indexed":true,"internalType":"address"},{"name":"to","type":"address","indexed":true,"internalType":"address"}],"anonymous":false},{"type":"event","name":"WagerTransferred","inputs":[{"name":"game","type":"address","indexed":false,"internalType":"address"},{"name":"token","type":"address","indexed":false,"internalType":"address"},{"name":"player","type":"address","indexed":false,"internalType":"address"},{"name":"amount","type":"uint256","indexed":false,"internalType":"uint256"}],"anonymous":false},{"type":"error","name":"AlreadyInGame","inputs":[]},{"type":"error","name":"AwaitingVRF","inputs":[{"name":"requestID","type":"uint256","internalType":"uint256"}]},{"type":"error","name":"BlockNumberTooLow","inputs":[{"name":"have","type":"uint256","internalType":"uint256"},{"name":"want","type":"uint256","internalType":"uint256"}]},{"type":"error","name":"GameNotActive","inputs":[]},{"type":"error","name":"InvalidValue","inputs":[{"name":"required","type":"uint256","internalType":"uint256"},{"name":"sent","type":"uint256","internalType":"uint256"}]},{"type":"error","name":"NoRequestPending","inputs":[]},{"type":"error","name":"NotApprovedBankroll","inputs":[]},{"type":"error","name":"NotInGame","inputs":[]},{"type":"error","name":"NotOwner","inputs":[{"name":"want","type":"address","internalType":"address"},{"name":"have","type":"address","internalType":"address"}]},{"type":"error","name":"OnlyCoordinatorCanFulfill","inputs":[{"name":"have","type":"address","internalType":"address"},{"name":"want","type":"address","internalType":"address"}]},{"type":"error","name":"OnlyOwnerOrCoordinator","inputs":[{"name":"have","type":"address","internalType":"address"},{"name":"owner","type":"address","internalType":"address"},{"name":"coordinator","type":"address","internalType":"address"}]},{"type":"error","name":"PlayerAlreadyStood","inputs":[]},{"type":"error","name":"PlayerSuspended","inputs":[{"name":"suspensionTime","type":"uint256","internalType":"uint256"}]},{"type":"error","name":"RefundFailed","inputs":[]},{"type":"error","name":"TransferFailed","inputs":[]},{"type":"error","name":"WagerAboveLimit","inputs":[{"name":"wager","type":"uint256","internalType":"uint256"},{"name":"maxWager","type":"uint256","internalType":"uint256"}]},{"type":"error","name":"ZeroAddress","inputs":[]},{"type":"error","name":"ZeroWager","inputs":[]}],"bytecode":{"object":"0x60806040527fabb65d5c6f9c8a5a1d2af242cbb644ce2157e5f9ca410a33e28106c9f1f3e9cc600a557f1770bdc7eec7771f7ba4ffd640f34260d7f095b79c92d34a5b2551d6f6cfd2be5f1b600b556003600c5f6101000a81548161ffff021916908361ffff160217905550622625a0600c60026101000a81548163ffffffff021916908363ffffffff16021790555034801561009a575f5ffd5b5060405161574938038061574983398181016040528101906100bc9190610534565b8233805f60015f819055505f73ffffffffffffffffffffffffffffffffffffffff168273ffffffffffffffffffffffffffffffffffffffff1603610135576040517f08c379a000000000000000000000000000000000000000000000000000000000815260040161012c906105f2565b60405180910390fd5b8160015f6101000a81548173ffffffffffffffffffffffffffffffffffffffff021916908373ffffffffffffffffffffffffffffffffffffffff1602179055505f73ffffffffffffffffffffffffffffffffffffffff168173ffffffffffffffffffffffffffffffffffffffff16146101b8576101b7816103aa60201b60201c565b5b5050505f73ffffffffffffffffffffffffffffffffffffffff168173ffffffffffffffffffffffffffffffffffffffff1603610220576040517fd92e233d00000000000000000000000000000000000000000000000000000000815260040160405180910390fd5b8060035f6101000a81548173ffffffffffffffffffffffffffffffffffffffff021916908373ffffffffffffffffffffffffffffffffffffffff160217905550508360085f6101000a81548173ffffffffffffffffffffffffffffffffffffffff021916908373ffffffffffffffffffffffffffffffffffffffff1602179055508260055f6101000a81548173ffffffffffffffffffffffffffffffffffffffff021916908373ffffffffffffffffffffffffffffffffffffffff1602179055508260095f6101000a81548173ffffffffffffffffffffffffffffffffffffffff021916908373ffffffffffffffffffffffffffffffffffffffff1602179055508160075f6101000a81548173ffffffffffffffffffffffffffffffffffffffff021916908373ffffffffffffffffffffffffffffffffffffffff1602179055508060065f6101000a81548173ffffffffffffffffffffffffffffffffffffffff021916908373ffffffffffffffffffffffffffffffffffffffff16021790555050505050610678565b3373ffffffffffffffffffffffffffffffffffffffff168173ffffffffffffffffffffffffffffffffffffffff1603610418576040517f08c379a000000000000000000000000000000000000000000000000000000000815260040161040f9061065a565b60405180910390fd5b8060025f6101000a81548173ffffffffffffffffffffffffffffffffffffffff021916908373ffffffffffffffffffffffffffffffffffffffff1602179055508073ffffffffffffffffffffffffffffffffffffffff1660015f9054906101000a900473ffffffffffffffffffffffffffffffffffffffff1673ffffffffffffffffffffffffffffffffffffffff167fed8889f560326eb138920d842192f0eb3dd22b4f139c87a2c57538e05bae127860405160405180910390a350565b5f5ffd5b5f73ffffffffffffffffffffffffffffffffffffffff82169050919050565b5f610503826104da565b9050919050565b610513816104f9565b811461051d575f5ffd5b50565b5f8151905061052e8161050a565b92915050565b5f5f5f5f6080858703121561054c5761054b6104d6565b5b5f61055987828801610520565b945050602061056a87828801610520565b935050604061057b87828801610520565b925050606061058c87828801610520565b91505092959194509250565b5f82825260208201905092915050565b7f43616e6e6f7420736574206f776e657220746f207a65726f00000000000000005f82015250565b5f6105dc601883610598565b91506105e7826105a8565b602082019050919050565b5f6020820190508181035f830152610609816105d0565b9050919050565b7f43616e6e6f74207472616e7366657220746f2073656c660000000000000000005f82015250565b5f610644601783610598565b915061064f82610610565b602082019050919050565b5f6020820190508181035f83015261067181610638565b9050919050565b6150c4806106855f395ff3fe608060405260043610610113575f3560e01c80638da5cb5b1161009f578063bde8a93e11610063578063bde8a93e1461035d578063d0bcfc0c14610385578063e7d7fa9e146103af578063f0030eb7146103c5578063f2fde38b146103cf57610113565b80638da5cb5b1461027b5780638ea98117146102a55780639eccacf6146102cd578063ad178361146102f7578063baaa3edf1461032157610113565b8063572b6c05116100e6578063572b6c05146101c157806363dc4ef5146101fd578063738207721461022557806379ba50971461023b5780638d7c16d21461025157610113565b80631fe543e3146101175780632cea51551461013f578063421486331461017b57806356c022bb14610197575b5f5ffd5b348015610122575f5ffd5b5061013d60048036038101906101389190613c9a565b6103f7565b005b34801561014a575f5ffd5b5061016560048036038101906101609190613d51565b6104bb565b6040516101729190613fbd565b60405180910390f35b61019560048036038101906101909190613fd7565b610779565b005b3480156101a2575f5ffd5b506101ab610ae3565b6040516101b89190614024565b60405180910390f35b3480156101cc575f5ffd5b506101e760048036038101906101e29190613d51565b610b08565b6040516101f4919061404c565b60405180910390f35b348015610208575f5ffd5b50610223600480360381019061021e9190613d51565b610b60565b005b348015610230575f5ffd5b50610239610de8565b005b348015610246575f5ffd5b5061024f610f00565b005b34801561025c575f5ffd5b50610265611091565b6040516102729190614074565b60405180910390f35b348015610286575f5ffd5b5061028f611097565b60405161029c9190614024565b60405180910390f35b3480156102b0575f5ffd5b506102cb60048036038101906102c69190613d51565b6110bf565b005b3480156102d8575f5ffd5b506102e161129c565b6040516102ee91906140e8565b60405180910390f35b348015610302575f5ffd5b5061030b6112c1565b6040516103189190614121565b60405180910390f35b34801561032c575f5ffd5b506103476004803603810190610342919061413a565b6112e6565b6040516103549190614074565b60405180910390f35b348015610368575f5ffd5b50610383600480360381019061037e9190613d51565b6113ed565b005b348015610390575f5ffd5b50610399611438565b6040516103a69190614198565b60405180910390f35b3480156103ba575f5ffd5b506103c361145d565b005b6103cd6118d5565b005b3480156103da575f5ffd5b506103f560048036038101906103f09190613d51565b611b0e565b005b60035f9054906101000a900473ffffffffffffffffffffffffffffffffffffffff1673ffffffffffffffffffffffffffffffffffffffff163373ffffffffffffffffffffffffffffffffffffffff16146104ab573360035f9054906101000a900473ffffffffffffffffffffffffffffffffffffffff166040517f1cf993f40000000000000000000000000000000000000000000000000000000081526004016104a29291906141b1565b60405180910390fd5b6104b6838383611b22565b505050565b6104c3613b2a565b600d5f8373ffffffffffffffffffffffffffffffffffffffff1673ffffffffffffffffffffffffffffffffffffffff1681526020019081526020015f20604051806101e00160405290815f820154815260200160018201548152602001600282015f9054906101000a900473ffffffffffffffffffffffffffffffffffffffff1673ffffffffffffffffffffffffffffffffffffffff1673ffffffffffffffffffffffffffffffffffffffff1681526020016002820160149054906101000a900467ffffffffffffffff1667ffffffffffffffff1667ffffffffffffffff16815260200160038201600a806020026040519081016040528092919082600a8015610606576020028201915f905b82829054906101000a900460ff1660ff16815260200190600101906020825f010492830192600103820291508084116105d05790505b5050505050815260200160048201600a806020026040519081016040528092919082600a801561066f576020028201915f905b82829054906101000a900460ff1660ff16815260200190600101906020825f010492830192600103820291508084116106395790505b50505050508152602001600582015f9054906101000a900460ff1660ff1660ff1681526020016005820160019054906101000a900460ff1660ff1660ff1681526020016005820160029054906101000a900460ff1660ff1660ff1681526020016005820160039054906101000a900460ff1660ff1660ff1681526020016005820160049054906101000a900460ff161515151581526020016005820160059054906101000a900460ff161515151581526020016005820160069054906101000a900460ff161515151581526020016005820160079054906101000a900460ff161515151581526020016005820160089054906101000a900460ff1615151515815250509050919050565b610781612088565b5f61078a6120d5565b90505f600d5f8373ffffffffffffffffffffffffffffffffffffffff1673ffffffffffffffffffffffffffffffffffffffff1681526020019081526020015f2090505f8160010154146108185780600101546040517f440db96e00000000000000000000000000000000000000000000000000000000815260040161080f9190614074565b60405180910390fd5b8060050160079054906101000a900460ff1615610861576040517fc56fb25300000000000000000000000000000000000000000000000000000000815260040160405180910390fd5b61086b848461210a565b5f61087d8486620927c0601c87612288565b90505f61088a600361275e565b905085835f018190555084836002015f6101000a81548173ffffffffffffffffffffffffffffffffffffffff021916908373ffffffffffffffffffffffffffffffffffffffff1602179055508083600101819055506108e761287a565b8360020160146101000a81548167ffffffffffffffff021916908367ffffffffffffffff16021790555060018360050160076101000a81548160ff02191690831515021790555060018360050160086101000a81548160ff0219169083151502179055505f836005015f6101000a81548160ff021916908360ff1602179055505f8360050160016101000a81548160ff021916908360ff1602179055505f8360050160026101000a81548160ff021916908360ff1602179055505f8360050160036101000a81548160ff021916908360ff1602179055505f8360050160046101000a81548160ff0219169083151502179055505f8360050160056101000a81548160ff0219169083151502179055505f8360050160066101000a81548160ff02191690831515021790555083600e5f8381526020019081526020015f205f6101000a81548173ffffffffffffffffffffffffffffffffffffffff021916908373ffffffffffffffffffffffffffffffffffffffff1602179055508373ffffffffffffffffffffffffffffffffffffffff167f50068b7e112850f2efa5b64f94375ed6450c48e1735fc5158531c3d0b601a11b878760405180604001604052805f60ff1681526020015f60ff168152505f5f88604051610acb96959493929190614290565b60405180910390a250505050610adf612914565b5050565b60065f9054906101000a900473ffffffffffffffffffffffffffffffffffffffff1681565b5f60065f9054906101000a900473ffffffffffffffffffffffffffffffffffffffff1673ffffffffffffffffffffffffffffffffffffffff168273ffffffffffffffffffffffffffffffffffffffff16149050919050565b610b68612088565b60085f9054906101000a900473ffffffffffffffffffffffffffffffffffffffff1673ffffffffffffffffffffffffffffffffffffffff1663893d20e86040518163ffffffff1660e01b8152600401602060405180830381865afa158015610bd2573d5f5f3e3d5ffd5b505050506040513d601f19601f82011682018060405250810190610bf69190614303565b73ffffffffffffffffffffffffffffffffffffffff163373ffffffffffffffffffffffffffffffffffffffff1614610cf45760085f9054906101000a900473ffffffffffffffffffffffffffffffffffffffff1673ffffffffffffffffffffffffffffffffffffffff1663893d20e86040518163ffffffff1660e01b8152600401602060405180830381865afa158015610c92573d5f5f3e3d5ffd5b505050506040513d601f19601f82011682018060405250810190610cb69190614303565b336040517f23295f0e000000000000000000000000000000000000000000000000000000008152600401610ceb9291906141b1565b60405180910390fd5b5f60045490505f6004819055505f8273ffffffffffffffffffffffffffffffffffffffff1682604051610d269061435b565b5f6040518083038185875af1925050503d805f8114610d60576040519150601f19603f3d011682016040523d82523d5f602084013e610d65565b606091505b5050905080610da0576040517f90b8ec1800000000000000000000000000000000000000000000000000000000815260040160405180910390fd5b7f1d6298f49fc15449b78df91fcca6812136edc2972366cb70aa0d9145a308cd31308484604051610dd39392919061436f565b60405180910390a15050610de5612914565b50565b610df0612088565b5f610df96120d5565b90505f600d5f8373ffffffffffffffffffffffffffffffffffffffff1673ffffffffffffffffffffffffffffffffffffffff1681526020019081526020015f2090508060050160079054906101000a900460ff16610e82576040517ea3097100000000000000000000000000000000000000000000000000000000815260040160405180910390fd5b5f816001015414610ece5780600101546040517f440db96e000000000000000000000000000000000000000000000000000000008152600401610ec59190614074565b60405180910390fd5b60018160050160066101000a81548160ff021916908315150217905550610ef48261291d565b5050610efe612914565b565b60025f9054906101000a900473ffffffffffffffffffffffffffffffffffffffff1673ffffffffffffffffffffffffffffffffffffffff163373ffffffffffffffffffffffffffffffffffffffff1614610f8f576040517f08c379a0000000000000000000000000000000000000000000000000000000008152600401610f86906143fe565b60405180910390fd5b5f60015f9054906101000a900473ffffffffffffffffffffffffffffffffffffffff1690503360015f6101000a81548173ffffffffffffffffffffffffffffffffffffffff021916908373ffffffffffffffffffffffffffffffffffffffff1602179055505f60025f6101000a81548173ffffffffffffffffffffffffffffffffffffffff021916908373ffffffffffffffffffffffffffffffffffffffff1602179055503373ffffffffffffffffffffffffffffffffffffffff168173ffffffffffffffffffffffffffffffffffffffff167f8be0079c531659141344cd1fd0a4f28419497f9722a3daafe3b4186f6b6457e060405160405180910390a350565b60045481565b5f60015f9054906101000a900473ffffffffffffffffffffffffffffffffffffffff16905090565b6110c7611097565b73ffffffffffffffffffffffffffffffffffffffff163373ffffffffffffffffffffffffffffffffffffffff161415801561114f575060035f9054906101000a900473ffffffffffffffffffffffffffffffffffffffff1673ffffffffffffffffffffffffffffffffffffffff163373ffffffffffffffffffffffffffffffffffffffff1614155b156111bd573361115d611097565b60035f9054906101000a900473ffffffffffffffffffffffffffffffffffffffff166040517f061db9c10000000000000000000000000000000000000000000000000000000081526004016111b49392919061441c565b60405180910390fd5b5f73ffffffffffffffffffffffffffffffffffffffff168173ffffffffffffffffffffffffffffffffffffffff1603611222576040517fd92e233d00000000000000000000000000000000000000000000000000000000815260040160405180910390fd5b8060035f6101000a81548173ffffffffffffffffffffffffffffffffffffffff021916908373ffffffffffffffffffffffffffffffffffffffff1602179055507fd1a6a14209a385a964d036e404cb5cfb71f4000cdb03c9366292430787261be6816040516112919190614024565b60405180910390a150565b60035f9054906101000a900473ffffffffffffffffffffffffffffffffffffffff1681565b60075f9054906101000a900473ffffffffffffffffffffffffffffffffffffffff1681565b5f5f60075f9054906101000a900473ffffffffffffffffffffffffffffffffffffffff1673ffffffffffffffffffffffffffffffffffffffff1663feaf968c6040518163ffffffff1660e01b815260040160a060405180830381865afa158015611352573d5f5f3e3d5ffd5b505050506040513d601f19601f8201168201806040525081019061137691906144d7565b5050509150505f600a84611388612c4a565b611392919061457b565b61139c91906145e9565b9050670de0b6b3a76400008264e8d4a510006113b8919061457b565b6113c291906145e9565b81863a6113cf919061457b565b6113d99190614619565b6113e39190614619565b9250505092915050565b6113f5612ce4565b8060085f6101000a81548173ffffffffffffffffffffffffffffffffffffffff021916908373ffffffffffffffffffffffffffffffffffffffff16021790555050565b60085f9054906101000a900473ffffffffffffffffffffffffffffffffffffffff1681565b611465612088565b5f61146e6120d5565b90505f600d5f8373ffffffffffffffffffffffffffffffffffffffff1673ffffffffffffffffffffffffffffffffffffffff1681526020019081526020015f2090508060050160079054906101000a900460ff166114f8576040517f43050d9600000000000000000000000000000000000000000000000000000000815260040160405180910390fd5b5f816001015403611535576040517f90a7340b00000000000000000000000000000000000000000000000000000000815260040160405180910390fd5b61153d61287a565b67ffffffffffffffff1660c88260020160149054906101000a900467ffffffffffffffff1661156c919061464c565b67ffffffffffffffff1611156115e65761158461287a565b60c88260020160149054906101000a900467ffffffffffffffff166115a9919061464c565b6040517fb4ae675a0000000000000000000000000000000000000000000000000000000081526004016115dd9291906146b7565b60405180910390fd5b5f815f015490505f826002015f9054906101000a900473ffffffffffffffffffffffffffffffffffffffff169050600d5f8573ffffffffffffffffffffffffffffffffffffffff1673ffffffffffffffffffffffffffffffffffffffff1681526020019081526020015f205f5f82015f9055600182015f9055600282015f6101000a81549073ffffffffffffffffffffffffffffffffffffffff02191690556002820160146101000a81549067ffffffffffffffff0219169055600382015f6116af9190613bd5565b600482015f6116be9190613bd5565b600582015f6101000a81549060ff02191690556005820160016101000a81549060ff02191690556005820160026101000a81549060ff02191690556005820160036101000a81549060ff02191690556005820160046101000a81549060ff02191690556005820160056101000a81549060ff02191690556005820160066101000a81549060ff02191690556005820160076101000a81549060ff02191690556005820160086101000a81549060ff021916905550505f73ffffffffffffffffffffffffffffffffffffffff168173ffffffffffffffffffffffffffffffffffffffff160361184b575f8473ffffffffffffffffffffffffffffffffffffffff16836040516117cb9061435b565b5f6040518083038185875af1925050503d805f8114611805576040519150601f19603f3d011682016040523d82523d5f602084013e61180a565b606091505b5050905080611845576040517f90b8ec1800000000000000000000000000000000000000000000000000000000815260040160405180910390fd5b50611877565b61187684838373ffffffffffffffffffffffffffffffffffffffff16612d759092919063ffffffff16565b5b8373ffffffffffffffffffffffffffffffffffffffff167fa4d56b35daa2353acd42f323b82464906b329aba8292680ba23c2f44ab84ea7583836040516118bf9291906146de565b60405180910390a2505050506118d3612914565b565b6118dd612088565b5f6118e66120d5565b90505f600d5f8373ffffffffffffffffffffffffffffffffffffffff1673ffffffffffffffffffffffffffffffffffffffff1681526020019081526020015f2090508060050160079054906101000a900460ff1661196f576040517ea3097100000000000000000000000000000000000000000000000000000000815260040160405180910390fd5b5f8160010154146119bb5780600101546040517f440db96e0000000000000000000000000000000000000000000000000000000081526004016119b29190614074565b60405180910390fd5b8060050160069054906101000a900460ff1615611a04576040517fd236b6ac00000000000000000000000000000000000000000000000000000000815260040160405180910390fd5b5f611a1362061a806014612dfb565b90505f611a20600161275e565b9050808360010181905550611a3361287a565b8360020160146101000a81548167ffffffffffffffff021916908367ffffffffffffffff16021790555083600e5f8381526020019081526020015f205f6101000a81548173ffffffffffffffffffffffffffffffffffffffff021916908373ffffffffffffffffffffffffffffffffffffffff1602179055508373ffffffffffffffffffffffffffffffffffffffff167fdc627d0393f779876868c1c2976d41f2c6e803a56fdf59d957109417ceadbc045f5f5f86604051611af89493929190614705565b60405180910390a250505050611b0c612914565b565b611b16612ce4565b611b1f81612e81565b50565b5f600e5f8581526020019081526020015f205f9054906101000a900473ffffffffffffffffffffffffffffffffffffffff1690505f73ffffffffffffffffffffffffffffffffffffffff168173ffffffffffffffffffffffffffffffffffffffff1603611b8d575f5ffd5b600e5f8581526020019081526020015f205f6101000a81549073ffffffffffffffffffffffffffffffffffffffff02191690555f600d5f8373ffffffffffffffffffffffffffffffffffffffff1673ffffffffffffffffffffffffffffffffffffffff1681526020019081526020015f2090505f81600101819055508060050160089054906101000a900460ff1615611efd57611c4284845f818110611c3657611c35614748565b5b90506020020135612fad565b816003015f600a8110611c5857611c57614748565b5b602091828204019190066101000a81548160ff021916908360ff160217905550611c9b84846001818110611c8f57611c8e614748565b5b90506020020135612fad565b816003016001600a8110611cb257611cb1614748565b5b602091828204019190066101000a81548160ff021916908360ff160217905550611cf584846002818110611ce957611ce8614748565b5b90506020020135612fad565b816004015f600a8110611d0b57611d0a614748565b5b602091828204019190066101000a81548160ff021916908360ff1602179055506002816005015f6101000a81548160ff021916908360ff16021790555060018160050160016101000a81548160ff021916908360ff160217905550611de381600301600a806020026040519081016040528092919082600a8015611dc8576020028201915f905b82829054906101000a900460ff1660ff16815260200190600101906020825f01049283019260010382029150808411611d925790505b5050505050826005015f9054906101000a900460ff16612fea565b8160050160026101000a81548160ff021916908360ff160217905550611e7d81600401600a806020026040519081016040528092919082600a8015611e61576020028201915f905b82829054906101000a900460ff1660ff16815260200190600101906020825f01049283019260010382029150808411611e2b5790505b50505050508260050160019054906101000a900460ff16612fea565b8160050160036101000a81548160ff021916908360ff1602179055505f8160050160086101000a81548160ff02191690831515021790555060158160050160029054906101000a900460ff1660ff1603611ef85760018160050160066101000a81548160ff021916908315150217905550611ef78261291d565b5b612081565b611f1f84845f818110611f1357611f12614748565b5b90506020020135612fad565b81600301826005015f9054906101000a900460ff1660ff16600a8110611f4857611f47614748565b5b602091828204019190066101000a81548160ff021916908360ff160217905550806005015f81819054906101000a900460ff1680929190611f8890614775565b91906101000a81548160ff021916908360ff1602179055505061201e81600301600a806020026040519081016040528092919082600a8015612003576020028201915f905b82829054906101000a900460ff1660ff16815260200190600101906020825f01049283019260010382029150808411611fcd5790505b5050505050826005015f9054906101000a900460ff16612fea565b8160050160026101000a81548160ff021916908360ff16021790555060158160050160029054906101000a900460ff1660ff1611156120805760018160050160046101000a81548160ff02191690831515021790555061207f825f5f6130cc565b5b5b5050505050565b60025f54036120cc576040517f08c379a00000000000000000000000000000000000000000000000000000000081526004016120c3906147e7565b60405180910390fd5b60025f81905550565b5f60145f369050101580156120ef57506120ee33610b08565b5b1561210357601436033560601c9050612107565b3390505b90565b5f5f73ffffffffffffffffffffffffffffffffffffffff168273ffffffffffffffffffffffffffffffffffffffff160361217e5760085f9054906101000a900473ffffffffffffffffffffffffffffffffffffffff1673ffffffffffffffffffffffffffffffffffffffff1631905061221a565b8173ffffffffffffffffffffffffffffffffffffffff166370a0823160085f9054906101000a900473ffffffffffffffffffffffffffffffffffffffff166040518263ffffffff1660e01b81526004016121d89190614024565b602060405180830381865afa1580156121f3573d5f5f3e3d5ffd5b505050506040513d601f19601f820116820180604052508101906122179190614805565b90505b5f6305f5e100620c35008361222f919061457b565b61223991906145e9565b9050808411156122825783816040517fd53662aa000000000000000000000000000000000000000000000000000000008152600401612279929190614830565b60405180910390fd5b50505050565b5f5f85036122c2576040517f07375c8400000000000000000000000000000000000000000000000000000000815260040160405180910390fd5b60085f9054906101000a900473ffffffffffffffffffffffffffffffffffffffff1673ffffffffffffffffffffffffffffffffffffffff1663bfd7f9cc30886040518363ffffffff1660e01b815260040161231e9291906141b1565b602060405180830381865afa158015612339573d5f5f3e3d5ffd5b505050506040513d601f19601f8201168201806040525081019061235d9190614881565b612393576040517f51c3b94f00000000000000000000000000000000000000000000000000000000815260040160405180910390fd5b5f5f60085f9054906101000a900473ffffffffffffffffffffffffffffffffffffffff1673ffffffffffffffffffffffffffffffffffffffff16630a5748a8856040518263ffffffff1660e01b81526004016123ef9190614024565b6040805180830381865afa158015612409573d5f5f3e3d5ffd5b505050506040513d601f19601f8201168201806040525081019061242d91906148ac565b91509150811561247457806040517f6c2775f500000000000000000000000000000000000000000000000000000000815260040161246b9190614074565b60405180910390fd5b61247e86866112e6565b92505f73ffffffffffffffffffffffffffffffffffffffff168873ffffffffffffffffffffffffffffffffffffffff16036125345782876124bf9190614619565b3410156125105782876124d29190614619565b346040517fde9b74a1000000000000000000000000000000000000000000000000000000008152600401612507929190614830565b60405180910390fd5b61252f878461251f9190614619565b3461252a91906148ea565b6133e1565b6125bd565b8234101561257b5782346040517fde9b74a1000000000000000000000000000000000000000000000000000000008152600401612572929190614830565b60405180910390fd5b6125a88430898b73ffffffffffffffffffffffffffffffffffffffff1661348d909392919063ffffffff16565b6125bc83346125b791906148ea565b6133e1565b5b5f60085f9054906101000a900473ffffffffffffffffffffffffffffffffffffffff1673ffffffffffffffffffffffffffffffffffffffff1663133d199a6040518163ffffffff1660e01b8152600401602060405180830381865afa158015612628573d5f5f3e3d5ffd5b505050506040513d601f19601f8201168201806040525081019061264c9190614805565b90505f8111156126fd575f6103e8828a612666919061457b565b61267091906145e9565b905060085f9054906101000a900473ffffffffffffffffffffffffffffffffffffffff1673ffffffffffffffffffffffffffffffffffffffff1663b0e27f7487836040518363ffffffff1660e01b81526004016126ce92919061491d565b5f604051808303815f87803b1580156126e5575f5ffd5b505af11580156126f7573d5f5f3e3d5ffd5b50505050505b8360045f82825461270e9190614619565b925050819055507f312e2def0b1ae52334b8d967d371c7afe0625e9a3f4f70810e79cf351fe2a5a9308a878b60405161274a9493929190614944565b60405180910390a150505095945050505050565b5f60095f9054906101000a900473ffffffffffffffffffffffffffffffffffffffff1673ffffffffffffffffffffffffffffffffffffffff16639b1c385e6040518060c00160405280600b548152602001600a548152602001600c5f9054906101000a900461ffff1661ffff168152602001600c60029054906101000a900463ffffffff1663ffffffff1681526020018563ffffffff168152602001612814604051806020016040528060011515815250613516565b8152506040518263ffffffff1660e01b81526004016128339190614acf565b6020604051808303815f875af115801561284f573d5f5f3e3d5ffd5b505050506040513d601f19601f820116820180604052508101906128739190614805565b9050919050565b5f5f46905061a4b1811480612891575062066eed81145b1561290c57606473ffffffffffffffffffffffffffffffffffffffff1663a3b1b31d6040518163ffffffff1660e01b8152600401602060405180830381865afa1580156128e0573d5f5f3e3d5ffd5b505050506040513d601f19601f820116820180604052508101906129049190614805565b915050612911565b439150505b90565b60015f81905550565b5f600d5f8373ffffffffffffffffffffffffffffffffffffffff1673ffffffffffffffffffffffffffffffffffffffff1681526020019081526020015f2090505f42838360050160029054906101000a900460ff1660405160200161298493929190614b88565b604051602081830303815290604052805190602001205f1c90505b60118260050160039054906101000a900460ff1660ff161080156129d75750600a8260050160019054906101000a900460ff1660ff16105b15612b4657808260050160019054906101000a900460ff16604051602001612a00929190614bc4565b604051602081830303815290604052805190602001205f1c9050612a2381612fad565b826004018360050160019054906101000a900460ff1660ff16600a8110612a4d57612a4c614748565b5b602091828204019190066101000a81548160ff021916908360ff16021790555081600501600181819054906101000a900460ff1680929190612a8e90614775565b91906101000a81548160ff021916908360ff16021790555050612b2582600401600a806020026040519081016040528092919082600a8015612b09576020028201915f905b82829054906101000a900460ff1660ff16815260200190600101906020825f01049283019260010382029150808411612ad35790505b50505050508360050160019054906101000a900460ff16612fea565b8260050160036101000a81548160ff021916908360ff16021790555061299f565b60158260050160039054906101000a900460ff1660ff161115612b815760018260050160056101000a81548160ff0219169083151502179055505b5f5f90505f5f90508360050160049054906101000a900460ff1615612ba8575f9150612c38565b8360050160059054906101000a900460ff1615612bc85760019150612c37565b8360050160039054906101000a900460ff1660ff168460050160029054906101000a900460ff1660ff161115612c015760019150612c36565b8360050160039054906101000a900460ff1660ff168460050160029054906101000a900460ff1660ff1603612c3557600190505b5b5b5b612c438583836130cc565b5050505050565b5f5f46905061a4b1811480612c61575062066eed81145b15612cdc57606c73ffffffffffffffffffffffffffffffffffffffff1663c6f7de0e6040518163ffffffff1660e01b8152600401602060405180830381865afa158015612cb0573d5f5f3e3d5ffd5b505050506040513d601f19601f82011682018060405250810190612cd49190614805565b915050612ce1565b5f9150505b90565b60015f9054906101000a900473ffffffffffffffffffffffffffffffffffffffff1673ffffffffffffffffffffffffffffffffffffffff163373ffffffffffffffffffffffffffffffffffffffff1614612d73576040517f08c379a0000000000000000000000000000000000000000000000000000000008152600401612d6a90614c39565b60405180910390fd5b565b612df68363a9059cbb60e01b8484604051602401612d9492919061491d565b604051602081830303815290604052907bffffffffffffffffffffffffffffffffffffffffffffffffffffffff19166020820180517bffffffffffffffffffffffffffffffffffffffffffffffffffffffff83818316178352505050506135ae565b505050565b5f612e0683836112e6565b905080341015612e4f5780346040517fde9b74a1000000000000000000000000000000000000000000000000000000008152600401612e46929190614830565b60405180910390fd5b612e638134612e5e91906148ea565b6133e1565b8060045f828254612e749190614619565b9250508190555092915050565b3373ffffffffffffffffffffffffffffffffffffffff168173ffffffffffffffffffffffffffffffffffffffff1603612eef576040517f08c379a0000000000000000000000000000000000000000000000000000000008152600401612ee690614ca1565b60405180910390fd5b8060025f6101000a81548173ffffffffffffffffffffffffffffffffffffffff021916908373ffffffffffffffffffffffffffffffffffffffff1602179055508073ffffffffffffffffffffffffffffffffffffffff1660015f9054906101000a900473ffffffffffffffffffffffffffffffffffffffff1673ffffffffffffffffffffffffffffffffffffffff167fed8889f560326eb138920d842192f0eb3dd22b4f139c87a2c57538e05bae127860405160405180910390a350565b5f5f6001600d84612fbe9190614cbf565b612fc89190614619565b9050600a8160ff161115612fe057600a915050612fe5565b809150505b919050565b5f5f5f90505f5f90505f5f90505b8460ff168160ff161015613083576001868260ff16600a811061301e5761301d614748565b5b602002015160ff160361304d57818061303690614775565b925050600b836130469190614cef565b9250613076565b858160ff16600a811061306357613062614748565b5b6020020151836130739190614cef565b92505b8080600101915050612ff8565b505b60158260ff1611801561309a57505f8160ff16115b156130c157600a826130ac9190614d23565b915080806130b990614d57565b915050613085565b819250505092915050565b5f600d5f8573ffffffffffffffffffffffffffffffffffffffff1673ffffffffffffffffffffffffffffffffffffffff1681526020019081526020015f2090505f5f9050821561312157815f015490506131a7565b83156131a65760158260050160029054906101000a900460ff1660ff1614801561315e57506002826005015f9054906101000a900460ff1660ff16145b1561318657606460fa835f0154613175919061457b565b61317f91906145e9565b90506131a5565b606460c8835f0154613198919061457b565b6131a291906145e9565b90505b5b5b5f825f015490505f836002015f9054906101000a900473ffffffffffffffffffffffffffffffffffffffff1690505f8460050160029054906101000a900460ff1690505f8560050160039054906101000a900460ff1690506132098385613674565b600d5f8a73ffffffffffffffffffffffffffffffffffffffff1673ffffffffffffffffffffffffffffffffffffffff1681526020019081526020015f205f5f82015f9055600182015f9055600282015f6101000a81549073ffffffffffffffffffffffffffffffffffffffff02191690556002820160146101000a81549067ffffffffffffffff0219169055600382015f6132a49190613bd5565b600482015f6132b39190613bd5565b600582015f6101000a81549060ff02191690556005820160016101000a81549060ff02191690556005820160026101000a81549060ff02191690556005820160036101000a81549060ff02191690556005820160046101000a81549060ff02191690556005820160056101000a81549060ff02191690556005820160066101000a81549060ff02191690556005820160076101000a81549060ff02191690556005820160086101000a81549060ff021916905550505f85111561337c5761337b8986856138d5565b5b8873ffffffffffffffffffffffffffffffffffffffff167fe081263f43e91803688d9c0f5399287baead9e5738a4561c687feb50e500c17785878686868e8e6040516133ce9796959493929190614d8d565b60405180910390a2505050505050505050565b5f81031561348a575f3373ffffffffffffffffffffffffffffffffffffffff168260405161340e9061435b565b5f6040518083038185875af1925050503d805f8114613448576040519150601f19603f3d011682016040523d82523d5f602084013e61344d565b606091505b5050905080613488576040517ff0c49d4400000000000000000000000000000000000000000000000000000000815260040160405180910390fd5b505b50565b613510846323b872dd60e01b8585856040516024016134ae9392919061436f565b604051602081830303815290604052907bffffffffffffffffffffffffffffffffffffffffffffffffffffffff19166020820180517bffffffffffffffffffffffffffffffffffffffffffffffffffffffff83818316178352505050506135ae565b50505050565b60607f92fd13387c7fe7befbc38d303d6468778fb9731bc4583f17d92989c6fcfdeaaa8260405160240161354a9190614e14565b604051602081830303815290604052907bffffffffffffffffffffffffffffffffffffffffffffffffffffffff19166020820180517bffffffffffffffffffffffffffffffffffffffffffffffffffffffff83818316178352505050509050919050565b5f61360f826040518060400160405280602081526020017f5361666545524332303a206c6f772d6c6576656c2063616c6c206661696c65648152508573ffffffffffffffffffffffffffffffffffffffff166139659092919063ffffffff16565b90505f8151148061363057508080602001905181019061362f9190614881565b5b61366f576040517f08c379a000000000000000000000000000000000000000000000000000000000815260040161366690614e9d565b60405180910390fd5b505050565b5f73ffffffffffffffffffffffffffffffffffffffff168273ffffffffffffffffffffffffffffffffffffffff160361376d575f60085f9054906101000a900473ffffffffffffffffffffffffffffffffffffffff1673ffffffffffffffffffffffffffffffffffffffff16826040516136ed9061435b565b5f6040518083038185875af1925050503d805f8114613727576040519150601f19603f3d011682016040523d82523d5f602084013e61372c565b606091505b5050905080613767576040517ff0c49d4400000000000000000000000000000000000000000000000000000000815260040160405180910390fd5b50613894565b8173ffffffffffffffffffffffffffffffffffffffff1663095ea7b360085f9054906101000a900473ffffffffffffffffffffffffffffffffffffffff16836040518363ffffffff1660e01b81526004016137c992919061491d565b6020604051808303815f875af11580156137e5573d5f5f3e3d5ffd5b505050506040513d601f19601f820116820180604052508101906138099190614881565b5060085f9054906101000a900473ffffffffffffffffffffffffffffffffffffffff1673ffffffffffffffffffffffffffffffffffffffff166347e7ef2483836040518363ffffffff1660e01b815260040161386692919061491d565b5f604051808303815f87803b15801561387d575f5ffd5b505af115801561388f573d5f5f3e3d5ffd5b505050505b7f312e2def0b1ae52334b8d967d371c7afe0625e9a3f4f70810e79cf351fe2a5a9308333846040516138c99493929190614944565b60405180910390a15050565b60085f9054906101000a900473ffffffffffffffffffffffffffffffffffffffff1673ffffffffffffffffffffffffffffffffffffffff16636c025ec28484846040518463ffffffff1660e01b815260040161393393929190614ebb565b5f604051808303815f87803b15801561394a575f5ffd5b505af115801561395c573d5f5f3e3d5ffd5b50505050505050565b606061397384845f8561397c565b90509392505050565b6060824710156139c1576040517f08c379a00000000000000000000000000000000000000000000000000000000081526004016139b890614f60565b60405180910390fd5b5f5f8673ffffffffffffffffffffffffffffffffffffffff1685876040516139e99190614fae565b5f6040518083038185875af1925050503d805f8114613a23576040519150601f19603f3d011682016040523d82523d5f602084013e613a28565b606091505b5091509150613a3987838387613a45565b92505050949350505050565b60608315613aa6575f835103613a9e57613a5e85613ab9565b613a9d576040517f08c379a0000000000000000000000000000000000000000000000000000000008152600401613a949061500e565b60405180910390fd5b5b829050613ab1565b613ab08383613adb565b5b949350505050565b5f5f8273ffffffffffffffffffffffffffffffffffffffff163b119050919050565b5f82511115613aed5781518083602001fd5b806040517f08c379a0000000000000000000000000000000000000000000000000000000008152600401613b21919061506e565b60405180910390fd5b604051806101e001604052805f81526020015f81526020015f73ffffffffffffffffffffffffffffffffffffffff1681526020015f67ffffffffffffffff168152602001613b76613bdb565b8152602001613b83613bdb565b81526020015f60ff1681526020015f60ff1681526020015f60ff1681526020015f60ff1681526020015f151581526020015f151581526020015f151581526020015f151581526020015f151581525090565b505f9055565b604051806101400160405280600a90602082028036833780820191505090505090565b5f5ffd5b5f5ffd5b5f819050919050565b613c1881613c06565b8114613c22575f5ffd5b50565b5f81359050613c3381613c0f565b92915050565b5f5ffd5b5f5ffd5b5f5ffd5b5f5f83601f840112613c5a57613c59613c39565b5b8235905067ffffffffffffffff811115613c7757613c76613c3d565b5b602083019150836020820283011115613c9357613c92613c41565b5b9250929050565b5f5f5f60408486031215613cb157613cb0613bfe565b5b5f613cbe86828701613c25565b935050602084013567ffffffffffffffff811115613cdf57613cde613c02565b5b613ceb86828701613c45565b92509250509250925092565b5f73ffffffffffffffffffffffffffffffffffffffff82169050919050565b5f613d2082613cf7565b9050919050565b613d3081613d16565b8114613d3a575f5ffd5b50565b5f81359050613d4b81613d27565b92915050565b5f60208284031215613d6657613d65613bfe565b5b5f613d7384828501613d3d565b91505092915050565b613d8581613c06565b82525050565b613d9481613d16565b82525050565b5f67ffffffffffffffff82169050919050565b613db681613d9a565b82525050565b5f600a9050919050565b5f81905092915050565b5f819050919050565b5f60ff82169050919050565b613dee81613dd9565b82525050565b5f613dff8383613de5565b60208301905092915050565b5f602082019050919050565b613e2081613dbc565b613e2a8184613dc6565b9250613e3582613dd0565b805f5b83811015613e65578151613e4c8782613df4565b9650613e5783613e0b565b925050600181019050613e38565b505050505050565b5f8115159050919050565b613e8181613e6d565b82525050565b61042082015f820151613e9c5f850182613d7c565b506020820151613eaf6020850182613d7c565b506040820151613ec26040850182613d8b565b506060820151613ed56060850182613dad565b506080820151613ee86080850182613e17565b5060a0820151613efc6101c0850182613e17565b5060c0820151613f10610300850182613de5565b5060e0820151613f24610320850182613de5565b50610100820151613f39610340850182613de5565b50610120820151613f4e610360850182613de5565b50610140820151613f63610380850182613e78565b50610160820151613f786103a0850182613e78565b50610180820151613f8d6103c0850182613e78565b506101a0820151613fa26103e0850182613e78565b506101c0820151613fb7610400850182613e78565b50505050565b5f61042082019050613fd15f830184613e87565b92915050565b5f5f60408385031215613fed57613fec613bfe565b5b5f613ffa85828601613c25565b925050602061400b85828601613d3d565b9150509250929050565b61401e81613d16565b82525050565b5f6020820190506140375f830184614015565b92915050565b61404681613e6d565b82525050565b5f60208201905061405f5f83018461403d565b92915050565b61406e81613c06565b82525050565b5f6020820190506140875f830184614065565b92915050565b5f819050919050565b5f6140b06140ab6140a684613cf7565b61408d565b613cf7565b9050919050565b5f6140c182614096565b9050919050565b5f6140d2826140b7565b9050919050565b6140e2816140c8565b82525050565b5f6020820190506140fb5f8301846140d9565b92915050565b5f61410b826140b7565b9050919050565b61411b81614101565b82525050565b5f6020820190506141345f830184614112565b92915050565b5f5f604083850312156141505761414f613bfe565b5b5f61415d85828601613c25565b925050602061416e85828601613c25565b9150509250929050565b5f614182826140b7565b9050919050565b61419281614178565b82525050565b5f6020820190506141ab5f830184614189565b92915050565b5f6040820190506141c45f830185614015565b6141d16020830184614015565b9392505050565b5f60029050919050565b5f81905092915050565b5f819050919050565b5f602082019050919050565b61420a816141d8565b61421481846141e2565b925061421f826141ec565b805f5b8381101561424f5781516142368782613df4565b9650614241836141f5565b925050600181019050614222565b505050505050565b5f819050919050565b5f61427a61427561427084614257565b61408d565b613dd9565b9050919050565b61428a81614260565b82525050565b5f60e0820190506142a35f830189614065565b6142b06020830188614015565b6142bd6040830187614201565b6142ca6080830186614281565b6142d760a0830185614281565b6142e460c0830184614065565b979650505050505050565b5f815190506142fd81613d27565b92915050565b5f6020828403121561431857614317613bfe565b5b5f614325848285016142ef565b91505092915050565b5f81905092915050565b50565b5f6143465f8361432e565b915061435182614338565b5f82019050919050565b5f6143658261433b565b9150819050919050565b5f6060820190506143825f830186614015565b61438f6020830185614015565b61439c6040830184614065565b949350505050565b5f82825260208201905092915050565b7f4d7573742062652070726f706f736564206f776e6572000000000000000000005f82015250565b5f6143e86016836143a4565b91506143f3826143b4565b602082019050919050565b5f6020820190508181035f830152614415816143dc565b9050919050565b5f60608201905061442f5f830186614015565b61443c6020830185614015565b6144496040830184614015565b949350505050565b5f69ffffffffffffffffffff82169050919050565b61446f81614451565b8114614479575f5ffd5b50565b5f8151905061448a81614466565b92915050565b5f819050919050565b6144a281614490565b81146144ac575f5ffd5b50565b5f815190506144bd81614499565b92915050565b5f815190506144d181613c0f565b92915050565b5f5f5f5f5f60a086880312156144f0576144ef613bfe565b5b5f6144fd8882890161447c565b955050602061450e888289016144af565b945050604061451f888289016144c3565b9350506060614530888289016144c3565b92505060806145418882890161447c565b9150509295509295909350565b7f4e487b71000000000000000000000000000000000000000000000000000000005f52601160045260245ffd5b5f61458582613c06565b915061459083613c06565b925082820261459e81613c06565b915082820484148315176145b5576145b461454e565b5b5092915050565b7f4e487b71000000000000000000000000000000000000000000000000000000005f52601260045260245ffd5b5f6145f382613c06565b91506145fe83613c06565b92508261460e5761460d6145bc565b5b828204905092915050565b5f61462382613c06565b915061462e83613c06565b92508282019050808211156146465761464561454e565b5b92915050565b5f61465682613d9a565b915061466183613d9a565b9250828201905067ffffffffffffffff8111156146815761468061454e565b5b92915050565b5f6146a161469c61469784613d9a565b61408d565b613c06565b9050919050565b6146b181614687565b82525050565b5f6040820190506146ca5f830185614065565b6146d760208301846146a8565b9392505050565b5f6040820190506146f15f830185614065565b6146fe6020830184614015565b9392505050565b5f6080820190506147185f830187614281565b6147256020830186614281565b614732604083018561403d565b61473f6060830184614065565b95945050505050565b7f4e487b71000000000000000000000000000000000000000000000000000000005f52603260045260245ffd5b5f61477f82613dd9565b915060ff82036147925761479161454e565b5b600182019050919050565b7f5265656e7472616e637947756172643a207265656e7472616e742063616c6c005f82015250565b5f6147d1601f836143a4565b91506147dc8261479d565b602082019050919050565b5f6020820190508181035f8301526147fe816147c5565b9050919050565b5f6020828403121561481a57614819613bfe565b5b5f614827848285016144c3565b91505092915050565b5f6040820190506148435f830185614065565b6148506020830184614065565b9392505050565b61486081613e6d565b811461486a575f5ffd5b50565b5f8151905061487b81614857565b92915050565b5f6020828403121561489657614895613bfe565b5b5f6148a38482850161486d565b91505092915050565b5f5f604083850312156148c2576148c1613bfe565b5b5f6148cf8582860161486d565b92505060206148e0858286016144c3565b9150509250929050565b5f6148f482613c06565b91506148ff83613c06565b92508282039050818111156149175761491661454e565b5b92915050565b5f6040820190506149305f830185614015565b61493d6020830184614065565b9392505050565b5f6080820190506149575f830187614015565b6149646020830186614015565b6149716040830185614015565b61497e6060830184614065565b95945050505050565b5f819050919050565b61499981614987565b82525050565b5f61ffff82169050919050565b6149b58161499f565b82525050565b5f63ffffffff82169050919050565b6149d3816149bb565b82525050565b5f81519050919050565b5f82825260208201905092915050565b8281835e5f83830152505050565b5f601f19601f8301169050919050565b5f614a1b826149d9565b614a2581856149e3565b9350614a358185602086016149f3565b614a3e81614a01565b840191505092915050565b5f60c083015f830151614a5e5f860182614990565b506020830151614a716020860182613d7c565b506040830151614a8460408601826149ac565b506060830151614a9760608601826149ca565b506080830151614aaa60808601826149ca565b5060a083015184820360a0860152614ac28282614a11565b9150508091505092915050565b5f6020820190508181035f830152614ae78184614a49565b905092915050565b5f819050919050565b614b09614b0482613c06565b614aef565b82525050565b5f8160601b9050919050565b5f614b2582614b0f565b9050919050565b5f614b3682614b1b565b9050919050565b614b4e614b4982613d16565b614b2c565b82525050565b5f8160f81b9050919050565b5f614b6a82614b54565b9050919050565b614b82614b7d82613dd9565b614b60565b82525050565b5f614b938286614af8565b602082019150614ba38285614b3d565b601482019150614bb38284614b71565b600182019150819050949350505050565b5f614bcf8285614af8565b602082019150614bdf8284614b71565b6001820191508190509392505050565b7f4f6e6c792063616c6c61626c65206279206f776e6572000000000000000000005f82015250565b5f614c236016836143a4565b9150614c2e82614bef565b602082019050919050565b5f6020820190508181035f830152614c5081614c17565b9050919050565b7f43616e6e6f74207472616e7366657220746f2073656c660000000000000000005f82015250565b5f614c8b6017836143a4565b9150614c9682614c57565b602082019050919050565b5f6020820190508181035f830152614cb881614c7f565b9050919050565b5f614cc982613c06565b9150614cd483613c06565b925082614ce457614ce36145bc565b5b828206905092915050565b5f614cf982613dd9565b9150614d0483613dd9565b9250828201905060ff811115614d1d57614d1c61454e565b5b92915050565b5f614d2d82613dd9565b9150614d3883613dd9565b9250828203905060ff811115614d5157614d5061454e565b5b92915050565b5f614d6182613dd9565b91505f8203614d7357614d7261454e565b5b600182039050919050565b614d8781613dd9565b82525050565b5f60e082019050614da05f83018a614065565b614dad6020830189614065565b614dba6040830188614015565b614dc76060830187614d7e565b614dd46080830186614d7e565b614de160a083018561403d565b614dee60c083018461403d565b98975050505050505050565b602082015f820151614e0e5f850182613e78565b50505050565b5f602082019050614e275f830184614dfa565b92915050565b7f5361666545524332303a204552433230206f7065726174696f6e20646964206e5f8201527f6f74207375636365656400000000000000000000000000000000000000000000602082015250565b5f614e87602a836143a4565b9150614e9282614e2d565b604082019050919050565b5f6020820190508181035f830152614eb481614e7b565b9050919050565b5f606082019050614ece5f830186614015565b614edb6020830185614065565b614ee86040830184614015565b949350505050565b7f416464726573733a20696e73756666696369656e742062616c616e636520666f5f8201527f722063616c6c0000000000000000000000000000000000000000000000000000602082015250565b5f614f4a6026836143a4565b9150614f5582614ef0565b604082019050919050565b5f6020820190508181035f830152614f7781614f3e565b9050919050565b5f614f88826149d9565b614f92818561432e565b9350614fa28185602086016149f3565b80840191505092915050565b5f614fb98284614f7e565b915081905092915050565b7f416464726573733a2063616c6c20746f206e6f6e2d636f6e74726163740000005f82015250565b5f614ff8601d836143a4565b915061500382614fc4565b602082019050919050565b5f6020820190508181035f83015261502581614fec565b9050919050565b5f81519050919050565b5f6150408261502c565b61504a81856143a4565b935061505a8185602086016149f3565b61506381614a01565b840191505092915050565b5f6020820190508181035f8301526150868184615036565b90509291505056fea2646970667358221220826eaca3c4d01c0ee8f7ce100a1edcac2bc908e932e0887bd154c29f95ce6aeb64736f6c634300081c0033","linkReferences":{}},"methodIdentifiers":{"Bankroll()":"d0bcfc0c","Blackjack_GetState(address)":"2cea5155","Blackjack_Hit()":"f0030eb7","Blackjack_Refund()":"e7d7fa9e","Blackjack_Stand()":"73820772","Blackjack_Start(uint256,address)":"42148633","LINK_ETH_FEED()":"ad178361","VRFFees()":"8d7c16d2","_trustedForwarder()":"56c022bb","acceptOwnership()":"79ba5097","getVRFFee(uint256,uint256)":"baaa3edf","isTrustedForwarder(address)":"572b6c05","owner()":"8da5cb5b","rawFulfillRandomWords(uint256,uint256[])":"1fe543e3","s_vrfCoordinator()":"9eccacf6","setBankroll(address)":"bde8a93e","setCoordinator(address)":"8ea98117","transferFees(address)":"63dc4ef5","transferOwnership(address)":"f2fde38b"},"id":0}