{"abi":[{"type":"constructor","inputs":[{"name":"_bankroll","type":"address","internalType":"address"},{"name":"_vrf","type":"address","internalType":"address"},{"name":"link_eth_feed","type":"address","internalType":"address"},{"name":"_forwarder","type":"address","internalType":"address"}],"stateMutability":"nonpayable"},{"type":"function","name":"Bankroll","inputs":[],"outputs":[{"name":"","type":"address","internalType":"contract IBankRoll"}],"stateMutability":"view"},{"type":"function","name":"LINK_ETH_FEED","inputs":[],"outputs":[{"name":"","type":"address","internalType":"contract IDecimalAggregator"}],"stateMutability":"view"},{"type":"function","name":"VRFFees","inputs":[],"outputs":[{"name":"","type":"uint256","internalType":"uint256"}],"stateMutability":"view"},{"type":"function","name":"VideoPoker_GetState","inputs":[{"name":"player","type":"address","internalType":"address"}],"outputs":[{"name":"videopokerState","type":"tuple","internalType":"struct VideoPoker.VideoPokerGame","components":[{"name":"wager","type":"uint256","internalType":"uint256"},{"name":"requestID","type":"uint256","internalType":"uint256"},{"name":"tokenAddress","type":"address","internalType":"address"},{"name":"blockNumber","type":"uint64","internalType":"uint64"},{"name":"cardsInHand","type":"tuple[5]","internalType":"struct VideoPoker.Card[5]","components":[{"name":"number","type":"uint8","internalType":"uint8"},{"name":"suit","type":"uint8","internalType":"uint8"}]},{"name":"toReplace","type":"bool[5]","internalType":"bool[5]"},{"name":"ingame","type":"bool","internalType":"bool"},{"name":"isFirstRequest","type":"bool","internalType":"bool"}]}],"stateMutability":"view"},{"type":"function","name":"VideoPoker_Refund","inputs":[],"outputs":[],"stateMutability":"nonpayable"},{"type":"function","name":"VideoPoker_Replace","inputs":[{"name":"toReplace","type":"bool[5]","internalType":"bool[5]"}],"outputs":[],"stateMutability":"payable"},{"type":"function","name":"VideoPoker_Start","inputs":[{"name":"wager","type":"uint256","internalType":"uint256"},{"name":"tokenAddress","type":"address","internalType":"address"}],"outputs":[],"stateMutability":"payable"},{"type":"function","name":"_determineHandPayout","inputs":[{"name":"cardsInHand","type":"tuple[5]","internalType":"struct VideoPoker.Card[5]","components":[{"name":"number","type":"uint8","internalType":"uint8"},{"name":"suit","type":"uint8","internalType":"uint8"}]}],"outputs":[{"name":"","type":"uint256","internalType":"uint256"},{"name":"","type":"uint256","internalType":"uint256"}],"stateMutability":"pure"},{"type":"function","name":"_trustedForwarder","inputs":[],"outputs":[{"name":"","type":"address","internalType":"address"}],"stateMutability":"view"},{"type":"function","name":"acceptOwnership","inputs":[],"outputs":[],"stateMutability":"nonpayable"},{"type":"function","name":"getVRFFee","inputs":[{"name":"gasAmount","type":"uint256","internalType":"uint256"},{"name":"l1Multiplier","type":"uint256","internalType":"uint256"}],"outputs":[{"name":"fee","type":"uint256","internalType":"uint256"}],"stateMutability":"view"},{"type":"function","name":"isTrustedForwarder","inputs":[{"name":"forwarder","type":"address","internalType":"address"}],"outputs":[{"name":"","type":"bool","internalType":"bool"}],"stateMutability":"view"},{"type":"function","name":"owner","inputs":[],"outputs":[{"name":"","type":"address","internalType":"address"}],"stateMutability":"view"},{"type":"function","name":"rawFulfillRandomWords","inputs":[{"name":"requestId","type":"uint256","internalType":"uint256"},{"name":"randomWords","type":"uint256[]","internalType":"uint256[]"}],"outputs":[],"stateMutability":"nonpayable"},{"type":"function","name":"s_vrfCoordinator","inputs":[],"outputs":[{"name":"","type":"address","internalType":"contract IVRFCoordinatorV2Plus"}],"stateMutability":"view"},{"type":"function","name":"setBankroll","inputs":[{"name":"_bankRoll","type":"address","internalType":"address"}],"outputs":[],"stateMutability":"nonpayable"},{"type":"function","name":"setCoordinator","inputs":[{"name":"_vrfCoordinator","type":"address","internalType":"address"}],"outputs":[],"stateMutability":"nonpayable"},{"type":"function","name":"transferFees","inputs":[{"name":"to","type":"address","internalType":"address"}],"outputs":[],"stateMutability":"nonpayable"},{"type":"function","name":"transferOwnership","inputs":[{"name":"to","type":"address","internalType":"address"}],"outputs":[],"stateMutability":"nonpayable"},{"type":"event","name":"CoordinatorSet","inputs":[{"name":"vrfCoordinator","type":"address","indexed":false,"internalType":"address"}],"anonymous":false},{"type":"event","name":"FeeTransferred","inputs":[{"name":"game","type":"address","indexed":false,"internalType":"address"},{"name":"player","type":"address","indexed":false,"internalType":"address"},{"name":"amount","type":"uint256","indexed":false,"internalType":"uint256"}],"anonymous":false},{"type":"event","name":"OwnershipTransferRequested","inputs":[{"name":"from","type":"address","indexed":true,"internalType":"address"},{"name":"to","type":"address","indexed":true,"internalType":"address"}],"anonymous":false},{"type":"event","name":"OwnershipTransferred","inputs":[{"name":"from","type":"address","indexed":true,"internalType":"address"},{"name":"to","type":"address","indexed":true,"internalType":"address"}],"anonymous":false},{"type":"event","name":"VideoPoker_Fee_Event","inputs":[{"name":"playerAddress","type":"address","indexed":true,"internalType":"address"},{"name":"VRFFee","type":"uint256","indexed":false,"internalType":"uint256"}],"anonymous":false},{"type":"event","name":"VideoPoker_Outcome_Event","inputs":[{"name":"playerAddress","type":"address","indexed":true,"internalType":"address"},{"name":"wager","type":"uint256","indexed":false,"internalType":"uint256"},{"name":"payout","type":"uint256","indexed":false,"internalType":"uint256"},{"name":"tokenAddress","type":"address","indexed":false,"internalType":"address"},{"name":"playerHand","type":"tuple[5]","indexed":false,"internalType":"struct VideoPoker.Card[5]","components":[{"name":"number","type":"uint8","internalType":"uint8"},{"name":"suit","type":"uint8","internalType":"uint8"}]},{"name":"outcome","type":"uint256","indexed":false,"internalType":"uint256"}],"anonymous":false},{"type":"event","name":"VideoPoker_Play_Event","inputs":[{"name":"playerAddress","type":"address","indexed":true,"internalType":"address"},{"name":"wager","type":"uint256","indexed":false,"internalType":"uint256"},{"name":"tokenAddress","type":"address","indexed":false,"internalType":"address"},{"name":"VRFFee","type":"uint256","indexed":false,"internalType":"uint256"}],"anonymous":false},{"type":"event","name":"VideoPoker_Refund_Event","inputs":[{"name":"player","type":"address","indexed":true,"internalType":"address"},{"name":"wager","type":"uint256","indexed":false,"internalType":"uint256"},{"name":"tokenAddress","type":"address","indexed":false,"internalType":"address"}],"anonymous":false},{"type":"event","name":"VideoPoker_Start_Event","inputs":[{"name":"playerAddress","type":"address","indexed":true,"internalType":"address"},{"name":"playerHand","type":"tuple[5]","indexed":false,"internalType":"struct VideoPoker.Card[5]","components":[{"name":"number","type":"uint8","internalType":"uint8"},{"name":"suit","type":"uint8","internalType":"uint8"}]}],"anonymous":false},{"type":"event","name":"WagerTransferred","inputs":[{"name":"game","type":"address","indexed":false,"internalType":"address"},{"name":"token","type":"address","indexed":false,"internalType":"address"},{"name":"player","type":"address","indexed":false,"internalType":"address"},{"name":"amount","type":"uint256","indexed":false,"internalType":"uint256"}],"anonymous":false},{"type":"error","name":"AlreadyInGame","inputs":[]},{"type":"error","name":"AwaitingVRF","inputs":[{"name":"requestID","type":"uint256","internalType":"uint256"}]},{"type":"error","name":"BlockNumberTooLow","inputs":[{"name":"have","type":"uint256","internalType":"uint256"},{"name":"want","type":"uint256","internalType":"uint256"}]},{"type":"error","name":"InvalidValue","inputs":[{"name":"required","type":"uint256","internalType":"uint256"},{"name":"sent","type":"uint256","internalType":"uint256"}]},{"type":"error","name":"NoFeeRequired","inputs":[]},{"type":"error","name":"NoRequestPending","inputs":[]},{"type":"error","name":"NotApprovedBankroll","inputs":[]},{"type":"error","name":"NotInGame","inputs":[]},{"type":"error","name":"NotOwner","inputs":[{"name":"want","type":"address","internalType":"address"},{"name":"have","type":"address","internalType":"address"}]},{"type":"error","name":"OnlyCoordinatorCanFulfill","inputs":[{"name":"have","type":"address","internalType":"address"},{"name":"want","type":"address","internalType":"address"}]},{"type":"error","name":"OnlyOwnerOrCoordinator","inputs":[{"name":"have","type":"address","internalType":"address"},{"name":"owner","type":"address","internalType":"address"},{"name":"coordinator","type":"address","internalType":"address"}]},{"type":"error","name":"PlayerSuspended","inputs":[{"name":"suspensionTime","type":"uint256","internalType":"uint256"}]},{"type":"error","name":"RefundFailed","inputs":[]},{"type":"error","name":"TransferFailed","inputs":[]},{"type":"error","name":"WagerAboveLimit","inputs":[{"name":"wager","type":"uint256","internalType":"uint256"},{"name":"maxWager","type":"uint256","internalType":"uint256"}]},{"type":"error","name":"ZeroAddress","inputs":[]},{"type":"error","name":"ZeroWager","inputs":[]}],"bytecode":{"object":"0x60806040527fabb65d5c6f9c8a5a1d2af242cbb644ce2157e5f9ca410a33e28106c9f1f3e9cc600a557f1770bdc7eec7771f7ba4ffd640f34260d7f095b79c92d34a5b2551d6f6cfd2be5f1b600b556003600c5f6101000a81548161ffff021916908361ffff160217905550622625a0600c60026101000a81548163ffffffff021916908363ffffffff16021790555034801561009a575f5ffd5b50604051616a70380380616a7083398181016040528101906100bc91906105f2565b8233805f60015f819055505f73ffffffffffffffffffffffffffffffffffffffff168273ffffffffffffffffffffffffffffffffffffffff1603610135576040517f08c379a000000000000000000000000000000000000000000000000000000000815260040161012c906106b0565b60405180910390fd5b8160015f6101000a81548173ffffffffffffffffffffffffffffffffffffffff021916908373ffffffffffffffffffffffffffffffffffffffff1602179055505f73ffffffffffffffffffffffffffffffffffffffff168173ffffffffffffffffffffffffffffffffffffffff16146101b8576101b78161046860201b60201c565b5b5050505f73ffffffffffffffffffffffffffffffffffffffff168173ffffffffffffffffffffffffffffffffffffffff1603610220576040517fd92e233d00000000000000000000000000000000000000000000000000000000815260040160405180910390fd5b8060035f6101000a81548173ffffffffffffffffffffffffffffffffffffffff021916908373ffffffffffffffffffffffffffffffffffffffff160217905550508360085f6101000a81548173ffffffffffffffffffffffffffffffffffffffff021916908373ffffffffffffffffffffffffffffffffffffffff1602179055508260055f6101000a81548173ffffffffffffffffffffffffffffffffffffffff021916908373ffffffffffffffffffffffffffffffffffffffff1602179055508260095f6101000a81548173ffffffffffffffffffffffffffffffffffffffff021916908373ffffffffffffffffffffffffffffffffffffffff1602179055508160075f6101000a81548173ffffffffffffffffffffffffffffffffffffffff021916908373ffffffffffffffffffffffffffffffffffffffff1602179055508060065f6101000a81548173ffffffffffffffffffffffffffffffffffffffff021916908373ffffffffffffffffffffffffffffffffffffffff1602179055505f5f90505b60048160ff16101561045e575f600190505b600e8160ff16101561045057600d60405180604001604052808360ff1681526020018460ff16815250908060018154018082558091505060019003905f5260205f20015f909190919091505f820151815f015f6101000a81548160ff021916908360ff1602179055506020820151815f0160016101000a81548160ff021916908360ff160217905550505080806001019150506103b8565b5080806001019150506103a6565b5050505050610736565b3373ffffffffffffffffffffffffffffffffffffffff168173ffffffffffffffffffffffffffffffffffffffff16036104d6576040517f08c379a00000000000000000000000000000000000000000000000000000000081526004016104cd90610718565b60405180910390fd5b8060025f6101000a81548173ffffffffffffffffffffffffffffffffffffffff021916908373ffffffffffffffffffffffffffffffffffffffff1602179055508073ffffffffffffffffffffffffffffffffffffffff1660015f9054906101000a900473ffffffffffffffffffffffffffffffffffffffff1673ffffffffffffffffffffffffffffffffffffffff167fed8889f560326eb138920d842192f0eb3dd22b4f139c87a2c57538e05bae127860405160405180910390a350565b5f5ffd5b5f73ffffffffffffffffffffffffffffffffffffffff82169050919050565b5f6105c182610598565b9050919050565b6105d1816105b7565b81146105db575f5ffd5b50565b5f815190506105ec816105c8565b92915050565b5f5f5f5f6080858703121561060a57610609610594565b5b5f610617878288016105de565b9450506020610628878288016105de565b9350506040610639878288016105de565b925050606061064a878288016105de565b91505092959194509250565b5f82825260208201905092915050565b7f43616e6e6f7420736574206f776e657220746f207a65726f00000000000000005f82015250565b5f61069a601883610656565b91506106a582610666565b602082019050919050565b5f6020820190508181035f8301526106c78161068e565b9050919050565b7f43616e6e6f74207472616e7366657220746f2073656c660000000000000000005f82015250565b5f610702601783610656565b915061070d826106ce565b602082019050919050565b5f6020820190508181035f83015261072f816106f6565b9050919050565b61632d806107435f395ff3fe608060405260043610610113575f3560e01c80639eccacf61161009f578063e40ea4bc11610063578063e40ea4bc1461035d578063e67ae76914610379578063ec0f5d8c1461038f578063f2d3444b146103cc578063f2fde38b1461040857610113565b80639eccacf61461027b578063ad178361146102a5578063baaa3edf146102cf578063bde8a93e1461030b578063d0bcfc0c1461033357610113565b80636c8abecc116100e65780636c8abecc146101cd57806379ba5097146101e95780638d7c16d2146101ff5780638da5cb5b146102295780638ea981171461025357610113565b80631fe543e31461011757806356c022bb1461013f578063572b6c051461016957806363dc4ef5146101a5575b5f5ffd5b348015610122575f5ffd5b5061013d60048036038101906101389190614c6c565b610430565b005b34801561014a575f5ffd5b506101536104f4565b6040516101609190614d08565b60405180910390f35b348015610174575f5ffd5b5061018f600480360381019061018a9190614d4b565b610519565b60405161019c9190614d90565b60405180910390f35b3480156101b0575f5ffd5b506101cb60048036038101906101c69190614d4b565b610571565b005b6101e760048036038101906101e29190614da9565b6107f9565b005b3480156101f4575f5ffd5b506101fd610a7a565b005b34801561020a575f5ffd5b50610213610c0b565b6040516102209190614df6565b60405180910390f35b348015610234575f5ffd5b5061023d610c11565b60405161024a9190614d08565b60405180910390f35b34801561025e575f5ffd5b5061027960048036038101906102749190614d4b565b610c39565b005b348015610286575f5ffd5b5061028f610e16565b60405161029c9190614e6a565b60405180910390f35b3480156102b0575f5ffd5b506102b9610e3b565b6040516102c69190614ea3565b60405180910390f35b3480156102da575f5ffd5b506102f560048036038101906102f09190614ebc565b610e60565b6040516103029190614df6565b60405180910390f35b348015610316575f5ffd5b50610331600480360381019061032c9190614d4b565b610f67565b005b34801561033e575f5ffd5b50610347610fb2565b6040516103549190614f1a565b60405180910390f35b61037760048036038101906103729190614f54565b610fd7565b005b348015610384575f5ffd5b5061038d61148f565b005b34801561039a575f5ffd5b506103b560048036038101906103b0919061513c565b61187a565b6040516103c3929190615168565b60405180910390f35b3480156103d7575f5ffd5b506103f260048036038101906103ed9190614d4b565b612a62565b6040516103ff91906153e9565b60405180910390f35b348015610413575f5ffd5b5061042e60048036038101906104299190614d4b565b612c70565b005b60035f9054906101000a900473ffffffffffffffffffffffffffffffffffffffff1673ffffffffffffffffffffffffffffffffffffffff163373ffffffffffffffffffffffffffffffffffffffff16146104e4573360035f9054906101000a900473ffffffffffffffffffffffffffffffffffffffff166040517f1cf993f40000000000000000000000000000000000000000000000000000000081526004016104db929190615403565b60405180910390fd5b6104ef838383612c84565b505050565b60065f9054906101000a900473ffffffffffffffffffffffffffffffffffffffff1681565b5f60065f9054906101000a900473ffffffffffffffffffffffffffffffffffffffff1673ffffffffffffffffffffffffffffffffffffffff168273ffffffffffffffffffffffffffffffffffffffff16149050919050565b610579613325565b60085f9054906101000a900473ffffffffffffffffffffffffffffffffffffffff1673ffffffffffffffffffffffffffffffffffffffff1663893d20e86040518163ffffffff1660e01b8152600401602060405180830381865afa1580156105e3573d5f5f3e3d5ffd5b505050506040513d601f19601f82011682018060405250810190610607919061543e565b73ffffffffffffffffffffffffffffffffffffffff163373ffffffffffffffffffffffffffffffffffffffff16146107055760085f9054906101000a900473ffffffffffffffffffffffffffffffffffffffff1673ffffffffffffffffffffffffffffffffffffffff1663893d20e86040518163ffffffff1660e01b8152600401602060405180830381865afa1580156106a3573d5f5f3e3d5ffd5b505050506040513d601f19601f820116820180604052508101906106c7919061543e565b336040517f23295f0e0000000000000000000000000000000000000000000000000000000081526004016106fc929190615403565b60405180910390fd5b5f60045490505f6004819055505f8273ffffffffffffffffffffffffffffffffffffffff168260405161073790615496565b5f6040518083038185875af1925050503d805f8114610771576040519150601f19603f3d011682016040523d82523d5f602084013e610776565b606091505b50509050806107b1576040517f90b8ec1800000000000000000000000000000000000000000000000000000000815260040160405180910390fd5b7f1d6298f49fc15449b78df91fcca6812136edc2972366cb70aa0d9145a308cd313084846040516107e4939291906154aa565b60405180910390a150506107f6613372565b50565b610801613325565b5f61080a61337b565b90505f600e5f8373ffffffffffffffffffffffffffffffffffffffff1673ffffffffffffffffffffffffffffffffffffffff1681526020019081526020015f2090505f8160010154146108985780600101546040517f440db96e00000000000000000000000000000000000000000000000000000000815260040161088f9190614df6565b60405180910390fd5b806009015f9054906101000a900460ff16156108e0576040517fc56fb25300000000000000000000000000000000000000000000000000000000815260040160405180910390fd5b6108ea84846133b0565b5f6108fc84866207a12060248761352e565b90505f6109096005613a04565b905083600f5f8381526020019081526020015f205f6101000a81548173ffffffffffffffffffffffffffffffffffffffff021916908373ffffffffffffffffffffffffffffffffffffffff16021790555084836002015f6101000a81548173ffffffffffffffffffffffffffffffffffffffff021916908373ffffffffffffffffffffffffffffffffffffffff16021790555085835f018190555060018360090160016101000a81548160ff0219169083151502179055508083600101819055506109d2613b20565b8360020160146101000a81548167ffffffffffffffff021916908367ffffffffffffffff1602179055506001836009015f6101000a81548160ff0219169083151502179055508373ffffffffffffffffffffffffffffffffffffffff167fe56d6801294d0abce9ccc7d8ab8034ab36bdd58d638252dfea0f1f34c0967388878785604051610a62939291906154df565b60405180910390a250505050610a76613372565b5050565b60025f9054906101000a900473ffffffffffffffffffffffffffffffffffffffff1673ffffffffffffffffffffffffffffffffffffffff163373ffffffffffffffffffffffffffffffffffffffff1614610b09576040517f08c379a0000000000000000000000000000000000000000000000000000000008152600401610b009061556e565b60405180910390fd5b5f60015f9054906101000a900473ffffffffffffffffffffffffffffffffffffffff1690503360015f6101000a81548173ffffffffffffffffffffffffffffffffffffffff021916908373ffffffffffffffffffffffffffffffffffffffff1602179055505f60025f6101000a81548173ffffffffffffffffffffffffffffffffffffffff021916908373ffffffffffffffffffffffffffffffffffffffff1602179055503373ffffffffffffffffffffffffffffffffffffffff168173ffffffffffffffffffffffffffffffffffffffff167f8be0079c531659141344cd1fd0a4f28419497f9722a3daafe3b4186f6b6457e060405160405180910390a350565b60045481565b5f60015f9054906101000a900473ffffffffffffffffffffffffffffffffffffffff16905090565b610c41610c11565b73ffffffffffffffffffffffffffffffffffffffff163373ffffffffffffffffffffffffffffffffffffffff1614158015610cc9575060035f9054906101000a900473ffffffffffffffffffffffffffffffffffffffff1673ffffffffffffffffffffffffffffffffffffffff163373ffffffffffffffffffffffffffffffffffffffff1614155b15610d375733610cd7610c11565b60035f9054906101000a900473ffffffffffffffffffffffffffffffffffffffff166040517f061db9c1000000000000000000000000000000000000000000000000000000008152600401610d2e9392919061558c565b60405180910390fd5b5f73ffffffffffffffffffffffffffffffffffffffff168173ffffffffffffffffffffffffffffffffffffffff1603610d9c576040517fd92e233d00000000000000000000000000000000000000000000000000000000815260040160405180910390fd5b8060035f6101000a81548173ffffffffffffffffffffffffffffffffffffffff021916908373ffffffffffffffffffffffffffffffffffffffff1602179055507fd1a6a14209a385a964d036e404cb5cfb71f4000cdb03c9366292430787261be681604051610e0b9190614d08565b60405180910390a150565b60035f9054906101000a900473ffffffffffffffffffffffffffffffffffffffff1681565b60075f9054906101000a900473ffffffffffffffffffffffffffffffffffffffff1681565b5f5f60075f9054906101000a900473ffffffffffffffffffffffffffffffffffffffff1673ffffffffffffffffffffffffffffffffffffffff1663feaf968c6040518163ffffffff1660e01b815260040160a060405180830381865afa158015610ecc573d5f5f3e3d5ffd5b505050506040513d601f19601f82011682018060405250810190610ef09190615647565b5050509150505f600a84610f02613bba565b610f0c91906156eb565b610f169190615759565b9050670de0b6b3a76400008264e8d4a51000610f3291906156eb565b610f3c9190615759565b81863a610f4991906156eb565b610f539190615789565b610f5d9190615789565b9250505092915050565b610f6f613c54565b8060085f6101000a81548173ffffffffffffffffffffffffffffffffffffffff021916908373ffffffffffffffffffffffffffffffffffffffff16021790555050565b60085f9054906101000a900473ffffffffffffffffffffffffffffffffffffffff1681565b610fdf613325565b5f610fe861337b565b90505f600e5f8373ffffffffffffffffffffffffffffffffffffffff1673ffffffffffffffffffffffffffffffffffffffff1681526020019081526020015f209050806009015f9054906101000a900460ff16611071576040517f43050d9600000000000000000000000000000000000000000000000000000000815260040160405180910390fd5b5f8160010154146110bd5780600101546040517f440db96e0000000000000000000000000000000000000000000000000000000081526004016110b49190614df6565b60405180910390fd5b5f5f5f90505b60058160ff16101561111357848160ff16600581106110e5576110e46157bc565b5b6020020160208101906110f89190615813565b156111065760019150611113565b80806001019150506110c3565b50801561122b575f6111296207a120601a613ce5565b90505f6111366005613a04565b905084600f5f8381526020019081526020015f205f6101000a81548173ffffffffffffffffffffffffffffffffffffffff021916908373ffffffffffffffffffffffffffffffffffffffff160217905550858460080190600561119a9291906149e3565b508084600101819055506111ac613b20565b8460020160146101000a81548167ffffffffffffffff021916908367ffffffffffffffff1602179055508473ffffffffffffffffffffffffffffffffffffffff167f49d4f29a92da90b1497635010ae712bcc41f88b5e2be5fbbeaf556a967dfb1aa8360405161121c9190614df6565b60405180910390a25050611481565b5f3414611264576040517f0c0682b200000000000000000000000000000000000000000000000000000000815260040160405180910390fd5b5f5f6112e884600301600580602002604051908101604052809291905f905b828210156112df578382016040518060400160405290815f82015f9054906101000a900460ff1660ff1660ff1681526020015f820160019054906101000a900460ff1660ff1660ff168152505081526020019060010190611283565b5050505061187a565b915091505f846002015f9054906101000a900473ffffffffffffffffffffffffffffffffffffffff1690505f855f015490508673ffffffffffffffffffffffffffffffffffffffff167fb73b6b634aea9965e3c60d60ac8d2380100c337b6d66167d297351746f4f1ac982838761135f91906156eb565b858a60030188604051611376959493929190615966565b60405180910390a261138b82875f0154613d6b565b600e5f8873ffffffffffffffffffffffffffffffffffffffff1673ffffffffffffffffffffffffffffffffffffffff1681526020019081526020015f205f5f82015f9055600182015f9055600282015f6101000a81549073ffffffffffffffffffffffffffffffffffffffff02191690556002820160146101000a81549067ffffffffffffffff0219169055600382015f6114269190614a7b565b600882015f6114359190614a8e565b600982015f6101000a81549060ff02191690556009820160016101000a81549060ff021916905550505f841461147c5761147b87828661147591906156eb565b84613fcc565b5b505050505b50505061148c613372565b50565b611497613325565b5f6114a061337b565b90505f600e5f8373ffffffffffffffffffffffffffffffffffffffff1673ffffffffffffffffffffffffffffffffffffffff1681526020019081526020015f209050806009015f9054906101000a900460ff16611529576040517f43050d9600000000000000000000000000000000000000000000000000000000815260040160405180910390fd5b5f816001015403611566576040517f90a7340b00000000000000000000000000000000000000000000000000000000815260040160405180910390fd5b61156e613b20565b67ffffffffffffffff1660c88260020160149054906101000a900467ffffffffffffffff1661159d91906159b9565b67ffffffffffffffff161115611617576115b5613b20565b60c88260020160149054906101000a900467ffffffffffffffff166115da91906159b9565b6040517fb4ae675a00000000000000000000000000000000000000000000000000000000815260040161160e929190615a24565b60405180910390fd5b5f815f015490505f826002015f9054906101000a900473ffffffffffffffffffffffffffffffffffffffff169050600e5f8573ffffffffffffffffffffffffffffffffffffffff1673ffffffffffffffffffffffffffffffffffffffff1681526020019081526020015f205f5f82015f9055600182015f9055600282015f6101000a81549073ffffffffffffffffffffffffffffffffffffffff02191690556002820160146101000a81549067ffffffffffffffff0219169055600382015f6116e09190614a7b565b600882015f6116ef9190614a8e565b600982015f6101000a81549060ff02191690556009820160016101000a81549060ff021916905550505f73ffffffffffffffffffffffffffffffffffffffff168173ffffffffffffffffffffffffffffffffffffffff16036117f0575f8473ffffffffffffffffffffffffffffffffffffffff168360405161177090615496565b5f6040518083038185875af1925050503d805f81146117aa576040519150601f19603f3d011682016040523d82523d5f602084013e6117af565b606091505b50509050806117ea576040517f90b8ec1800000000000000000000000000000000000000000000000000000000815260040160405180910390fd5b5061181c565b61181b84838373ffffffffffffffffffffffffffffffffffffffff1661405c9092919063ffffffff16565b5b8373ffffffffffffffffffffffffffffffffffffffff167fa961a003e6bad850d2b19455e8db60fa1a37e0fce8259beadbb4f4958f4b8de18383604051611864929190615a4b565b60405180910390a250505050611878613372565b565b5f5f5f611886846140e2565b90508060026005811061189c5761189b6157bc565b5b60200201515f015160ff16816001600581106118bb576118ba6157bc565b5b60200201515f015160ff1614801561190e5750806003600581106118e2576118e16157bc565b5b60200201515f015160ff1681600260058110611901576119006157bc565b5b60200201515f015160ff16145b156119ab57805f60058110611926576119256157bc565b5b60200201515f015160ff1681600160058110611945576119446157bc565b5b60200201515f015160ff16148061199757508060046005811061196b5761196a6157bc565b5b60200201515f015160ff168160036005811061198a576119896157bc565b5b60200201515f015160ff16145b156119aa57601e60079250925050612a5d565b5b805f600581106119be576119bd6157bc565b5b60200201515f015160ff16816001600581106119dd576119dc6157bc565b5b60200201515f015160ff16148015611a30575080600360058110611a0457611a036157bc565b5b60200201515f015160ff1681600460058110611a2357611a226157bc565b5b60200201515f015160ff16145b15611ace5780600260058110611a4957611a486157bc565b5b60200201515f015160ff1681600160058110611a6857611a676157bc565b5b60200201515f015160ff161480611aba575080600260058110611a8e57611a8d6157bc565b5b60200201515f015160ff1681600360058110611aad57611aac6157bc565b5b60200201515f015160ff16145b15611acd57600860069250925050612a5d565b5b80600160058110611ae257611ae16157bc565b5b60200201516020015160ff16815f60058110611b0157611b006157bc565b5b60200201516020015160ff16148015611b57575080600360058110611b2957611b286157bc565b5b60200201516020015160ff1681600260058110611b4957611b486157bc565b5b60200201516020015160ff16145b8015611b9f575080600460058110611b7257611b716157bc565b5b60200201516020015160ff16815f60058110611b9157611b906157bc565b5b60200201516020015160ff16145b8015611be8575080600160058110611bba57611bb96157bc565b5b60200201516020015160ff1681600260058110611bda57611bd96157bc565b5b60200201516020015160ff16145b1561204d576001815f60058110611c0257611c016157bc565b5b60200201515f015160ff16148015611c385750600d81600460058110611c2b57611c2a6157bc565b5b60200201515f015160ff16145b15611d4257600181600360058110611c5357611c526157bc565b5b60200201515f0151611c659190615a72565b60ff1681600260058110611c7c57611c7b6157bc565b5b60200201515f015160ff16148015611cdb5750600181600460058110611ca557611ca46157bc565b5b60200201515f0151611cb79190615a72565b60ff1681600360058110611cce57611ccd6157bc565b5b60200201515f015160ff16145b8015611d2e5750600181600260058110611cf857611cf76157bc565b5b60200201515f0151611d0a9190615a72565b60ff1681600160058110611d2157611d206157bc565b5b60200201515f015160ff16145b15611d4157606460099250925050612a5d565b5b6001815f60058110611d5757611d566157bc565b5b60200201515f015160ff16148015611d8d5750600281600160058110611d8057611d7f6157bc565b5b60200201515f015160ff16145b15611ee957600181600160058110611da857611da76157bc565b5b60200201515f0151611dba9190615a72565b60ff16815f60058110611dd057611dcf6157bc565b5b60200201515f015160ff16148015611e2f5750600181600360058110611df957611df86157bc565b5b60200201515f0151611e0b9190615a72565b60ff1681600260058110611e2257611e216157bc565b5b60200201515f015160ff16145b8015611e825750600181600460058110611e4c57611e4b6157bc565b5b60200201515f0151611e5e9190615a72565b60ff1681600360058110611e7557611e746157bc565b5b60200201515f015160ff16145b8015611ed55750600181600260058110611e9f57611e9e6157bc565b5b60200201515f0151611eb19190615a72565b60ff1681600160058110611ec857611ec76157bc565b5b60200201515f015160ff16145b15611ee857603260089250925050612a5d565b5b600181600160058110611eff57611efe6157bc565b5b60200201515f0151611f119190615a72565b60ff16815f60058110611f2757611f266157bc565b5b60200201515f015160ff16148015611f865750600181600360058110611f5057611f4f6157bc565b5b60200201515f0151611f629190615a72565b60ff1681600260058110611f7957611f786157bc565b5b60200201515f015160ff16145b8015611fd95750600181600460058110611fa357611fa26157bc565b5b60200201515f0151611fb59190615a72565b60ff1681600360058110611fcc57611fcb6157bc565b5b60200201515f015160ff16145b801561202c5750600181600260058110611ff657611ff56157bc565b5b60200201515f01516120089190615a72565b60ff168160016005811061201f5761201e6157bc565b5b60200201515f015160ff16145b1561203f57603260089250925050612a5d565b600660059250925050612a5d565b6001815f60058110612062576120616157bc565b5b60200201515f015160ff16148015612098575060028160016005811061208b5761208a6157bc565b5b60200201515f015160ff16145b156121f4576001816001600581106120b3576120b26157bc565b5b60200201515f01516120c59190615a72565b60ff16815f600581106120db576120da6157bc565b5b60200201515f015160ff1614801561213a5750600181600360058110612104576121036157bc565b5b60200201515f01516121169190615a72565b60ff168160026005811061212d5761212c6157bc565b5b60200201515f015160ff16145b801561218d5750600181600460058110612157576121566157bc565b5b60200201515f01516121699190615a72565b60ff16816003600581106121805761217f6157bc565b5b60200201515f015160ff16145b80156121e057506001816002600581106121aa576121a96157bc565b5b60200201515f01516121bc9190615a72565b60ff16816001600581106121d3576121d26157bc565b5b60200201515f015160ff16145b156121f357600560049250925050612a5d565b5b6001815f60058110612209576122086157bc565b5b60200201515f015160ff1614801561223f5750600d81600460058110612232576122316157bc565b5b60200201515f015160ff16145b156123495760018160036005811061225a576122596157bc565b5b60200201515f015161226c9190615a72565b60ff1681600260058110612283576122826157bc565b5b60200201515f015160ff161480156122e257506001816004600581106122ac576122ab6157bc565b5b60200201515f01516122be9190615a72565b60ff16816003600581106122d5576122d46157bc565b5b60200201515f015160ff16145b801561233557506001816002600581106122ff576122fe6157bc565b5b60200201515f01516123119190615a72565b60ff1681600160058110612328576123276157bc565b5b60200201515f015160ff16145b1561234857600560049250925050612a5d565b5b60018160016005811061235f5761235e6157bc565b5b60200201515f01516123719190615a72565b60ff16815f60058110612387576123866157bc565b5b60200201515f015160ff161480156123e657506001816002600581106123b0576123af6157bc565b5b60200201515f01516123c29190615a72565b60ff16816001600581106123d9576123d86157bc565b5b60200201515f015160ff16145b80156124395750600181600360058110612403576124026157bc565b5b60200201515f01516124159190615a72565b60ff168160026005811061242c5761242b6157bc565b5b60200201515f015160ff16145b801561248c5750600181600460058110612456576124556157bc565b5b60200201515f01516124689190615a72565b60ff168160036005811061247f5761247e6157bc565b5b60200201515f015160ff16145b1561249f57600560049250925050612a5d565b806001600581106124b3576124b26157bc565b5b60200201515f015160ff16815f600581106124d1576124d06157bc565b5b60200201515f015160ff161480156125245750806002600581106124f8576124f76157bc565b5b60200201515f015160ff1681600160058110612517576125166157bc565b5b60200201515f015160ff16145b15612536576003809250925050612a5d565b8060026005811061254a576125496157bc565b5b60200201515f015160ff1681600160058110612569576125686157bc565b5b60200201515f015160ff161480156125bc5750806003600581106125905761258f6157bc565b5b60200201515f015160ff16816002600581106125af576125ae6157bc565b5b60200201515f015160ff16145b156125ce576003809250925050612a5d565b806003600581106125e2576125e16157bc565b5b60200201515f015160ff1681600260058110612601576126006157bc565b5b60200201515f015160ff16148015612654575080600460058110612628576126276157bc565b5b60200201515f015160ff1681600360058110612647576126466157bc565b5b60200201515f015160ff16145b15612666576003809250925050612a5d565b8060016005811061267a576126796157bc565b5b60200201515f015160ff16815f60058110612698576126976157bc565b5b60200201515f015160ff160361274057806003600581106126bc576126bb6157bc565b5b60200201515f015160ff16816002600581106126db576126da6157bc565b5b60200201515f015160ff16148061272d575080600460058110612701576127006157bc565b5b60200201515f015160ff16816003600581106127205761271f6157bc565b5b60200201515f015160ff16145b1561273f576002809250925050612a5d565b5b80600260058110612754576127536157bc565b5b60200201515f015160ff1681600160058110612773576127726157bc565b5b60200201515f015160ff16036127d45780600460058110612797576127966157bc565b5b60200201515f015160ff16816003600581106127b6576127b56157bc565b5b60200201515f015160ff16036127d3576002809250925050612a5d565b5b806001600581106127e8576127e76157bc565b5b60200201515f015160ff16815f60058110612806576128056157bc565b5b60200201515f015160ff160361287257600a815f6005811061282b5761282a6157bc565b5b60200201515f015160ff16118061285f57506001815f60058110612852576128516157bc565b5b60200201515f015160ff16145b15612871576001809250925050612a5d565b5b80600260058110612886576128856157bc565b5b60200201515f015160ff16816001600581106128a5576128a46157bc565b5b60200201515f015160ff160361291357600a816001600581106128cb576128ca6157bc565b5b60200201515f015160ff16118061290057506001816001600581106128f3576128f26157bc565b5b60200201515f015160ff16145b15612912576001809250925050612a5d565b5b80600360058110612927576129266157bc565b5b60200201515f015160ff1681600260058110612946576129456157bc565b5b60200201515f015160ff16036129b457600a8160026005811061296c5761296b6157bc565b5b60200201515f015160ff1611806129a15750600181600260058110612994576129936157bc565b5b60200201515f015160ff16145b156129b3576001809250925050612a5d565b5b806004600581106129c8576129c76157bc565b5b60200201515f015160ff16816003600581106129e7576129e66157bc565b5b60200201515f015160ff1603612a5557600a81600360058110612a0d57612a0c6157bc565b5b60200201515f015160ff161180612a425750600181600360058110612a3557612a346157bc565b5b60200201515f015160ff16145b15612a54576001809250925050612a5d565b5b5f5f92509250505b915091565b612a6a614a94565b600e5f8373ffffffffffffffffffffffffffffffffffffffff1673ffffffffffffffffffffffffffffffffffffffff1681526020019081526020015f20604051806101000160405290815f820154815260200160018201548152602001600282015f9054906101000a900473ffffffffffffffffffffffffffffffffffffffff1673ffffffffffffffffffffffffffffffffffffffff1673ffffffffffffffffffffffffffffffffffffffff1681526020016002820160149054906101000a900467ffffffffffffffff1667ffffffffffffffff1667ffffffffffffffff16815260200160038201600580602002604051908101604052809291905f905b82821015612bc4578382016040518060400160405290815f82015f9054906101000a900460ff1660ff1660ff1681526020015f820160019054906101000a900460ff1660ff1660ff168152505081526020019060010190612b68565b50505050815260200160088201600580602002604051908101604052809291908260058015612c2b576020028201915f905b82829054906101000a900460ff161515815260200190600101906020825f01049283019260010382029150808411612bf65790505b50505050508152602001600982015f9054906101000a900460ff161515151581526020016009820160019054906101000a900460ff1615151515815250509050919050565b612c78613c54565b612c818161410a565b50565b5f600f5f8581526020019081526020015f205f9054906101000a900473ffffffffffffffffffffffffffffffffffffffff1690505f73ffffffffffffffffffffffffffffffffffffffff168173ffffffffffffffffffffffffffffffffffffffff1603612cef575f5ffd5b600f5f8581526020019081526020015f205f6101000a81549073ffffffffffffffffffffffffffffffffffffffff02191690555f600e5f8373ffffffffffffffffffffffffffffffffffffffff1673ffffffffffffffffffffffffffffffffffffffff1681526020019081526020015f2090508060090160019054906101000a900460ff1615612ec7575f600d805480602002602001604051908101604052809291908181526020015f905b82821015612dfe578382905f5260205f20016040518060400160405290815f82015f9054906101000a900460ff1660ff1660ff1681526020015f820160019054906101000a900460ff1660ff1660ff168152505081526020019060010190612d9b565b5050505090505f5f90505b60058160ff161015612e4a57612e3d8187878460ff16818110612e2f57612e2e6157bc565b5b905060200201358685614236565b8080600101915050612e09565b505f82600101819055505f8260090160016101000a81548160ff0219169083151502179055508273ffffffffffffffffffffffffffffffffffffffff167fc3b36130c75d38724a3591fd74cfe9738bf5234994a2bebe0d81ec71e012282a83600301604051612eb99190615aa6565b60405180910390a25061331e565b5f600d805480602002602001604051908101604052809291908181526020015f905b82821015612f4c578382905f5260205f20016040518060400160405290815f82015f9054906101000a900460ff1660ff1660ff1681526020015f820160019054906101000a900460ff1660ff1660ff168152505081526020019060010190612ee9565b5050505090505f815190505f5f90505b600581101561308a575f5f90505b8281101561307c57838181518110612f8557612f846157bc565b5b60200260200101515f015160ff16856003018360058110612fa957612fa86157bc565b5b015f015f9054906101000a900460ff1660ff161480156130125750838181518110612fd757612fd66157bc565b5b60200260200101516020015160ff16856003018360058110612ffc57612ffb6157bc565b5b015f0160019054906101000a900460ff1660ff16145b1561306f57836001846130259190615ac0565b81518110613036576130356157bc565b5b6020026020010151848281518110613051576130506157bc565b5b6020026020010181905250828061306790615af3565b93505061307c565b8080600101915050612f6a565b508080600101915050612f5c565b505f5f90505b60058160ff16101561310657836008018160ff16600581106130b5576130b46157bc565b5b602091828204019190069054906101000a900460ff16156130f9576130f88188888460ff168181106130ea576130e96157bc565b5b905060200201358786614236565b5b8080600101915050613090565b505f835f015490505f846002015f9054906101000a900473ffffffffffffffffffffffffffffffffffffffff1690505f5f6131b987600301600580602002604051908101604052809291905f905b828210156131b0578382016040518060400160405290815f82015f9054906101000a900460ff1660ff1660ff1681526020015f820160019054906101000a900460ff1660ff1660ff168152505081526020019060010190613154565b5050505061187a565b915091508773ffffffffffffffffffffffffffffffffffffffff167fb73b6b634aea9965e3c60d60ac8d2380100c337b6d66167d297351746f4f1ac985848761320291906156eb565b868b60030186604051613219959493929190615966565b60405180910390a261322e83885f0154613d6b565b600e5f8973ffffffffffffffffffffffffffffffffffffffff1673ffffffffffffffffffffffffffffffffffffffff1681526020019081526020015f205f5f82015f9055600182015f9055600282015f6101000a81549073ffffffffffffffffffffffffffffffffffffffff02191690556002820160146101000a81549067ffffffffffffffff0219169055600382015f6132c99190614a7b565b600882015f6132d89190614a8e565b600982015f6101000a81549060ff02191690556009820160016101000a81549060ff0219169055505061331788838661331191906156eb565b85613fcc565b5050505050505b5050505050565b60025f5403613369576040517f08c379a000000000000000000000000000000000000000000000000000000000815260040161336090615b64565b60405180910390fd5b60025f81905550565b60015f81905550565b5f60145f36905010158015613395575061339433610519565b5b156133a957601436033560601c90506133ad565b3390505b90565b5f5f73ffffffffffffffffffffffffffffffffffffffff168273ffffffffffffffffffffffffffffffffffffffff16036134245760085f9054906101000a900473ffffffffffffffffffffffffffffffffffffffff1673ffffffffffffffffffffffffffffffffffffffff163190506134c0565b8173ffffffffffffffffffffffffffffffffffffffff166370a0823160085f9054906101000a900473ffffffffffffffffffffffffffffffffffffffff166040518263ffffffff1660e01b815260040161347e9190614d08565b602060405180830381865afa158015613499573d5f5f3e3d5ffd5b505050506040513d601f19601f820116820180604052508101906134bd9190615b82565b90505b5f6305f5e10062020b31836134d591906156eb565b6134df9190615759565b9050808411156135285783816040517fd53662aa00000000000000000000000000000000000000000000000000000000815260040161351f929190615168565b60405180910390fd5b50505050565b5f5f8503613568576040517f07375c8400000000000000000000000000000000000000000000000000000000815260040160405180910390fd5b60085f9054906101000a900473ffffffffffffffffffffffffffffffffffffffff1673ffffffffffffffffffffffffffffffffffffffff1663bfd7f9cc30886040518363ffffffff1660e01b81526004016135c4929190615403565b602060405180830381865afa1580156135df573d5f5f3e3d5ffd5b505050506040513d601f19601f820116820180604052508101906136039190615bc1565b613639576040517f51c3b94f00000000000000000000000000000000000000000000000000000000815260040160405180910390fd5b5f5f60085f9054906101000a900473ffffffffffffffffffffffffffffffffffffffff1673ffffffffffffffffffffffffffffffffffffffff16630a5748a8856040518263ffffffff1660e01b81526004016136959190614d08565b6040805180830381865afa1580156136af573d5f5f3e3d5ffd5b505050506040513d601f19601f820116820180604052508101906136d39190615bec565b91509150811561371a57806040517f6c2775f50000000000000000000000000000000000000000000000000000000081526004016137119190614df6565b60405180910390fd5b6137248686610e60565b92505f73ffffffffffffffffffffffffffffffffffffffff168873ffffffffffffffffffffffffffffffffffffffff16036137da5782876137659190615789565b3410156137b65782876137789190615789565b346040517fde9b74a10000000000000000000000000000000000000000000000000000000081526004016137ad929190615168565b60405180910390fd5b6137d587846137c59190615789565b346137d09190615ac0565b614309565b613863565b823410156138215782346040517fde9b74a1000000000000000000000000000000000000000000000000000000008152600401613818929190615168565b60405180910390fd5b61384e8430898b73ffffffffffffffffffffffffffffffffffffffff166143b5909392919063ffffffff16565b613862833461385d9190615ac0565b614309565b5b5f60085f9054906101000a900473ffffffffffffffffffffffffffffffffffffffff1673ffffffffffffffffffffffffffffffffffffffff1663133d199a6040518163ffffffff1660e01b8152600401602060405180830381865afa1580156138ce573d5f5f3e3d5ffd5b505050506040513d601f19601f820116820180604052508101906138f29190615b82565b90505f8111156139a3575f6103e8828a61390c91906156eb565b6139169190615759565b905060085f9054906101000a900473ffffffffffffffffffffffffffffffffffffffff1673ffffffffffffffffffffffffffffffffffffffff1663b0e27f7487836040518363ffffffff1660e01b8152600401613974929190615c2a565b5f604051808303815f87803b15801561398b575f5ffd5b505af115801561399d573d5f5f3e3d5ffd5b50505050505b8360045f8282546139b49190615789565b925050819055507f312e2def0b1ae52334b8d967d371c7afe0625e9a3f4f70810e79cf351fe2a5a9308a878b6040516139f09493929190615c51565b60405180910390a150505095945050505050565b5f60095f9054906101000a900473ffffffffffffffffffffffffffffffffffffffff1673ffffffffffffffffffffffffffffffffffffffff16639b1c385e6040518060c00160405280600b548152602001600a548152602001600c5f9054906101000a900461ffff1661ffff168152602001600c60029054906101000a900463ffffffff1663ffffffff1681526020018563ffffffff168152602001613aba60405180602001604052806001151581525061443e565b8152506040518263ffffffff1660e01b8152600401613ad99190615dcc565b6020604051808303815f875af1158015613af5573d5f5f3e3d5ffd5b505050506040513d601f19601f82011682018060405250810190613b199190615b82565b9050919050565b5f5f46905061a4b1811480613b37575062066eed81145b15613bb257606473ffffffffffffffffffffffffffffffffffffffff1663a3b1b31d6040518163ffffffff1660e01b8152600401602060405180830381865afa158015613b86573d5f5f3e3d5ffd5b505050506040513d601f19601f82011682018060405250810190613baa9190615b82565b915050613bb7565b439150505b90565b5f5f46905061a4b1811480613bd1575062066eed81145b15613c4c57606c73ffffffffffffffffffffffffffffffffffffffff1663c6f7de0e6040518163ffffffff1660e01b8152600401602060405180830381865afa158015613c20573d5f5f3e3d5ffd5b505050506040513d601f19601f82011682018060405250810190613c449190615b82565b915050613c51565b5f9150505b90565b60015f9054906101000a900473ffffffffffffffffffffffffffffffffffffffff1673ffffffffffffffffffffffffffffffffffffffff163373ffffffffffffffffffffffffffffffffffffffff1614613ce3576040517f08c379a0000000000000000000000000000000000000000000000000000000008152600401613cda90615e36565b60405180910390fd5b565b5f613cf08383610e60565b905080341015613d395780346040517fde9b74a1000000000000000000000000000000000000000000000000000000008152600401613d30929190615168565b60405180910390fd5b613d4d8134613d489190615ac0565b614309565b8060045f828254613d5e9190615789565b9250508190555092915050565b5f73ffffffffffffffffffffffffffffffffffffffff168273ffffffffffffffffffffffffffffffffffffffff1603613e64575f60085f9054906101000a900473ffffffffffffffffffffffffffffffffffffffff1673ffffffffffffffffffffffffffffffffffffffff1682604051613de490615496565b5f6040518083038185875af1925050503d805f8114613e1e576040519150601f19603f3d011682016040523d82523d5f602084013e613e23565b606091505b5050905080613e5e576040517ff0c49d4400000000000000000000000000000000000000000000000000000000815260040160405180910390fd5b50613f8b565b8173ffffffffffffffffffffffffffffffffffffffff1663095ea7b360085f9054906101000a900473ffffffffffffffffffffffffffffffffffffffff16836040518363ffffffff1660e01b8152600401613ec0929190615c2a565b6020604051808303815f875af1158015613edc573d5f5f3e3d5ffd5b505050506040513d601f19601f82011682018060405250810190613f009190615bc1565b5060085f9054906101000a900473ffffffffffffffffffffffffffffffffffffffff1673ffffffffffffffffffffffffffffffffffffffff166347e7ef2483836040518363ffffffff1660e01b8152600401613f5d929190615c2a565b5f604051808303815f87803b158015613f74575f5ffd5b505af1158015613f86573d5f5f3e3d5ffd5b505050505b7f312e2def0b1ae52334b8d967d371c7afe0625e9a3f4f70810e79cf351fe2a5a930833384604051613fc09493929190615c51565b60405180910390a15050565b60085f9054906101000a900473ffffffffffffffffffffffffffffffffffffffff1673ffffffffffffffffffffffffffffffffffffffff16636c025ec28484846040518463ffffffff1660e01b815260040161402a93929190615e54565b5f604051808303815f87803b158015614041575f5ffd5b505af1158015614053573d5f5f3e3d5ffd5b50505050505050565b6140dd8363a9059cbb60e01b848460405160240161407b929190615c2a565b604051602081830303815290604052907bffffffffffffffffffffffffffffffffffffffffffffffffffffffff19166020820180517bffffffffffffffffffffffffffffffffffffffffffffffffffffffff83818316178352505050506144d6565b505050565b6140ea614b03565b614102825f600160056140fd9190615ac0565b61459c565b819050919050565b3373ffffffffffffffffffffffffffffffffffffffff168173ffffffffffffffffffffffffffffffffffffffff1603614178576040517f08c379a000000000000000000000000000000000000000000000000000000000815260040161416f90615ed3565b60405180910390fd5b8060025f6101000a81548173ffffffffffffffffffffffffffffffffffffffff021916908373ffffffffffffffffffffffffffffffffffffffff1602179055508073ffffffffffffffffffffffffffffffffffffffff1660015f9054906101000a900473ffffffffffffffffffffffffffffffffffffffff1673ffffffffffffffffffffffffffffffffffffffff167fed8889f560326eb138920d842192f0eb3dd22b4f139c87a2c57538e05bae127860405160405180910390a350565b5f8151846142449190615ef1565b9050818181518110614259576142586157bc565b5b6020026020010151600e5f8573ffffffffffffffffffffffffffffffffffffffff1673ffffffffffffffffffffffffffffffffffffffff1681526020019081526020015f206003018660ff16600581106142b6576142b56157bc565b5b015f820151815f015f6101000a81548160ff021916908360ff1602179055506020820151815f0160016101000a81548160ff021916908360ff16021790555090505061430281836147cd565b5050505050565b5f8103156143b2575f3373ffffffffffffffffffffffffffffffffffffffff168260405161433690615496565b5f6040518083038185875af1925050503d805f8114614370576040519150601f19603f3d011682016040523d82523d5f602084013e614375565b606091505b50509050806143b0576040517ff0c49d4400000000000000000000000000000000000000000000000000000000815260040160405180910390fd5b505b50565b614438846323b872dd60e01b8585856040516024016143d6939291906154aa565b604051602081830303815290604052907bffffffffffffffffffffffffffffffffffffffffffffffffffffffff19166020820180517bffffffffffffffffffffffffffffffffffffffffffffffffffffffff83818316178352505050506144d6565b50505050565b60607f92fd13387c7fe7befbc38d303d6468778fb9731bc4583f17d92989c6fcfdeaaa826040516024016144729190615f3b565b604051602081830303815290604052907bffffffffffffffffffffffffffffffffffffffffffffffffffffffff19166020820180517bffffffffffffffffffffffffffffffffffffffffffffffffffffffff83818316178352505050509050919050565b5f614537826040518060400160405280602081526020017f5361666545524332303a206c6f772d6c6576656c2063616c6c206661696c65648152508573ffffffffffffffffffffffffffffffffffffffff1661481e9092919063ffffffff16565b90505f815114806145585750808060200190518101906145579190615bc1565b5b614597576040517f08c379a000000000000000000000000000000000000000000000000000000000815260040161458e90615fc4565b60405180910390fd5b505050565b5f8290505f8290508082036145b25750506147c8565b5f85600286866145c29190615fe2565b6145cc9190616022565b866145d7919061608a565b600581106145e8576145e76157bc565b5b60200201515f015160ff1690505b81831361479c575b80868460058110614612576146116157bc565b5b60200201515f015160ff16101561463657828061462e906160cb565b9350506145fe565b5b85826005811061464a576146496157bc565b5b60200201515f015160ff1681101561466f57818061466790616112565b925050614637565b81831361479757858260058110614689576146886157bc565b5b60200201515f01518684600581106146a4576146a36157bc565b5b60200201515f01518785600581106146bf576146be6157bc565b5b60200201515f018885600581106146d9576146d86157bc565b5b60200201515f018260ff1660ff168152508260ff1660ff168152505050858260058110614709576147086157bc565b5b602002015160200151868460058110614725576147246157bc565b5b602002015160200151878560058110614741576147406157bc565b5b602002015160200188856005811061475c5761475b6157bc565b5b60200201516020018260ff1660ff168152508260ff1660ff1681525050508280614785906160cb565b935050818061479390616112565b9250505b6145f6565b818512156147b0576147af86868461459c565b5b838312156147c4576147c386848661459c565b5b5050505b505050565b80600182516147dc9190615ac0565b815181106147ed576147ec6157bc565b5b6020026020010151818381518110614808576148076157bc565b5b6020026020010181905250600181510381525050565b606061482c84845f85614835565b90509392505050565b60608247101561487a576040517f08c379a0000000000000000000000000000000000000000000000000000000008152600401614871906161c9565b60405180910390fd5b5f5f8673ffffffffffffffffffffffffffffffffffffffff1685876040516148a29190616217565b5f6040518083038185875af1925050503d805f81146148dc576040519150601f19603f3d011682016040523d82523d5f602084013e6148e1565b606091505b50915091506148f2878383876148fe565b92505050949350505050565b6060831561495f575f8351036149575761491785614972565b614956576040517f08c379a000000000000000000000000000000000000000000000000000000000815260040161494d90616277565b60405180910390fd5b5b82905061496a565b6149698383614994565b5b949350505050565b5f5f8273ffffffffffffffffffffffffffffffffffffffff163b119050919050565b5f825111156149a65781518083602001fd5b806040517f08c379a00000000000000000000000000000000000000000000000000000000081526004016149da91906162d7565b60405180910390fd5b826005601f01602090048101928215614a6a579160200282015f5b83821115614a3c578335151583826101000a81548160ff02191690831515021790555092602001926001016020815f010492830192600103026149fe565b8015614a685782816101000a81549060ff02191690556001016020815f01049283019260010302614a3c565b505b509050614a779190614b30565b5090565b508060050190614a8b9190614b4b565b50565b505f9055565b6040518061010001604052805f81526020015f81526020015f73ffffffffffffffffffffffffffffffffffffffff1681526020015f67ffffffffffffffff168152602001614ae0614b03565b8152602001614aed614b87565b81526020015f151581526020015f151581525090565b6040518060a001604052806005905b614b1a614ba9565b815260200190600190039081614b125790505090565b5b80821115614b47575f815f905550600101614b31565b5090565b5b80821115614b83575f5f82015f6101000a81549060ff02191690555f820160016101000a81549060ff021916905550600101614b4c565b5090565b6040518060a00160405280600590602082028036833780820191505090505090565b60405180604001604052805f60ff1681526020015f60ff1681525090565b5f604051905090565b5f5ffd5b5f5ffd5b5f819050919050565b614bea81614bd8565b8114614bf4575f5ffd5b50565b5f81359050614c0581614be1565b92915050565b5f5ffd5b5f5ffd5b5f5ffd5b5f5f83601f840112614c2c57614c2b614c0b565b5b8235905067ffffffffffffffff811115614c4957614c48614c0f565b5b602083019150836020820283011115614c6557614c64614c13565b5b9250929050565b5f5f5f60408486031215614c8357614c82614bd0565b5b5f614c9086828701614bf7565b935050602084013567ffffffffffffffff811115614cb157614cb0614bd4565b5b614cbd86828701614c17565b92509250509250925092565b5f73ffffffffffffffffffffffffffffffffffffffff82169050919050565b5f614cf282614cc9565b9050919050565b614d0281614ce8565b82525050565b5f602082019050614d1b5f830184614cf9565b92915050565b614d2a81614ce8565b8114614d34575f5ffd5b50565b5f81359050614d4581614d21565b92915050565b5f60208284031215614d6057614d5f614bd0565b5b5f614d6d84828501614d37565b91505092915050565b5f8115159050919050565b614d8a81614d76565b82525050565b5f602082019050614da35f830184614d81565b92915050565b5f5f60408385031215614dbf57614dbe614bd0565b5b5f614dcc85828601614bf7565b9250506020614ddd85828601614d37565b9150509250929050565b614df081614bd8565b82525050565b5f602082019050614e095f830184614de7565b92915050565b5f819050919050565b5f614e32614e2d614e2884614cc9565b614e0f565b614cc9565b9050919050565b5f614e4382614e18565b9050919050565b5f614e5482614e39565b9050919050565b614e6481614e4a565b82525050565b5f602082019050614e7d5f830184614e5b565b92915050565b5f614e8d82614e39565b9050919050565b614e9d81614e83565b82525050565b5f602082019050614eb65f830184614e94565b92915050565b5f5f60408385031215614ed257614ed1614bd0565b5b5f614edf85828601614bf7565b9250506020614ef085828601614bf7565b9150509250929050565b5f614f0482614e39565b9050919050565b614f1481614efa565b82525050565b5f602082019050614f2d5f830184614f0b565b92915050565b5f81905082602060050282011115614f4e57614f4d614c13565b5b92915050565b5f60a08284031215614f6957614f68614bd0565b5b5f614f7684828501614f33565b91505092915050565b5f601f19601f8301169050919050565b7f4e487b71000000000000000000000000000000000000000000000000000000005f52604160045260245ffd5b614fc582614f7f565b810181811067ffffffffffffffff82111715614fe457614fe3614f8f565b5b80604052505050565b5f614ff6614bc7565b90506150028282614fbc565b919050565b5f67ffffffffffffffff82111561502157615020614f8f565b5b602082029050919050565b5f5ffd5b5f60ff82169050919050565b61504581615030565b811461504f575f5ffd5b50565b5f813590506150608161503c565b92915050565b5f6040828403121561507b5761507a61502c565b5b6150856040614fed565b90505f61509484828501615052565b5f8301525060206150a784828501615052565b60208301525092915050565b5f6150c56150c084615007565b614fed565b905080604084028301858111156150df576150de614c13565b5b835b8181101561510857806150f48882615066565b8452602084019350506040810190506150e1565b5050509392505050565b5f82601f83011261512657615125614c0b565b5b60056151338482856150b3565b91505092915050565b5f610140828403121561515257615151614bd0565b5b5f61515f84828501615112565b91505092915050565b5f60408201905061517b5f830185614de7565b6151886020830184614de7565b9392505050565b61519881614bd8565b82525050565b6151a781614ce8565b82525050565b5f67ffffffffffffffff82169050919050565b6151c9816151ad565b82525050565b5f60059050919050565b5f81905092915050565b5f819050919050565b6151f581615030565b82525050565b604082015f82015161520f5f8501826151ec565b50602082015161522260208501826151ec565b50505050565b5f61523383836151fb565b60408301905092915050565b5f602082019050919050565b615254816151cf565b61525e81846151d9565b9250615269826151e3565b805f5b838110156152995781516152808782615228565b965061528b8361523f565b92505060018101905061526c565b505050505050565b5f60059050919050565b5f81905092915050565b5f819050919050565b6152c781614d76565b82525050565b5f6152d883836152be565b60208301905092915050565b5f602082019050919050565b6152f9816152a1565b61530381846152ab565b925061530e826152b5565b805f5b8381101561533e57815161532587826152cd565b9650615330836152e4565b925050600181019050615311565b505050505050565b6102a082015f82015161535b5f85018261518f565b50602082015161536e602085018261518f565b506040820151615381604085018261519e565b50606082015161539460608501826151c0565b5060808201516153a7608085018261524b565b5060a08201516153bb6101c08501826152f0565b5060c08201516153cf6102608501826152be565b5060e08201516153e36102808501826152be565b50505050565b5f6102a0820190506153fd5f830184615346565b92915050565b5f6040820190506154165f830185614cf9565b6154236020830184614cf9565b9392505050565b5f8151905061543881614d21565b92915050565b5f6020828403121561545357615452614bd0565b5b5f6154608482850161542a565b91505092915050565b5f81905092915050565b50565b5f6154815f83615469565b915061548c82615473565b5f82019050919050565b5f6154a082615476565b9150819050919050565b5f6060820190506154bd5f830186614cf9565b6154ca6020830185614cf9565b6154d76040830184614de7565b949350505050565b5f6060820190506154f25f830186614de7565b6154ff6020830185614cf9565b61550c6040830184614de7565b949350505050565b5f82825260208201905092915050565b7f4d7573742062652070726f706f736564206f776e6572000000000000000000005f82015250565b5f615558601683615514565b915061556382615524565b602082019050919050565b5f6020820190508181035f8301526155858161554c565b9050919050565b5f60608201905061559f5f830186614cf9565b6155ac6020830185614cf9565b6155b96040830184614cf9565b949350505050565b5f69ffffffffffffffffffff82169050919050565b6155df816155c1565b81146155e9575f5ffd5b50565b5f815190506155fa816155d6565b92915050565b5f819050919050565b61561281615600565b811461561c575f5ffd5b50565b5f8151905061562d81615609565b92915050565b5f8151905061564181614be1565b92915050565b5f5f5f5f5f60a086880312156156605761565f614bd0565b5b5f61566d888289016155ec565b955050602061567e8882890161561f565b945050604061568f88828901615633565b93505060606156a088828901615633565b92505060806156b1888289016155ec565b9150509295509295909350565b7f4e487b71000000000000000000000000000000000000000000000000000000005f52601160045260245ffd5b5f6156f582614bd8565b915061570083614bd8565b925082820261570e81614bd8565b91508282048414831517615725576157246156be565b5b5092915050565b7f4e487b71000000000000000000000000000000000000000000000000000000005f52601260045260245ffd5b5f61576382614bd8565b915061576e83614bd8565b92508261577e5761577d61572c565b5b828204905092915050565b5f61579382614bd8565b915061579e83614bd8565b92508282019050808211156157b6576157b56156be565b5b92915050565b7f4e487b71000000000000000000000000000000000000000000000000000000005f52603260045260245ffd5b6157f281614d76565b81146157fc575f5ffd5b50565b5f8135905061580d816157e9565b92915050565b5f6020828403121561582857615827614bd0565b5b5f615835848285016157ff565b91505092915050565b5f60059050919050565b5f81905092915050565b5f819050919050565b5f815f1c9050919050565b5f60ff82169050919050565b5f61588461587f8361585b565b615866565b9050919050565b5f8160081c9050919050565b5f6158a96158a48361588b565b615866565b9050919050565b604082015f5f83015490506158c481615872565b6158d05f8601826151ec565b506158da81615897565b6158e760208601826151ec565b5050505050565b5f6158f983836158b0565b60408301905092915050565b5f600182019050919050565b61591a8161583e565b6159248184615848565b925061592f82615852565b805f5b8381101561595e578161594587826158ee565b965061595083615905565b925050600181019050615932565b505050505050565b5f6101c08201905061597a5f830188614de7565b6159876020830187614de7565b6159946040830186614cf9565b6159a16060830185615911565b6159af6101a0830184614de7565b9695505050505050565b5f6159c3826151ad565b91506159ce836151ad565b9250828201905067ffffffffffffffff8111156159ee576159ed6156be565b5b92915050565b5f615a0e615a09615a04846151ad565b614e0f565b614bd8565b9050919050565b615a1e816159f4565b82525050565b5f604082019050615a375f830185614de7565b615a446020830184615a15565b9392505050565b5f604082019050615a5e5f830185614de7565b615a6b6020830184614cf9565b9392505050565b5f615a7c82615030565b9150615a8783615030565b9250828203905060ff811115615aa057615a9f6156be565b5b92915050565b5f61014082019050615aba5f830184615911565b92915050565b5f615aca82614bd8565b9150615ad583614bd8565b9250828203905081811115615aed57615aec6156be565b5b92915050565b5f615afd82614bd8565b91505f8203615b0f57615b0e6156be565b5b600182039050919050565b7f5265656e7472616e637947756172643a207265656e7472616e742063616c6c005f82015250565b5f615b4e601f83615514565b9150615b5982615b1a565b602082019050919050565b5f6020820190508181035f830152615b7b81615b42565b9050919050565b5f60208284031215615b9757615b96614bd0565b5b5f615ba484828501615633565b91505092915050565b5f81519050615bbb816157e9565b92915050565b5f60208284031215615bd657615bd5614bd0565b5b5f615be384828501615bad565b91505092915050565b5f5f60408385031215615c0257615c01614bd0565b5b5f615c0f85828601615bad565b9250506020615c2085828601615633565b9150509250929050565b5f604082019050615c3d5f830185614cf9565b615c4a6020830184614de7565b9392505050565b5f608082019050615c645f830187614cf9565b615c716020830186614cf9565b615c7e6040830185614cf9565b615c8b6060830184614de7565b95945050505050565b5f819050919050565b615ca681615c94565b82525050565b5f61ffff82169050919050565b615cc281615cac565b82525050565b5f63ffffffff82169050919050565b615ce081615cc8565b82525050565b5f81519050919050565b5f82825260208201905092915050565b8281835e5f83830152505050565b5f615d1882615ce6565b615d228185615cf0565b9350615d32818560208601615d00565b615d3b81614f7f565b840191505092915050565b5f60c083015f830151615d5b5f860182615c9d565b506020830151615d6e602086018261518f565b506040830151615d816040860182615cb9565b506060830151615d946060860182615cd7565b506080830151615da76080860182615cd7565b5060a083015184820360a0860152615dbf8282615d0e565b9150508091505092915050565b5f6020820190508181035f830152615de48184615d46565b905092915050565b7f4f6e6c792063616c6c61626c65206279206f776e6572000000000000000000005f82015250565b5f615e20601683615514565b9150615e2b82615dec565b602082019050919050565b5f6020820190508181035f830152615e4d81615e14565b9050919050565b5f606082019050615e675f830186614cf9565b615e746020830185614de7565b615e816040830184614cf9565b949350505050565b7f43616e6e6f74207472616e7366657220746f2073656c660000000000000000005f82015250565b5f615ebd601783615514565b9150615ec882615e89565b602082019050919050565b5f6020820190508181035f830152615eea81615eb1565b9050919050565b5f615efb82614bd8565b9150615f0683614bd8565b925082615f1657615f1561572c565b5b828206905092915050565b602082015f820151615f355f8501826152be565b50505050565b5f602082019050615f4e5f830184615f21565b92915050565b7f5361666545524332303a204552433230206f7065726174696f6e20646964206e5f8201527f6f74207375636365656400000000000000000000000000000000000000000000602082015250565b5f615fae602a83615514565b9150615fb982615f54565b604082019050919050565b5f6020820190508181035f830152615fdb81615fa2565b9050919050565b5f615fec82615600565b9150615ff783615600565b925082820390508181125f8412168282135f85121516171561601c5761601b6156be565b5b92915050565b5f61602c82615600565b915061603783615600565b9250826160475761604661572c565b5b60015f0383147f80000000000000000000000000000000000000000000000000000000000000008314161561607f5761607e6156be565b5b828205905092915050565b5f61609482615600565b915061609f83615600565b92508282019050828112155f8312168382125f8412151617156160c5576160c46156be565b5b92915050565b5f6160d582615600565b91507f7fffffffffffffffffffffffffffffffffffffffffffffffffffffffffffffff8203616107576161066156be565b5b600182019050919050565b5f61611c82615600565b91507f8000000000000000000000000000000000000000000000000000000000000000820361614e5761614d6156be565b5b600182039050919050565b7f416464726573733a20696e73756666696369656e742062616c616e636520666f5f8201527f722063616c6c0000000000000000000000000000000000000000000000000000602082015250565b5f6161b3602683615514565b91506161be82616159565b604082019050919050565b5f6020820190508181035f8301526161e0816161a7565b9050919050565b5f6161f182615ce6565b6161fb8185615469565b935061620b818560208601615d00565b80840191505092915050565b5f61622282846161e7565b915081905092915050565b7f416464726573733a2063616c6c20746f206e6f6e2d636f6e74726163740000005f82015250565b5f616261601d83615514565b915061626c8261622d565b602082019050919050565b5f6020820190508181035f83015261628e81616255565b9050919050565b5f81519050919050565b5f6162a982616295565b6162b38185615514565b93506162c3818560208601615d00565b6162cc81614f7f565b840191505092915050565b5f6020820190508181035f8301526162ef818461629f565b90509291505056fea264697066735822122054e1c4269abcf36526d90ecfb9ed0d198e049817c204c74212bdb42999b01c2b64736f6c634300081c0033","linkReferences":{}},"methodIdentifiers":{"Bankroll()":"d0bcfc0c","LINK_ETH_FEED()":"ad178361","VRFFees()":"8d7c16d2","VideoPoker_GetState(address)":"f2d3444b","VideoPoker_Refund()":"e67ae769","VideoPoker_Replace(bool[5])":"e40ea4bc","VideoPoker_Start(uint256,address)":"6c8abecc","_determineHandPayout((uint8,uint8)[5])":"ec0f5d8c","_trustedForwarder()":"56c022bb","acceptOwnership()":"79ba5097","getVRFFee(uint256,uint256)":"baaa3edf","isTrustedForwarder(address)":"572b6c05","owner()":"8da5cb5b","rawFulfillRandomWords(uint256,uint256[])":"1fe543e3","s_vrfCoordinator()":"9eccacf6","setBankroll(address)":"bde8a93e","setCoordinator(address)":"8ea98117","transferFees(address)":"63dc4ef5","transferOwnership(address)":"f2fde38b"},"id":12}