{"abi":[{"type":"constructor","inputs":[{"name":"_bankroll","type":"address","internalType":"address"},{"name":"_vrf","type":"address","internalType":"address"},{"name":"link_eth_feed","type":"address","internalType":"address"},{"name":"_forwarder","type":"address","internalType":"address"},{"name":"maxReveal","type":"uint8[24]","internalType":"uint8[24]"}],"stateMutability":"nonpayable"},{"type":"function","name":"Bankroll","inputs":[],"outputs":[{"name":"","type":"address","internalType":"contract IBankRoll"}],"stateMutability":"view"},{"type":"function","name":"LINK_ETH_FEED","inputs":[],"outputs":[{"name":"","type":"address","internalType":"contract IDecimalAggregator"}],"stateMutability":"view"},{"type":"function","name":"Mines_End","inputs":[],"outputs":[],"stateMutability":"nonpayable"},{"type":"function","name":"Mines_GetMaxReveal","inputs":[],"outputs":[{"name":"maxReveal","type":"uint256[24]","internalType":"uint256[24]"}],"stateMutability":"view"},{"type":"function","name":"Mines_GetMultipliers","inputs":[{"name":"numMines","type":"uint256","internalType":"uint256"},{"name":"numRevealed","type":"uint256","internalType":"uint256"}],"outputs":[{"name":"multiplier","type":"uint256","internalType":"uint256"}],"stateMutability":"view"},{"type":"function","name":"Mines_GetState","inputs":[{"name":"player","type":"address","internalType":"address"}],"outputs":[{"name":"minesState","type":"tuple","internalType":"struct Mines.MinesGame","components":[{"name":"tokenAddress","type":"address","internalType":"address"},{"name":"wager","type":"uint256","internalType":"uint256"},{"name":"requestID","type":"uint256","internalType":"uint256"},{"name":"blockNumber","type":"uint64","internalType":"uint64"},{"name":"currentMultiplier","type":"uint64","internalType":"uint64"},{"name":"numMines","type":"uint8","internalType":"uint8"},{"name":"revealedTiles","type":"bool[25]","internalType":"bool[25]"},{"name":"tilesPicked","type":"bool[25]","internalType":"bool[25]"},{"name":"isCashout","type":"bool","internalType":"bool"}]}],"stateMutability":"view"},{"type":"function","name":"Mines_Refund","inputs":[],"outputs":[],"stateMutability":"nonpayable"},{"type":"function","name":"Mines_Reveal","inputs":[{"name":"tiles","type":"bool[25]","internalType":"bool[25]"},{"name":"isCashout","type":"bool","internalType":"bool"}],"outputs":[],"stateMutability":"payable"},{"type":"function","name":"Mines_SetMultipliers","inputs":[{"name":"numMines","type":"uint256","internalType":"uint256"}],"outputs":[],"stateMutability":"nonpayable"},{"type":"function","name":"Mines_Start","inputs":[{"name":"wager","type":"uint256","internalType":"uint256"},{"name":"tokenAddress","type":"address","internalType":"address"},{"name":"numMines","type":"uint8","internalType":"uint8"},{"name":"tiles","type":"bool[25]","internalType":"bool[25]"},{"name":"isCashout","type":"bool","internalType":"bool"}],"outputs":[],"stateMutability":"payable"},{"type":"function","name":"VRFFees","inputs":[],"outputs":[{"name":"","type":"uint256","internalType":"uint256"}],"stateMutability":"view"},{"type":"function","name":"_trustedForwarder","inputs":[],"outputs":[{"name":"","type":"address","internalType":"address"}],"stateMutability":"view"},{"type":"function","name":"acceptOwnership","inputs":[],"outputs":[],"stateMutability":"nonpayable"},{"type":"function","name":"getVRFFee","inputs":[{"name":"gasAmount","type":"uint256","internalType":"uint256"},{"name":"l1Multiplier","type":"uint256","internalType":"uint256"}],"outputs":[{"name":"fee","type":"uint256","internalType":"uint256"}],"stateMutability":"view"},{"type":"function","name":"isTrustedForwarder","inputs":[{"name":"forwarder","type":"address","internalType":"address"}],"outputs":[{"name":"","type":"bool","internalType":"bool"}],"stateMutability":"view"},{"type":"function","name":"owner","inputs":[],"outputs":[{"name":"","type":"address","internalType":"address"}],"stateMutability":"view"},{"type":"function","name":"rawFulfillRandomWords","inputs":[{"name":"requestId","type":"uint256","internalType":"uint256"},{"name":"randomWords","type":"uint256[]","internalType":"uint256[]"}],"outputs":[],"stateMutability":"nonpayable"},{"type":"function","name":"s_vrfCoordinator","inputs":[],"outputs":[{"name":"","type":"address","internalType":"contract IVRFCoordinatorV2Plus"}],"stateMutability":"view"},{"type":"function","name":"setBankroll","inputs":[{"name":"_bankRoll","type":"address","internalType":"address"}],"outputs":[],"stateMutability":"nonpayable"},{"type":"function","name":"setCoordinator","inputs":[{"name":"_vrfCoordinator","type":"address","internalType":"address"}],"outputs":[],"stateMutability":"nonpayable"},{"type":"function","name":"transferFees","inputs":[{"name":"to","type":"address","internalType":"address"}],"outputs":[],"stateMutability":"nonpayable"},{"type":"function","name":"transferOwnership","inputs":[{"name":"to","type":"address","internalType":"address"}],"outputs":[],"stateMutability":"nonpayable"},{"type":"event","name":"CoordinatorSet","inputs":[{"name":"vrfCoordinator","type":"address","indexed":false,"internalType":"address"}],"anonymous":false},{"type":"event","name":"FeeTransferred","inputs":[{"name":"game","type":"address","indexed":false,"internalType":"address"},{"name":"player","type":"address","indexed":false,"internalType":"address"},{"name":"amount","type":"uint256","indexed":false,"internalType":"uint256"}],"anonymous":false},{"type":"event","name":"Mines_End_Event","inputs":[{"name":"playerAddress","type":"address","indexed":true,"internalType":"address"},{"name":"wager","type":"uint256","indexed":false,"internalType":"uint256"},{"name":"payout","type":"uint256","indexed":false,"internalType":"uint256"},{"name":"tokenAddress","type":"address","indexed":false,"internalType":"address"},{"name":"numMines","type":"uint256","indexed":false,"internalType":"uint256"},{"name":"revealedTiles","type":"bool[25]","indexed":false,"internalType":"bool[25]"},{"name":"multiplier","type":"uint256","indexed":false,"internalType":"uint256"}],"anonymous":false},{"type":"event","name":"Mines_Fee_Event","inputs":[{"name":"playerAddress","type":"address","indexed":true,"internalType":"address"},{"name":"VRFFee","type":"uint256","indexed":false,"internalType":"uint256"}],"anonymous":false},{"type":"event","name":"Mines_Play_Event","inputs":[{"name":"playerAddress","type":"address","indexed":true,"internalType":"address"},{"name":"wager","type":"uint256","indexed":false,"internalType":"uint256"},{"name":"tokenAddress","type":"address","indexed":false,"internalType":"address"},{"name":"numMines","type":"uint8","indexed":false,"internalType":"uint8"},{"name":"isCashout","type":"bool","indexed":false,"internalType":"bool"},{"name":"VRFFee","type":"uint256","indexed":false,"internalType":"uint256"}],"anonymous":false},{"type":"event","name":"Mines_Refund_Event","inputs":[{"name":"player","type":"address","indexed":true,"internalType":"address"},{"name":"wager","type":"uint256","indexed":false,"internalType":"uint256"},{"name":"tokenAddress","type":"address","indexed":false,"internalType":"address"}],"anonymous":false},{"type":"event","name":"Mines_RevealCashout_Event","inputs":[{"name":"playerAddress","type":"address","indexed":true,"internalType":"address"},{"name":"wager","type":"uint256","indexed":false,"internalType":"uint256"},{"name":"payout","type":"uint256","indexed":false,"internalType":"uint256"},{"name":"tokenAddress","type":"address","indexed":false,"internalType":"address"},{"name":"numMines","type":"uint256","indexed":false,"internalType":"uint256"},{"name":"minesTiles","type":"bool[25]","indexed":false,"internalType":"bool[25]"},{"name":"revealedTiles","type":"bool[25]","indexed":false,"internalType":"bool[25]"},{"name":"multiplier","type":"uint256","indexed":false,"internalType":"uint256"}],"anonymous":false},{"type":"event","name":"Mines_Reveal_Event","inputs":[{"name":"playerAddress","type":"address","indexed":true,"internalType":"address"},{"name":"wager","type":"uint256","indexed":false,"internalType":"uint256"},{"name":"payout","type":"uint256","indexed":false,"internalType":"uint256"},{"name":"tokenAddress","type":"address","indexed":false,"internalType":"address"},{"name":"numMines","type":"uint256","indexed":false,"internalType":"uint256"},{"name":"minesTiles","type":"bool[25]","indexed":false,"internalType":"bool[25]"},{"name":"revealedTiles","type":"bool[25]","indexed":false,"internalType":"bool[25]"},{"name":"multiplier","type":"uint256","indexed":false,"internalType":"uint256"}],"anonymous":false},{"type":"event","name":"OwnershipTransferRequested","inputs":[{"name":"from","type":"address","indexed":true,"internalType":"address"},{"name":"to","type":"address","indexed":true,"internalType":"address"}],"anonymous":false},{"type":"event","name":"OwnershipTransferred","inputs":[{"name":"from","type":"address","indexed":true,"internalType":"address"},{"name":"to","type":"address","indexed":true,"internalType":"address"}],"anonymous":false},{"type":"event","name":"WagerTransferred","inputs":[{"name":"game","type":"address","indexed":false,"internalType":"address"},{"name":"token","type":"address","indexed":false,"internalType":"address"},{"name":"player","type":"address","indexed":false,"internalType":"address"},{"name":"amount","type":"uint256","indexed":false,"internalType":"uint256"}],"anonymous":false},{"type":"error","name":"AlreadyInGame","inputs":[]},{"type":"error","name":"AwaitingVRF","inputs":[{"name":"requestID","type":"uint256","internalType":"uint256"}]},{"type":"error","name":"BlockNumberTooLow","inputs":[{"name":"have","type":"uint256","internalType":"uint256"},{"name":"want","type":"uint256","internalType":"uint256"}]},{"type":"error","name":"InvalidNumMines","inputs":[]},{"type":"error","name":"InvalidNumberToReveal","inputs":[{"name":"numberPicked","type":"uint32","internalType":"uint32"},{"name":"maxAllowed","type":"uint256","internalType":"uint256"}]},{"type":"error","name":"InvalidValue","inputs":[{"name":"required","type":"uint256","internalType":"uint256"},{"name":"sent","type":"uint256","internalType":"uint256"}]},{"type":"error","name":"NoRequestPending","inputs":[]},{"type":"error","name":"NotApprovedBankroll","inputs":[]},{"type":"error","name":"NotInGame","inputs":[]},{"type":"error","name":"NotOwner","inputs":[{"name":"want","type":"address","internalType":"address"},{"name":"have","type":"address","internalType":"address"}]},{"type":"error","name":"OnlyCoordinatorCanFulfill","inputs":[{"name":"have","type":"address","internalType":"address"},{"name":"want","type":"address","internalType":"address"}]},{"type":"error","name":"OnlyOwnerOrCoordinator","inputs":[{"name":"have","type":"address","internalType":"address"},{"name":"owner","type":"address","internalType":"address"},{"name":"coordinator","type":"address","internalType":"address"}]},{"type":"error","name":"PlayerSuspended","inputs":[{"name":"suspensionTime","type":"uint256","internalType":"uint256"}]},{"type":"error","name":"RefundFailed","inputs":[]},{"type":"error","name":"TileAlreadyRevealed","inputs":[{"name":"position","type":"uint8","internalType":"uint8"}]},{"type":"error","name":"TransferFailed","inputs":[]},{"type":"error","name":"WagerAboveLimit","inputs":[{"name":"wager","type":"uint256","internalType":"uint256"},{"name":"maxWager","type":"uint256","internalType":"uint256"}]},{"type":"error","name":"ZeroAddress","inputs":[]},{"type":"error","name":"ZeroWager","inputs":[]}],"bytecode":{"object":"0x60806040527fabb65d5c6f9c8a5a1d2af242cbb644ce2157e5f9ca410a33e28106c9f1f3e9cc600a557f1770bdc7eec7771f7ba4ffd640f34260d7f095b79c92d34a5b2551d6f6cfd2be5f1b600b556003600c5f6101000a81548161ffff021916908361ffff160217905550622625a0600c60026101000a81548163ffffffff021916908363ffffffff16021790555034801561009a575f5ffd5b50604051616c72380380616c7283398181016040528101906100bc919061071c565b8333805f60015f819055505f73ffffffffffffffffffffffffffffffffffffffff168273ffffffffffffffffffffffffffffffffffffffff1603610135576040517f08c379a000000000000000000000000000000000000000000000000000000000815260040161012c906107ee565b60405180910390fd5b8160015f6101000a81548173ffffffffffffffffffffffffffffffffffffffff021916908373ffffffffffffffffffffffffffffffffffffffff1602179055505f73ffffffffffffffffffffffffffffffffffffffff168173ffffffffffffffffffffffffffffffffffffffff16146101b8576101b7816103ba60201b60201c565b5b5050505f73ffffffffffffffffffffffffffffffffffffffff168173ffffffffffffffffffffffffffffffffffffffff1603610220576040517fd92e233d00000000000000000000000000000000000000000000000000000000815260040160405180910390fd5b8060035f6101000a81548173ffffffffffffffffffffffffffffffffffffffff021916908373ffffffffffffffffffffffffffffffffffffffff160217905550508460085f6101000a81548173ffffffffffffffffffffffffffffffffffffffff021916908373ffffffffffffffffffffffffffffffffffffffff1602179055508360055f6101000a81548173ffffffffffffffffffffffffffffffffffffffff021916908373ffffffffffffffffffffffffffffffffffffffff1602179055508360095f6101000a81548173ffffffffffffffffffffffffffffffffffffffff021916908373ffffffffffffffffffffffffffffffffffffffff1602179055508260075f6101000a81548173ffffffffffffffffffffffffffffffffffffffff021916908373ffffffffffffffffffffffffffffffffffffffff1602179055508160065f6101000a81548173ffffffffffffffffffffffffffffffffffffffff021916908373ffffffffffffffffffffffffffffffffffffffff1602179055506103b0816104e660201b60201c565b505050505061090a565b3373ffffffffffffffffffffffffffffffffffffffff168173ffffffffffffffffffffffffffffffffffffffff1603610428576040517f08c379a000000000000000000000000000000000000000000000000000000000815260040161041f90610856565b60405180910390fd5b8060025f6101000a81548173ffffffffffffffffffffffffffffffffffffffff021916908373ffffffffffffffffffffffffffffffffffffffff1602179055508073ffffffffffffffffffffffffffffffffffffffff1660015f9054906101000a900473ffffffffffffffffffffffffffffffffffffffff1673ffffffffffffffffffffffffffffffffffffffff167fed8889f560326eb138920d842192f0eb3dd22b4f139c87a2c57538e05bae127860405160405180910390a350565b5f5f90505b601881101561053d5781816018811061050757610506610874565b5b602002015160ff1660105f60018461051f91906108d7565b81526020019081526020015f208190555080806001019150506104eb565b5050565b5f604051905090565b5f5ffd5b5f73ffffffffffffffffffffffffffffffffffffffff82169050919050565b5f6105778261054e565b9050919050565b6105878161056d565b8114610591575f5ffd5b50565b5f815190506105a28161057e565b92915050565b5f5ffd5b5f601f19601f8301169050919050565b7f4e487b71000000000000000000000000000000000000000000000000000000005f52604160045260245ffd5b6105f2826105ac565b810181811067ffffffffffffffff82111715610611576106106105bc565b5b80604052505050565b5f610623610541565b905061062f82826105e9565b919050565b5f67ffffffffffffffff82111561064e5761064d6105bc565b5b602082029050919050565b5f5ffd5b5f60ff82169050919050565b6106728161065d565b811461067c575f5ffd5b50565b5f8151905061068d81610669565b92915050565b5f6106a56106a084610634565b61061a565b905080602084028301858111156106bf576106be610659565b5b835b818110156106e857806106d4888261067f565b8452602084019350506020810190506106c1565b5050509392505050565b5f82601f830112610706576107056105a8565b5b6018610713848285610693565b91505092915050565b5f5f5f5f5f61038086880312156107365761073561054a565b5b5f61074388828901610594565b955050602061075488828901610594565b945050604061076588828901610594565b935050606061077688828901610594565b9250506080610787888289016106f2565b9150509295509295909350565b5f82825260208201905092915050565b7f43616e6e6f7420736574206f776e657220746f207a65726f00000000000000005f82015250565b5f6107d8601883610794565b91506107e3826107a4565b602082019050919050565b5f6020820190508181035f830152610805816107cc565b9050919050565b7f43616e6e6f74207472616e7366657220746f2073656c660000000000000000005f82015250565b5f610840601783610794565b915061084b8261080c565b602082019050919050565b5f6020820190508181035f83015261086d81610834565b9050919050565b7f4e487b71000000000000000000000000000000000000000000000000000000005f52603260045260245ffd5b5f819050919050565b7f4e487b71000000000000000000000000000000000000000000000000000000005f52601160045260245ffd5b5f6108e1826108a1565b91506108ec836108a1565b9250828201905080821115610904576109036108aa565b5b92915050565b61635b806109175f395ff3fe608060405260043610610134575f3560e01c80638ea98117116100aa578063baaa3edf1161006e578063baaa3edf146103bc578063bde8a93e146103f8578063c6318aad14610420578063d0bcfc0c1461044a578063eb5d807514610474578063f2fde38b1461049057610134565b80638ea98117146103025780639eccacf61461032a578063a6d18c5114610354578063ad1783611461037c578063b5f2da97146103a657610134565b806356c022bb116100fc57806356c022bb1461020a578063572b6c051461023457806363dc4ef51461027057806379ba5097146102985780638d7c16d2146102ae5780638da5cb5b146102d857610134565b80630f53b826146101385780631fe543e31461014e57806320ade00314610176578063320a5135146101b257806350ffd786146101ce575b5f5ffd5b348015610143575f5ffd5b5061014c6104b8565b005b348015610159575f5ffd5b50610174600480360381019061016f91906140cc565b6109b1565b005b348015610181575f5ffd5b5061019c60048036038101906101979190614183565b610a75565b6040516101a9919061436f565b60405180910390f35b6101cc60048036038101906101c791906143d4565b610c9f565b005b3480156101d9575f5ffd5b506101f460048036038101906101ef9190614414565b611095565b6040516102019190614461565b60405180910390f35b348015610215575f5ffd5b5061021e6110bf565b60405161022b9190614489565b60405180910390f35b34801561023f575f5ffd5b5061025a60048036038101906102559190614183565b6110e4565b60405161026791906144b1565b60405180910390f35b34801561027b575f5ffd5b5061029660048036038101906102919190614183565b61113c565b005b3480156102a3575f5ffd5b506102ac6113c4565b005b3480156102b9575f5ffd5b506102c2611555565b6040516102cf9190614461565b60405180910390f35b3480156102e3575f5ffd5b506102ec61155b565b6040516102f99190614489565b60405180910390f35b34801561030d575f5ffd5b5061032860048036038101906103239190614183565b611583565b005b348015610335575f5ffd5b5061033e611760565b60405161034b9190614525565b60405180910390f35b34801561035f575f5ffd5b5061037a6004803603810190610375919061453e565b611785565b005b348015610387575f5ffd5b506103906118af565b60405161039d9190614589565b60405180910390f35b3480156103b1575f5ffd5b506103ba6118d4565b005b3480156103c7575f5ffd5b506103e260048036038101906103dd9190614414565b611c17565b6040516103ef9190614461565b60405180910390f35b348015610403575f5ffd5b5061041e60048036038101906104199190614183565b611d1e565b005b34801561042b575f5ffd5b50610434611d69565b6040516104419190614638565b60405180910390f35b348015610455575f5ffd5b5061045e611dca565b60405161046b9190614672565b60405180910390f35b61048e600480360381019061048991906146b5565b611def565b005b34801561049b575f5ffd5b506104b660048036038101906104b19190614183565b6121ba565b005b6104c06121ce565b5f6104c961221b565b90505f600d5f8373ffffffffffffffffffffffffffffffffffffffff1673ffffffffffffffffffffffffffffffffffffffff1681526020019081526020015f2090505f600d5f8473ffffffffffffffffffffffffffffffffffffffff1673ffffffffffffffffffffffffffffffffffffffff1681526020019081526020015f2060030160109054906101000a900460ff1660ff1603610594576040517f43050d9600000000000000000000000000000000000000000000000000000000815260040160405180910390fd5b5f600d5f8473ffffffffffffffffffffffffffffffffffffffff1673ffffffffffffffffffffffffffffffffffffffff1681526020019081526020015f20600201540361060d576040517f90a7340b00000000000000000000000000000000000000000000000000000000815260040160405180910390fd5b610615612250565b67ffffffffffffffff1660c8826003015f9054906101000a900467ffffffffffffffff16610643919061475b565b67ffffffffffffffff1611156106bc5761065b612250565b60c8826003015f9054906101000a900467ffffffffffffffff1661067f919061475b565b6040517fb4ae675a0000000000000000000000000000000000000000000000000000000081526004016106b39291906147c6565b60405180910390fd5b5f600d5f8473ffffffffffffffffffffffffffffffffffffffff1673ffffffffffffffffffffffffffffffffffffffff1681526020019081526020015f206001015490505f600d5f8573ffffffffffffffffffffffffffffffffffffffff1673ffffffffffffffffffffffffffffffffffffffff1681526020019081526020015f205f015f9054906101000a900473ffffffffffffffffffffffffffffffffffffffff169050600d5f8573ffffffffffffffffffffffffffffffffffffffff1673ffffffffffffffffffffffffffffffffffffffff1681526020019081526020015f205f5f82015f6101000a81549073ffffffffffffffffffffffffffffffffffffffff0219169055600182015f9055600282015f9055600382015f6101000a81549067ffffffffffffffff02191690556003820160086101000a81549067ffffffffffffffff02191690556003820160106101000a81549060ff0219169055600482015f61082b9190613eb1565b600582015f61083a9190613eb1565b600682015f6101000a81549060ff021916905550505f73ffffffffffffffffffffffffffffffffffffffff168173ffffffffffffffffffffffffffffffffffffffff1603610927575f8473ffffffffffffffffffffffffffffffffffffffff16836040516108a79061481a565b5f6040518083038185875af1925050503d805f81146108e1576040519150601f19603f3d011682016040523d82523d5f602084013e6108e6565b606091505b5050905080610921576040517f90b8ec1800000000000000000000000000000000000000000000000000000000815260040160405180910390fd5b50610953565b61095284838373ffffffffffffffffffffffffffffffffffffffff166122ea9092919063ffffffff16565b5b8373ffffffffffffffffffffffffffffffffffffffff167f47d03d5b779b98ffcf8d141c72233e07e1eefe64744ce9d5288aea98eaf6bc9c838360405161099b92919061482e565b60405180910390a2505050506109af612370565b565b60035f9054906101000a900473ffffffffffffffffffffffffffffffffffffffff1673ffffffffffffffffffffffffffffffffffffffff163373ffffffffffffffffffffffffffffffffffffffff1614610a65573360035f9054906101000a900473ffffffffffffffffffffffffffffffffffffffff166040517f1cf993f4000000000000000000000000000000000000000000000000000000008152600401610a5c929190614855565b60405180910390fd5b610a70838383612379565b505050565b610a7d613eb7565b600d5f8373ffffffffffffffffffffffffffffffffffffffff1673ffffffffffffffffffffffffffffffffffffffff1681526020019081526020015f20604051806101200160405290815f82015f9054906101000a900473ffffffffffffffffffffffffffffffffffffffff1673ffffffffffffffffffffffffffffffffffffffff1673ffffffffffffffffffffffffffffffffffffffff1681526020016001820154815260200160028201548152602001600382015f9054906101000a900467ffffffffffffffff1667ffffffffffffffff1667ffffffffffffffff1681526020016003820160089054906101000a900467ffffffffffffffff1667ffffffffffffffff1667ffffffffffffffff1681526020016003820160109054906101000a900460ff1660ff1660ff16815260200160048201601980602002604051908101604052809291908260198015610c0d576020028201915f905b82829054906101000a900460ff161515815260200190600101906020825f01049283019260010382029150808411610bd85790505b5050505050815260200160058201601980602002604051908101604052809291908260198015610c75576020028201915f905b82829054906101000a900460ff161515815260200190600101906020825f01049283019260010382029150808411610c405790505b50505050508152602001600682015f9054906101000a900460ff1615151515815250509050919050565b610ca76121ce565b5f610cb061221b565b90505f600d5f8373ffffffffffffffffffffffffffffffffffffffff1673ffffffffffffffffffffffffffffffffffffffff1681526020019081526020015f2090505f8160030160109054906101000a900460ff1660ff1603610d3f576040517f43050d9600000000000000000000000000000000000000000000000000000000815260040160405180910390fd5b5f816002015414610d8b5780600201546040517f440db96e000000000000000000000000000000000000000000000000000000008152600401610d829190614461565b60405180910390fd5b5f5f5f5f90505b60198160ff161015610ea257868160ff1660198110610db457610db361487c565b5b602002016020810190610dc791906148a9565b15610e4c57836004018160ff1660198110610de557610de461487c565b5b602091828204019190069054906101000a900460ff1615610e3d57806040517f63926f51000000000000000000000000000000000000000000000000000000008152600401610e3491906148e3565b60405180910390fd5b8180610e489061490b565b9250505b836004018160ff1660198110610e6557610e6461487c565b5b602091828204019190069054906101000a900460ff1615610e8f578280610e8b9061490b565b9350505b8080610e9a90614936565b915050610d92565b505f8163ffffffff161480610eec575060105f8460030160109054906101000a900460ff1660ff1681526020019081526020015f20548282610ee4919061495e565b63ffffffff16115b15610f60578181610efd919061495e565b60105f8560030160109054906101000a900460ff1660ff1681526020019081526020015f20546040517f6efca6fe000000000000000000000000000000000000000000000000000000008152600401610f579291906149a4565b60405180910390fd5b5f610f6f62061a806018612c29565b90505f610f7b83612caf565b905085600e5f8381526020019081526020015f205f6101000a81548173ffffffffffffffffffffffffffffffffffffffff021916908373ffffffffffffffffffffffffffffffffffffffff1602179055508785600501906019610fdf929190613f37565b5086856006015f6101000a81548160ff02191690831515021790555080856002018190555061100c612250565b856003015f6101000a81548167ffffffffffffffff021916908367ffffffffffffffff1602179055508573ffffffffffffffffffffffffffffffffffffffff167f676c918f37fe2b3bf042543e3fdaf058ce52fd6fde49a5303cf971d7037f84ec8360405161107b9190614461565b60405180910390a2505050505050611091612370565b5050565b5f600f5f8481526020019081526020015f205f8381526020019081526020015f2054905092915050565b60065f9054906101000a900473ffffffffffffffffffffffffffffffffffffffff1681565b5f60065f9054906101000a900473ffffffffffffffffffffffffffffffffffffffff1673ffffffffffffffffffffffffffffffffffffffff168273ffffffffffffffffffffffffffffffffffffffff16149050919050565b6111446121ce565b60085f9054906101000a900473ffffffffffffffffffffffffffffffffffffffff1673ffffffffffffffffffffffffffffffffffffffff1663893d20e86040518163ffffffff1660e01b8152600401602060405180830381865afa1580156111ae573d5f5f3e3d5ffd5b505050506040513d601f19601f820116820180604052508101906111d291906149df565b73ffffffffffffffffffffffffffffffffffffffff163373ffffffffffffffffffffffffffffffffffffffff16146112d05760085f9054906101000a900473ffffffffffffffffffffffffffffffffffffffff1673ffffffffffffffffffffffffffffffffffffffff1663893d20e86040518163ffffffff1660e01b8152600401602060405180830381865afa15801561126e573d5f5f3e3d5ffd5b505050506040513d601f19601f8201168201806040525081019061129291906149df565b336040517f23295f0e0000000000000000000000000000000000000000000000000000000081526004016112c7929190614855565b60405180910390fd5b5f60045490505f6004819055505f8273ffffffffffffffffffffffffffffffffffffffff16826040516113029061481a565b5f6040518083038185875af1925050503d805f811461133c576040519150601f19603f3d011682016040523d82523d5f602084013e611341565b606091505b505090508061137c576040517f90b8ec1800000000000000000000000000000000000000000000000000000000815260040160405180910390fd5b7f1d6298f49fc15449b78df91fcca6812136edc2972366cb70aa0d9145a308cd313084846040516113af93929190614a0a565b60405180910390a150506113c1612370565b50565b60025f9054906101000a900473ffffffffffffffffffffffffffffffffffffffff1673ffffffffffffffffffffffffffffffffffffffff163373ffffffffffffffffffffffffffffffffffffffff1614611453576040517f08c379a000000000000000000000000000000000000000000000000000000000815260040161144a90614a99565b60405180910390fd5b5f60015f9054906101000a900473ffffffffffffffffffffffffffffffffffffffff1690503360015f6101000a81548173ffffffffffffffffffffffffffffffffffffffff021916908373ffffffffffffffffffffffffffffffffffffffff1602179055505f60025f6101000a81548173ffffffffffffffffffffffffffffffffffffffff021916908373ffffffffffffffffffffffffffffffffffffffff1602179055503373ffffffffffffffffffffffffffffffffffffffff168173ffffffffffffffffffffffffffffffffffffffff167f8be0079c531659141344cd1fd0a4f28419497f9722a3daafe3b4186f6b6457e060405160405180910390a350565b60045481565b5f60015f9054906101000a900473ffffffffffffffffffffffffffffffffffffffff16905090565b61158b61155b565b73ffffffffffffffffffffffffffffffffffffffff163373ffffffffffffffffffffffffffffffffffffffff1614158015611613575060035f9054906101000a900473ffffffffffffffffffffffffffffffffffffffff1673ffffffffffffffffffffffffffffffffffffffff163373ffffffffffffffffffffffffffffffffffffffff1614155b15611681573361162161155b565b60035f9054906101000a900473ffffffffffffffffffffffffffffffffffffffff166040517f061db9c100000000000000000000000000000000000000000000000000000000815260040161167893929190614ab7565b60405180910390fd5b5f73ffffffffffffffffffffffffffffffffffffffff168173ffffffffffffffffffffffffffffffffffffffff16036116e6576040517fd92e233d00000000000000000000000000000000000000000000000000000000815260040160405180910390fd5b8060035f6101000a81548173ffffffffffffffffffffffffffffffffffffffff021916908373ffffffffffffffffffffffffffffffffffffffff1602179055507fd1a6a14209a385a964d036e404cb5cfb71f4000cdb03c9366292430787261be6816040516117559190614489565b60405180910390a150565b60035f9054906101000a900473ffffffffffffffffffffffffffffffffffffffff1681565b5f811480611794575060198110155b1561179d575f5ffd5b5f600f5f8381526020019081526020015f205f600181526020019081526020015f2054146117c9575f5ffd5b5f600190505b8160196117dc9190614aec565b81116118ab575f600190505f600190505f5f90505b8381101561184557808560196118079190614aec565b6118119190614aec565b8361181c9190614b1f565b925080601961182b9190614aec565b826118369190614b1f565b915080806001019150506117f1565b5080633b9aca00836118579190614b1f565b6118619190614b8d565b65090105fbb8006118729190614b8d565b600f5f8681526020019081526020015f205f8581526020019081526020015f2081905550505080806118a390614bbd565b9150506117cf565b5050565b60075f9054906101000a900473ffffffffffffffffffffffffffffffffffffffff1681565b6118dc6121ce565b5f6118e561221b565b90505f600d5f8373ffffffffffffffffffffffffffffffffffffffff1673ffffffffffffffffffffffffffffffffffffffff1681526020019081526020015f2090505f8160030160109054906101000a900460ff1660ff1603611974576040517f43050d9600000000000000000000000000000000000000000000000000000000815260040160405180910390fd5b5f8160020154146119c05780600201546040517f440db96e0000000000000000000000000000000000000000000000000000000081526004016119b79190614461565b60405180910390fd5b5f8160030160109054906101000a900460ff1690505f82600401601980602002604051908101604052809291908260198015611a34576020028201915f905b82829054906101000a900460ff161515815260200190600101906020825f010492830192600103820291508084116119ff5790505b505050505090505f8360030160089054906101000a900467ffffffffffffffff1667ffffffffffffffff1690505f846001015490505f6127108284611a799190614b1f565b611a839190614b8d565b90505f865f015f9054906101000a900473ffffffffffffffffffffffffffffffffffffffff169050611ab58184612dcb565b600d5f8973ffffffffffffffffffffffffffffffffffffffff1673ffffffffffffffffffffffffffffffffffffffff1681526020019081526020015f205f5f82015f6101000a81549073ffffffffffffffffffffffffffffffffffffffff0219169055600182015f9055600282015f9055600382015f6101000a81549067ffffffffffffffff02191690556003820160086101000a81549067ffffffffffffffff02191690556003820160106101000a81549060ff0219169055600482015f611b7e9190613eb1565b600582015f611b8d9190613eb1565b600682015f6101000a81549060ff02191690555050611bad88838361302c565b8773ffffffffffffffffffffffffffffffffffffffff167f1fe1dd196606ad2650d7969421fce1457a68ab5ef856f561b02c43d85e2b23058484848a8a8a604051611bfd96959493929190614c94565b60405180910390a25050505050505050611c15612370565b565b5f5f60075f9054906101000a900473ffffffffffffffffffffffffffffffffffffffff1673ffffffffffffffffffffffffffffffffffffffff1663feaf968c6040518163ffffffff1660e01b815260040160a060405180830381865afa158015611c83573d5f5f3e3d5ffd5b505050506040513d601f19601f82011682018060405250810190611ca79190614d7b565b5050509150505f600a84611cb96130bc565b611cc39190614b1f565b611ccd9190614b8d565b9050670de0b6b3a76400008264e8d4a51000611ce99190614b1f565b611cf39190614b8d565b81863a611d009190614b1f565b611d0a9190614df2565b611d149190614df2565b9250505092915050565b611d26613156565b8060085f6101000a81548173ffffffffffffffffffffffffffffffffffffffff021916908373ffffffffffffffffffffffffffffffffffffffff16021790555050565b611d71613fcf565b5f5f90505b6018811015611dc65760105f600183611d8f9190614df2565b81526020019081526020015f2054828260188110611db057611daf61487c565b5b6020020181815250508080600101915050611d76565b5090565b60085f9054906101000a900473ffffffffffffffffffffffffffffffffffffffff1681565b611df76121ce565b5f611e0061221b565b905060018460ff1610158015611e1a575060188460ff1611155b611e50576040517f822cb1a000000000000000000000000000000000000000000000000000000000815260040160405180910390fd5b5f600d5f8373ffffffffffffffffffffffffffffffffffffffff1673ffffffffffffffffffffffffffffffffffffffff1681526020019081526020015f2090505f816002015414611edc5780600201546040517f440db96e000000000000000000000000000000000000000000000000000000008152600401611ed39190614461565b60405180910390fd5b5f8160030160109054906101000a900460ff1660ff1614611f29576040517fc56fb25300000000000000000000000000000000000000000000000000000000815260040160405180910390fd5b5f5f5f90505b60198160ff161015611f8b57858160ff1660198110611f5157611f5061487c565b5b602002016020810190611f6491906148a9565b15611f78578180611f749061490b565b9250505b8080611f8390614936565b915050611f2f565b505f60105f8860ff1681526020019081526020015f205490505f8263ffffffff161480611fbd5750808263ffffffff16115b156120015781816040517f6efca6fe000000000000000000000000000000000000000000000000000000008152600401611ff89291906149a4565b60405180910390fd5b6120108989838a60ff166131e7565b5f612022898b62061a8060168961338e565b90505f61202e84612caf565b905085600e5f8381526020019081526020015f205f6101000a81548173ffffffffffffffffffffffffffffffffffffffff021916908373ffffffffffffffffffffffffffffffffffffffff160217905550888560030160106101000a81548160ff021916908360ff1602179055508a856001018190555089855f015f6101000a81548173ffffffffffffffffffffffffffffffffffffffff021916908373ffffffffffffffffffffffffffffffffffffffff16021790555086856006015f6101000a81548160ff0219169083151502179055508785600501906019612114929190613f37565b50808560020181905550612126612250565b856003015f6101000a81548167ffffffffffffffff021916908367ffffffffffffffff1602179055508573ffffffffffffffffffffffffffffffffffffffff167f06b735e3b542c1e7f37c869cdc85e44e5653bb9d7df7669703552379dc5d89b58c8c8c8b8760405161219d959493929190614e25565b60405180910390a25050505050506121b3612370565b5050505050565b6121c2613156565b6121cb81613864565b50565b60025f5403612212576040517f08c379a000000000000000000000000000000000000000000000000000000000815260040161220990614ec0565b60405180910390fd5b60025f81905550565b5f60145f369050101580156122355750612234336110e4565b5b1561224957601436033560601c905061224d565b3390505b90565b5f5f46905061a4b1811480612267575062066eed81145b156122e257606473ffffffffffffffffffffffffffffffffffffffff1663a3b1b31d6040518163ffffffff1660e01b8152600401602060405180830381865afa1580156122b6573d5f5f3e3d5ffd5b505050506040513d601f19601f820116820180604052508101906122da9190614ede565b9150506122e7565b439150505b90565b61236b8363a9059cbb60e01b8484604051602401612309929190614f09565b604051602081830303815290604052907bffffffffffffffffffffffffffffffffffffffffffffffffffffffff19166020820180517bffffffffffffffffffffffffffffffffffffffffffffffffffffffff8381831617835250505050613990565b505050565b60015f81905550565b5f600e5f8581526020019081526020015f205f9054906101000a900473ffffffffffffffffffffffffffffffffffffffff1690505f73ffffffffffffffffffffffffffffffffffffffff168173ffffffffffffffffffffffffffffffffffffffff16036123e4575f5ffd5b600e5f8581526020019081526020015f205f6101000a81549073ffffffffffffffffffffffffffffffffffffffff02191690555f600d5f8373ffffffffffffffffffffffffffffffffffffffff1673ffffffffffffffffffffffffffffffffffffffff1681526020019081526020015f2090505f8160030160109054906101000a900460ff1690505f5f5f90505b60198110156124cf57600115158460040182601981106124955761249461487c565b5b602091828204019190069054906101000a900460ff161515036124c2576001826124bf9190614df2565b91505b8080600101915050612472565b506124d8613ff2565b5f600190505f5f5f90505b60198110156126b4575f8760030160109054906101000a900460ff1660ff16148061252d57508660030160109054906101000a900460ff1660ff1685601961252b9190614aec565b145b156125a0578660050181601981106125485761254761487c565b5b602091828204019190069054906101000a900460ff161561259b57600187600401826019811061257b5761257a61487c565b5b602091828204019190066101000a81548160ff0219169083151502179055505b6126a7565b8660050181601981106125b6576125b561487c565b5b602091828204019190069054906101000a900460ff16156126a6575f61261889838860196125e49190614aec565b8b60030160109054906101000a900460ff1660ff168f8f8981811061260c5761260b61487c565b5b90506020020135613a56565b90505f1515811515036126865760018860030160108282829054906101000a900460ff166126469190614f30565b92506101000a81548160ff021916908360ff16021790555060018583601981106126735761267261487c565b5b6020020190151590811515815250505f93505b6001866126939190614df2565b95506001836126a29190614df2565b9250505b5b80806001019150506124e3565b508161290a575f1515866006015f9054906101000a900460ff1615150361275d578673ffffffffffffffffffffffffffffffffffffffff167fa2c15df8b18610ebd81258461bf85a580874824addb5419f1a723080a1cbb9df87600101545f895f015f9054906101000a900473ffffffffffffffffffffffffffffffffffffffff1689888c6004015f6040516127509796959493929190615c71565b60405180910390a26127e1565b8673ffffffffffffffffffffffffffffffffffffffff167feac20db8d33062f61bf7dd8f8c6fb0ce14563dec2fa4726683f5bb14c01241b487600101545f895f015f9054906101000a900473ffffffffffffffffffffffffffffffffffffffff1689888c6004015f6040516127d89796959493929190615c71565b60405180910390a25b612811865f015f9054906101000a900473ffffffffffffffffffffffffffffffffffffffff168760010154612dcb565b600d5f8873ffffffffffffffffffffffffffffffffffffffff1673ffffffffffffffffffffffffffffffffffffffff1681526020019081526020015f205f5f82015f6101000a81549073ffffffffffffffffffffffffffffffffffffffff0219169055600182015f9055600282015f9055600382015f6101000a81549067ffffffffffffffff02191690556003820160086101000a81549067ffffffffffffffff02191690556003820160106101000a81549060ff0219169055600482015f6128da9190613eb1565b600582015f6128e99190613eb1565b600682015f6101000a81549060ff0219169055505050505050505050612c24565b5f600f5f8860030160109054906101000a900460ff1660ff1681526020019081526020015f205f8681526020019081526020015f205490505f1515876006015f9054906101000a900460ff16151503612a4657808760030160086101000a81548167ffffffffffffffff021916908367ffffffffffffffff1602179055505f87600201819055508773ffffffffffffffffffffffffffffffffffffffff167fa2c15df8b18610ebd81258461bf85a580874824addb5419f1a723080a1cbb9df88600101546127108a60010154856129e19190614b1f565b6129eb9190614b8d565b8a5f015f9054906101000a900473ffffffffffffffffffffffffffffffffffffffff168b60030160109054906101000a900460ff16898d60040188604051612a399796959493929190615ce1565b60405180910390a2612c1b565b5f876001015490505f885f015f9054906101000a900473ffffffffffffffffffffffffffffffffffffffff1690508973ffffffffffffffffffffffffffffffffffffffff167feac20db8d33062f61bf7dd8f8c6fb0ce14563dec2fa4726683f5bb14c01241b4836127108587612abc9190614b1f565b612ac69190614b8d565b848d60030160109054906101000a900460ff168b8f6004018a604051612af29796959493929190615ce1565b60405180910390a2612b08818a60010154612dcb565b600d5f8b73ffffffffffffffffffffffffffffffffffffffff1673ffffffffffffffffffffffffffffffffffffffff1681526020019081526020015f205f5f82015f6101000a81549073ffffffffffffffffffffffffffffffffffffffff0219169055600182015f9055600282015f9055600382015f6101000a81549067ffffffffffffffff02191690556003820160086101000a81549067ffffffffffffffff02191690556003820160106101000a81549060ff0219169055600482015f612bd19190613eb1565b600582015f612be09190613eb1565b600682015f6101000a81549060ff02191690555050612c188a6127108486612c089190614b1f565b612c129190614b8d565b8361302c565b50505b50505050505050505b505050565b5f612c348383611c17565b905080341015612c7d5780346040517fde9b74a1000000000000000000000000000000000000000000000000000000008152600401612c74929190615d51565b60405180910390fd5b612c918134612c8c9190614aec565b613b1f565b8060045f828254612ca29190614df2565b9250508190555092915050565b5f60095f9054906101000a900473ffffffffffffffffffffffffffffffffffffffff1673ffffffffffffffffffffffffffffffffffffffff16639b1c385e6040518060c00160405280600b548152602001600a548152602001600c5f9054906101000a900461ffff1661ffff168152602001600c60029054906101000a900463ffffffff1663ffffffff1681526020018563ffffffff168152602001612d65604051806020016040528060011515815250613bcb565b8152506040518263ffffffff1660e01b8152600401612d849190615eb1565b6020604051808303815f875af1158015612da0573d5f5f3e3d5ffd5b505050506040513d601f19601f82011682018060405250810190612dc49190614ede565b9050919050565b5f73ffffffffffffffffffffffffffffffffffffffff168273ffffffffffffffffffffffffffffffffffffffff1603612ec4575f60085f9054906101000a900473ffffffffffffffffffffffffffffffffffffffff1673ffffffffffffffffffffffffffffffffffffffff1682604051612e449061481a565b5f6040518083038185875af1925050503d805f8114612e7e576040519150601f19603f3d011682016040523d82523d5f602084013e612e83565b606091505b5050905080612ebe576040517ff0c49d4400000000000000000000000000000000000000000000000000000000815260040160405180910390fd5b50612feb565b8173ffffffffffffffffffffffffffffffffffffffff1663095ea7b360085f9054906101000a900473ffffffffffffffffffffffffffffffffffffffff16836040518363ffffffff1660e01b8152600401612f20929190614f09565b6020604051808303815f875af1158015612f3c573d5f5f3e3d5ffd5b505050506040513d601f19601f82011682018060405250810190612f609190615ee5565b5060085f9054906101000a900473ffffffffffffffffffffffffffffffffffffffff1673ffffffffffffffffffffffffffffffffffffffff166347e7ef2483836040518363ffffffff1660e01b8152600401612fbd929190614f09565b5f604051808303815f87803b158015612fd4575f5ffd5b505af1158015612fe6573d5f5f3e3d5ffd5b505050505b7f312e2def0b1ae52334b8d967d371c7afe0625e9a3f4f70810e79cf351fe2a5a9308333846040516130209493929190615f10565b60405180910390a15050565b60085f9054906101000a900473ffffffffffffffffffffffffffffffffffffffff1673ffffffffffffffffffffffffffffffffffffffff16636c025ec28484846040518463ffffffff1660e01b815260040161308a93929190615f53565b5f604051808303815f87803b1580156130a1575f5ffd5b505af11580156130b3573d5f5f3e3d5ffd5b50505050505050565b5f5f46905061a4b18114806130d3575062066eed81145b1561314e57606c73ffffffffffffffffffffffffffffffffffffffff1663c6f7de0e6040518163ffffffff1660e01b8152600401602060405180830381865afa158015613122573d5f5f3e3d5ffd5b505050506040513d601f19601f820116820180604052508101906131469190614ede565b915050613153565b5f9150505b90565b60015f9054906101000a900473ffffffffffffffffffffffffffffffffffffffff1673ffffffffffffffffffffffffffffffffffffffff163373ffffffffffffffffffffffffffffffffffffffff16146131e5576040517f08c379a00000000000000000000000000000000000000000000000000000000081526004016131dc90615fd2565b60405180910390fd5b565b5f5f73ffffffffffffffffffffffffffffffffffffffff168473ffffffffffffffffffffffffffffffffffffffff160361325b5760085f9054906101000a900473ffffffffffffffffffffffffffffffffffffffff1673ffffffffffffffffffffffffffffffffffffffff163190506132f7565b8373ffffffffffffffffffffffffffffffffffffffff166370a0823160085f9054906101000a900473ffffffffffffffffffffffffffffffffffffffff166040518263ffffffff1660e01b81526004016132b59190614489565b602060405180830381865afa1580156132d0573d5f5f3e3d5ffd5b505050506040513d601f19601f820116820180604052508101906132f49190614ede565b90505b5f612710600f5f8581526020019081526020015f205f8681526020019081526020015f20546133269190614aec565b606e836133339190614b1f565b61333d9190614b8d565b9050808611156133865785816040517fd53662aa00000000000000000000000000000000000000000000000000000000815260040161337d929190615d51565b60405180910390fd5b505050505050565b5f5f85036133c8576040517f07375c8400000000000000000000000000000000000000000000000000000000815260040160405180910390fd5b60085f9054906101000a900473ffffffffffffffffffffffffffffffffffffffff1673ffffffffffffffffffffffffffffffffffffffff1663bfd7f9cc30886040518363ffffffff1660e01b8152600401613424929190614855565b602060405180830381865afa15801561343f573d5f5f3e3d5ffd5b505050506040513d601f19601f820116820180604052508101906134639190615ee5565b613499576040517f51c3b94f00000000000000000000000000000000000000000000000000000000815260040160405180910390fd5b5f5f60085f9054906101000a900473ffffffffffffffffffffffffffffffffffffffff1673ffffffffffffffffffffffffffffffffffffffff16630a5748a8856040518263ffffffff1660e01b81526004016134f59190614489565b6040805180830381865afa15801561350f573d5f5f3e3d5ffd5b505050506040513d601f19601f820116820180604052508101906135339190615ff0565b91509150811561357a57806040517f6c2775f50000000000000000000000000000000000000000000000000000000081526004016135719190614461565b60405180910390fd5b6135848686611c17565b92505f73ffffffffffffffffffffffffffffffffffffffff168873ffffffffffffffffffffffffffffffffffffffff160361363a5782876135c59190614df2565b3410156136165782876135d89190614df2565b346040517fde9b74a100000000000000000000000000000000000000000000000000000000815260040161360d929190615d51565b60405180910390fd5b61363587846136259190614df2565b346136309190614aec565b613b1f565b6136c3565b823410156136815782346040517fde9b74a1000000000000000000000000000000000000000000000000000000008152600401613678929190615d51565b60405180910390fd5b6136ae8430898b73ffffffffffffffffffffffffffffffffffffffff16613c63909392919063ffffffff16565b6136c283346136bd9190614aec565b613b1f565b5b5f60085f9054906101000a900473ffffffffffffffffffffffffffffffffffffffff1673ffffffffffffffffffffffffffffffffffffffff1663133d199a6040518163ffffffff1660e01b8152600401602060405180830381865afa15801561372e573d5f5f3e3d5ffd5b505050506040513d601f19601f820116820180604052508101906137529190614ede565b90505f811115613803575f6103e8828a61376c9190614b1f565b6137769190614b8d565b905060085f9054906101000a900473ffffffffffffffffffffffffffffffffffffffff1673ffffffffffffffffffffffffffffffffffffffff1663b0e27f7487836040518363ffffffff1660e01b81526004016137d4929190614f09565b5f604051808303815f87803b1580156137eb575f5ffd5b505af11580156137fd573d5f5f3e3d5ffd5b50505050505b8360045f8282546138149190614df2565b925050819055507f312e2def0b1ae52334b8d967d371c7afe0625e9a3f4f70810e79cf351fe2a5a9308a878b6040516138509493929190615f10565b60405180910390a150505095945050505050565b3373ffffffffffffffffffffffffffffffffffffffff168173ffffffffffffffffffffffffffffffffffffffff16036138d2576040517f08c379a00000000000000000000000000000000000000000000000000000000081526004016138c990616078565b60405180910390fd5b8060025f6101000a81548173ffffffffffffffffffffffffffffffffffffffff021916908373ffffffffffffffffffffffffffffffffffffffff1602179055508073ffffffffffffffffffffffffffffffffffffffff1660015f9054906101000a900473ffffffffffffffffffffffffffffffffffffffff1673ffffffffffffffffffffffffffffffffffffffff167fed8889f560326eb138920d842192f0eb3dd22b4f139c87a2c57538e05bae127860405160405180910390a350565b5f6139f1826040518060400160405280602081526020017f5361666545524332303a206c6f772d6c6576656c2063616c6c206661696c65648152508573ffffffffffffffffffffffffffffffffffffffff16613cec9092919063ffffffff16565b90505f81511480613a12575080806020019051810190613a119190615ee5565b5b613a51576040517f08c379a0000000000000000000000000000000000000000000000000000000008152600401613a4890616106565b60405180910390fd5b505050565b5f5f8461271085613a679190614b1f565b613a719190614b8d565b612710613a7e9190614aec565b90505f5f90508161271085613a939190616124565b1015613a9e57600190505b6001600d5f8a73ffffffffffffffffffffffffffffffffffffffff1673ffffffffffffffffffffffffffffffffffffffff1681526020019081526020015f206004018860198110613af257613af161487c565b5b602091828204019190066101000a81548160ff021916908315150217905550809250505095945050505050565b5f810315613bc8575f3373ffffffffffffffffffffffffffffffffffffffff1682604051613b4c9061481a565b5f6040518083038185875af1925050503d805f8114613b86576040519150601f19603f3d011682016040523d82523d5f602084013e613b8b565b606091505b5050905080613bc6576040517ff0c49d4400000000000000000000000000000000000000000000000000000000815260040160405180910390fd5b505b50565b60607f92fd13387c7fe7befbc38d303d6468778fb9731bc4583f17d92989c6fcfdeaaa82604051602401613bff919061616e565b604051602081830303815290604052907bffffffffffffffffffffffffffffffffffffffffffffffffffffffff19166020820180517bffffffffffffffffffffffffffffffffffffffffffffffffffffffff83818316178352505050509050919050565b613ce6846323b872dd60e01b858585604051602401613c8493929190614a0a565b604051602081830303815290604052907bffffffffffffffffffffffffffffffffffffffffffffffffffffffff19166020820180517bffffffffffffffffffffffffffffffffffffffffffffffffffffffff8381831617835250505050613990565b50505050565b6060613cfa84845f85613d03565b90509392505050565b606082471015613d48576040517f08c379a0000000000000000000000000000000000000000000000000000000008152600401613d3f906161f7565b60405180910390fd5b5f5f8673ffffffffffffffffffffffffffffffffffffffff168587604051613d709190616245565b5f6040518083038185875af1925050503d805f8114613daa576040519150601f19603f3d011682016040523d82523d5f602084013e613daf565b606091505b5091509150613dc087838387613dcc565b92505050949350505050565b60608315613e2d575f835103613e2557613de585613e40565b613e24576040517f08c379a0000000000000000000000000000000000000000000000000000000008152600401613e1b906162a5565b60405180910390fd5b5b829050613e38565b613e378383613e62565b5b949350505050565b5f5f8273ffffffffffffffffffffffffffffffffffffffff163b119050919050565b5f82511115613e745781518083602001fd5b806040517f08c379a0000000000000000000000000000000000000000000000000000000008152600401613ea89190616305565b60405180910390fd5b505f9055565b6040518061012001604052805f73ffffffffffffffffffffffffffffffffffffffff1681526020015f81526020015f81526020015f67ffffffffffffffff1681526020015f67ffffffffffffffff1681526020015f60ff168152602001613f1c613ff2565b8152602001613f29613ff2565b81526020015f151581525090565b826019601f01602090048101928215613fbe579160200282015f5b83821115613f90578335151583826101000a81548160ff02191690831515021790555092602001926001016020815f01049283019260010302613f52565b8015613fbc5782816101000a81549060ff02191690556001016020815f01049283019260010302613f90565b505b509050613fcb9190614015565b5090565b604051806103000160405280601890602082028036833780820191505090505090565b604051806103200160405280601990602082028036833780820191505090505090565b5b8082111561402c575f815f905550600101614016565b5090565b5f5ffd5b5f5ffd5b5f819050919050565b61404a81614038565b8114614054575f5ffd5b50565b5f8135905061406581614041565b92915050565b5f5ffd5b5f5ffd5b5f5ffd5b5f5f83601f84011261408c5761408b61406b565b5b8235905067ffffffffffffffff8111156140a9576140a861406f565b5b6020830191508360208202830111156140c5576140c4614073565b5b9250929050565b5f5f5f604084860312156140e3576140e2614030565b5b5f6140f086828701614057565b935050602084013567ffffffffffffffff81111561411157614110614034565b5b61411d86828701614077565b92509250509250925092565b5f73ffffffffffffffffffffffffffffffffffffffff82169050919050565b5f61415282614129565b9050919050565b61416281614148565b811461416c575f5ffd5b50565b5f8135905061417d81614159565b92915050565b5f6020828403121561419857614197614030565b5b5f6141a58482850161416f565b91505092915050565b6141b781614148565b82525050565b6141c681614038565b82525050565b5f67ffffffffffffffff82169050919050565b6141e8816141cc565b82525050565b5f60ff82169050919050565b614203816141ee565b82525050565b5f60199050919050565b5f81905092915050565b5f819050919050565b5f8115159050919050565b61423a81614226565b82525050565b5f61424b8383614231565b60208301905092915050565b5f602082019050919050565b61426c81614209565b6142768184614213565b92506142818261421d565b805f5b838110156142b15781516142988782614240565b96506142a383614257565b925050600181019050614284565b505050505050565b61072082015f8201516142ce5f8501826141ae565b5060208201516142e160208501826141bd565b5060408201516142f460408501826141bd565b50606082015161430760608501826141df565b50608082015161431a60808501826141df565b5060a082015161432d60a08501826141fa565b5060c082015161434060c0850182614263565b5060e08201516143546103e0850182614263565b50610100820151614369610700850182614231565b50505050565b5f610720820190506143835f8301846142b9565b92915050565b5f819050826020601902820111156143a4576143a3614073565b5b92915050565b6143b381614226565b81146143bd575f5ffd5b50565b5f813590506143ce816143aa565b92915050565b5f5f61034083850312156143eb576143ea614030565b5b5f6143f885828601614389565b92505061032061440a858286016143c0565b9150509250929050565b5f5f6040838503121561442a57614429614030565b5b5f61443785828601614057565b925050602061444885828601614057565b9150509250929050565b61445b81614038565b82525050565b5f6020820190506144745f830184614452565b92915050565b61448381614148565b82525050565b5f60208201905061449c5f83018461447a565b92915050565b6144ab81614226565b82525050565b5f6020820190506144c45f8301846144a2565b92915050565b5f819050919050565b5f6144ed6144e86144e384614129565b6144ca565b614129565b9050919050565b5f6144fe826144d3565b9050919050565b5f61450f826144f4565b9050919050565b61451f81614505565b82525050565b5f6020820190506145385f830184614516565b92915050565b5f6020828403121561455357614552614030565b5b5f61456084828501614057565b91505092915050565b5f614573826144f4565b9050919050565b61458381614569565b82525050565b5f60208201905061459c5f83018461457a565b92915050565b5f60189050919050565b5f81905092915050565b5f819050919050565b5f6145ca83836141bd565b60208301905092915050565b5f602082019050919050565b6145eb816145a2565b6145f581846145ac565b9250614600826145b6565b805f5b8381101561463057815161461787826145bf565b9650614622836145d6565b925050600181019050614603565b505050505050565b5f6103008201905061464c5f8301846145e2565b92915050565b5f61465c826144f4565b9050919050565b61466c81614652565b82525050565b5f6020820190506146855f830184614663565b92915050565b614694816141ee565b811461469e575f5ffd5b50565b5f813590506146af8161468b565b92915050565b5f5f5f5f5f6103a086880312156146cf576146ce614030565b5b5f6146dc88828901614057565b95505060206146ed8882890161416f565b94505060406146fe888289016146a1565b935050606061470f88828901614389565b925050610380614721888289016143c0565b9150509295509295909350565b7f4e487b71000000000000000000000000000000000000000000000000000000005f52601160045260245ffd5b5f614765826141cc565b9150614770836141cc565b9250828201905067ffffffffffffffff8111156147905761478f61472e565b5b92915050565b5f6147b06147ab6147a6846141cc565b6144ca565b614038565b9050919050565b6147c081614796565b82525050565b5f6040820190506147d95f830185614452565b6147e660208301846147b7565b9392505050565b5f81905092915050565b50565b5f6148055f836147ed565b9150614810826147f7565b5f82019050919050565b5f614824826147fa565b9150819050919050565b5f6040820190506148415f830185614452565b61484e602083018461447a565b9392505050565b5f6040820190506148685f83018561447a565b614875602083018461447a565b9392505050565b7f4e487b71000000000000000000000000000000000000000000000000000000005f52603260045260245ffd5b5f602082840312156148be576148bd614030565b5b5f6148cb848285016143c0565b91505092915050565b6148dd816141ee565b82525050565b5f6020820190506148f65f8301846148d4565b92915050565b5f63ffffffff82169050919050565b5f614915826148fc565b915063ffffffff820361492b5761492a61472e565b5b600182019050919050565b5f614940826141ee565b915060ff82036149535761495261472e565b5b600182019050919050565b5f614968826148fc565b9150614973836148fc565b9250828201905063ffffffff81111561498f5761498e61472e565b5b92915050565b61499e816148fc565b82525050565b5f6040820190506149b75f830185614995565b6149c46020830184614452565b9392505050565b5f815190506149d981614159565b92915050565b5f602082840312156149f4576149f3614030565b5b5f614a01848285016149cb565b91505092915050565b5f606082019050614a1d5f83018661447a565b614a2a602083018561447a565b614a376040830184614452565b949350505050565b5f82825260208201905092915050565b7f4d7573742062652070726f706f736564206f776e6572000000000000000000005f82015250565b5f614a83601683614a3f565b9150614a8e82614a4f565b602082019050919050565b5f6020820190508181035f830152614ab081614a77565b9050919050565b5f606082019050614aca5f83018661447a565b614ad7602083018561447a565b614ae4604083018461447a565b949350505050565b5f614af682614038565b9150614b0183614038565b9250828203905081811115614b1957614b1861472e565b5b92915050565b5f614b2982614038565b9150614b3483614038565b9250828202614b4281614038565b91508282048414831517614b5957614b5861472e565b5b5092915050565b7f4e487b71000000000000000000000000000000000000000000000000000000005f52601260045260245ffd5b5f614b9782614038565b9150614ba283614038565b925082614bb257614bb1614b60565b5b828204905092915050565b5f614bc782614038565b91507fffffffffffffffffffffffffffffffffffffffffffffffffffffffffffffffff8203614bf957614bf861472e565b5b600182019050919050565b5f614c1e614c19614c14846141ee565b6144ca565b614038565b9050919050565b614c2e81614c04565b82525050565b5f81905092915050565b614c4781614209565b614c518184614c34565b9250614c5c8261421d565b805f5b83811015614c8c578151614c738782614240565b9650614c7e83614257565b925050600181019050614c5f565b505050505050565b5f6103c082019050614ca85f830189614452565b614cb56020830188614452565b614cc2604083018761447a565b614ccf6060830186614c25565b614cdc6080830185614c3e565b614cea6103a0830184614452565b979650505050505050565b5f69ffffffffffffffffffff82169050919050565b614d1381614cf5565b8114614d1d575f5ffd5b50565b5f81519050614d2e81614d0a565b92915050565b5f819050919050565b614d4681614d34565b8114614d50575f5ffd5b50565b5f81519050614d6181614d3d565b92915050565b5f81519050614d7581614041565b92915050565b5f5f5f5f5f60a08688031215614d9457614d93614030565b5b5f614da188828901614d20565b9550506020614db288828901614d53565b9450506040614dc388828901614d67565b9350506060614dd488828901614d67565b9250506080614de588828901614d20565b9150509295509295909350565b5f614dfc82614038565b9150614e0783614038565b9250828201905080821115614e1f57614e1e61472e565b5b92915050565b5f60a082019050614e385f830188614452565b614e45602083018761447a565b614e5260408301866148d4565b614e5f60608301856144a2565b614e6c6080830184614452565b9695505050505050565b7f5265656e7472616e637947756172643a207265656e7472616e742063616c6c005f82015250565b5f614eaa601f83614a3f565b9150614eb582614e76565b602082019050919050565b5f6020820190508181035f830152614ed781614e9e565b9050919050565b5f60208284031215614ef357614ef2614030565b5b5f614f0084828501614d67565b91505092915050565b5f604082019050614f1c5f83018561447a565b614f296020830184614452565b9392505050565b5f614f3a826141ee565b9150614f45836141ee565b9250828203905060ff811115614f5e57614f5d61472e565b5b92915050565b5f819050919050565b5f614f87614f82614f7d84614f64565b6144ca565b614038565b9050919050565b614f9781614f6d565b82525050565b5f60199050919050565b5f819050919050565b5f815f1c9050919050565b5f60ff82169050919050565b5f614fd9614fd483614fb0565b614fbb565b9050919050565b5f8160081c9050919050565b5f614ffe614ff983614fe0565b614fbb565b9050919050565b5f8160101c9050919050565b5f61502361501e83615005565b614fbb565b9050919050565b5f8160181c9050919050565b5f6150486150438361502a565b614fbb565b9050919050565b5f8160201c9050919050565b5f61506d6150688361504f565b614fbb565b9050919050565b5f8160281c9050919050565b5f61509261508d83615074565b614fbb565b9050919050565b5f8160301c9050919050565b5f6150b76150b283615099565b614fbb565b9050919050565b5f8160381c9050919050565b5f6150dc6150d7836150be565b614fbb565b9050919050565b5f8160401c9050919050565b5f6151016150fc836150e3565b614fbb565b9050919050565b5f8160481c9050919050565b5f61512661512183615108565b614fbb565b9050919050565b5f8160501c9050919050565b5f61514b6151468361512d565b614fbb565b9050919050565b5f8160581c9050919050565b5f61517061516b83615152565b614fbb565b9050919050565b5f8160601c9050919050565b5f61519561519083615177565b614fbb565b9050919050565b5f8160681c9050919050565b5f6151ba6151b58361519c565b614fbb565b9050919050565b5f8160701c9050919050565b5f6151df6151da836151c1565b614fbb565b9050919050565b5f8160781c9050919050565b5f6152046151ff836151e6565b614fbb565b9050919050565b5f8160801c9050919050565b5f6152296152248361520b565b614fbb565b9050919050565b5f8160881c9050919050565b5f61524e61524983615230565b614fbb565b9050919050565b5f8160901c9050919050565b5f61527361526e83615255565b614fbb565b9050919050565b5f8160981c9050919050565b5f6152986152938361527a565b614fbb565b9050919050565b5f8160a01c9050919050565b5f6152bd6152b88361529f565b614fbb565b9050919050565b5f8160a81c9050919050565b5f6152e26152dd836152c4565b614fbb565b9050919050565b5f8160b01c9050919050565b5f615307615302836152e9565b614fbb565b9050919050565b5f8160b81c9050919050565b5f61532c6153278361530e565b614fbb565b9050919050565b5f8160c01c9050919050565b5f61535161534c83615333565b614fbb565b9050919050565b5f8160c81c9050919050565b5f61537661537183615358565b614fbb565b9050919050565b5f8160d01c9050919050565b5f61539b6153968361537d565b614fbb565b9050919050565b5f8160d81c9050919050565b5f6153c06153bb836153a2565b614fbb565b9050919050565b5f8160e01c9050919050565b5f6153e56153e0836153c7565b614fbb565b9050919050565b5f8160e81c9050919050565b5f61540a615405836153ec565b614fbb565b9050919050565b5f8160f01c9050919050565b5f61542f61542a83615411565b614fbb565b9050919050565b5f8160f81c9050919050565b5f61545461544f83615436565b614fbb565b9050919050565b61546481614f9d565b61546e8184614c34565b92508261547a83614fa7565b5f5f156157a5575b836001602003820110156157a45781546154a48761549f83614fc7565b614231565b6020870196506154bc876154b783614fec565b614231565b6020870196506154d4876154cf83615011565b614231565b6020870196506154ec876154e783615036565b614231565b602087019650615504876154ff8361505b565b614231565b60208701965061551c8761551783615080565b614231565b6020870196506155348761552f836150a5565b614231565b60208701965061554c87615547836150ca565b614231565b6020870196506155648761555f836150ef565b614231565b60208701965061557c8761557783615114565b614231565b6020870196506155948761558f83615139565b614231565b6020870196506155ac876155a78361515e565b614231565b6020870196506155c4876155bf83615183565b614231565b6020870196506155dc876155d7836151a8565b614231565b6020870196506155f4876155ef836151cd565b614231565b60208701965061560c87615607836151f2565b614231565b6020870196506156248761561f83615217565b614231565b60208701965061563c876156378361523c565b614231565b6020870196506156548761564f83615261565b614231565b60208701965061566c8761566783615286565b614231565b6020870196506156848761567f836152ab565b614231565b60208701965061569c87615697836152d0565b614231565b6020870196506156b4876156af836152f5565b614231565b6020870196506156cc876156c78361531a565b614231565b6020870196506156e4876156df8361533f565b614231565b6020870196506156fc876156f783615364565b614231565b6020870196506157148761570f83615389565b614231565b60208701965061572c87615727836153ae565b614231565b6020870196506157448761573f836153d3565b614231565b60208701965061575c87615757836153f8565b614231565b6020870196506157748761576f8361541d565b614231565b60208701965061578c8761578783615442565b614231565b60208701965060018301925050602081019050615482565b5b600115615c695781546001156157d4576157c7876157c283614fc7565b614231565b6020870196506001820191505b6001156157fa576157ed876157e883614fec565b614231565b6020870196506001820191505b600115615820576158138761580e83615011565b614231565b6020870196506001820191505b600115615846576158398761583483615036565b614231565b6020870196506001820191505b60011561586c5761585f8761585a8361505b565b614231565b6020870196506001820191505b600115615892576158858761588083615080565b614231565b6020870196506001820191505b6001156158b8576158ab876158a6836150a5565b614231565b6020870196506001820191505b6001156158de576158d1876158cc836150ca565b614231565b6020870196506001820191505b600115615904576158f7876158f2836150ef565b614231565b6020870196506001820191505b60011561592a5761591d8761591883615114565b614231565b6020870196506001820191505b600115615950576159438761593e83615139565b614231565b6020870196506001820191505b60011561597657615969876159648361515e565b614231565b6020870196506001820191505b60011561599c5761598f8761598a83615183565b614231565b6020870196506001820191505b6001156159c2576159b5876159b0836151a8565b614231565b6020870196506001820191505b6001156159e8576159db876159d6836151cd565b614231565b6020870196506001820191505b600115615a0e57615a01876159fc836151f2565b614231565b6020870196506001820191505b600115615a3457615a2787615a2283615217565b614231565b6020870196506001820191505b600115615a5a57615a4d87615a488361523c565b614231565b6020870196506001820191505b600115615a8057615a7387615a6e83615261565b614231565b6020870196506001820191505b600115615aa657615a9987615a9483615286565b614231565b6020870196506001820191505b600115615acc57615abf87615aba836152ab565b614231565b6020870196506001820191505b600115615af257615ae587615ae0836152d0565b614231565b6020870196506001820191505b600115615b1857615b0b87615b06836152f5565b614231565b6020870196506001820191505b600115615b3e57615b3187615b2c8361531a565b614231565b6020870196506001820191505b600115615b6457615b5787615b528361533f565b614231565b6020870196506001820191505b5f15615b8957615b7c87615b7783615364565b614231565b6020870196506001820191505b5f15615bae57615ba187615b9c83615389565b614231565b6020870196506001820191505b5f15615bd357615bc687615bc1836153ae565b614231565b6020870196506001820191505b5f15615bf857615beb87615be6836153d3565b614231565b6020870196506001820191505b5f15615c1d57615c1087615c0b836153f8565b614231565b6020870196506001820191505b5f15615c4257615c3587615c308361541d565b614231565b6020870196506001820191505b5f15615c6757615c5a87615c5583615442565b614231565b6020870196506001820191505b505b505050505050565b5f6106e082019050615c855f83018a614452565b615c926020830189614f8e565b615c9f604083018861447a565b615cac6060830187614c25565b615cb96080830186614c3e565b615cc76103a083018561545b565b615cd56106c0830184614f8e565b98975050505050505050565b5f6106e082019050615cf55f83018a614452565b615d026020830189614452565b615d0f604083018861447a565b615d1c6060830187614c25565b615d296080830186614c3e565b615d376103a083018561545b565b615d456106c0830184614452565b98975050505050505050565b5f604082019050615d645f830185614452565b615d716020830184614452565b9392505050565b5f819050919050565b615d8a81615d78565b82525050565b5f61ffff82169050919050565b615da681615d90565b82525050565b615db5816148fc565b82525050565b5f81519050919050565b5f82825260208201905092915050565b8281835e5f83830152505050565b5f601f19601f8301169050919050565b5f615dfd82615dbb565b615e078185615dc5565b9350615e17818560208601615dd5565b615e2081615de3565b840191505092915050565b5f60c083015f830151615e405f860182615d81565b506020830151615e5360208601826141bd565b506040830151615e666040860182615d9d565b506060830151615e796060860182615dac565b506080830151615e8c6080860182615dac565b5060a083015184820360a0860152615ea48282615df3565b9150508091505092915050565b5f6020820190508181035f830152615ec98184615e2b565b905092915050565b5f81519050615edf816143aa565b92915050565b5f60208284031215615efa57615ef9614030565b5b5f615f0784828501615ed1565b91505092915050565b5f608082019050615f235f83018761447a565b615f30602083018661447a565b615f3d604083018561447a565b615f4a6060830184614452565b95945050505050565b5f606082019050615f665f83018661447a565b615f736020830185614452565b615f80604083018461447a565b949350505050565b7f4f6e6c792063616c6c61626c65206279206f776e6572000000000000000000005f82015250565b5f615fbc601683614a3f565b9150615fc782615f88565b602082019050919050565b5f6020820190508181035f830152615fe981615fb0565b9050919050565b5f5f6040838503121561600657616005614030565b5b5f61601385828601615ed1565b925050602061602485828601614d67565b9150509250929050565b7f43616e6e6f74207472616e7366657220746f2073656c660000000000000000005f82015250565b5f616062601783614a3f565b915061606d8261602e565b602082019050919050565b5f6020820190508181035f83015261608f81616056565b9050919050565b7f5361666545524332303a204552433230206f7065726174696f6e20646964206e5f8201527f6f74207375636365656400000000000000000000000000000000000000000000602082015250565b5f6160f0602a83614a3f565b91506160fb82616096565b604082019050919050565b5f6020820190508181035f83015261611d816160e4565b9050919050565b5f61612e82614038565b915061613983614038565b92508261614957616148614b60565b5b828206905092915050565b602082015f8201516161685f850182614231565b50505050565b5f6020820190506161815f830184616154565b92915050565b7f416464726573733a20696e73756666696369656e742062616c616e636520666f5f8201527f722063616c6c0000000000000000000000000000000000000000000000000000602082015250565b5f6161e1602683614a3f565b91506161ec82616187565b604082019050919050565b5f6020820190508181035f83015261620e816161d5565b9050919050565b5f61621f82615dbb565b61622981856147ed565b9350616239818560208601615dd5565b80840191505092915050565b5f6162508284616215565b915081905092915050565b7f416464726573733a2063616c6c20746f206e6f6e2d636f6e74726163740000005f82015250565b5f61628f601d83614a3f565b915061629a8261625b565b602082019050919050565b5f6020820190508181035f8301526162bc81616283565b9050919050565b5f81519050919050565b5f6162d7826162c3565b6162e18185614a3f565b93506162f1818560208601615dd5565b6162fa81615de3565b840191505092915050565b5f6020820190508181035f83015261631d81846162cd565b90509291505056fea2646970667358221220c3e6e96ccc4716f4abad35ff00f024268ed133437a61d2e79bed947229fff34664736f6c634300081c0033","linkReferences":{}},"methodIdentifiers":{"Bankroll()":"d0bcfc0c","LINK_ETH_FEED()":"ad178361","Mines_End()":"b5f2da97","Mines_GetMaxReveal()":"c6318aad","Mines_GetMultipliers(uint256,uint256)":"50ffd786","Mines_GetState(address)":"20ade003","Mines_Refund()":"0f53b826","Mines_Reveal(bool[25],bool)":"320a5135","Mines_SetMultipliers(uint256)":"a6d18c51","Mines_Start(uint256,address,uint8,bool[25],bool)":"eb5d8075","VRFFees()":"8d7c16d2","_trustedForwarder()":"56c022bb","acceptOwnership()":"79ba5097","getVRFFee(uint256,uint256)":"baaa3edf","isTrustedForwarder(address)":"572b6c05","owner()":"8da5cb5b","rawFulfillRandomWords(uint256,uint256[])":"1fe543e3","s_vrfCoordinator()":"9eccacf6","setBankroll(address)":"bde8a93e","setCoordinator(address)":"8ea98117","transferFees(address)":"63dc4ef5","transferOwnership(address)":"f2fde38b"},"id":7}