{"abi":[{"type":"constructor","inputs":[{"name":"_entropyContract","type":"address","internalType":"address"},{"name":"_defaultProvider","type":"address","internalType":"address"}],"stateMutability":"nonpayable"},{"type":"receive","stateMutability":"payable"},{"type":"function","name":"_entropyCallback","inputs":[{"name":"sequence","type":"uint64","internalType":"uint64"},{"name":"provider","type":"address","internalType":"address"},{"name":"randomNumber","type":"bytes32","internalType":"bytes32"}],"outputs":[],"stateMutability":"nonpayable"},{"type":"function","name":"defaultProvider","inputs":[],"outputs":[{"name":"","type":"address","internalType":"address"}],"stateMutability":"view"},{"type":"function","name":"entropy","inputs":[],"outputs":[{"name":"","type":"address","internalType":"contract IEntropy"}],"stateMutability":"view"},{"type":"function","name":"entropyFee","inputs":[],"outputs":[{"name":"","type":"uint256","internalType":"uint256"}],"stateMutability":"view"},{"type":"function","name":"getCurrentFee","inputs":[],"outputs":[{"name":"","type":"uint256","internalType":"uint256"}],"stateMutability":"view"},{"type":"function","name":"getEntropyContract","inputs":[],"outputs":[{"name":"","type":"address","internalType":"address"}],"stateMutability":"view"},{"type":"function","name":"getMultipleRandom","inputs":[{"name":"sequenceNumber","type":"uint64","internalType":"uint64"},{"name":"count","type":"uint256","internalType":"uint256"}],"outputs":[{"name":"randomNumbers","type":"uint256[]","internalType":"uint256[]"}],"stateMutability":"view"},{"type":"function","name":"getRandomInRange","inputs":[{"name":"sequenceNumber","type":"uint64","internalType":"uint64"},{"name":"max","type":"uint256","internalType":"uint256"}],"outputs":[{"name":"","type":"uint256","internalType":"uint256"}],"stateMutability":"view"},{"type":"function","name":"getRequestStatus","inputs":[{"name":"sequenceNumber","type":"uint64","internalType":"uint64"}],"outputs":[{"name":"fulfilled","type":"bool","internalType":"bool"},{"name":"randomNumber","type":"bytes32","internalType":"bytes32"},{"name":"requester","type":"address","internalType":"address"}],"stateMutability":"view"},{"type":"function","name":"getRequestsForUser","inputs":[{"name":"requester","type":"address","internalType":"address"}],"outputs":[{"name":"userRequestIds","type":"uint64[]","internalType":"uint64[]"}],"stateMutability":"view"},{"type":"function","name":"latestRequestId","inputs":[],"outputs":[{"name":"","type":"uint64","internalType":"uint64"}],"stateMutability":"view"},{"type":"function","name":"requestIds","inputs":[{"name":"","type":"uint256","internalType":"uint256"}],"outputs":[{"name":"","type":"uint64","internalType":"uint64"}],"stateMutability":"view"},{"type":"function","name":"requestRandomness","inputs":[{"name":"userRandomNumber","type":"bytes32","internalType":"bytes32"}],"outputs":[{"name":"","type":"uint64","internalType":"uint64"}],"stateMutability":"payable"},{"type":"function","name":"requests","inputs":[{"name":"","type":"uint64","internalType":"uint64"}],"outputs":[{"name":"requester","type":"address","internalType":"address"},{"name":"fulfilled","type":"bool","internalType":"bool"},{"name":"randomNumber","type":"bytes32","internalType":"bytes32"},{"name":"timestamp","type":"uint256","internalType":"uint256"}],"stateMutability":"view"},{"type":"function","name":"setDefaultProvider","inputs":[{"name":"newProvider","type":"address","internalType":"address"}],"outputs":[],"stateMutability":"nonpayable"},{"type":"function","name":"updateEntropyFee","inputs":[],"outputs":[],"stateMutability":"nonpayable"},{"type":"function","name":"withdraw","inputs":[],"outputs":[],"stateMutability":"nonpayable"},{"type":"event","name":"RandomnessFulfilled","inputs":[{"name":"sequenceNumber","type":"uint64","indexed":false,"internalType":"uint64"},{"name":"randomNumber","type":"bytes32","indexed":false,"internalType":"bytes32"}],"anonymous":false},{"type":"event","name":"RandomnessRequested","inputs":[{"name":"sequenceNumber","type":"uint64","indexed":false,"internalType":"uint64"},{"name":"userRandomNumber","type":"bytes32","indexed":false,"internalType":"bytes32"}],"anonymous":false}],"bytecode":{"object":"0x608060405234801561000f575f5ffd5b5060405161201a38038061201a83398181016040528101906100319190610115565b815f5f6101000a81548173ffffffffffffffffffffffffffffffffffffffff021916908373ffffffffffffffffffffffffffffffffffffffff1602179055508060015f6101000a81548173ffffffffffffffffffffffffffffffffffffffff021916908373ffffffffffffffffffffffffffffffffffffffff1602179055505050610153565b5f5ffd5b5f73ffffffffffffffffffffffffffffffffffffffff82169050919050565b5f6100e4826100bb565b9050919050565b6100f4816100da565b81146100fe575f5ffd5b50565b5f8151905061010f816100eb565b92915050565b5f5f6040838503121561012b5761012a6100b7565b5b5f61013885828601610101565b925050602061014985828601610101565b9150509250929050565b611eba806101605f395ff3fe608060405260043610610101575f3560e01c8063667dba9c11610094578063a2f7233511610063578063a2f723351461033d578063d83747e81461037b578063de4478ec146103a5578063f2d2bf9d146103cd578063f70d9362146103f757610108565b8063667dba9c146102735780637b002de7146102af5780638796ba8c146102eb5780638c0989671461032757610108565b806347ce07cc116100d057806347ce07cc146101b557806352a5f1f8146101df5780635e3b709f146102075780636451ead81461023757610108565b80631aa46f591461010c5780633ccfd60b14610136578063411010ec1461014c578063476284b01461018b57610108565b3661010857005b5f5ffd5b348015610117575f5ffd5b50610120610421565b60405161012d919061133f565b60405180910390f35b348015610141575f5ffd5b5061014a61043a565b005b348015610157575f5ffd5b50610172600480360381019061016d9190611386565b610480565b604051610182949392919061143a565b60405180910390f35b348015610196575f5ffd5b5061019f6104d7565b6040516101ac919061147d565b60405180910390f35b3480156101c0575f5ffd5b506101c96104fe565b6040516101d691906114f1565b60405180910390f35b3480156101ea575f5ffd5b506102056004803603810190610200919061155e565b610522565b005b610221600480360381019061021c91906115ae565b61061a565b60405161022e919061133f565b60405180910390f35b348015610242575f5ffd5b5061025d60048036038101906102589190611603565b610917565b60405161026a91906116f8565b60405180910390f35b34801561027e575f5ffd5b5061029960048036038101906102949190611603565b610ab2565b6040516102a69190611718565b60405180910390f35b3480156102ba575f5ffd5b506102d560048036038101906102d09190611731565b610bac565b6040516102e29190611813565b60405180910390f35b3480156102f6575f5ffd5b50610311600480360381019061030c9190611833565b610e3f565b60405161031e919061133f565b60405180910390f35b348015610332575f5ffd5b5061033b610e7a565b005b348015610348575f5ffd5b50610363600480360381019061035e9190611386565b610f4d565b6040516103729392919061185e565b60405180910390f35b348015610386575f5ffd5b5061038f611021565b60405161039c919061147d565b60405180910390f35b3480156103b0575f5ffd5b506103cb60048036038101906103c69190611731565b611046565b005b3480156103d8575f5ffd5b506103e1611139565b6040516103ee9190611718565b60405180910390f35b348015610402575f5ffd5b5061040b61113f565b6040516104189190611718565b60405180910390f35b60045f9054906101000a900467ffffffffffffffff1681565b3373ffffffffffffffffffffffffffffffffffffffff166108fc4790811502906040515f60405180830381858888f1935050505015801561047d573d5f5f3e3d5ffd5b50565b6002602052805f5260405f205f91509050805f015f9054906101000a900473ffffffffffffffffffffffffffffffffffffffff1690805f0160149054906101000a900460ff16908060010154908060020154905084565b5f5f5f9054906101000a900473ffffffffffffffffffffffffffffffffffffffff16905090565b5f5f9054906101000a900473ffffffffffffffffffffffffffffffffffffffff1681565b5f61052b611210565b90505f73ffffffffffffffffffffffffffffffffffffffff168173ffffffffffffffffffffffffffffffffffffffff160361059b576040517f08c379a0000000000000000000000000000000000000000000000000000000008152600401610592906118ed565b60405180910390fd5b8073ffffffffffffffffffffffffffffffffffffffff163373ffffffffffffffffffffffffffffffffffffffff1614610609576040517f08c379a00000000000000000000000000000000000000000000000000000000081526004016106009061197b565b60405180910390fd5b610614848484611237565b50505050565b5f600554341015610660576040517f08c379a000000000000000000000000000000000000000000000000000000000815260040161065790611a09565b60405180910390fd5b5f5f5f9054906101000a900473ffffffffffffffffffffffffffffffffffffffff1673ffffffffffffffffffffffffffffffffffffffff166319cb825f60055460015f9054906101000a900473ffffffffffffffffffffffffffffffffffffffff16866040518463ffffffff1660e01b81526004016106e0929190611a27565b60206040518083038185885af11580156106fc573d5f5f3e3d5ffd5b50505050506040513d601f19601f820116820180604052508101906107219190611a62565b905060405180608001604052803373ffffffffffffffffffffffffffffffffffffffff1681526020015f151581526020015f5f1b81526020014281525060025f8367ffffffffffffffff1667ffffffffffffffff1681526020019081526020015f205f820151815f015f6101000a81548173ffffffffffffffffffffffffffffffffffffffff021916908373ffffffffffffffffffffffffffffffffffffffff1602179055506020820151815f0160146101000a81548160ff0219169083151502179055506040820151816001015560608201518160020155905050600381908060018154018082558091505060019003905f5260205f2090600491828204019190066008029091909190916101000a81548167ffffffffffffffff021916908367ffffffffffffffff1602179055508060045f6101000a81548167ffffffffffffffff021916908367ffffffffffffffff1602179055507fc7449912a6ba2079a6fdd0a6bce7d912a3b15cb76113cc9f0e9bd4eae730d75081846040516108aa929190611a8d565b60405180910390a160055434111561090e573373ffffffffffffffffffffffffffffffffffffffff166108fc600554346108e49190611ae1565b90811502906040515f60405180830381858888f1935050505015801561090c573d5f5f3e3d5ffd5b505b80915050919050565b606060025f8467ffffffffffffffff1667ffffffffffffffff1681526020019081526020015f205f0160149054906101000a900460ff1661098d576040517f08c379a000000000000000000000000000000000000000000000000000000000815260040161098490611b5e565b60405180910390fd5b5f82116109cf576040517f08c379a00000000000000000000000000000000000000000000000000000000081526004016109c690611bc6565b60405180910390fd5b8167ffffffffffffffff8111156109e9576109e8611be4565b5b604051908082528060200260200182016040528015610a175781602001602082028036833780820191505090505b5090505f60025f8567ffffffffffffffff1667ffffffffffffffff1681526020019081526020015f206001015490505f5f90505b83811015610aaa578181604051602001610a66929190611c51565b604051602081830303815290604052805190602001205f1c838281518110610a9157610a90611c7c565b5b6020026020010181815250508080600101915050610a4b565b505092915050565b5f60025f8467ffffffffffffffff1667ffffffffffffffff1681526020019081526020015f205f0160149054906101000a900460ff16610b27576040517f08c379a0000000000000000000000000000000000000000000000000000000008152600401610b1e90611b5e565b60405180910390fd5b5f8211610b69576040517f08c379a0000000000000000000000000000000000000000000000000000000008152600401610b6090611cf3565b60405180910390fd5b5f60025f8567ffffffffffffffff1667ffffffffffffffff1681526020019081526020015f2060010154905082815f1c610ba39190611d3e565b91505092915050565b60605f5f90505f5f90505b600380549050811015610c94578373ffffffffffffffffffffffffffffffffffffffff1660025f60038481548110610bf257610bf1611c7c565b5b905f5260205f2090600491828204019190066008029054906101000a900467ffffffffffffffff1667ffffffffffffffff1667ffffffffffffffff1681526020019081526020015f205f015f9054906101000a900473ffffffffffffffffffffffffffffffffffffffff1673ffffffffffffffffffffffffffffffffffffffff1603610c87578180610c8390611d6e565b9250505b8080600101915050610bb7565b508067ffffffffffffffff811115610caf57610cae611be4565b5b604051908082528060200260200182016040528015610cdd5781602001602082028036833780820191505090505b5091505f5f90505f5f90505b600380549050811015610e37578473ffffffffffffffffffffffffffffffffffffffff1660025f60038481548110610d2457610d23611c7c565b5b905f5260205f2090600491828204019190066008029054906101000a900467ffffffffffffffff1667ffffffffffffffff1667ffffffffffffffff1681526020019081526020015f205f015f9054906101000a900473ffffffffffffffffffffffffffffffffffffffff1673ffffffffffffffffffffffffffffffffffffffff1603610e2a5760038181548110610dbe57610dbd611c7c565b5b905f5260205f2090600491828204019190066008029054906101000a900467ffffffffffffffff16848381518110610df957610df8611c7c565b5b602002602001019067ffffffffffffffff16908167ffffffffffffffff16815250508180610e2690611d6e565b9250505b8080600101915050610ce9565b505050919050565b60038181548110610e4e575f80fd5b905f5260205f209060049182820401919006600802915054906101000a900467ffffffffffffffff1681565b5f5f9054906101000a900473ffffffffffffffffffffffffffffffffffffffff1673ffffffffffffffffffffffffffffffffffffffff1663b88c914860015f9054906101000a900473ffffffffffffffffffffffffffffffffffffffff166040518263ffffffff1660e01b8152600401610ef4919061147d565b602060405180830381865afa158015610f0f573d5f5f3e3d5ffd5b505050506040513d601f19601f82011682018060405250810190610f339190611dfa565b6fffffffffffffffffffffffffffffffff16600581905550565b5f5f5f5f60025f8667ffffffffffffffff1667ffffffffffffffff1681526020019081526020015f206040518060800160405290815f82015f9054906101000a900473ffffffffffffffffffffffffffffffffffffffff1673ffffffffffffffffffffffffffffffffffffffff1673ffffffffffffffffffffffffffffffffffffffff1681526020015f820160149054906101000a900460ff1615151515815260200160018201548152602001600282015481525050905080602001518160400151825f0151935093509350509193909250565b60015f9054906101000a900473ffffffffffffffffffffffffffffffffffffffff1681565b8060015f6101000a81548173ffffffffffffffffffffffffffffffffffffffff021916908373ffffffffffffffffffffffffffffffffffffffff1602179055505f5f9054906101000a900473ffffffffffffffffffffffffffffffffffffffff1673ffffffffffffffffffffffffffffffffffffffff1663b88c9148826040518263ffffffff1660e01b81526004016110df919061147d565b602060405180830381865afa1580156110fa573d5f5f3e3d5ffd5b505050506040513d601f19601f8201168201806040525081019061111e9190611dfa565b6fffffffffffffffffffffffffffffffff1660058190555050565b60055481565b5f5f5f9054906101000a900473ffffffffffffffffffffffffffffffffffffffff1673ffffffffffffffffffffffffffffffffffffffff1663b88c914860015f9054906101000a900473ffffffffffffffffffffffffffffffffffffffff166040518263ffffffff1660e01b81526004016111ba919061147d565b602060405180830381865afa1580156111d5573d5f5f3e3d5ffd5b505050506040513d601f19601f820116820180604052508101906111f99190611dfa565b6fffffffffffffffffffffffffffffffff16905090565b5f5f5f9054906101000a900473ffffffffffffffffffffffffffffffffffffffff16905090565b5f838260405160200161124b929190611e59565b604051602081830303815290604052805190602001209050600160025f8667ffffffffffffffff1667ffffffffffffffff1681526020019081526020015f205f0160146101000a81548160ff0219169083151502179055508060025f8667ffffffffffffffff1667ffffffffffffffff1681526020019081526020015f20600101819055507f7243e38e28145751690b8536ab18259ccd5180bad1ed5f3c639d1f9e50bf4d818482604051611301929190611a8d565b60405180910390a16113138482611319565b50505050565b5050565b5f67ffffffffffffffff82169050919050565b6113398161131d565b82525050565b5f6020820190506113525f830184611330565b92915050565b5f5ffd5b6113658161131d565b811461136f575f5ffd5b50565b5f813590506113808161135c565b92915050565b5f6020828403121561139b5761139a611358565b5b5f6113a884828501611372565b91505092915050565b5f73ffffffffffffffffffffffffffffffffffffffff82169050919050565b5f6113da826113b1565b9050919050565b6113ea816113d0565b82525050565b5f8115159050919050565b611404816113f0565b82525050565b5f819050919050565b61141c8161140a565b82525050565b5f819050919050565b61143481611422565b82525050565b5f60808201905061144d5f8301876113e1565b61145a60208301866113fb565b6114676040830185611413565b611474606083018461142b565b95945050505050565b5f6020820190506114905f8301846113e1565b92915050565b5f819050919050565b5f6114b96114b46114af846113b1565b611496565b6113b1565b9050919050565b5f6114ca8261149f565b9050919050565b5f6114db826114c0565b9050919050565b6114eb816114d1565b82525050565b5f6020820190506115045f8301846114e2565b92915050565b611513816113d0565b811461151d575f5ffd5b50565b5f8135905061152e8161150a565b92915050565b61153d8161140a565b8114611547575f5ffd5b50565b5f8135905061155881611534565b92915050565b5f5f5f6060848603121561157557611574611358565b5b5f61158286828701611372565b935050602061159386828701611520565b92505060406115a48682870161154a565b9150509250925092565b5f602082840312156115c3576115c2611358565b5b5f6115d08482850161154a565b91505092915050565b6115e281611422565b81146115ec575f5ffd5b50565b5f813590506115fd816115d9565b92915050565b5f5f6040838503121561161957611618611358565b5b5f61162685828601611372565b9250506020611637858286016115ef565b9150509250929050565b5f81519050919050565b5f82825260208201905092915050565b5f819050602082019050919050565b61167381611422565b82525050565b5f611684838361166a565b60208301905092915050565b5f602082019050919050565b5f6116a682611641565b6116b0818561164b565b93506116bb8361165b565b805f5b838110156116eb5781516116d28882611679565b97506116dd83611690565b9250506001810190506116be565b5085935050505092915050565b5f6020820190508181035f830152611710818461169c565b905092915050565b5f60208201905061172b5f83018461142b565b92915050565b5f6020828403121561174657611745611358565b5b5f61175384828501611520565b91505092915050565b5f81519050919050565b5f82825260208201905092915050565b5f819050602082019050919050565b61178e8161131d565b82525050565b5f61179f8383611785565b60208301905092915050565b5f602082019050919050565b5f6117c18261175c565b6117cb8185611766565b93506117d683611776565b805f5b838110156118065781516117ed8882611794565b97506117f8836117ab565b9250506001810190506117d9565b5085935050505092915050565b5f6020820190508181035f83015261182b81846117b7565b905092915050565b5f6020828403121561184857611847611358565b5b5f611855848285016115ef565b91505092915050565b5f6060820190506118715f8301866113fb565b61187e6020830185611413565b61188b60408301846113e1565b949350505050565b5f82825260208201905092915050565b7f456e74726f70792061646472657373206e6f74207365740000000000000000005f82015250565b5f6118d7601783611893565b91506118e2826118a3565b602082019050919050565b5f6020820190508181035f830152611904816118cb565b9050919050565b7f4f6e6c7920456e74726f70792063616e2063616c6c20746869732066756e63745f8201527f696f6e0000000000000000000000000000000000000000000000000000000000602082015250565b5f611965602383611893565b91506119708261190b565b604082019050919050565b5f6020820190508181035f83015261199281611959565b9050919050565b7f496e73756666696369656e742066656520666f7220656e74726f7079207265715f8201527f7565737400000000000000000000000000000000000000000000000000000000602082015250565b5f6119f3602483611893565b91506119fe82611999565b604082019050919050565b5f6020820190508181035f830152611a20816119e7565b9050919050565b5f604082019050611a3a5f8301856113e1565b611a476020830184611413565b9392505050565b5f81519050611a5c8161135c565b92915050565b5f60208284031215611a7757611a76611358565b5b5f611a8484828501611a4e565b91505092915050565b5f604082019050611aa05f830185611330565b611aad6020830184611413565b9392505050565b7f4e487b71000000000000000000000000000000000000000000000000000000005f52601160045260245ffd5b5f611aeb82611422565b9150611af683611422565b9250828203905081811115611b0e57611b0d611ab4565b5b92915050565b7f52657175657374206e6f742066756c66696c6c656400000000000000000000005f82015250565b5f611b48601583611893565b9150611b5382611b14565b602082019050919050565b5f6020820190508181035f830152611b7581611b3c565b9050919050565b7f436f756e74206d7573742062652067726561746572207468616e2030000000005f82015250565b5f611bb0601c83611893565b9150611bbb82611b7c565b602082019050919050565b5f6020820190508181035f830152611bdd81611ba4565b9050919050565b7f4e487b71000000000000000000000000000000000000000000000000000000005f52604160045260245ffd5b5f819050919050565b611c2b611c268261140a565b611c11565b82525050565b5f819050919050565b611c4b611c4682611422565b611c31565b82525050565b5f611c5c8285611c1a565b602082019150611c6c8284611c3a565b6020820191508190509392505050565b7f4e487b71000000000000000000000000000000000000000000000000000000005f52603260045260245ffd5b7f4d6178206d7573742062652067726561746572207468616e20300000000000005f82015250565b5f611cdd601a83611893565b9150611ce882611ca9565b602082019050919050565b5f6020820190508181035f830152611d0a81611cd1565b9050919050565b7f4e487b71000000000000000000000000000000000000000000000000000000005f52601260045260245ffd5b5f611d4882611422565b9150611d5383611422565b925082611d6357611d62611d11565b5b828206905092915050565b5f611d7882611422565b91507fffffffffffffffffffffffffffffffffffffffffffffffffffffffffffffffff8203611daa57611da9611ab4565b5b600182019050919050565b5f6fffffffffffffffffffffffffffffffff82169050919050565b611dd981611db5565b8114611de3575f5ffd5b50565b5f81519050611df481611dd0565b92915050565b5f60208284031215611e0f57611e0e611358565b5b5f611e1c84828501611de6565b91505092915050565b5f8160c01b9050919050565b5f611e3b82611e25565b9050919050565b611e53611e4e8261131d565b611e31565b82525050565b5f611e648285611e42565b600882019150611e748284611c1a565b602082019150819050939250505056fea2646970667358221220264486eb712c27641406857749ed731f2b2428f96234c458cf05bc0906ff2b9e64736f6c634300081c0033","linkReferences":{}},"methodIdentifiers":{"_entropyCallback(uint64,address,bytes32)":"52a5f1f8","defaultProvider()":"d83747e8","entropy()":"47ce07cc","entropyFee()":"f2d2bf9d","getCurrentFee()":"f70d9362","getEntropyContract()":"476284b0","getMultipleRandom(uint64,uint256)":"6451ead8","getRandomInRange(uint64,uint256)":"667dba9c","getRequestStatus(uint64)":"a2f72335","getRequestsForUser(address)":"7b002de7","latestRequestId()":"1aa46f59","requestIds(uint256)":"8796ba8c","requestRandomness(bytes32)":"5e3b709f","requests(uint64)":"411010ec","setDefaultProvider(address)":"de4478ec","updateEntropyFee()":"8c098967","withdraw()":"3ccfd60b"},"id":0}