{"abi":[{"type":"constructor","inputs":[{"name":"_bankroll","type":"address","internalType":"address"},{"name":"_vrf","type":"address","internalType":"address"},{"name":"link_eth_feed","type":"address","internalType":"address"},{"name":"_forwarder","type":"address","internalType":"address"},{"name":"_multipliers","type":"uint16[]","internalType":"uint16[]"},{"name":"_outcomeNum","type":"uint16[]","internalType":"uint16[]"},{"name":"_numOutcomes","type":"uint16","internalType":"uint16"}],"stateMutability":"nonpayable"},{"type":"function","name":"Bankroll","inputs":[],"outputs":[{"name":"","type":"address","internalType":"contract IBankRoll"}],"stateMutability":"view"},{"type":"function","name":"LINK_ETH_FEED","inputs":[],"outputs":[{"name":"","type":"address","internalType":"contract IDecimalAggregator"}],"stateMutability":"view"},{"type":"function","name":"Slots_GetMultipliers","inputs":[],"outputs":[{"name":"multipliers","type":"uint16[]","internalType":"uint16[]"}],"stateMutability":"view"},{"type":"function","name":"Slots_GetState","inputs":[{"name":"player","type":"address","internalType":"address"}],"outputs":[{"name":"","type":"tuple","internalType":"struct Slots.SlotsGame","components":[{"name":"wager","type":"uint256","internalType":"uint256"},{"name":"stopGain","type":"uint256","internalType":"uint256"},{"name":"stopLoss","type":"uint256","internalType":"uint256"},{"name":"requestID","type":"uint256","internalType":"uint256"},{"name":"tokenAddress","type":"address","internalType":"address"},{"name":"blockNumber","type":"uint64","internalType":"uint64"},{"name":"numBets","type":"uint32","internalType":"uint32"}]}],"stateMutability":"view"},{"type":"function","name":"Slots_Play","inputs":[{"name":"wager","type":"uint256","internalType":"uint256"},{"name":"tokenAddress","type":"address","internalType":"address"},{"name":"numBets","type":"uint32","internalType":"uint32"},{"name":"stopGain","type":"uint256","internalType":"uint256"},{"name":"stopLoss","type":"uint256","internalType":"uint256"}],"outputs":[],"stateMutability":"payable"},{"type":"function","name":"Slots_Refund","inputs":[],"outputs":[],"stateMutability":"nonpayable"},{"type":"function","name":"VRFFees","inputs":[],"outputs":[{"name":"","type":"uint256","internalType":"uint256"}],"stateMutability":"view"},{"type":"function","name":"_trustedForwarder","inputs":[],"outputs":[{"name":"","type":"address","internalType":"address"}],"stateMutability":"view"},{"type":"function","name":"acceptOwnership","inputs":[],"outputs":[],"stateMutability":"nonpayable"},{"type":"function","name":"getVRFFee","inputs":[{"name":"gasAmount","type":"uint256","internalType":"uint256"},{"name":"l1Multiplier","type":"uint256","internalType":"uint256"}],"outputs":[{"name":"fee","type":"uint256","internalType":"uint256"}],"stateMutability":"view"},{"type":"function","name":"isTrustedForwarder","inputs":[{"name":"forwarder","type":"address","internalType":"address"}],"outputs":[{"name":"","type":"bool","internalType":"bool"}],"stateMutability":"view"},{"type":"function","name":"owner","inputs":[],"outputs":[{"name":"","type":"address","internalType":"address"}],"stateMutability":"view"},{"type":"function","name":"rawFulfillRandomWords","inputs":[{"name":"requestId","type":"uint256","internalType":"uint256"},{"name":"randomWords","type":"uint256[]","internalType":"uint256[]"}],"outputs":[],"stateMutability":"nonpayable"},{"type":"function","name":"s_vrfCoordinator","inputs":[],"outputs":[{"name":"","type":"address","internalType":"contract IVRFCoordinatorV2Plus"}],"stateMutability":"view"},{"type":"function","name":"setBankroll","inputs":[{"name":"_bankRoll","type":"address","internalType":"address"}],"outputs":[],"stateMutability":"nonpayable"},{"type":"function","name":"setCoordinator","inputs":[{"name":"_vrfCoordinator","type":"address","internalType":"address"}],"outputs":[],"stateMutability":"nonpayable"},{"type":"function","name":"transferFees","inputs":[{"name":"to","type":"address","internalType":"address"}],"outputs":[],"stateMutability":"nonpayable"},{"type":"function","name":"transferOwnership","inputs":[{"name":"to","type":"address","internalType":"address"}],"outputs":[],"stateMutability":"nonpayable"},{"type":"event","name":"CoordinatorSet","inputs":[{"name":"vrfCoordinator","type":"address","indexed":false,"internalType":"address"}],"anonymous":false},{"type":"event","name":"FeeTransferred","inputs":[{"name":"game","type":"address","indexed":false,"internalType":"address"},{"name":"player","type":"address","indexed":false,"internalType":"address"},{"name":"amount","type":"uint256","indexed":false,"internalType":"uint256"}],"anonymous":false},{"type":"event","name":"OwnershipTransferRequested","inputs":[{"name":"from","type":"address","indexed":true,"internalType":"address"},{"name":"to","type":"address","indexed":true,"internalType":"address"}],"anonymous":false},{"type":"event","name":"OwnershipTransferred","inputs":[{"name":"from","type":"address","indexed":true,"internalType":"address"},{"name":"to","type":"address","indexed":true,"internalType":"address"}],"anonymous":false},{"type":"event","name":"Slots_Outcome_Event","inputs":[{"name":"playerAddress","type":"address","indexed":true,"internalType":"address"},{"name":"wager","type":"uint256","indexed":false,"internalType":"uint256"},{"name":"payout","type":"uint256","indexed":false,"internalType":"uint256"},{"name":"tokenAddress","type":"address","indexed":false,"internalType":"address"},{"name":"slotIDs","type":"uint16[]","indexed":false,"internalType":"uint16[]"},{"name":"multipliers","type":"uint256[]","indexed":false,"internalType":"uint256[]"},{"name":"payouts","type":"uint256[]","indexed":false,"internalType":"uint256[]"},{"name":"numGames","type":"uint32","indexed":false,"internalType":"uint32"}],"anonymous":false},{"type":"event","name":"Slots_Play_Event","inputs":[{"name":"playerAddress","type":"address","indexed":true,"internalType":"address"},{"name":"wager","type":"uint256","indexed":false,"internalType":"uint256"},{"name":"tokenAddress","type":"address","indexed":false,"internalType":"address"},{"name":"numBets","type":"uint32","indexed":false,"internalType":"uint32"},{"name":"stopGain","type":"uint256","indexed":false,"internalType":"uint256"},{"name":"stopLoss","type":"uint256","indexed":false,"internalType":"uint256"},{"name":"VRFFee","type":"uint256","indexed":false,"internalType":"uint256"}],"anonymous":false},{"type":"event","name":"Slots_Refund_Event","inputs":[{"name":"player","type":"address","indexed":true,"internalType":"address"},{"name":"wager","type":"uint256","indexed":false,"internalType":"uint256"},{"name":"tokenAddress","type":"address","indexed":false,"internalType":"address"}],"anonymous":false},{"type":"event","name":"WagerTransferred","inputs":[{"name":"game","type":"address","indexed":false,"internalType":"address"},{"name":"token","type":"address","indexed":false,"internalType":"address"},{"name":"player","type":"address","indexed":false,"internalType":"address"},{"name":"amount","type":"uint256","indexed":false,"internalType":"uint256"}],"anonymous":false},{"type":"error","name":"AwaitingVRF","inputs":[{"name":"requestId","type":"uint256","internalType":"uint256"}]},{"type":"error","name":"BlockNumberTooLow","inputs":[{"name":"have","type":"uint256","internalType":"uint256"},{"name":"want","type":"uint256","internalType":"uint256"}]},{"type":"error","name":"InvalidNumBets","inputs":[{"name":"maxNumBets","type":"uint256","internalType":"uint256"}]},{"type":"error","name":"InvalidValue","inputs":[{"name":"required","type":"uint256","internalType":"uint256"},{"name":"sent","type":"uint256","internalType":"uint256"}]},{"type":"error","name":"NotApprovedBankroll","inputs":[]},{"type":"error","name":"NotAwaitingVRF","inputs":[]},{"type":"error","name":"NotOwner","inputs":[{"name":"want","type":"address","internalType":"address"},{"name":"have","type":"address","internalType":"address"}]},{"type":"error","name":"OnlyCoordinatorCanFulfill","inputs":[{"name":"have","type":"address","internalType":"address"},{"name":"want","type":"address","internalType":"address"}]},{"type":"error","name":"OnlyOwnerOrCoordinator","inputs":[{"name":"have","type":"address","internalType":"address"},{"name":"owner","type":"address","internalType":"address"},{"name":"coordinator","type":"address","internalType":"address"}]},{"type":"error","name":"PlayerSuspended","inputs":[{"name":"suspensionTime","type":"uint256","internalType":"uint256"}]},{"type":"error","name":"RefundFailed","inputs":[]},{"type":"error","name":"TransferFailed","inputs":[]},{"type":"error","name":"WagerAboveLimit","inputs":[{"name":"wager","type":"uint256","internalType":"uint256"},{"name":"maxWager","type":"uint256","internalType":"uint256"}]},{"type":"error","name":"ZeroAddress","inputs":[]},{"type":"error","name":"ZeroWager","inputs":[]}],"bytecode":{"object":"0x60806040527fabb65d5c6f9c8a5a1d2af242cbb644ce2157e5f9ca410a33e28106c9f1f3e9cc600a557f1770bdc7eec7771f7ba4ffd640f34260d7f095b79c92d34a5b2551d6f6cfd2be5f1b600b556003600c5f6101000a81548161ffff021916908361ffff160217905550622625a0600c60026101000a81548163ffffffff021916908363ffffffff16021790555034801561009a575f5ffd5b50604051614e41380380614e4183398181016040528101906100bc91906107ed565b8533805f60015f819055505f73ffffffffffffffffffffffffffffffffffffffff168273ffffffffffffffffffffffffffffffffffffffff1603610135576040517f08c379a000000000000000000000000000000000000000000000000000000000815260040161012c9061091c565b60405180910390fd5b8160015f6101000a81548173ffffffffffffffffffffffffffffffffffffffff021916908373ffffffffffffffffffffffffffffffffffffffff1602179055505f73ffffffffffffffffffffffffffffffffffffffff168173ffffffffffffffffffffffffffffffffffffffff16146101b8576101b7816103be60201b60201c565b5b5050505f73ffffffffffffffffffffffffffffffffffffffff168173ffffffffffffffffffffffffffffffffffffffff1603610220576040517fd92e233d00000000000000000000000000000000000000000000000000000000815260040160405180910390fd5b8060035f6101000a81548173ffffffffffffffffffffffffffffffffffffffff021916908373ffffffffffffffffffffffffffffffffffffffff160217905550508660085f6101000a81548173ffffffffffffffffffffffffffffffffffffffff021916908373ffffffffffffffffffffffffffffffffffffffff1602179055508560095f6101000a81548173ffffffffffffffffffffffffffffffffffffffff021916908373ffffffffffffffffffffffffffffffffffffffff1602179055508460075f6101000a81548173ffffffffffffffffffffffffffffffffffffffff021916908373ffffffffffffffffffffffffffffffffffffffff1602179055508560055f6101000a81548173ffffffffffffffffffffffffffffffffffffffff021916908373ffffffffffffffffffffffffffffffffffffffff1602179055508360065f6101000a81548173ffffffffffffffffffffffffffffffffffffffff021916908373ffffffffffffffffffffffffffffffffffffffff1602179055506103b28383836104ea60201b60201c565b50505050505050610a25565b3373ffffffffffffffffffffffffffffffffffffffff168173ffffffffffffffffffffffffffffffffffffffff160361042c576040517f08c379a000000000000000000000000000000000000000000000000000000000815260040161042390610984565b60405180910390fd5b8060025f6101000a81548173ffffffffffffffffffffffffffffffffffffffff021916908373ffffffffffffffffffffffffffffffffffffffff1602179055508073ffffffffffffffffffffffffffffffffffffffff1660015f9054906101000a900473ffffffffffffffffffffffffffffffffffffffff1673ffffffffffffffffffffffffffffffffffffffff167fed8889f560326eb138920d842192f0eb3dd22b4f139c87a2c57538e05bae127860405160405180910390a350565b5f5f90505b60105f9054906101000a900461ffff1661ffff168161ffff16101561054457600f5f8261ffff1661ffff1681526020019081526020015f205f6101000a81549061ffff021916905580806001019150506104ef565b508060105f6101000a81548161ffff021916908361ffff1602179055505f5f90505b83518161ffff1610156105f557838161ffff168151811061058a576105896109a2565b5b6020026020010151600f5f858461ffff16815181106105ac576105ab6109a2565b5b602002602001015161ffff1661ffff1681526020019081526020015f205f6101000a81548161ffff021916908361ffff16021790555080806105ed906109fc565b915050610566565b50505050565b5f604051905090565b5f5ffd5b5f5ffd5b5f73ffffffffffffffffffffffffffffffffffffffff82169050919050565b5f6106358261060c565b9050919050565b6106458161062b565b811461064f575f5ffd5b50565b5f815190506106608161063c565b92915050565b5f5ffd5b5f601f19601f8301169050919050565b7f4e487b71000000000000000000000000000000000000000000000000000000005f52604160045260245ffd5b6106b08261066a565b810181811067ffffffffffffffff821117156106cf576106ce61067a565b5b80604052505050565b5f6106e16105fb565b90506106ed82826106a7565b919050565b5f67ffffffffffffffff82111561070c5761070b61067a565b5b602082029050602081019050919050565b5f5ffd5b5f61ffff82169050919050565b61073781610721565b8114610741575f5ffd5b50565b5f815190506107528161072e565b92915050565b5f61076a610765846106f2565b6106d8565b9050808382526020820190506020840283018581111561078d5761078c61071d565b5b835b818110156107b657806107a28882610744565b84526020840193505060208101905061078f565b5050509392505050565b5f82601f8301126107d4576107d3610666565b5b81516107e4848260208601610758565b91505092915050565b5f5f5f5f5f5f5f60e0888a03121561080857610807610604565b5b5f6108158a828b01610652565b97505060206108268a828b01610652565b96505060406108378a828b01610652565b95505060606108488a828b01610652565b945050608088015167ffffffffffffffff81111561086957610868610608565b5b6108758a828b016107c0565b93505060a088015167ffffffffffffffff81111561089657610895610608565b5b6108a28a828b016107c0565b92505060c06108b38a828b01610744565b91505092959891949750929550565b5f82825260208201905092915050565b7f43616e6e6f7420736574206f776e657220746f207a65726f00000000000000005f82015250565b5f6109066018836108c2565b9150610911826108d2565b602082019050919050565b5f6020820190508181035f830152610933816108fa565b9050919050565b7f43616e6e6f74207472616e7366657220746f2073656c660000000000000000005f82015250565b5f61096e6017836108c2565b91506109798261093a565b602082019050919050565b5f6020820190508181035f83015261099b81610962565b9050919050565b7f4e487b71000000000000000000000000000000000000000000000000000000005f52603260045260245ffd5b7f4e487b71000000000000000000000000000000000000000000000000000000005f52601160045260245ffd5b5f610a0682610721565b915061ffff8203610a1a57610a196109cf565b5b600182019050919050565b61440f80610a325f395ff3fe608060405260043610610108575f3560e01c80638da5cb5b11610094578063baaa3edf11610063578063baaa3edf14610324578063bde8a93e14610360578063d0bcfc0c14610388578063f26c05f2146103b2578063f2fde38b146103ce57610108565b80638da5cb5b1461027e5780638ea98117146102a85780639eccacf6146102d0578063ad178361146102fa57610108565b8063572b6c05116100db578063572b6c05146101c457806363dc4ef5146102005780637127698f1461022857806379ba50971461023e5780638d7c16d21461025457610108565b80631734e50a1461010c5780631fe543e31461013657806344e137341461015e57806356c022bb1461019a575b5f5ffd5b348015610117575f5ffd5b506101206103f6565b60405161012d91906130b6565b60405180910390f35b348015610141575f5ffd5b5061015c60048036038101906101579190613172565b6104df565b005b348015610169575f5ffd5b50610184600480360381019061017f9190613229565b6105a3565b604051610191919061333e565b60405180910390f35b3480156101a5575f5ffd5b506101ae6106ce565b6040516101bb9190613366565b60405180910390f35b3480156101cf575f5ffd5b506101ea60048036038101906101e59190613229565b6106f3565b6040516101f79190613399565b60405180910390f35b34801561020b575f5ffd5b5061022660048036038101906102219190613229565b61074b565b005b348015610233575f5ffd5b5061023c6109d3565b005b348015610249575f5ffd5b50610252610db3565b005b34801561025f575f5ffd5b50610268610f44565b60405161027591906133c1565b60405180910390f35b348015610289575f5ffd5b50610292610f4a565b60405161029f9190613366565b60405180910390f35b3480156102b3575f5ffd5b506102ce60048036038101906102c99190613229565b610f72565b005b3480156102db575f5ffd5b506102e461114f565b6040516102f19190613435565b60405180910390f35b348015610305575f5ffd5b5061030e611174565b60405161031b919061346e565b60405180910390f35b34801561032f575f5ffd5b5061034a60048036038101906103459190613487565b611199565b60405161035791906133c1565b60405180910390f35b34801561036b575f5ffd5b5061038660048036038101906103819190613229565b6112a0565b005b348015610393575f5ffd5b5061039c6112eb565b6040516103a991906134e5565b60405180910390f35b6103cc60048036038101906103c79190613528565b611310565b005b3480156103d9575f5ffd5b506103f460048036038101906103ef9190613229565b61169b565b005b606060105f9054906101000a900461ffff1661ffff1667ffffffffffffffff8111156104255761042461359f565b5b6040519080825280602002602001820160405280156104535781602001602082028036833780820191505090505b5090505f5f90505b60105f9054906101000a900461ffff1661ffff168161ffff1610156104db57600f5f8261ffff1661ffff1681526020019081526020015f205f9054906101000a900461ffff16828261ffff16815181106104b8576104b76135cc565b5b602002602001019061ffff16908161ffff1681525050808060010191505061045b565b5090565b60035f9054906101000a900473ffffffffffffffffffffffffffffffffffffffff1673ffffffffffffffffffffffffffffffffffffffff163373ffffffffffffffffffffffffffffffffffffffff1614610593573360035f9054906101000a900473ffffffffffffffffffffffffffffffffffffffff166040517f1cf993f400000000000000000000000000000000000000000000000000000000815260040161058a9291906135f9565b60405180910390fd5b61059e8383836116af565b505050565b6105ab612f96565b600d5f8373ffffffffffffffffffffffffffffffffffffffff1673ffffffffffffffffffffffffffffffffffffffff1681526020019081526020015f206040518060e00160405290815f8201548152602001600182015481526020016002820154815260200160038201548152602001600482015f9054906101000a900473ffffffffffffffffffffffffffffffffffffffff1673ffffffffffffffffffffffffffffffffffffffff1673ffffffffffffffffffffffffffffffffffffffff1681526020016004820160149054906101000a900467ffffffffffffffff1667ffffffffffffffff1667ffffffffffffffff16815260200160048201601c9054906101000a900463ffffffff1663ffffffff1663ffffffff16815250509050919050565b60065f9054906101000a900473ffffffffffffffffffffffffffffffffffffffff1681565b5f60065f9054906101000a900473ffffffffffffffffffffffffffffffffffffffff1673ffffffffffffffffffffffffffffffffffffffff168273ffffffffffffffffffffffffffffffffffffffff16149050919050565b610753611cdc565b60085f9054906101000a900473ffffffffffffffffffffffffffffffffffffffff1673ffffffffffffffffffffffffffffffffffffffff1663893d20e86040518163ffffffff1660e01b8152600401602060405180830381865afa1580156107bd573d5f5f3e3d5ffd5b505050506040513d601f19601f820116820180604052508101906107e19190613634565b73ffffffffffffffffffffffffffffffffffffffff163373ffffffffffffffffffffffffffffffffffffffff16146108df5760085f9054906101000a900473ffffffffffffffffffffffffffffffffffffffff1673ffffffffffffffffffffffffffffffffffffffff1663893d20e86040518163ffffffff1660e01b8152600401602060405180830381865afa15801561087d573d5f5f3e3d5ffd5b505050506040513d601f19601f820116820180604052508101906108a19190613634565b336040517f23295f0e0000000000000000000000000000000000000000000000000000000081526004016108d69291906135f9565b60405180910390fd5b5f60045490505f6004819055505f8273ffffffffffffffffffffffffffffffffffffffff16826040516109119061368c565b5f6040518083038185875af1925050503d805f811461094b576040519150601f19603f3d011682016040523d82523d5f602084013e610950565b606091505b505090508061098b576040517f90b8ec1800000000000000000000000000000000000000000000000000000000815260040160405180910390fd5b7f1d6298f49fc15449b78df91fcca6812136edc2972366cb70aa0d9145a308cd313084846040516109be939291906136a0565b60405180910390a150506109d0611d29565b50565b6109db611cdc565b5f6109e4611d32565b90505f600d5f8373ffffffffffffffffffffffffffffffffffffffff1673ffffffffffffffffffffffffffffffffffffffff1681526020019081526020015f2090505f816003015403610a63576040517f49050b3000000000000000000000000000000000000000000000000000000000815260040160405180910390fd5b610a6b611d67565b67ffffffffffffffff1660c88260040160149054906101000a900467ffffffffffffffff16610a9a9190613702565b67ffffffffffffffff161115610b1457610ab2611d67565b60c88260040160149054906101000a900467ffffffffffffffff16610ad79190613702565b6040517fb4ae675a000000000000000000000000000000000000000000000000000000008152600401610b0b92919061376d565b60405180910390fd5b5f81600401601c9054906101000a900463ffffffff1663ffffffff16825f0154610b3e9190613794565b90505f826004015f9054906101000a900473ffffffffffffffffffffffffffffffffffffffff169050600e5f846003015481526020019081526020015f205f6101000a81549073ffffffffffffffffffffffffffffffffffffffff0219169055600d5f8573ffffffffffffffffffffffffffffffffffffffff1673ffffffffffffffffffffffffffffffffffffffff1681526020019081526020015f205f5f82015f9055600182015f9055600282015f9055600382015f9055600482015f6101000a81549073ffffffffffffffffffffffffffffffffffffffff02191690556004820160146101000a81549067ffffffffffffffff021916905560048201601c6101000a81549063ffffffff021916905550505f73ffffffffffffffffffffffffffffffffffffffff168173ffffffffffffffffffffffffffffffffffffffff1603610d29575f8473ffffffffffffffffffffffffffffffffffffffff1683604051610ca99061368c565b5f6040518083038185875af1925050503d805f8114610ce3576040519150601f19603f3d011682016040523d82523d5f602084013e610ce8565b606091505b5050905080610d23576040517f90b8ec1800000000000000000000000000000000000000000000000000000000815260040160405180910390fd5b50610d55565b610d5484838373ffffffffffffffffffffffffffffffffffffffff16611e019092919063ffffffff16565b5b8373ffffffffffffffffffffffffffffffffffffffff167f1d349643bcdca147749e5f231209be458850aea573661bed4ab760d2a4eaf0638383604051610d9d9291906137d5565b60405180910390a250505050610db1611d29565b565b60025f9054906101000a900473ffffffffffffffffffffffffffffffffffffffff1673ffffffffffffffffffffffffffffffffffffffff163373ffffffffffffffffffffffffffffffffffffffff1614610e42576040517f08c379a0000000000000000000000000000000000000000000000000000000008152600401610e3990613856565b60405180910390fd5b5f60015f9054906101000a900473ffffffffffffffffffffffffffffffffffffffff1690503360015f6101000a81548173ffffffffffffffffffffffffffffffffffffffff021916908373ffffffffffffffffffffffffffffffffffffffff1602179055505f60025f6101000a81548173ffffffffffffffffffffffffffffffffffffffff021916908373ffffffffffffffffffffffffffffffffffffffff1602179055503373ffffffffffffffffffffffffffffffffffffffff168173ffffffffffffffffffffffffffffffffffffffff167f8be0079c531659141344cd1fd0a4f28419497f9722a3daafe3b4186f6b6457e060405160405180910390a350565b60045481565b5f60015f9054906101000a900473ffffffffffffffffffffffffffffffffffffffff16905090565b610f7a610f4a565b73ffffffffffffffffffffffffffffffffffffffff163373ffffffffffffffffffffffffffffffffffffffff1614158015611002575060035f9054906101000a900473ffffffffffffffffffffffffffffffffffffffff1673ffffffffffffffffffffffffffffffffffffffff163373ffffffffffffffffffffffffffffffffffffffff1614155b156110705733611010610f4a565b60035f9054906101000a900473ffffffffffffffffffffffffffffffffffffffff166040517f061db9c100000000000000000000000000000000000000000000000000000000815260040161106793929190613874565b60405180910390fd5b5f73ffffffffffffffffffffffffffffffffffffffff168173ffffffffffffffffffffffffffffffffffffffff16036110d5576040517fd92e233d00000000000000000000000000000000000000000000000000000000815260040160405180910390fd5b8060035f6101000a81548173ffffffffffffffffffffffffffffffffffffffff021916908373ffffffffffffffffffffffffffffffffffffffff1602179055507fd1a6a14209a385a964d036e404cb5cfb71f4000cdb03c9366292430787261be6816040516111449190613366565b60405180910390a150565b60035f9054906101000a900473ffffffffffffffffffffffffffffffffffffffff1681565b60075f9054906101000a900473ffffffffffffffffffffffffffffffffffffffff1681565b5f5f60075f9054906101000a900473ffffffffffffffffffffffffffffffffffffffff1673ffffffffffffffffffffffffffffffffffffffff1663feaf968c6040518163ffffffff1660e01b815260040160a060405180830381865afa158015611205573d5f5f3e3d5ffd5b505050506040513d601f19601f82011682018060405250810190611229919061392f565b5050509150505f600a8461123b611e87565b6112459190613794565b61124f91906139d3565b9050670de0b6b3a76400008264e8d4a5100061126b9190613794565b61127591906139d3565b81863a6112829190613794565b61128c9190613a03565b6112969190613a03565b9250505092915050565b6112a8611f21565b8060085f6101000a81548173ffffffffffffffffffffffffffffffffffffffff021916908373ffffffffffffffffffffffffffffffffffffffff16021790555050565b60085f9054906101000a900473ffffffffffffffffffffffffffffffffffffffff1681565b611318611cdc565b5f611321611d32565b90505f600d5f8373ffffffffffffffffffffffffffffffffffffffff1673ffffffffffffffffffffffffffffffffffffffff1681526020019081526020015f2060030154146113e757600d5f8273ffffffffffffffffffffffffffffffffffffffff1673ffffffffffffffffffffffffffffffffffffffff1681526020019081526020015f20600301546040517f440db96e0000000000000000000000000000000000000000000000000000000081526004016113de91906133c1565b60405180910390fd5b5f8463ffffffff16118015611403575060648463ffffffff1611155b6114455760646040517f9310749100000000000000000000000000000000000000000000000000000000815260040161143c9190613a6f565b60405180910390fd5b61144f8686611fb2565b5f611472868663ffffffff16896114669190613794565b620c350060188661212f565b90505f61147e86612605565b90506040518060e001604052808981526020018681526020018581526020018281526020018873ffffffffffffffffffffffffffffffffffffffff1681526020016114c7611d67565b67ffffffffffffffff1681526020018763ffffffff16815250600d5f8573ffffffffffffffffffffffffffffffffffffffff1673ffffffffffffffffffffffffffffffffffffffff1681526020019081526020015f205f820151815f01556020820151816001015560408201518160020155606082015181600301556080820151816004015f6101000a81548173ffffffffffffffffffffffffffffffffffffffff021916908373ffffffffffffffffffffffffffffffffffffffff16021790555060a08201518160040160146101000a81548167ffffffffffffffff021916908367ffffffffffffffff16021790555060c082015181600401601c6101000a81548163ffffffff021916908363ffffffff16021790555090505082600e5f8381526020019081526020015f205f6101000a81548173ffffffffffffffffffffffffffffffffffffffff021916908373ffffffffffffffffffffffffffffffffffffffff1602179055508273ffffffffffffffffffffffffffffffffffffffff167f84a7b484f1c34e597d3331ce6ffc8714cf38182106d15c73d90ed934299f0c5b89898989898860405161168196959493929190613a97565b60405180910390a2505050611694611d29565b5050505050565b6116a3611f21565b6116ac81612721565b50565b5f600e5f8581526020019081526020015f205f9054906101000a900473ffffffffffffffffffffffffffffffffffffffff1690505f73ffffffffffffffffffffffffffffffffffffffff168173ffffffffffffffffffffffffffffffffffffffff160361171a575f5ffd5b5f600d5f8373ffffffffffffffffffffffffffffffffffffffff1673ffffffffffffffffffffffffffffffffffffffff1681526020019081526020015f2090505f5f5f5f84600401601c9054906101000a900463ffffffff1663ffffffff1667ffffffffffffffff8111156117925761179161359f565b5b6040519080825280602002602001820160405280156117c05781602001602082028036833780820191505090505b5090505f85600401601c9054906101000a900463ffffffff1663ffffffff1667ffffffffffffffff8111156117f8576117f761359f565b5b6040519080825280602002602001820160405280156118265781602001602082028036833780820191505090505b5090505f86600401601c9054906101000a900463ffffffff1663ffffffff1667ffffffffffffffff81111561185e5761185d61359f565b5b60405190808252806020026020018201604052801561188c5781602001602082028036833780820191505090505b5090505f876004015f9054906101000a900473ffffffffffffffffffffffffffffffffffffffff1690505f94505b87600401601c9054906101000a900463ffffffff1663ffffffff168563ffffffff161015611b05578760010154861215611b055787600201546118fc90613af6565b861315611b055760105f9054906101000a900461ffff1661ffff168b8b8763ffffffff168181106119305761192f6135cc565b5b905060200201356119419190613b3c565b848663ffffffff168151811061195a576119596135cc565b5b602002602001019061ffff16908161ffff1681525050600f5f858763ffffffff168151811061198c5761198b6135cc565b5b602002602001015161ffff1661ffff1681526020019081526020015f205f9054906101000a900461ffff1661ffff16838663ffffffff16815181106119d4576119d36135cc565b5b6020026020010181815250505f838663ffffffff16815181106119fa576119f96135cc565b5b602002602001015114611ae657875f0154838663ffffffff1681518110611a2457611a236135cc565b5b6020026020010151895f0154611a3a9190613794565b611a449190613b6c565b86611a4f9190613bac565b9550828563ffffffff1681518110611a6a57611a696135cc565b5b6020026020010151885f0154611a809190613794565b87611a8b9190613a03565b9650828563ffffffff1681518110611aa657611aa56135cc565b5b6020026020010151885f0154611abc9190613794565b828663ffffffff1681518110611ad557611ad46135cc565b5b602002602001018181525050611af8565b875f015486611af59190613b6c565b95505b84806001019550506118ba565b875f01548589600401601c9054906101000a900463ffffffff16611b299190613bed565b63ffffffff16611b399190613794565b87611b449190613a03565b96508873ffffffffffffffffffffffffffffffffffffffff167f92effafb76f06eb770800ec9b38dbc4c3ad53f950062c07b4c7f9ced43d0f9f8895f015489848888888c604051611b9b9796959493929190613ccc565b60405180910390a2611bd58189600401601c9054906101000a900463ffffffff1663ffffffff168a5f0154611bd09190613794565b61284d565b600e5f8d81526020019081526020015f205f6101000a81549073ffffffffffffffffffffffffffffffffffffffff0219169055600d5f8a73ffffffffffffffffffffffffffffffffffffffff1673ffffffffffffffffffffffffffffffffffffffff1681526020019081526020015f205f5f82015f9055600182015f9055600282015f9055600382015f9055600482015f6101000a81549073ffffffffffffffffffffffffffffffffffffffff02191690556004820160146101000a81549067ffffffffffffffff021916905560048201601c6101000a81549063ffffffff021916905550505f8714611cce57611ccd898883612aae565b5b505050505050505050505050565b60025f5403611d20576040517f08c379a0000000000000000000000000000000000000000000000000000000008152600401611d1790613d98565b60405180910390fd5b60025f81905550565b60015f81905550565b5f60145f36905010158015611d4c5750611d4b336106f3565b5b15611d6057601436033560601c9050611d64565b3390505b90565b5f5f46905061a4b1811480611d7e575062066eed81145b15611df957606473ffffffffffffffffffffffffffffffffffffffff1663a3b1b31d6040518163ffffffff1660e01b8152600401602060405180830381865afa158015611dcd573d5f5f3e3d5ffd5b505050506040513d601f19601f82011682018060405250810190611df19190613db6565b915050611dfe565b439150505b90565b611e828363a9059cbb60e01b8484604051602401611e20929190613de1565b604051602081830303815290604052907bffffffffffffffffffffffffffffffffffffffffffffffffffffffff19166020820180517bffffffffffffffffffffffffffffffffffffffffffffffffffffffff8381831617835250505050612b3e565b505050565b5f5f46905061a4b1811480611e9e575062066eed81145b15611f1957606c73ffffffffffffffffffffffffffffffffffffffff1663c6f7de0e6040518163ffffffff1660e01b8152600401602060405180830381865afa158015611eed573d5f5f3e3d5ffd5b505050506040513d601f19601f82011682018060405250810190611f119190613db6565b915050611f1e565b5f9150505b90565b60015f9054906101000a900473ffffffffffffffffffffffffffffffffffffffff1673ffffffffffffffffffffffffffffffffffffffff163373ffffffffffffffffffffffffffffffffffffffff1614611fb0576040517f08c379a0000000000000000000000000000000000000000000000000000000008152600401611fa790613e52565b60405180910390fd5b565b5f5f73ffffffffffffffffffffffffffffffffffffffff168273ffffffffffffffffffffffffffffffffffffffff16036120265760085f9054906101000a900473ffffffffffffffffffffffffffffffffffffffff1673ffffffffffffffffffffffffffffffffffffffff163190506120c2565b8173ffffffffffffffffffffffffffffffffffffffff166370a0823160085f9054906101000a900473ffffffffffffffffffffffffffffffffffffffff166040518263ffffffff1660e01b81526004016120809190613366565b602060405180830381865afa15801561209b573d5f5f3e3d5ffd5b505050506040513d601f19601f820116820180604052508101906120bf9190613db6565b90505b5f6305f5e10061d9da836120d69190613794565b6120e091906139d3565b9050808411156121295783816040517fd53662aa000000000000000000000000000000000000000000000000000000008152600401612120929190613e70565b60405180910390fd5b50505050565b5f5f8503612169576040517f07375c8400000000000000000000000000000000000000000000000000000000815260040160405180910390fd5b60085f9054906101000a900473ffffffffffffffffffffffffffffffffffffffff1673ffffffffffffffffffffffffffffffffffffffff1663bfd7f9cc30886040518363ffffffff1660e01b81526004016121c59291906135f9565b602060405180830381865afa1580156121e0573d5f5f3e3d5ffd5b505050506040513d601f19601f820116820180604052508101906122049190613ec1565b61223a576040517f51c3b94f00000000000000000000000000000000000000000000000000000000815260040160405180910390fd5b5f5f60085f9054906101000a900473ffffffffffffffffffffffffffffffffffffffff1673ffffffffffffffffffffffffffffffffffffffff16630a5748a8856040518263ffffffff1660e01b81526004016122969190613366565b6040805180830381865afa1580156122b0573d5f5f3e3d5ffd5b505050506040513d601f19601f820116820180604052508101906122d49190613eec565b91509150811561231b57806040517f6c2775f500000000000000000000000000000000000000000000000000000000815260040161231291906133c1565b60405180910390fd5b6123258686611199565b92505f73ffffffffffffffffffffffffffffffffffffffff168873ffffffffffffffffffffffffffffffffffffffff16036123db5782876123669190613a03565b3410156123b75782876123799190613a03565b346040517fde9b74a10000000000000000000000000000000000000000000000000000000081526004016123ae929190613e70565b60405180910390fd5b6123d687846123c69190613a03565b346123d19190613f2a565b612c04565b612464565b823410156124225782346040517fde9b74a1000000000000000000000000000000000000000000000000000000008152600401612419929190613e70565b60405180910390fd5b61244f8430898b73ffffffffffffffffffffffffffffffffffffffff16612cb0909392919063ffffffff16565b612463833461245e9190613f2a565b612c04565b5b5f60085f9054906101000a900473ffffffffffffffffffffffffffffffffffffffff1673ffffffffffffffffffffffffffffffffffffffff1663133d199a6040518163ffffffff1660e01b8152600401602060405180830381865afa1580156124cf573d5f5f3e3d5ffd5b505050506040513d601f19601f820116820180604052508101906124f39190613db6565b90505f8111156125a4575f6103e8828a61250d9190613794565b61251791906139d3565b905060085f9054906101000a900473ffffffffffffffffffffffffffffffffffffffff1673ffffffffffffffffffffffffffffffffffffffff1663b0e27f7487836040518363ffffffff1660e01b8152600401612575929190613de1565b5f604051808303815f87803b15801561258c575f5ffd5b505af115801561259e573d5f5f3e3d5ffd5b50505050505b8360045f8282546125b59190613a03565b925050819055507f312e2def0b1ae52334b8d967d371c7afe0625e9a3f4f70810e79cf351fe2a5a9308a878b6040516125f19493929190613f5d565b60405180910390a150505095945050505050565b5f60095f9054906101000a900473ffffffffffffffffffffffffffffffffffffffff1673ffffffffffffffffffffffffffffffffffffffff16639b1c385e6040518060c00160405280600b548152602001600a548152602001600c5f9054906101000a900461ffff1661ffff168152602001600c60029054906101000a900463ffffffff1663ffffffff1681526020018563ffffffff1681526020016126bb604051806020016040528060011515815250612d39565b8152506040518263ffffffff1660e01b81526004016126da91906140ae565b6020604051808303815f875af11580156126f6573d5f5f3e3d5ffd5b505050506040513d601f19601f8201168201806040525081019061271a9190613db6565b9050919050565b3373ffffffffffffffffffffffffffffffffffffffff168173ffffffffffffffffffffffffffffffffffffffff160361278f576040517f08c379a000000000000000000000000000000000000000000000000000000000815260040161278690614118565b60405180910390fd5b8060025f6101000a81548173ffffffffffffffffffffffffffffffffffffffff021916908373ffffffffffffffffffffffffffffffffffffffff1602179055508073ffffffffffffffffffffffffffffffffffffffff1660015f9054906101000a900473ffffffffffffffffffffffffffffffffffffffff1673ffffffffffffffffffffffffffffffffffffffff167fed8889f560326eb138920d842192f0eb3dd22b4f139c87a2c57538e05bae127860405160405180910390a350565b5f73ffffffffffffffffffffffffffffffffffffffff168273ffffffffffffffffffffffffffffffffffffffff1603612946575f60085f9054906101000a900473ffffffffffffffffffffffffffffffffffffffff1673ffffffffffffffffffffffffffffffffffffffff16826040516128c69061368c565b5f6040518083038185875af1925050503d805f8114612900576040519150601f19603f3d011682016040523d82523d5f602084013e612905565b606091505b5050905080612940576040517ff0c49d4400000000000000000000000000000000000000000000000000000000815260040160405180910390fd5b50612a6d565b8173ffffffffffffffffffffffffffffffffffffffff1663095ea7b360085f9054906101000a900473ffffffffffffffffffffffffffffffffffffffff16836040518363ffffffff1660e01b81526004016129a2929190613de1565b6020604051808303815f875af11580156129be573d5f5f3e3d5ffd5b505050506040513d601f19601f820116820180604052508101906129e29190613ec1565b5060085f9054906101000a900473ffffffffffffffffffffffffffffffffffffffff1673ffffffffffffffffffffffffffffffffffffffff166347e7ef2483836040518363ffffffff1660e01b8152600401612a3f929190613de1565b5f604051808303815f87803b158015612a56575f5ffd5b505af1158015612a68573d5f5f3e3d5ffd5b505050505b7f312e2def0b1ae52334b8d967d371c7afe0625e9a3f4f70810e79cf351fe2a5a930833384604051612aa29493929190613f5d565b60405180910390a15050565b60085f9054906101000a900473ffffffffffffffffffffffffffffffffffffffff1673ffffffffffffffffffffffffffffffffffffffff16636c025ec28484846040518463ffffffff1660e01b8152600401612b0c93929190614136565b5f604051808303815f87803b158015612b23575f5ffd5b505af1158015612b35573d5f5f3e3d5ffd5b50505050505050565b5f612b9f826040518060400160405280602081526020017f5361666545524332303a206c6f772d6c6576656c2063616c6c206661696c65648152508573ffffffffffffffffffffffffffffffffffffffff16612dd19092919063ffffffff16565b90505f81511480612bc0575080806020019051810190612bbf9190613ec1565b5b612bff576040517f08c379a0000000000000000000000000000000000000000000000000000000008152600401612bf6906141db565b60405180910390fd5b505050565b5f810315612cad575f3373ffffffffffffffffffffffffffffffffffffffff1682604051612c319061368c565b5f6040518083038185875af1925050503d805f8114612c6b576040519150601f19603f3d011682016040523d82523d5f602084013e612c70565b606091505b5050905080612cab576040517ff0c49d4400000000000000000000000000000000000000000000000000000000815260040160405180910390fd5b505b50565b612d33846323b872dd60e01b858585604051602401612cd1939291906136a0565b604051602081830303815290604052907bffffffffffffffffffffffffffffffffffffffffffffffffffffffff19166020820180517bffffffffffffffffffffffffffffffffffffffffffffffffffffffff8381831617835250505050612b3e565b50505050565b60607f92fd13387c7fe7befbc38d303d6468778fb9731bc4583f17d92989c6fcfdeaaa82604051602401612d6d9190614222565b604051602081830303815290604052907bffffffffffffffffffffffffffffffffffffffffffffffffffffffff19166020820180517bffffffffffffffffffffffffffffffffffffffffffffffffffffffff83818316178352505050509050919050565b6060612ddf84845f85612de8565b90509392505050565b606082471015612e2d576040517f08c379a0000000000000000000000000000000000000000000000000000000008152600401612e24906142ab565b60405180910390fd5b5f5f8673ffffffffffffffffffffffffffffffffffffffff168587604051612e5591906142f9565b5f6040518083038185875af1925050503d805f8114612e8f576040519150601f19603f3d011682016040523d82523d5f602084013e612e94565b606091505b5091509150612ea587838387612eb1565b92505050949350505050565b60608315612f12575f835103612f0a57612eca85612f25565b612f09576040517f08c379a0000000000000000000000000000000000000000000000000000000008152600401612f0090614359565b60405180910390fd5b5b829050612f1d565b612f1c8383612f47565b5b949350505050565b5f5f8273ffffffffffffffffffffffffffffffffffffffff163b119050919050565b5f82511115612f595781518083602001fd5b806040517f08c379a0000000000000000000000000000000000000000000000000000000008152600401612f8d91906143b9565b60405180910390fd5b6040518060e001604052805f81526020015f81526020015f81526020015f81526020015f73ffffffffffffffffffffffffffffffffffffffff1681526020015f67ffffffffffffffff1681526020015f63ffffffff1681525090565b5f81519050919050565b5f82825260208201905092915050565b5f819050602082019050919050565b5f61ffff82169050919050565b6130318161301b565b82525050565b5f6130428383613028565b60208301905092915050565b5f602082019050919050565b5f61306482612ff2565b61306e8185612ffc565b93506130798361300c565b805f5b838110156130a95781516130908882613037565b975061309b8361304e565b92505060018101905061307c565b5085935050505092915050565b5f6020820190508181035f8301526130ce818461305a565b905092915050565b5f5ffd5b5f5ffd5b5f819050919050565b6130f0816130de565b81146130fa575f5ffd5b50565b5f8135905061310b816130e7565b92915050565b5f5ffd5b5f5ffd5b5f5ffd5b5f5f83601f84011261313257613131613111565b5b8235905067ffffffffffffffff81111561314f5761314e613115565b5b60208301915083602082028301111561316b5761316a613119565b5b9250929050565b5f5f5f60408486031215613189576131886130d6565b5b5f613196868287016130fd565b935050602084013567ffffffffffffffff8111156131b7576131b66130da565b5b6131c38682870161311d565b92509250509250925092565b5f73ffffffffffffffffffffffffffffffffffffffff82169050919050565b5f6131f8826131cf565b9050919050565b613208816131ee565b8114613212575f5ffd5b50565b5f81359050613223816131ff565b92915050565b5f6020828403121561323e5761323d6130d6565b5b5f61324b84828501613215565b91505092915050565b61325d816130de565b82525050565b61326c816131ee565b82525050565b5f67ffffffffffffffff82169050919050565b61328e81613272565b82525050565b5f63ffffffff82169050919050565b6132ac81613294565b82525050565b60e082015f8201516132c65f850182613254565b5060208201516132d96020850182613254565b5060408201516132ec6040850182613254565b5060608201516132ff6060850182613254565b5060808201516133126080850182613263565b5060a082015161332560a0850182613285565b5060c082015161333860c08501826132a3565b50505050565b5f60e0820190506133515f8301846132b2565b92915050565b613360816131ee565b82525050565b5f6020820190506133795f830184613357565b92915050565b5f8115159050919050565b6133938161337f565b82525050565b5f6020820190506133ac5f83018461338a565b92915050565b6133bb816130de565b82525050565b5f6020820190506133d45f8301846133b2565b92915050565b5f819050919050565b5f6133fd6133f86133f3846131cf565b6133da565b6131cf565b9050919050565b5f61340e826133e3565b9050919050565b5f61341f82613404565b9050919050565b61342f81613415565b82525050565b5f6020820190506134485f830184613426565b92915050565b5f61345882613404565b9050919050565b6134688161344e565b82525050565b5f6020820190506134815f83018461345f565b92915050565b5f5f6040838503121561349d5761349c6130d6565b5b5f6134aa858286016130fd565b92505060206134bb858286016130fd565b9150509250929050565b5f6134cf82613404565b9050919050565b6134df816134c5565b82525050565b5f6020820190506134f85f8301846134d6565b92915050565b61350781613294565b8114613511575f5ffd5b50565b5f81359050613522816134fe565b92915050565b5f5f5f5f5f60a08688031215613541576135406130d6565b5b5f61354e888289016130fd565b955050602061355f88828901613215565b945050604061357088828901613514565b9350506060613581888289016130fd565b9250506080613592888289016130fd565b9150509295509295909350565b7f4e487b71000000000000000000000000000000000000000000000000000000005f52604160045260245ffd5b7f4e487b71000000000000000000000000000000000000000000000000000000005f52603260045260245ffd5b5f60408201905061360c5f830185613357565b6136196020830184613357565b9392505050565b5f8151905061362e816131ff565b92915050565b5f60208284031215613649576136486130d6565b5b5f61365684828501613620565b91505092915050565b5f81905092915050565b50565b5f6136775f8361365f565b915061368282613669565b5f82019050919050565b5f6136968261366c565b9150819050919050565b5f6060820190506136b35f830186613357565b6136c06020830185613357565b6136cd60408301846133b2565b949350505050565b7f4e487b71000000000000000000000000000000000000000000000000000000005f52601160045260245ffd5b5f61370c82613272565b915061371783613272565b9250828201905067ffffffffffffffff811115613737576137366136d5565b5b92915050565b5f61375761375261374d84613272565b6133da565b6130de565b9050919050565b6137678161373d565b82525050565b5f6040820190506137805f83018561375e565b61378d602083018461375e565b9392505050565b5f61379e826130de565b91506137a9836130de565b92508282026137b7816130de565b915082820484148315176137ce576137cd6136d5565b5b5092915050565b5f6040820190506137e85f8301856133b2565b6137f56020830184613357565b9392505050565b5f82825260208201905092915050565b7f4d7573742062652070726f706f736564206f776e6572000000000000000000005f82015250565b5f6138406016836137fc565b915061384b8261380c565b602082019050919050565b5f6020820190508181035f83015261386d81613834565b9050919050565b5f6060820190506138875f830186613357565b6138946020830185613357565b6138a16040830184613357565b949350505050565b5f69ffffffffffffffffffff82169050919050565b6138c7816138a9565b81146138d1575f5ffd5b50565b5f815190506138e2816138be565b92915050565b5f819050919050565b6138fa816138e8565b8114613904575f5ffd5b50565b5f81519050613915816138f1565b92915050565b5f81519050613929816130e7565b92915050565b5f5f5f5f5f60a08688031215613948576139476130d6565b5b5f613955888289016138d4565b955050602061396688828901613907565b94505060406139778882890161391b565b93505060606139888882890161391b565b9250506080613999888289016138d4565b9150509295509295909350565b7f4e487b71000000000000000000000000000000000000000000000000000000005f52601260045260245ffd5b5f6139dd826130de565b91506139e8836130de565b9250826139f8576139f76139a6565b5b828204905092915050565b5f613a0d826130de565b9150613a18836130de565b9250828201905080821115613a3057613a2f6136d5565b5b92915050565b5f819050919050565b5f613a59613a54613a4f84613a36565b6133da565b6130de565b9050919050565b613a6981613a3f565b82525050565b5f602082019050613a825f830184613a60565b92915050565b613a9181613294565b82525050565b5f60c082019050613aaa5f8301896133b2565b613ab76020830188613357565b613ac46040830187613a88565b613ad160608301866133b2565b613ade60808301856133b2565b613aeb60a08301846133b2565b979650505050505050565b5f613b00826138e8565b91507f80000000000000000000000000000000000000000000000000000000000000008203613b3257613b316136d5565b5b815f039050919050565b5f613b46826130de565b9150613b51836130de565b925082613b6157613b606139a6565b5b828206905092915050565b5f613b76826138e8565b9150613b81836138e8565b925082820390508181125f8412168282135f851215161715613ba657613ba56136d5565b5b92915050565b5f613bb6826138e8565b9150613bc1836138e8565b92508282019050828112155f8312168382125f841215161715613be757613be66136d5565b5b92915050565b5f613bf782613294565b9150613c0283613294565b9250828203905063ffffffff811115613c1e57613c1d6136d5565b5b92915050565b5f81519050919050565b5f82825260208201905092915050565b5f819050602082019050919050565b5f613c588383613254565b60208301905092915050565b5f602082019050919050565b5f613c7a82613c24565b613c848185613c2e565b9350613c8f83613c3e565b805f5b83811015613cbf578151613ca68882613c4d565b9750613cb183613c64565b925050600181019050613c92565b5085935050505092915050565b5f60e082019050613cdf5f83018a6133b2565b613cec60208301896133b2565b613cf96040830188613357565b8181036060830152613d0b818761305a565b90508181036080830152613d1f8186613c70565b905081810360a0830152613d338185613c70565b9050613d4260c0830184613a88565b98975050505050505050565b7f5265656e7472616e637947756172643a207265656e7472616e742063616c6c005f82015250565b5f613d82601f836137fc565b9150613d8d82613d4e565b602082019050919050565b5f6020820190508181035f830152613daf81613d76565b9050919050565b5f60208284031215613dcb57613dca6130d6565b5b5f613dd88482850161391b565b91505092915050565b5f604082019050613df45f830185613357565b613e0160208301846133b2565b9392505050565b7f4f6e6c792063616c6c61626c65206279206f776e6572000000000000000000005f82015250565b5f613e3c6016836137fc565b9150613e4782613e08565b602082019050919050565b5f6020820190508181035f830152613e6981613e30565b9050919050565b5f604082019050613e835f8301856133b2565b613e9060208301846133b2565b9392505050565b613ea08161337f565b8114613eaa575f5ffd5b50565b5f81519050613ebb81613e97565b92915050565b5f60208284031215613ed657613ed56130d6565b5b5f613ee384828501613ead565b91505092915050565b5f5f60408385031215613f0257613f016130d6565b5b5f613f0f85828601613ead565b9250506020613f208582860161391b565b9150509250929050565b5f613f34826130de565b9150613f3f836130de565b9250828203905081811115613f5757613f566136d5565b5b92915050565b5f608082019050613f705f830187613357565b613f7d6020830186613357565b613f8a6040830185613357565b613f9760608301846133b2565b95945050505050565b5f819050919050565b613fb281613fa0565b82525050565b5f81519050919050565b5f82825260208201905092915050565b8281835e5f83830152505050565b5f601f19601f8301169050919050565b5f613ffa82613fb8565b6140048185613fc2565b9350614014818560208601613fd2565b61401d81613fe0565b840191505092915050565b5f60c083015f83015161403d5f860182613fa9565b5060208301516140506020860182613254565b5060408301516140636040860182613028565b50606083015161407660608601826132a3565b50608083015161408960808601826132a3565b5060a083015184820360a08601526140a18282613ff0565b9150508091505092915050565b5f6020820190508181035f8301526140c68184614028565b905092915050565b7f43616e6e6f74207472616e7366657220746f2073656c660000000000000000005f82015250565b5f6141026017836137fc565b915061410d826140ce565b602082019050919050565b5f6020820190508181035f83015261412f816140f6565b9050919050565b5f6060820190506141495f830186613357565b61415660208301856133b2565b6141636040830184613357565b949350505050565b7f5361666545524332303a204552433230206f7065726174696f6e20646964206e5f8201527f6f74207375636365656400000000000000000000000000000000000000000000602082015250565b5f6141c5602a836137fc565b91506141d08261416b565b604082019050919050565b5f6020820190508181035f8301526141f2816141b9565b9050919050565b6142028161337f565b82525050565b602082015f82015161421c5f8501826141f9565b50505050565b5f6020820190506142355f830184614208565b92915050565b7f416464726573733a20696e73756666696369656e742062616c616e636520666f5f8201527f722063616c6c0000000000000000000000000000000000000000000000000000602082015250565b5f6142956026836137fc565b91506142a08261423b565b604082019050919050565b5f6020820190508181035f8301526142c281614289565b9050919050565b5f6142d382613fb8565b6142dd818561365f565b93506142ed818560208601613fd2565b80840191505092915050565b5f61430482846142c9565b915081905092915050565b7f416464726573733a2063616c6c20746f206e6f6e2d636f6e74726163740000005f82015250565b5f614343601d836137fc565b915061434e8261430f565b602082019050919050565b5f6020820190508181035f83015261437081614337565b9050919050565b5f81519050919050565b5f61438b82614377565b61439581856137fc565b93506143a5818560208601613fd2565b6143ae81613fe0565b840191505092915050565b5f6020820190508181035f8301526143d18184614381565b90509291505056fea264697066735822122033ab3164631308ab413d187dd48d7a53e8bffb82488e76599b7e40995ac6072b64736f6c634300081c0033","linkReferences":{}},"methodIdentifiers":{"Bankroll()":"d0bcfc0c","LINK_ETH_FEED()":"ad178361","Slots_GetMultipliers()":"1734e50a","Slots_GetState(address)":"44e13734","Slots_Play(uint256,address,uint32,uint256,uint256)":"f26c05f2","Slots_Refund()":"7127698f","VRFFees()":"8d7c16d2","_trustedForwarder()":"56c022bb","acceptOwnership()":"79ba5097","getVRFFee(uint256,uint256)":"baaa3edf","isTrustedForwarder(address)":"572b6c05","owner()":"8da5cb5b","rawFulfillRandomWords(uint256,uint256[])":"1fe543e3","s_vrfCoordinator()":"9eccacf6","setBankroll(address)":"bde8a93e","setCoordinator(address)":"8ea98117","transferFees(address)":"63dc4ef5","transferOwnership(address)":"f2fde38b"},"id":11}