{"abi":[{"type":"constructor","inputs":[{"name":"_bankroll","type":"address","internalType":"address"},{"name":"_vrf","type":"address","internalType":"address"},{"name":"link_eth_feed","type":"address","internalType":"address"},{"name":"_forwarder","type":"address","internalType":"address"}],"stateMutability":"nonpayable"},{"type":"function","name":"Bankroll","inputs":[],"outputs":[{"name":"","type":"address","internalType":"contract IBankRoll"}],"stateMutability":"view"},{"type":"function","name":"LINK_ETH_FEED","inputs":[],"outputs":[{"name":"","type":"address","internalType":"contract IDecimalAggregator"}],"stateMutability":"view"},{"type":"function","name":"RockPaperScissors_GetState","inputs":[{"name":"player","type":"address","internalType":"address"}],"outputs":[{"name":"","type":"tuple","internalType":"struct RockPaperScissors.RockPaperScissorsGame","components":[{"name":"wager","type":"uint256","internalType":"uint256"},{"name":"stopGain","type":"uint256","internalType":"uint256"},{"name":"stopLoss","type":"uint256","internalType":"uint256"},{"name":"requestID","type":"uint256","internalType":"uint256"},{"name":"tokenAddress","type":"address","internalType":"address"},{"name":"blockNumber","type":"uint64","internalType":"uint64"},{"name":"numBets","type":"uint32","internalType":"uint32"},{"name":"action","type":"uint8","internalType":"uint8"}]}],"stateMutability":"view"},{"type":"function","name":"RockPaperScissors_Play","inputs":[{"name":"wager","type":"uint256","internalType":"uint256"},{"name":"tokenAddress","type":"address","internalType":"address"},{"name":"action","type":"uint8","internalType":"uint8"},{"name":"numBets","type":"uint32","internalType":"uint32"},{"name":"stopGain","type":"uint256","internalType":"uint256"},{"name":"stopLoss","type":"uint256","internalType":"uint256"}],"outputs":[],"stateMutability":"payable"},{"type":"function","name":"RockPaperScissors_Refund","inputs":[],"outputs":[],"stateMutability":"nonpayable"},{"type":"function","name":"VRFFees","inputs":[],"outputs":[{"name":"","type":"uint256","internalType":"uint256"}],"stateMutability":"view"},{"type":"function","name":"_trustedForwarder","inputs":[],"outputs":[{"name":"","type":"address","internalType":"address"}],"stateMutability":"view"},{"type":"function","name":"acceptOwnership","inputs":[],"outputs":[],"stateMutability":"nonpayable"},{"type":"function","name":"getVRFFee","inputs":[{"name":"gasAmount","type":"uint256","internalType":"uint256"},{"name":"l1Multiplier","type":"uint256","internalType":"uint256"}],"outputs":[{"name":"fee","type":"uint256","internalType":"uint256"}],"stateMutability":"view"},{"type":"function","name":"isTrustedForwarder","inputs":[{"name":"forwarder","type":"address","internalType":"address"}],"outputs":[{"name":"","type":"bool","internalType":"bool"}],"stateMutability":"view"},{"type":"function","name":"owner","inputs":[],"outputs":[{"name":"","type":"address","internalType":"address"}],"stateMutability":"view"},{"type":"function","name":"rawFulfillRandomWords","inputs":[{"name":"requestId","type":"uint256","internalType":"uint256"},{"name":"randomWords","type":"uint256[]","internalType":"uint256[]"}],"outputs":[],"stateMutability":"nonpayable"},{"type":"function","name":"s_vrfCoordinator","inputs":[],"outputs":[{"name":"","type":"address","internalType":"contract IVRFCoordinatorV2Plus"}],"stateMutability":"view"},{"type":"function","name":"setBankroll","inputs":[{"name":"_bankRoll","type":"address","internalType":"address"}],"outputs":[],"stateMutability":"nonpayable"},{"type":"function","name":"setCoordinator","inputs":[{"name":"_vrfCoordinator","type":"address","internalType":"address"}],"outputs":[],"stateMutability":"nonpayable"},{"type":"function","name":"transferFees","inputs":[{"name":"to","type":"address","internalType":"address"}],"outputs":[],"stateMutability":"nonpayable"},{"type":"function","name":"transferOwnership","inputs":[{"name":"to","type":"address","internalType":"address"}],"outputs":[],"stateMutability":"nonpayable"},{"type":"event","name":"CoordinatorSet","inputs":[{"name":"vrfCoordinator","type":"address","indexed":false,"internalType":"address"}],"anonymous":false},{"type":"event","name":"FeeTransferred","inputs":[{"name":"game","type":"address","indexed":false,"internalType":"address"},{"name":"player","type":"address","indexed":false,"internalType":"address"},{"name":"amount","type":"uint256","indexed":false,"internalType":"uint256"}],"anonymous":false},{"type":"event","name":"OwnershipTransferRequested","inputs":[{"name":"from","type":"address","indexed":true,"internalType":"address"},{"name":"to","type":"address","indexed":true,"internalType":"address"}],"anonymous":false},{"type":"event","name":"OwnershipTransferred","inputs":[{"name":"from","type":"address","indexed":true,"internalType":"address"},{"name":"to","type":"address","indexed":true,"internalType":"address"}],"anonymous":false},{"type":"event","name":"RockPaperScissors_Outcome_Event","inputs":[{"name":"playerAddress","type":"address","indexed":true,"internalType":"address"},{"name":"wager","type":"uint256","indexed":false,"internalType":"uint256"},{"name":"payout","type":"uint256","indexed":false,"internalType":"uint256"},{"name":"tokenAddress","type":"address","indexed":false,"internalType":"address"},{"name":"outcomes","type":"uint8[]","indexed":false,"internalType":"uint8[]"},{"name":"randomActions","type":"uint8[]","indexed":false,"internalType":"uint8[]"},{"name":"payouts","type":"uint256[]","indexed":false,"internalType":"uint256[]"},{"name":"numGames","type":"uint32","indexed":false,"internalType":"uint32"}],"anonymous":false},{"type":"event","name":"RockPaperScissors_Play_Event","inputs":[{"name":"playerAddress","type":"address","indexed":true,"internalType":"address"},{"name":"wager","type":"uint256","indexed":false,"internalType":"uint256"},{"name":"tokenAddress","type":"address","indexed":false,"internalType":"address"},{"name":"action","type":"uint8","indexed":false,"internalType":"uint8"},{"name":"numBets","type":"uint32","indexed":false,"internalType":"uint32"},{"name":"stopGain","type":"uint256","indexed":false,"internalType":"uint256"},{"name":"stopLoss","type":"uint256","indexed":false,"internalType":"uint256"},{"name":"VRFFee","type":"uint256","indexed":false,"internalType":"uint256"}],"anonymous":false},{"type":"event","name":"RockPaperScissors_Refund_Event","inputs":[{"name":"player","type":"address","indexed":true,"internalType":"address"},{"name":"wager","type":"uint256","indexed":false,"internalType":"uint256"},{"name":"tokenAddress","type":"address","indexed":false,"internalType":"address"}],"anonymous":false},{"type":"event","name":"WagerTransferred","inputs":[{"name":"game","type":"address","indexed":false,"internalType":"address"},{"name":"token","type":"address","indexed":false,"internalType":"address"},{"name":"player","type":"address","indexed":false,"internalType":"address"},{"name":"amount","type":"uint256","indexed":false,"internalType":"uint256"}],"anonymous":false},{"type":"error","name":"AwaitingVRF","inputs":[{"name":"requestID","type":"uint256","internalType":"uint256"}]},{"type":"error","name":"BlockNumberTooLow","inputs":[{"name":"have","type":"uint256","internalType":"uint256"},{"name":"want","type":"uint256","internalType":"uint256"}]},{"type":"error","name":"InvalidAction","inputs":[]},{"type":"error","name":"InvalidNumBets","inputs":[{"name":"maxNumBets","type":"uint256","internalType":"uint256"}]},{"type":"error","name":"InvalidValue","inputs":[{"name":"required","type":"uint256","internalType":"uint256"},{"name":"sent","type":"uint256","internalType":"uint256"}]},{"type":"error","name":"NotApprovedBankroll","inputs":[]},{"type":"error","name":"NotAwaitingVRF","inputs":[]},{"type":"error","name":"NotOwner","inputs":[{"name":"want","type":"address","internalType":"address"},{"name":"have","type":"address","internalType":"address"}]},{"type":"error","name":"OnlyCoordinatorCanFulfill","inputs":[{"name":"have","type":"address","internalType":"address"},{"name":"want","type":"address","internalType":"address"}]},{"type":"error","name":"OnlyOwnerOrCoordinator","inputs":[{"name":"have","type":"address","internalType":"address"},{"name":"owner","type":"address","internalType":"address"},{"name":"coordinator","type":"address","internalType":"address"}]},{"type":"error","name":"PlayerSuspended","inputs":[{"name":"suspensionTime","type":"uint256","internalType":"uint256"}]},{"type":"error","name":"RefundFailed","inputs":[]},{"type":"error","name":"TransferFailed","inputs":[]},{"type":"error","name":"WagerAboveLimit","inputs":[{"name":"wager","type":"uint256","internalType":"uint256"},{"name":"maxWager","type":"uint256","internalType":"uint256"}]},{"type":"error","name":"ZeroAddress","inputs":[]},{"type":"error","name":"ZeroWager","inputs":[]}],"bytecode":{"object":"0x60806040527fabb65d5c6f9c8a5a1d2af242cbb644ce2157e5f9ca410a33e28106c9f1f3e9cc600a557f1770bdc7eec7771f7ba4ffd640f34260d7f095b79c92d34a5b2551d6f6cfd2be5f1b600b556003600c5f6101000a81548161ffff021916908361ffff160217905550622625a0600c60026101000a81548163ffffffff021916908363ffffffff16021790555034801561009a575f5ffd5b50604051614b95380380614b9583398181016040528101906100bc9190610534565b8233805f60015f819055505f73ffffffffffffffffffffffffffffffffffffffff168273ffffffffffffffffffffffffffffffffffffffff1603610135576040517f08c379a000000000000000000000000000000000000000000000000000000000815260040161012c906105f2565b60405180910390fd5b8160015f6101000a81548173ffffffffffffffffffffffffffffffffffffffff021916908373ffffffffffffffffffffffffffffffffffffffff1602179055505f73ffffffffffffffffffffffffffffffffffffffff168173ffffffffffffffffffffffffffffffffffffffff16146101b8576101b7816103aa60201b60201c565b5b5050505f73ffffffffffffffffffffffffffffffffffffffff168173ffffffffffffffffffffffffffffffffffffffff1603610220576040517fd92e233d00000000000000000000000000000000000000000000000000000000815260040160405180910390fd5b8060035f6101000a81548173ffffffffffffffffffffffffffffffffffffffff021916908373ffffffffffffffffffffffffffffffffffffffff160217905550508360085f6101000a81548173ffffffffffffffffffffffffffffffffffffffff021916908373ffffffffffffffffffffffffffffffffffffffff1602179055508260055f6101000a81548173ffffffffffffffffffffffffffffffffffffffff021916908373ffffffffffffffffffffffffffffffffffffffff1602179055508260095f6101000a81548173ffffffffffffffffffffffffffffffffffffffff021916908373ffffffffffffffffffffffffffffffffffffffff1602179055508160075f6101000a81548173ffffffffffffffffffffffffffffffffffffffff021916908373ffffffffffffffffffffffffffffffffffffffff1602179055508060065f6101000a81548173ffffffffffffffffffffffffffffffffffffffff021916908373ffffffffffffffffffffffffffffffffffffffff16021790555050505050610678565b3373ffffffffffffffffffffffffffffffffffffffff168173ffffffffffffffffffffffffffffffffffffffff1603610418576040517f08c379a000000000000000000000000000000000000000000000000000000000815260040161040f9061065a565b60405180910390fd5b8060025f6101000a81548173ffffffffffffffffffffffffffffffffffffffff021916908373ffffffffffffffffffffffffffffffffffffffff1602179055508073ffffffffffffffffffffffffffffffffffffffff1660015f9054906101000a900473ffffffffffffffffffffffffffffffffffffffff1673ffffffffffffffffffffffffffffffffffffffff167fed8889f560326eb138920d842192f0eb3dd22b4f139c87a2c57538e05bae127860405160405180910390a350565b5f5ffd5b5f73ffffffffffffffffffffffffffffffffffffffff82169050919050565b5f610503826104da565b9050919050565b610513816104f9565b811461051d575f5ffd5b50565b5f8151905061052e8161050a565b92915050565b5f5f5f5f6080858703121561054c5761054b6104d6565b5b5f61055987828801610520565b945050602061056a87828801610520565b935050604061057b87828801610520565b925050606061058c87828801610520565b91505092959194509250565b5f82825260208201905092915050565b7f43616e6e6f7420736574206f776e657220746f207a65726f00000000000000005f82015250565b5f6105dc601883610598565b91506105e7826105a8565b602082019050919050565b5f6020820190508181035f830152610609816105d0565b9050919050565b7f43616e6e6f74207472616e7366657220746f2073656c660000000000000000005f82015250565b5f610644601783610598565b915061064f82610610565b602082019050919050565b5f6020820190508181035f83015261067181610638565b9050919050565b614510806106855f395ff3fe6080604052600436106100fd575f3560e01c80638ea9811711610094578063bde8a93e11610063578063bde8a93e146102ef578063cfea2f6f14610317578063d0bcfc0c14610353578063e18123c21461037d578063f2fde38b14610399576100fd565b80638ea98117146102375780639eccacf61461025f578063ad17836114610289578063baaa3edf146102b3576100fd565b806363dc4ef5116100d057806363dc4ef5146101a557806379ba5097146101cd5780638d7c16d2146101e35780638da5cb5b1461020d576100fd565b80630f0aa179146101015780631fe543e31461011757806356c022bb1461013f578063572b6c0514610169575b5f5ffd5b34801561010c575f5ffd5b506101156103c1565b005b348015610122575f5ffd5b5061013d60048036038101906101389190613126565b6107b4565b005b34801561014a575f5ffd5b50610153610878565b60405161016091906131c2565b60405180910390f35b348015610174575f5ffd5b5061018f600480360381019061018a9190613205565b61089d565b60405161019c919061324a565b60405180910390f35b3480156101b0575f5ffd5b506101cb60048036038101906101c69190613205565b6108f5565b005b3480156101d8575f5ffd5b506101e1610b7d565b005b3480156101ee575f5ffd5b506101f7610d0e565b6040516102049190613272565b60405180910390f35b348015610218575f5ffd5b50610221610d14565b60405161022e91906131c2565b60405180910390f35b348015610242575f5ffd5b5061025d60048036038101906102589190613205565b610d3c565b005b34801561026a575f5ffd5b50610273610f19565b60405161028091906132e6565b60405180910390f35b348015610294575f5ffd5b5061029d610f3e565b6040516102aa919061331f565b60405180910390f35b3480156102be575f5ffd5b506102d960048036038101906102d49190613338565b610f63565b6040516102e69190613272565b60405180910390f35b3480156102fa575f5ffd5b5061031560048036038101906103109190613205565b61106a565b005b348015610322575f5ffd5b5061033d60048036038101906103389190613205565b6110b5565b60405161034a919061348f565b60405180910390f35b34801561035e575f5ffd5b506103676111fd565b60405161037491906134c9565b60405180910390f35b61039760048036038101906103929190613536565b611222565b005b3480156103a4575f5ffd5b506103bf60048036038101906103ba9190613205565b611617565b005b6103c961162b565b5f6103d2611678565b90505f600d5f8373ffffffffffffffffffffffffffffffffffffffff1673ffffffffffffffffffffffffffffffffffffffff1681526020019081526020015f2090505f816003015403610451576040517f49050b3000000000000000000000000000000000000000000000000000000000815260040160405180910390fd5b6104596116ad565b67ffffffffffffffff1660c88260040160149054906101000a900467ffffffffffffffff1661048891906135ec565b67ffffffffffffffff161115610502576104a06116ad565b60c88260040160149054906101000a900467ffffffffffffffff166104c591906135ec565b6040517fb4ae675a0000000000000000000000000000000000000000000000000000000081526004016104f9929190613657565b60405180910390fd5b5f81600401601c9054906101000a900463ffffffff1663ffffffff16825f015461052c919061367e565b90505f826004015f9054906101000a900473ffffffffffffffffffffffffffffffffffffffff169050600e5f846003015481526020019081526020015f205f6101000a81549073ffffffffffffffffffffffffffffffffffffffff0219169055600d5f8573ffffffffffffffffffffffffffffffffffffffff1673ffffffffffffffffffffffffffffffffffffffff1681526020019081526020015f205f5f82015f9055600182015f9055600282015f9055600382015f9055600482015f6101000a81549073ffffffffffffffffffffffffffffffffffffffff02191690556004820160146101000a81549067ffffffffffffffff021916905560048201601c6101000a81549063ffffffff0219169055600582015f6101000a81549060ff021916905550505f73ffffffffffffffffffffffffffffffffffffffff168173ffffffffffffffffffffffffffffffffffffffff160361072a575f8473ffffffffffffffffffffffffffffffffffffffff16836040516106aa906136ec565b5f6040518083038185875af1925050503d805f81146106e4576040519150601f19603f3d011682016040523d82523d5f602084013e6106e9565b606091505b5050905080610724576040517f90b8ec1800000000000000000000000000000000000000000000000000000000815260040160405180910390fd5b50610756565b61075584838373ffffffffffffffffffffffffffffffffffffffff166117479092919063ffffffff16565b5b8373ffffffffffffffffffffffffffffffffffffffff167f1b240de49ea18064198efe2f74c6cc4fa4139464ff393208f8fa6aa81b07adb2838360405161079e929190613700565b60405180910390a2505050506107b26117cd565b565b60035f9054906101000a900473ffffffffffffffffffffffffffffffffffffffff1673ffffffffffffffffffffffffffffffffffffffff163373ffffffffffffffffffffffffffffffffffffffff1614610868573360035f9054906101000a900473ffffffffffffffffffffffffffffffffffffffff166040517f1cf993f400000000000000000000000000000000000000000000000000000000815260040161085f929190613727565b60405180910390fd5b6108738383836117d6565b505050565b60065f9054906101000a900473ffffffffffffffffffffffffffffffffffffffff1681565b5f60065f9054906101000a900473ffffffffffffffffffffffffffffffffffffffff1673ffffffffffffffffffffffffffffffffffffffff168273ffffffffffffffffffffffffffffffffffffffff16149050919050565b6108fd61162b565b60085f9054906101000a900473ffffffffffffffffffffffffffffffffffffffff1673ffffffffffffffffffffffffffffffffffffffff1663893d20e86040518163ffffffff1660e01b8152600401602060405180830381865afa158015610967573d5f5f3e3d5ffd5b505050506040513d601f19601f8201168201806040525081019061098b9190613762565b73ffffffffffffffffffffffffffffffffffffffff163373ffffffffffffffffffffffffffffffffffffffff1614610a895760085f9054906101000a900473ffffffffffffffffffffffffffffffffffffffff1673ffffffffffffffffffffffffffffffffffffffff1663893d20e86040518163ffffffff1660e01b8152600401602060405180830381865afa158015610a27573d5f5f3e3d5ffd5b505050506040513d601f19601f82011682018060405250810190610a4b9190613762565b336040517f23295f0e000000000000000000000000000000000000000000000000000000008152600401610a80929190613727565b60405180910390fd5b5f60045490505f6004819055505f8273ffffffffffffffffffffffffffffffffffffffff1682604051610abb906136ec565b5f6040518083038185875af1925050503d805f8114610af5576040519150601f19603f3d011682016040523d82523d5f602084013e610afa565b606091505b5050905080610b35576040517f90b8ec1800000000000000000000000000000000000000000000000000000000815260040160405180910390fd5b7f1d6298f49fc15449b78df91fcca6812136edc2972366cb70aa0d9145a308cd31308484604051610b689392919061378d565b60405180910390a15050610b7a6117cd565b50565b60025f9054906101000a900473ffffffffffffffffffffffffffffffffffffffff1673ffffffffffffffffffffffffffffffffffffffff163373ffffffffffffffffffffffffffffffffffffffff1614610c0c576040517f08c379a0000000000000000000000000000000000000000000000000000000008152600401610c039061381c565b60405180910390fd5b5f60015f9054906101000a900473ffffffffffffffffffffffffffffffffffffffff1690503360015f6101000a81548173ffffffffffffffffffffffffffffffffffffffff021916908373ffffffffffffffffffffffffffffffffffffffff1602179055505f60025f6101000a81548173ffffffffffffffffffffffffffffffffffffffff021916908373ffffffffffffffffffffffffffffffffffffffff1602179055503373ffffffffffffffffffffffffffffffffffffffff168173ffffffffffffffffffffffffffffffffffffffff167f8be0079c531659141344cd1fd0a4f28419497f9722a3daafe3b4186f6b6457e060405160405180910390a350565b60045481565b5f60015f9054906101000a900473ffffffffffffffffffffffffffffffffffffffff16905090565b610d44610d14565b73ffffffffffffffffffffffffffffffffffffffff163373ffffffffffffffffffffffffffffffffffffffff1614158015610dcc575060035f9054906101000a900473ffffffffffffffffffffffffffffffffffffffff1673ffffffffffffffffffffffffffffffffffffffff163373ffffffffffffffffffffffffffffffffffffffff1614155b15610e3a5733610dda610d14565b60035f9054906101000a900473ffffffffffffffffffffffffffffffffffffffff166040517f061db9c1000000000000000000000000000000000000000000000000000000008152600401610e319392919061383a565b60405180910390fd5b5f73ffffffffffffffffffffffffffffffffffffffff168173ffffffffffffffffffffffffffffffffffffffff1603610e9f576040517fd92e233d00000000000000000000000000000000000000000000000000000000815260040160405180910390fd5b8060035f6101000a81548173ffffffffffffffffffffffffffffffffffffffff021916908373ffffffffffffffffffffffffffffffffffffffff1602179055507fd1a6a14209a385a964d036e404cb5cfb71f4000cdb03c9366292430787261be681604051610f0e91906131c2565b60405180910390a150565b60035f9054906101000a900473ffffffffffffffffffffffffffffffffffffffff1681565b60075f9054906101000a900473ffffffffffffffffffffffffffffffffffffffff1681565b5f5f60075f9054906101000a900473ffffffffffffffffffffffffffffffffffffffff1673ffffffffffffffffffffffffffffffffffffffff1663feaf968c6040518163ffffffff1660e01b815260040160a060405180830381865afa158015610fcf573d5f5f3e3d5ffd5b505050506040513d601f19601f82011682018060405250810190610ff391906138f5565b5050509150505f600a84611005611e90565b61100f919061367e565b6110199190613999565b9050670de0b6b3a76400008264e8d4a51000611035919061367e565b61103f9190613999565b81863a61104c919061367e565b61105691906139c9565b61106091906139c9565b9250505092915050565b611072611f2a565b8060085f6101000a81548173ffffffffffffffffffffffffffffffffffffffff021916908373ffffffffffffffffffffffffffffffffffffffff16021790555050565b6110bd613024565b600d5f8373ffffffffffffffffffffffffffffffffffffffff1673ffffffffffffffffffffffffffffffffffffffff1681526020019081526020015f20604051806101000160405290815f8201548152602001600182015481526020016002820154815260200160038201548152602001600482015f9054906101000a900473ffffffffffffffffffffffffffffffffffffffff1673ffffffffffffffffffffffffffffffffffffffff1673ffffffffffffffffffffffffffffffffffffffff1681526020016004820160149054906101000a900467ffffffffffffffff1667ffffffffffffffff1667ffffffffffffffff16815260200160048201601c9054906101000a900463ffffffff1663ffffffff1663ffffffff168152602001600582015f9054906101000a900460ff1660ff1660ff16815250509050919050565b60085f9054906101000a900473ffffffffffffffffffffffffffffffffffffffff1681565b61122a61162b565b5f611233611678565b905060038560ff1610611272576040517f4a7f394f00000000000000000000000000000000000000000000000000000000815260040160405180910390fd5b5f600d5f8373ffffffffffffffffffffffffffffffffffffffff1673ffffffffffffffffffffffffffffffffffffffff1681526020019081526020015f20600301541461133657600d5f8273ffffffffffffffffffffffffffffffffffffffff1673ffffffffffffffffffffffffffffffffffffffff1681526020019081526020015f20600301546040517f440db96e00000000000000000000000000000000000000000000000000000000815260040161132d9190613272565b60405180910390fd5b5f8463ffffffff16118015611352575060648463ffffffff1611155b6113945760646040517f9310749100000000000000000000000000000000000000000000000000000000815260040161138b9190613a35565b60405180910390fd5b61139e8787611fbb565b5f6113c1878663ffffffff168a6113b5919061367e565b620c3500601686612139565b90505f6113cd8661260f565b90506040518061010001604052808a81526020018681526020018581526020018281526020018973ffffffffffffffffffffffffffffffffffffffff1681526020016114176116ad565b67ffffffffffffffff1681526020018763ffffffff1681526020018860ff16815250600d5f8573ffffffffffffffffffffffffffffffffffffffff1673ffffffffffffffffffffffffffffffffffffffff1681526020019081526020015f205f820151815f01556020820151816001015560408201518160020155606082015181600301556080820151816004015f6101000a81548173ffffffffffffffffffffffffffffffffffffffff021916908373ffffffffffffffffffffffffffffffffffffffff16021790555060a08201518160040160146101000a81548167ffffffffffffffff021916908367ffffffffffffffff16021790555060c082015181600401601c6101000a81548163ffffffff021916908363ffffffff16021790555060e0820151816005015f6101000a81548160ff021916908360ff16021790555090505082600e5f8381526020019081526020015f205f6101000a81548173ffffffffffffffffffffffffffffffffffffffff021916908373ffffffffffffffffffffffffffffffffffffffff1602179055508273ffffffffffffffffffffffffffffffffffffffff167f7d6b56cb76818195a870ec527ceb91f32d9d20269efe736561277d5a0d5227dc8a8a8a8a8a8a896040516115fc9796959493929190613a6c565b60405180910390a250505061160f6117cd565b505050505050565b61161f611f2a565b6116288161272b565b50565b60025f540361166f576040517f08c379a000000000000000000000000000000000000000000000000000000000815260040161166690613b23565b60405180910390fd5b60025f81905550565b5f60145f3690501015801561169257506116913361089d565b5b156116a657601436033560601c90506116aa565b3390505b90565b5f5f46905061a4b18114806116c4575062066eed81145b1561173f57606473ffffffffffffffffffffffffffffffffffffffff1663a3b1b31d6040518163ffffffff1660e01b8152600401602060405180830381865afa158015611713573d5f5f3e3d5ffd5b505050506040513d601f19601f820116820180604052508101906117379190613b41565b915050611744565b439150505b90565b6117c88363a9059cbb60e01b8484604051602401611766929190613b6c565b604051602081830303815290604052907bffffffffffffffffffffffffffffffffffffffffffffffffffffffff19166020820180517bffffffffffffffffffffffffffffffffffffffffffffffffffffffff8381831617835250505050612857565b505050565b60015f81905550565b5f600e5f8581526020019081526020015f205f9054906101000a900473ffffffffffffffffffffffffffffffffffffffff1690505f73ffffffffffffffffffffffffffffffffffffffff168173ffffffffffffffffffffffffffffffffffffffff1603611841575f5ffd5b5f600d5f8373ffffffffffffffffffffffffffffffffffffffff1673ffffffffffffffffffffffffffffffffffffffff1681526020019081526020015f2090505f81600401601c9054906101000a900463ffffffff1663ffffffff1667ffffffffffffffff8111156118b6576118b5613b93565b5b6040519080825280602002602001820160405280156118e45781602001602082028036833780820191505090505b5090505f82600401601c9054906101000a900463ffffffff1663ffffffff1667ffffffffffffffff81111561191c5761191b613b93565b5b60405190808252806020026020018201604052801561194a5781602001602082028036833780820191505090505b5090505f83600401601c9054906101000a900463ffffffff1663ffffffff1667ffffffffffffffff81111561198257611981613b93565b5b6040519080825280602002602001820160405280156119b05781602001602082028036833780820191505090505b5090505f5f5f5f876004015f9054906101000a900473ffffffffffffffffffffffffffffffffffffffff1690505f91505b87600401601c9054906101000a900463ffffffff1663ffffffff168263ffffffff161015611c83578760010154841215611c83578760020154611a2390613bc0565b841315611c835760038b8b8463ffffffff16818110611a4557611a44613c06565b5b90506020020135611a569190613c33565b878363ffffffff1681518110611a6f57611a6e613c06565b5b602002602001019060ff16908160ff1681525050611abd886005015f9054906101000a900460ff16888463ffffffff1681518110611ab057611aaf613c06565b5b602002602001015161291d565b868363ffffffff1681518110611ad657611ad5613c06565b5b602002602001019060ff16908160ff16815250506002868363ffffffff1681518110611b0557611b04613c06565b5b602002602001015160ff1603611ba15760646063895f0154611b27919061367e565b611b319190613999565b83611b3c91906139c9565b92506064885f0154611b4e9190613999565b84611b599190613c63565b935060646063895f0154611b6d919061367e565b611b779190613999565b858363ffffffff1681518110611b9057611b8f613c06565b5b602002602001018181525050611c76565b6001868363ffffffff1681518110611bbc57611bbb613c06565b5b602002602001015160ff1603611c6457606460c6895f0154611bde919061367e565b611be89190613999565b83611bf391906139c9565b925060646062895f0154611c07919061367e565b611c119190613999565b84611c1c9190613ca3565b9350606460c6895f0154611c30919061367e565b611c3a9190613999565b858363ffffffff1681518110611c5357611c52613c06565b5b602002602001018181525050611c76565b875f015484611c739190613c63565b93505b81806001019250506119e1565b875f01548289600401601c9054906101000a900463ffffffff16611ca79190613ce4565b63ffffffff16611cb7919061367e565b83611cc291906139c9565b92508873ffffffffffffffffffffffffffffffffffffffff167f10926c19b020b305e529b4fbe64764ce71360378f742c3e3d04e62d586bf9c0e895f0154858b6004015f9054906101000a900473ffffffffffffffffffffffffffffffffffffffff168a8c8b89604051611d3c9796959493929190613e6b565b60405180910390a2611d768189600401601c9054906101000a900463ffffffff1663ffffffff168a5f0154611d71919061367e565b6129a1565b600e5f8d81526020019081526020015f205f6101000a81549073ffffffffffffffffffffffffffffffffffffffff0219169055600d5f8a73ffffffffffffffffffffffffffffffffffffffff1673ffffffffffffffffffffffffffffffffffffffff1681526020019081526020015f205f5f82015f9055600182015f9055600282015f9055600382015f9055600482015f6101000a81549073ffffffffffffffffffffffffffffffffffffffff02191690556004820160146101000a81549067ffffffffffffffff021916905560048201601c6101000a81549063ffffffff0219169055600582015f6101000a81549060ff021916905550505f8314611e8257611e81898483612c02565b5b505050505050505050505050565b5f5f46905061a4b1811480611ea7575062066eed81145b15611f2257606c73ffffffffffffffffffffffffffffffffffffffff1663c6f7de0e6040518163ffffffff1660e01b8152600401602060405180830381865afa158015611ef6573d5f5f3e3d5ffd5b505050506040513d601f19601f82011682018060405250810190611f1a9190613b41565b915050611f27565b5f9150505b90565b60015f9054906101000a900473ffffffffffffffffffffffffffffffffffffffff1673ffffffffffffffffffffffffffffffffffffffff163373ffffffffffffffffffffffffffffffffffffffff1614611fb9576040517f08c379a0000000000000000000000000000000000000000000000000000000008152600401611fb090613f37565b60405180910390fd5b565b5f5f73ffffffffffffffffffffffffffffffffffffffff168273ffffffffffffffffffffffffffffffffffffffff160361202f5760085f9054906101000a900473ffffffffffffffffffffffffffffffffffffffff1673ffffffffffffffffffffffffffffffffffffffff163190506120cb565b8173ffffffffffffffffffffffffffffffffffffffff166370a0823160085f9054906101000a900473ffffffffffffffffffffffffffffffffffffffff166040518263ffffffff1660e01b815260040161208991906131c2565b602060405180830381865afa1580156120a4573d5f5f3e3d5ffd5b505050506040513d601f19601f820116820180604052508101906120c89190613b41565b90505b5f6305f5e1006219b0ad836120e0919061367e565b6120ea9190613999565b9050808411156121335783816040517fd53662aa00000000000000000000000000000000000000000000000000000000815260040161212a929190613f55565b60405180910390fd5b50505050565b5f5f8503612173576040517f07375c8400000000000000000000000000000000000000000000000000000000815260040160405180910390fd5b60085f9054906101000a900473ffffffffffffffffffffffffffffffffffffffff1673ffffffffffffffffffffffffffffffffffffffff1663bfd7f9cc30886040518363ffffffff1660e01b81526004016121cf929190613727565b602060405180830381865afa1580156121ea573d5f5f3e3d5ffd5b505050506040513d601f19601f8201168201806040525081019061220e9190613fa6565b612244576040517f51c3b94f00000000000000000000000000000000000000000000000000000000815260040160405180910390fd5b5f5f60085f9054906101000a900473ffffffffffffffffffffffffffffffffffffffff1673ffffffffffffffffffffffffffffffffffffffff16630a5748a8856040518263ffffffff1660e01b81526004016122a091906131c2565b6040805180830381865afa1580156122ba573d5f5f3e3d5ffd5b505050506040513d601f19601f820116820180604052508101906122de9190613fd1565b91509150811561232557806040517f6c2775f500000000000000000000000000000000000000000000000000000000815260040161231c9190613272565b60405180910390fd5b61232f8686610f63565b92505f73ffffffffffffffffffffffffffffffffffffffff168873ffffffffffffffffffffffffffffffffffffffff16036123e557828761237091906139c9565b3410156123c157828761238391906139c9565b346040517fde9b74a10000000000000000000000000000000000000000000000000000000081526004016123b8929190613f55565b60405180910390fd5b6123e087846123d091906139c9565b346123db919061400f565b612c92565b61246e565b8234101561242c5782346040517fde9b74a1000000000000000000000000000000000000000000000000000000008152600401612423929190613f55565b60405180910390fd5b6124598430898b73ffffffffffffffffffffffffffffffffffffffff16612d3e909392919063ffffffff16565b61246d8334612468919061400f565b612c92565b5b5f60085f9054906101000a900473ffffffffffffffffffffffffffffffffffffffff1673ffffffffffffffffffffffffffffffffffffffff1663133d199a6040518163ffffffff1660e01b8152600401602060405180830381865afa1580156124d9573d5f5f3e3d5ffd5b505050506040513d601f19601f820116820180604052508101906124fd9190613b41565b90505f8111156125ae575f6103e8828a612517919061367e565b6125219190613999565b905060085f9054906101000a900473ffffffffffffffffffffffffffffffffffffffff1673ffffffffffffffffffffffffffffffffffffffff1663b0e27f7487836040518363ffffffff1660e01b815260040161257f929190613b6c565b5f604051808303815f87803b158015612596575f5ffd5b505af11580156125a8573d5f5f3e3d5ffd5b50505050505b8360045f8282546125bf91906139c9565b925050819055507f312e2def0b1ae52334b8d967d371c7afe0625e9a3f4f70810e79cf351fe2a5a9308a878b6040516125fb9493929190614042565b60405180910390a150505095945050505050565b5f60095f9054906101000a900473ffffffffffffffffffffffffffffffffffffffff1673ffffffffffffffffffffffffffffffffffffffff16639b1c385e6040518060c00160405280600b548152602001600a548152602001600c5f9054906101000a900461ffff1661ffff168152602001600c60029054906101000a900463ffffffff1663ffffffff1681526020018563ffffffff1681526020016126c5604051806020016040528060011515815250612dc7565b8152506040518263ffffffff1660e01b81526004016126e491906141af565b6020604051808303815f875af1158015612700573d5f5f3e3d5ffd5b505050506040513d601f19601f820116820180604052508101906127249190613b41565b9050919050565b3373ffffffffffffffffffffffffffffffffffffffff168173ffffffffffffffffffffffffffffffffffffffff1603612799576040517f08c379a000000000000000000000000000000000000000000000000000000000815260040161279090614219565b60405180910390fd5b8060025f6101000a81548173ffffffffffffffffffffffffffffffffffffffff021916908373ffffffffffffffffffffffffffffffffffffffff1602179055508073ffffffffffffffffffffffffffffffffffffffff1660015f9054906101000a900473ffffffffffffffffffffffffffffffffffffffff1673ffffffffffffffffffffffffffffffffffffffff167fed8889f560326eb138920d842192f0eb3dd22b4f139c87a2c57538e05bae127860405160405180910390a350565b5f6128b8826040518060400160405280602081526020017f5361666545524332303a206c6f772d6c6576656c2063616c6c206661696c65648152508573ffffffffffffffffffffffffffffffffffffffff16612e5f9092919063ffffffff16565b90505f815114806128d95750808060200190518101906128d89190613fa6565b5b612918576040517f08c379a000000000000000000000000000000000000000000000000000000000815260040161290f906142a7565b60405180910390fd5b505050565b5f8160ff168360ff160361293057600290505b5f8360ff16036129545760018260ff160361294e5760019050612953565b600190505b5b60018360ff16036129785760028260ff1603612972575f9050612977565b600190505b5b60028360ff160361299b575f8260ff1603612995575f905061299a565b600190505b5b92915050565b5f73ffffffffffffffffffffffffffffffffffffffff168273ffffffffffffffffffffffffffffffffffffffff1603612a9a575f60085f9054906101000a900473ffffffffffffffffffffffffffffffffffffffff1673ffffffffffffffffffffffffffffffffffffffff1682604051612a1a906136ec565b5f6040518083038185875af1925050503d805f8114612a54576040519150601f19603f3d011682016040523d82523d5f602084013e612a59565b606091505b5050905080612a94576040517ff0c49d4400000000000000000000000000000000000000000000000000000000815260040160405180910390fd5b50612bc1565b8173ffffffffffffffffffffffffffffffffffffffff1663095ea7b360085f9054906101000a900473ffffffffffffffffffffffffffffffffffffffff16836040518363ffffffff1660e01b8152600401612af6929190613b6c565b6020604051808303815f875af1158015612b12573d5f5f3e3d5ffd5b505050506040513d601f19601f82011682018060405250810190612b369190613fa6565b5060085f9054906101000a900473ffffffffffffffffffffffffffffffffffffffff1673ffffffffffffffffffffffffffffffffffffffff166347e7ef2483836040518363ffffffff1660e01b8152600401612b93929190613b6c565b5f604051808303815f87803b158015612baa575f5ffd5b505af1158015612bbc573d5f5f3e3d5ffd5b505050505b7f312e2def0b1ae52334b8d967d371c7afe0625e9a3f4f70810e79cf351fe2a5a930833384604051612bf69493929190614042565b60405180910390a15050565b60085f9054906101000a900473ffffffffffffffffffffffffffffffffffffffff1673ffffffffffffffffffffffffffffffffffffffff16636c025ec28484846040518463ffffffff1660e01b8152600401612c60939291906142c5565b5f604051808303815f87803b158015612c77575f5ffd5b505af1158015612c89573d5f5f3e3d5ffd5b50505050505050565b5f810315612d3b575f3373ffffffffffffffffffffffffffffffffffffffff1682604051612cbf906136ec565b5f6040518083038185875af1925050503d805f8114612cf9576040519150601f19603f3d011682016040523d82523d5f602084013e612cfe565b606091505b5050905080612d39576040517ff0c49d4400000000000000000000000000000000000000000000000000000000815260040160405180910390fd5b505b50565b612dc1846323b872dd60e01b858585604051602401612d5f9392919061378d565b604051602081830303815290604052907bffffffffffffffffffffffffffffffffffffffffffffffffffffffff19166020820180517bffffffffffffffffffffffffffffffffffffffffffffffffffffffff8381831617835250505050612857565b50505050565b60607f92fd13387c7fe7befbc38d303d6468778fb9731bc4583f17d92989c6fcfdeaaa82604051602401612dfb9190614323565b604051602081830303815290604052907bffffffffffffffffffffffffffffffffffffffffffffffffffffffff19166020820180517bffffffffffffffffffffffffffffffffffffffffffffffffffffffff83818316178352505050509050919050565b6060612e6d84845f85612e76565b90509392505050565b606082471015612ebb576040517f08c379a0000000000000000000000000000000000000000000000000000000008152600401612eb2906143ac565b60405180910390fd5b5f5f8673ffffffffffffffffffffffffffffffffffffffff168587604051612ee391906143fa565b5f6040518083038185875af1925050503d805f8114612f1d576040519150601f19603f3d011682016040523d82523d5f602084013e612f22565b606091505b5091509150612f3387838387612f3f565b92505050949350505050565b60608315612fa0575f835103612f9857612f5885612fb3565b612f97576040517f08c379a0000000000000000000000000000000000000000000000000000000008152600401612f8e9061445a565b60405180910390fd5b5b829050612fab565b612faa8383612fd5565b5b949350505050565b5f5f8273ffffffffffffffffffffffffffffffffffffffff163b119050919050565b5f82511115612fe75781518083602001fd5b806040517f08c379a000000000000000000000000000000000000000000000000000000000815260040161301b91906144ba565b60405180910390fd5b6040518061010001604052805f81526020015f81526020015f81526020015f81526020015f73ffffffffffffffffffffffffffffffffffffffff1681526020015f67ffffffffffffffff1681526020015f63ffffffff1681526020015f60ff1681525090565b5f5ffd5b5f5ffd5b5f819050919050565b6130a481613092565b81146130ae575f5ffd5b50565b5f813590506130bf8161309b565b92915050565b5f5ffd5b5f5ffd5b5f5ffd5b5f5f83601f8401126130e6576130e56130c5565b5b8235905067ffffffffffffffff811115613103576131026130c9565b5b60208301915083602082028301111561311f5761311e6130cd565b5b9250929050565b5f5f5f6040848603121561313d5761313c61308a565b5b5f61314a868287016130b1565b935050602084013567ffffffffffffffff81111561316b5761316a61308e565b5b613177868287016130d1565b92509250509250925092565b5f73ffffffffffffffffffffffffffffffffffffffff82169050919050565b5f6131ac82613183565b9050919050565b6131bc816131a2565b82525050565b5f6020820190506131d55f8301846131b3565b92915050565b6131e4816131a2565b81146131ee575f5ffd5b50565b5f813590506131ff816131db565b92915050565b5f6020828403121561321a5761321961308a565b5b5f613227848285016131f1565b91505092915050565b5f8115159050919050565b61324481613230565b82525050565b5f60208201905061325d5f83018461323b565b92915050565b61326c81613092565b82525050565b5f6020820190506132855f830184613263565b92915050565b5f819050919050565b5f6132ae6132a96132a484613183565b61328b565b613183565b9050919050565b5f6132bf82613294565b9050919050565b5f6132d0826132b5565b9050919050565b6132e0816132c6565b82525050565b5f6020820190506132f95f8301846132d7565b92915050565b5f613309826132b5565b9050919050565b613319816132ff565b82525050565b5f6020820190506133325f830184613310565b92915050565b5f5f6040838503121561334e5761334d61308a565b5b5f61335b858286016130b1565b925050602061336c858286016130b1565b9150509250929050565b61337f81613092565b82525050565b61338e816131a2565b82525050565b5f67ffffffffffffffff82169050919050565b6133b081613394565b82525050565b5f63ffffffff82169050919050565b6133ce816133b6565b82525050565b5f60ff82169050919050565b6133e9816133d4565b82525050565b61010082015f8201516134045f850182613376565b5060208201516134176020850182613376565b50604082015161342a6040850182613376565b50606082015161343d6060850182613376565b5060808201516134506080850182613385565b5060a082015161346360a08501826133a7565b5060c082015161347660c08501826133c5565b5060e082015161348960e08501826133e0565b50505050565b5f610100820190506134a35f8301846133ef565b92915050565b5f6134b3826132b5565b9050919050565b6134c3816134a9565b82525050565b5f6020820190506134dc5f8301846134ba565b92915050565b6134eb816133d4565b81146134f5575f5ffd5b50565b5f81359050613506816134e2565b92915050565b613515816133b6565b811461351f575f5ffd5b50565b5f813590506135308161350c565b92915050565b5f5f5f5f5f5f60c087890312156135505761354f61308a565b5b5f61355d89828a016130b1565b965050602061356e89828a016131f1565b955050604061357f89828a016134f8565b945050606061359089828a01613522565b93505060806135a189828a016130b1565b92505060a06135b289828a016130b1565b9150509295509295509295565b7f4e487b71000000000000000000000000000000000000000000000000000000005f52601160045260245ffd5b5f6135f682613394565b915061360183613394565b9250828201905067ffffffffffffffff811115613621576136206135bf565b5b92915050565b5f61364161363c61363784613394565b61328b565b613092565b9050919050565b61365181613627565b82525050565b5f60408201905061366a5f830185613648565b6136776020830184613648565b9392505050565b5f61368882613092565b915061369383613092565b92508282026136a181613092565b915082820484148315176136b8576136b76135bf565b5b5092915050565b5f81905092915050565b50565b5f6136d75f836136bf565b91506136e2826136c9565b5f82019050919050565b5f6136f6826136cc565b9150819050919050565b5f6040820190506137135f830185613263565b61372060208301846131b3565b9392505050565b5f60408201905061373a5f8301856131b3565b61374760208301846131b3565b9392505050565b5f8151905061375c816131db565b92915050565b5f602082840312156137775761377661308a565b5b5f6137848482850161374e565b91505092915050565b5f6060820190506137a05f8301866131b3565b6137ad60208301856131b3565b6137ba6040830184613263565b949350505050565b5f82825260208201905092915050565b7f4d7573742062652070726f706f736564206f776e6572000000000000000000005f82015250565b5f6138066016836137c2565b9150613811826137d2565b602082019050919050565b5f6020820190508181035f830152613833816137fa565b9050919050565b5f60608201905061384d5f8301866131b3565b61385a60208301856131b3565b61386760408301846131b3565b949350505050565b5f69ffffffffffffffffffff82169050919050565b61388d8161386f565b8114613897575f5ffd5b50565b5f815190506138a881613884565b92915050565b5f819050919050565b6138c0816138ae565b81146138ca575f5ffd5b50565b5f815190506138db816138b7565b92915050565b5f815190506138ef8161309b565b92915050565b5f5f5f5f5f60a0868803121561390e5761390d61308a565b5b5f61391b8882890161389a565b955050602061392c888289016138cd565b945050604061393d888289016138e1565b935050606061394e888289016138e1565b925050608061395f8882890161389a565b9150509295509295909350565b7f4e487b71000000000000000000000000000000000000000000000000000000005f52601260045260245ffd5b5f6139a382613092565b91506139ae83613092565b9250826139be576139bd61396c565b5b828204905092915050565b5f6139d382613092565b91506139de83613092565b92508282019050808211156139f6576139f56135bf565b5b92915050565b5f819050919050565b5f613a1f613a1a613a15846139fc565b61328b565b613092565b9050919050565b613a2f81613a05565b82525050565b5f602082019050613a485f830184613a26565b92915050565b613a57816133d4565b82525050565b613a66816133b6565b82525050565b5f60e082019050613a7f5f83018a613263565b613a8c60208301896131b3565b613a996040830188613a4e565b613aa66060830187613a5d565b613ab36080830186613263565b613ac060a0830185613263565b613acd60c0830184613263565b98975050505050505050565b7f5265656e7472616e637947756172643a207265656e7472616e742063616c6c005f82015250565b5f613b0d601f836137c2565b9150613b1882613ad9565b602082019050919050565b5f6020820190508181035f830152613b3a81613b01565b9050919050565b5f60208284031215613b5657613b5561308a565b5b5f613b63848285016138e1565b91505092915050565b5f604082019050613b7f5f8301856131b3565b613b8c6020830184613263565b9392505050565b7f4e487b71000000000000000000000000000000000000000000000000000000005f52604160045260245ffd5b5f613bca826138ae565b91507f80000000000000000000000000000000000000000000000000000000000000008203613bfc57613bfb6135bf565b5b815f039050919050565b7f4e487b71000000000000000000000000000000000000000000000000000000005f52603260045260245ffd5b5f613c3d82613092565b9150613c4883613092565b925082613c5857613c5761396c565b5b828206905092915050565b5f613c6d826138ae565b9150613c78836138ae565b925082820390508181125f8412168282135f851215161715613c9d57613c9c6135bf565b5b92915050565b5f613cad826138ae565b9150613cb8836138ae565b92508282019050828112155f8312168382125f841215161715613cde57613cdd6135bf565b5b92915050565b5f613cee826133b6565b9150613cf9836133b6565b9250828203905063ffffffff811115613d1557613d146135bf565b5b92915050565b5f81519050919050565b5f82825260208201905092915050565b5f819050602082019050919050565b5f613d4f83836133e0565b60208301905092915050565b5f602082019050919050565b5f613d7182613d1b565b613d7b8185613d25565b9350613d8683613d35565b805f5b83811015613db6578151613d9d8882613d44565b9750613da883613d5b565b925050600181019050613d89565b5085935050505092915050565b5f81519050919050565b5f82825260208201905092915050565b5f819050602082019050919050565b5f613df78383613376565b60208301905092915050565b5f602082019050919050565b5f613e1982613dc3565b613e238185613dcd565b9350613e2e83613ddd565b805f5b83811015613e5e578151613e458882613dec565b9750613e5083613e03565b925050600181019050613e31565b5085935050505092915050565b5f60e082019050613e7e5f83018a613263565b613e8b6020830189613263565b613e9860408301886131b3565b8181036060830152613eaa8187613d67565b90508181036080830152613ebe8186613d67565b905081810360a0830152613ed28185613e0f565b9050613ee160c0830184613a5d565b98975050505050505050565b7f4f6e6c792063616c6c61626c65206279206f776e6572000000000000000000005f82015250565b5f613f216016836137c2565b9150613f2c82613eed565b602082019050919050565b5f6020820190508181035f830152613f4e81613f15565b9050919050565b5f604082019050613f685f830185613263565b613f756020830184613263565b9392505050565b613f8581613230565b8114613f8f575f5ffd5b50565b5f81519050613fa081613f7c565b92915050565b5f60208284031215613fbb57613fba61308a565b5b5f613fc884828501613f92565b91505092915050565b5f5f60408385031215613fe757613fe661308a565b5b5f613ff485828601613f92565b9250506020614005858286016138e1565b9150509250929050565b5f61401982613092565b915061402483613092565b925082820390508181111561403c5761403b6135bf565b5b92915050565b5f6080820190506140555f8301876131b3565b61406260208301866131b3565b61406f60408301856131b3565b61407c6060830184613263565b95945050505050565b5f819050919050565b61409781614085565b82525050565b5f61ffff82169050919050565b6140b38161409d565b82525050565b5f81519050919050565b5f82825260208201905092915050565b8281835e5f83830152505050565b5f601f19601f8301169050919050565b5f6140fb826140b9565b61410581856140c3565b93506141158185602086016140d3565b61411e816140e1565b840191505092915050565b5f60c083015f83015161413e5f86018261408e565b5060208301516141516020860182613376565b50604083015161416460408601826140aa565b50606083015161417760608601826133c5565b50608083015161418a60808601826133c5565b5060a083015184820360a08601526141a282826140f1565b9150508091505092915050565b5f6020820190508181035f8301526141c78184614129565b905092915050565b7f43616e6e6f74207472616e7366657220746f2073656c660000000000000000005f82015250565b5f6142036017836137c2565b915061420e826141cf565b602082019050919050565b5f6020820190508181035f830152614230816141f7565b9050919050565b7f5361666545524332303a204552433230206f7065726174696f6e20646964206e5f8201527f6f74207375636365656400000000000000000000000000000000000000000000602082015250565b5f614291602a836137c2565b915061429c82614237565b604082019050919050565b5f6020820190508181035f8301526142be81614285565b9050919050565b5f6060820190506142d85f8301866131b3565b6142e56020830185613263565b6142f260408301846131b3565b949350505050565b61430381613230565b82525050565b602082015f82015161431d5f8501826142fa565b50505050565b5f6020820190506143365f830184614309565b92915050565b7f416464726573733a20696e73756666696369656e742062616c616e636520666f5f8201527f722063616c6c0000000000000000000000000000000000000000000000000000602082015250565b5f6143966026836137c2565b91506143a18261433c565b604082019050919050565b5f6020820190508181035f8301526143c38161438a565b9050919050565b5f6143d4826140b9565b6143de81856136bf565b93506143ee8185602086016140d3565b80840191505092915050565b5f61440582846143ca565b915081905092915050565b7f416464726573733a2063616c6c20746f206e6f6e2d636f6e74726163740000005f82015250565b5f614444601d836137c2565b915061444f82614410565b602082019050919050565b5f6020820190508181035f83015261447181614438565b9050919050565b5f81519050919050565b5f61448c82614478565b61449681856137c2565b93506144a68185602086016140d3565b6144af816140e1565b840191505092915050565b5f6020820190508181035f8301526144d28184614482565b90509291505056fea2646970667358221220d31730f64c29eb33857a15efdcc80440f5e7d467c251c97b3d1ccb9112856ba464736f6c634300081c0033","linkReferences":{}},"methodIdentifiers":{"Bankroll()":"d0bcfc0c","LINK_ETH_FEED()":"ad178361","RockPaperScissors_GetState(address)":"cfea2f6f","RockPaperScissors_Play(uint256,address,uint8,uint32,uint256,uint256)":"e18123c2","RockPaperScissors_Refund()":"0f0aa179","VRFFees()":"8d7c16d2","_trustedForwarder()":"56c022bb","acceptOwnership()":"79ba5097","getVRFFee(uint256,uint256)":"baaa3edf","isTrustedForwarder(address)":"572b6c05","owner()":"8da5cb5b","rawFulfillRandomWords(uint256,uint256[])":"1fe543e3","s_vrfCoordinator()":"9eccacf6","setBankroll(address)":"bde8a93e","setCoordinator(address)":"8ea98117","transferFees(address)":"63dc4ef5","transferOwnership(address)":"f2fde38b"},"id":8}