{"abi":[{"type":"constructor","inputs":[],"stateMutability":"nonpayable"},{"type":"fallback","stateMutability":"payable"},{"type":"receive","stateMutability":"payable"},{"type":"function","name":"deposit","inputs":[{"name":"token","type":"address","internalType":"address"},{"name":"amount","type":"uint256","internalType":"uint256"}],"outputs":[],"stateMutability":"nonpayable"},{"type":"function","name":"execute","inputs":[{"name":"to","type":"address","internalType":"address"},{"name":"value","type":"uint256","internalType":"uint256"},{"name":"data","type":"bytes","internalType":"bytes"}],"outputs":[{"name":"","type":"bool","internalType":"bool"},{"name":"","type":"bytes","internalType":"bytes"}],"stateMutability":"nonpayable"},{"type":"function","name":"owner","inputs":[],"outputs":[{"name":"","type":"address","internalType":"address"}],"stateMutability":"view"},{"type":"function","name":"setOwner","inputs":[{"name":"_owner","type":"address","internalType":"address"}],"outputs":[],"stateMutability":"nonpayable"},{"type":"function","name":"withdraw","inputs":[{"name":"recipient","type":"address","internalType":"address"},{"name":"token","type":"address","internalType":"address"}],"outputs":[],"stateMutability":"nonpayable"},{"type":"event","name":"TreasuryDeposit","inputs":[{"name":"sender","type":"address","indexed":false,"internalType":"address"},{"name":"token","type":"address","indexed":false,"internalType":"address"},{"name":"amount","type":"uint256","indexed":false,"internalType":"uint256"}],"anonymous":false},{"type":"event","name":"TreasuryWithdrawal","inputs":[{"name":"sender","type":"address","indexed":false,"internalType":"address"},{"name":"recipient","type":"address","indexed":false,"internalType":"address"},{"name":"token","type":"address","indexed":false,"internalType":"address"},{"name":"amount","type":"uint256","indexed":false,"internalType":"uint256"}],"anonymous":false}],"bytecode":{"object":"0x6080604052348015600e575f5ffd5b50335f5f6101000a81548173ffffffffffffffffffffffffffffffffffffffff021916908373ffffffffffffffffffffffffffffffffffffffff160217905550610f708061005b5f395ff3fe60806040526004361061004d575f3560e01c806313af4035146100cc57806347e7ef24146100f45780638da5cb5b1461011c578063b61d27f614610146578063f940e385146101835761008f565b3661008f577fadbe1a506a5a9644363d823510f95d3c146dbfae583d2503c358df5c2b188c61335f34604051610085939291906107ee565b60405180910390a1005b7fadbe1a506a5a9644363d823510f95d3c146dbfae583d2503c358df5c2b188c61335f346040516100c2939291906107ee565b60405180910390a1005b3480156100d7575f5ffd5b506100f260048036038101906100ed9190610855565b6101ab565b005b3480156100ff575f5ffd5b5061011a600480360381019061011591906108aa565b610263565b005b348015610127575f5ffd5b50610130610363565b60405161013d91906108e8565b60405180910390f35b348015610151575f5ffd5b5061016c60048036038101906101679190610962565b610387565b60405161017a929190610a5d565b60405180910390f35b34801561018e575f5ffd5b506101a960048036038101906101a49190610a8b565b610411565b005b6101b3610707565b5f73ffffffffffffffffffffffffffffffffffffffff168173ffffffffffffffffffffffffffffffffffffffff1603610221576040517f08c379a000000000000000000000000000000000000000000000000000000000815260040161021890610b23565b60405180910390fd5b805f5f6101000a81548173ffffffffffffffffffffffffffffffffffffffff021916908373ffffffffffffffffffffffffffffffffffffffff16021790555050565b5f8273ffffffffffffffffffffffffffffffffffffffff166323b872dd3330856040518463ffffffff1660e01b81526004016102a1939291906107ee565b6020604051808303815f875af11580156102bd573d5f5f3e3d5ffd5b505050506040513d601f19601f820116820180604052508101906102e19190610b6b565b905080610323576040517f08c379a000000000000000000000000000000000000000000000000000000000815260040161031a90610be0565b60405180910390fd5b7fadbe1a506a5a9644363d823510f95d3c146dbfae583d2503c358df5c2b188c61338484604051610356939291906107ee565b60405180910390a1505050565b5f5f9054906101000a900473ffffffffffffffffffffffffffffffffffffffff1681565b5f6060610392610707565b5f5f8773ffffffffffffffffffffffffffffffffffffffff168787876040516103bc929190610c3a565b5f6040518083038185875af1925050503d805f81146103f6576040519150601f19603f3d011682016040523d82523d5f602084013e6103fb565b606091505b5091509150818193509350505094509492505050565b610419610707565b5f5f90505f73ffffffffffffffffffffffffffffffffffffffff168273ffffffffffffffffffffffffffffffffffffffff160361054957479050655af3107a4000811161049b576040517f08c379a000000000000000000000000000000000000000000000000000000000815260040161049290610c9c565b60405180910390fd5b5f8373ffffffffffffffffffffffffffffffffffffffff16826040516104c090610cdd565b5f6040518083038185875af1925050503d805f81146104fa576040519150601f19603f3d011682016040523d82523d5f602084013e6104ff565b606091505b5050905080610543576040517f08c379a000000000000000000000000000000000000000000000000000000000815260040161053a90610d3b565b60405180910390fd5b506106c5565b8173ffffffffffffffffffffffffffffffffffffffff166370a08231306040518263ffffffff1660e01b815260040161058291906108e8565b602060405180830381865afa15801561059d573d5f5f3e3d5ffd5b505050506040513d601f19601f820116820180604052508101906105c19190610d6d565b90505f8111610605576040517f08c379a00000000000000000000000000000000000000000000000000000000081526004016105fc90610de2565b60405180910390fd5b5f8273ffffffffffffffffffffffffffffffffffffffff1663a9059cbb85846040518363ffffffff1660e01b8152600401610641929190610e00565b6020604051808303815f875af115801561065d573d5f5f3e3d5ffd5b505050506040513d601f19601f820116820180604052508101906106819190610b6b565b9050806106c3576040517f08c379a00000000000000000000000000000000000000000000000000000000081526004016106ba90610e71565b60405180910390fd5b505b7fab98dd4f905387d8373b0b8437282fd3d27733f4f26e1b44b1af4608b3057c38338484846040516106fa9493929190610e8f565b60405180910390a1505050565b5f5f9054906101000a900473ffffffffffffffffffffffffffffffffffffffff1673ffffffffffffffffffffffffffffffffffffffff163373ffffffffffffffffffffffffffffffffffffffff1614610795576040517f08c379a000000000000000000000000000000000000000000000000000000000815260040161078c90610f1c565b60405180910390fd5b565b5f73ffffffffffffffffffffffffffffffffffffffff82169050919050565b5f6107c082610797565b9050919050565b6107d0816107b6565b82525050565b5f819050919050565b6107e8816107d6565b82525050565b5f6060820190506108015f8301866107c7565b61080e60208301856107c7565b61081b60408301846107df565b949350505050565b5f5ffd5b5f5ffd5b610834816107b6565b811461083e575f5ffd5b50565b5f8135905061084f8161082b565b92915050565b5f6020828403121561086a57610869610823565b5b5f61087784828501610841565b91505092915050565b610889816107d6565b8114610893575f5ffd5b50565b5f813590506108a481610880565b92915050565b5f5f604083850312156108c0576108bf610823565b5b5f6108cd85828601610841565b92505060206108de85828601610896565b9150509250929050565b5f6020820190506108fb5f8301846107c7565b92915050565b5f5ffd5b5f5ffd5b5f5ffd5b5f5f83601f84011261092257610921610901565b5b8235905067ffffffffffffffff81111561093f5761093e610905565b5b60208301915083600182028301111561095b5761095a610909565b5b9250929050565b5f5f5f5f6060858703121561097a57610979610823565b5b5f61098787828801610841565b945050602061099887828801610896565b935050604085013567ffffffffffffffff8111156109b9576109b8610827565b5b6109c58782880161090d565b925092505092959194509250565b5f8115159050919050565b6109e7816109d3565b82525050565b5f81519050919050565b5f82825260208201905092915050565b8281835e5f83830152505050565b5f601f19601f8301169050919050565b5f610a2f826109ed565b610a3981856109f7565b9350610a49818560208601610a07565b610a5281610a15565b840191505092915050565b5f604082019050610a705f8301856109de565b8181036020830152610a828184610a25565b90509392505050565b5f5f60408385031215610aa157610aa0610823565b5b5f610aae85828601610841565b9250506020610abf85828601610841565b9150509250929050565b5f82825260208201905092915050565b7f43616e206e6f742073657420746f207a65726f206164647265737300000000005f82015250565b5f610b0d601b83610ac9565b9150610b1882610ad9565b602082019050919050565b5f6020820190508181035f830152610b3a81610b01565b9050919050565b610b4a816109d3565b8114610b54575f5ffd5b50565b5f81519050610b6581610b41565b92915050565b5f60208284031215610b8057610b7f610823565b5b5f610b8d84828501610b57565b91505092915050565b7f4945524332303a205472616e73666572206661696c65642e00000000000000005f82015250565b5f610bca601883610ac9565b9150610bd582610b96565b602082019050919050565b5f6020820190508181035f830152610bf781610bbe565b9050919050565b5f81905092915050565b828183375f83830152505050565b5f610c218385610bfe565b9350610c2e838584610c08565b82840190509392505050565b5f610c46828486610c16565b91508190509392505050565b7f4e6f7420656e6f756768206e617469766520746f6b656e7300000000000000005f82015250565b5f610c86601883610ac9565b9150610c9182610c52565b602082019050919050565b5f6020820190508181035f830152610cb381610c7a565b9050919050565b50565b5f610cc85f83610bfe565b9150610cd382610cba565b5f82019050919050565b5f610ce782610cbd565b9150819050919050565b7f4661696c656420746f207472616e7366657220455448000000000000000000005f82015250565b5f610d25601683610ac9565b9150610d3082610cf1565b602082019050919050565b5f6020820190508181035f830152610d5281610d19565b9050919050565b5f81519050610d6781610880565b92915050565b5f60208284031215610d8257610d81610823565b5b5f610d8f84828501610d59565b91505092915050565b7f4e6f7420656e6f756768206665657320616372756564000000000000000000005f82015250565b5f610dcc601683610ac9565b9150610dd782610d98565b602082019050919050565b5f6020820190508181035f830152610df981610dc0565b9050919050565b5f604082019050610e135f8301856107c7565b610e2060208301846107df565b9392505050565b7f4661696c656420746f207472616e7366657220455243323020746f6b656e73005f82015250565b5f610e5b601f83610ac9565b9150610e6682610e27565b602082019050919050565b5f6020820190508181035f830152610e8881610e4f565b9050919050565b5f608082019050610ea25f8301876107c7565b610eaf60208301866107c7565b610ebc60408301856107c7565b610ec960608301846107df565b95945050505050565b7f4e6f7420616e206f776e657200000000000000000000000000000000000000005f82015250565b5f610f06600c83610ac9565b9150610f1182610ed2565b602082019050919050565b5f6020820190508181035f830152610f3381610efa565b905091905056fea264697066735822122005ae36b2545001e1db3ee2796b4b6eaea572079f222cfa25419f3717133014f364736f6c634300081c0033","linkReferences":{}},"methodIdentifiers":{"deposit(address,uint256)":"47e7ef24","execute(address,uint256,bytes)":"b61d27f6","owner()":"8da5cb5b","setOwner(address)":"13af4035","withdraw(address,address)":"f940e385"},"id":2}