{"abi":[{"type":"constructor","inputs":[{"name":"_treasury","type":"address","internalType":"address"},{"name":"_registry","type":"address","internalType":"address"},{"name":"_factory","type":"address","internalType":"address"}],"stateMutability":"nonpayable"},{"type":"receive","stateMutability":"payable"},{"type":"function","name":"addPlayerReward","inputs":[{"name":"player","type":"address","internalType":"address"},{"name":"amount","type":"uint256","internalType":"uint256"}],"outputs":[],"stateMutability":"nonpayable"},{"type":"function","name":"claimRewards","inputs":[],"outputs":[],"stateMutability":"nonpayable"},{"type":"function","name":"creatorFeeBps","inputs":[{"name":"","type":"address","internalType":"address"}],"outputs":[{"name":"","type":"uint256","internalType":"uint256"}],"stateMutability":"view"},{"type":"function","name":"deposit","inputs":[{"name":"token","type":"address","internalType":"address"},{"name":"amount","type":"uint256","internalType":"uint256"}],"outputs":[],"stateMutability":"nonpayable"},{"type":"function","name":"depositEther","inputs":[],"outputs":[],"stateMutability":"payable"},{"type":"function","name":"execute","inputs":[{"name":"to","type":"address","internalType":"address"},{"name":"value","type":"uint256","internalType":"uint256"},{"name":"data","type":"bytes","internalType":"bytes"}],"outputs":[{"name":"","type":"bool","internalType":"bool"},{"name":"","type":"bytes","internalType":"bytes"}],"stateMutability":"nonpayable"},{"type":"function","name":"factory","inputs":[],"outputs":[{"name":"","type":"address","internalType":"contract GameFactory"}],"stateMutability":"view"},{"type":"function","name":"fees","inputs":[{"name":"","type":"address","internalType":"address"}],"outputs":[{"name":"","type":"uint256","internalType":"uint256"}],"stateMutability":"view"},{"type":"function","name":"fundBankroll","inputs":[{"name":"token","type":"address","internalType":"address"},{"name":"amount","type":"uint256","internalType":"uint256"}],"outputs":[],"stateMutability":"nonpayable"},{"type":"function","name":"gameCreator","inputs":[{"name":"","type":"address","internalType":"address"}],"outputs":[{"name":"","type":"address","internalType":"address"}],"stateMutability":"view"},{"type":"function","name":"getAvailableBalance","inputs":[{"name":"token","type":"address","internalType":"address"}],"outputs":[{"name":"","type":"uint256","internalType":"uint256"}],"stateMutability":"view"},{"type":"function","name":"getIsGame","inputs":[{"name":"game","type":"address","internalType":"address"}],"outputs":[{"name":"","type":"bool","internalType":"bool"}],"stateMutability":"view"},{"type":"function","name":"getIsValidWager","inputs":[{"name":"game","type":"address","internalType":"address"},{"name":"tokenAddress","type":"address","internalType":"address"}],"outputs":[{"name":"","type":"bool","internalType":"bool"}],"stateMutability":"view"},{"type":"function","name":"getIsValidWagerWithReserve","inputs":[{"name":"game","type":"address","internalType":"address"},{"name":"tokenAddress","type":"address","internalType":"address"},{"name":"maxPayout","type":"uint256","internalType":"uint256"}],"outputs":[{"name":"","type":"bool","internalType":"bool"}],"stateMutability":"view"},{"type":"function","name":"getOwner","inputs":[],"outputs":[{"name":"","type":"address","internalType":"address"}],"stateMutability":"view"},{"type":"function","name":"getPlayerReward","inputs":[],"outputs":[{"name":"","type":"uint256","internalType":"uint256"}],"stateMutability":"view"},{"type":"function","name":"getPlayerRewards","inputs":[],"outputs":[{"name":"","type":"uint256","internalType":"uint256"}],"stateMutability":"view"},{"type":"function","name":"getRegistry","inputs":[],"outputs":[{"name":"","type":"address","internalType":"address"}],"stateMutability":"view"},{"type":"function","name":"increaseSuspensionTime","inputs":[{"name":"suspensionTime","type":"uint256","internalType":"uint256"}],"outputs":[],"stateMutability":"nonpayable"},{"type":"function","name":"isActiveBankroll","inputs":[],"outputs":[{"name":"","type":"bool","internalType":"bool"}],"stateMutability":"view"},{"type":"function","name":"isPlayerSuspended","inputs":[{"name":"player","type":"address","internalType":"address"}],"outputs":[{"name":"","type":"bool","internalType":"bool"},{"name":"","type":"uint256","internalType":"uint256"}],"stateMutability":"view"},{"type":"function","name":"liftSuspension","inputs":[],"outputs":[],"stateMutability":"nonpayable"},{"type":"function","name":"minRewardPayout","inputs":[],"outputs":[{"name":"","type":"uint256","internalType":"uint256"}],"stateMutability":"view"},{"type":"function","name":"owner","inputs":[],"outputs":[{"name":"","type":"address","internalType":"address"}],"stateMutability":"view"},{"type":"function","name":"permantlyBan","inputs":[],"outputs":[],"stateMutability":"nonpayable"},{"type":"function","name":"playReward","inputs":[],"outputs":[{"name":"","type":"uint256","internalType":"uint256"}],"stateMutability":"view"},{"type":"function","name":"playRewardToken","inputs":[],"outputs":[{"name":"","type":"address","internalType":"address"}],"stateMutability":"view"},{"type":"function","name":"playRewards","inputs":[{"name":"","type":"address","internalType":"address"}],"outputs":[{"name":"","type":"uint256","internalType":"uint256"}],"stateMutability":"view"},{"type":"function","name":"registry","inputs":[],"outputs":[{"name":"","type":"address","internalType":"address"}],"stateMutability":"view"},{"type":"function","name":"releaseFunds","inputs":[{"name":"token","type":"address","internalType":"address"},{"name":"amount","type":"uint256","internalType":"uint256"}],"outputs":[],"stateMutability":"nonpayable"},{"type":"function","name":"reserveFunds","inputs":[{"name":"token","type":"address","internalType":"address"},{"name":"amount","type":"uint256","internalType":"uint256"}],"outputs":[],"stateMutability":"nonpayable"},{"type":"function","name":"reservedFunds","inputs":[{"name":"","type":"address","internalType":"address"}],"outputs":[{"name":"","type":"uint256","internalType":"uint256"}],"stateMutability":"view"},{"type":"function","name":"setGame","inputs":[{"name":"game","type":"address","internalType":"address"},{"name":"isValid","type":"bool","internalType":"bool"}],"outputs":[],"stateMutability":"nonpayable"},{"type":"function","name":"setGameCreator","inputs":[{"name":"game","type":"address","internalType":"address"},{"name":"creator","type":"address","internalType":"address"},{"name":"feeBps","type":"uint256","internalType":"uint256"}],"outputs":[],"stateMutability":"nonpayable"},{"type":"function","name":"setOwner","inputs":[{"name":"_owner","type":"address","internalType":"address"}],"outputs":[],"stateMutability":"nonpayable"},{"type":"function","name":"setPlayRewardToken","inputs":[{"name":"_token","type":"address","internalType":"address"}],"outputs":[],"stateMutability":"nonpayable"},{"type":"function","name":"setRewardMultiplier","inputs":[{"name":"_reward","type":"uint256","internalType":"uint256"}],"outputs":[],"stateMutability":"nonpayable"},{"type":"function","name":"setTokenAddress","inputs":[{"name":"tokenAddress","type":"address","internalType":"address"},{"name":"isValid","type":"bool","internalType":"bool"}],"outputs":[],"stateMutability":"nonpayable"},{"type":"function","name":"setTreasury","inputs":[{"name":"_treasury","type":"address","internalType":"address"}],"outputs":[],"stateMutability":"nonpayable"},{"type":"function","name":"setWrappedAddress","inputs":[{"name":"wrapped","type":"address","internalType":"address"}],"outputs":[],"stateMutability":"nonpayable"},{"type":"function","name":"suspend","inputs":[{"name":"suspensionTime","type":"uint256","internalType":"uint256"}],"outputs":[],"stateMutability":"nonpayable"},{"type":"function","name":"transferPayout","inputs":[{"name":"player","type":"address","internalType":"address"},{"name":"payout","type":"uint256","internalType":"uint256"},{"name":"tokenAddress","type":"address","internalType":"address"}],"outputs":[],"stateMutability":"nonpayable"},{"type":"function","name":"treasury","inputs":[],"outputs":[{"name":"","type":"address","internalType":"contract Treasury"}],"stateMutability":"view"},{"type":"event","name":"BankRoll_Game_State_Changed","inputs":[{"name":"gameAddress","type":"address","indexed":false,"internalType":"address"},{"name":"isValid","type":"bool","indexed":false,"internalType":"bool"}],"anonymous":false},{"type":"event","name":"BankRoll_Max_Payout_Changed","inputs":[{"name":"payout","type":"uint256","indexed":false,"internalType":"uint256"}],"anonymous":false},{"type":"event","name":"Bankroll_Payout_Transferred","inputs":[{"name":"gameAddress","type":"address","indexed":false,"internalType":"address"},{"name":"playerAddress","type":"address","indexed":false,"internalType":"address"},{"name":"payout","type":"uint256","indexed":false,"internalType":"uint256"}],"anonymous":false},{"type":"event","name":"Bankroll_Player_Rewards_Claimed","inputs":[{"name":"playerAddress","type":"address","indexed":false,"internalType":"address"},{"name":"claimedAmount","type":"uint256","indexed":false,"internalType":"uint256"}],"anonymous":false},{"type":"event","name":"Bankroll_Player_Rewards_Earned","inputs":[{"name":"playerAddress","type":"address","indexed":false,"internalType":"address"},{"name":"rewardedAmount","type":"uint256","indexed":false,"internalType":"uint256"}],"anonymous":false},{"type":"event","name":"Bankroll_Player_Rewards_Multiplier_Updated","inputs":[{"name":"percentage","type":"uint256","indexed":false,"internalType":"uint256"}],"anonymous":false},{"type":"event","name":"Bankroll_Player_Suspended","inputs":[{"name":"playerAddress","type":"address","indexed":false,"internalType":"address"},{"name":"suspensionTime","type":"uint256","indexed":false,"internalType":"uint256"},{"name":"isSuspended","type":"bool","indexed":false,"internalType":"bool"}],"anonymous":false},{"type":"event","name":"Bankroll_Received_Liquidity","inputs":[{"name":"tokenAddress","type":"address","indexed":true,"internalType":"address"},{"name":"amount","type":"uint256","indexed":false,"internalType":"uint256"}],"anonymous":false},{"type":"event","name":"Bankroll_Received_Player_Deposit","inputs":[{"name":"tokenAddress","type":"address","indexed":true,"internalType":"address"},{"name":"amount","type":"uint256","indexed":false,"internalType":"uint256"}],"anonymous":false},{"type":"event","name":"Bankroll_Token_State_Changed","inputs":[{"name":"tokenAddress","type":"address","indexed":false,"internalType":"address"},{"name":"isValid","type":"bool","indexed":false,"internalType":"bool"}],"anonymous":false},{"type":"event","name":"Bankroll_Treasury_Deposit","inputs":[{"name":"tokenAddress","type":"address","indexed":true,"internalType":"address"},{"name":"amount","type":"uint256","indexed":false,"internalType":"uint256"}],"anonymous":false},{"type":"event","name":"CreatorFeePaid","inputs":[{"name":"game","type":"address","indexed":true,"internalType":"address"},{"name":"creator","type":"address","indexed":true,"internalType":"address"},{"name":"amount","type":"uint256","indexed":false,"internalType":"uint256"},{"name":"token","type":"address","indexed":false,"internalType":"address"}],"anonymous":false},{"type":"error","name":"AlreadySuspended","inputs":[{"name":"suspensionTime","type":"uint256","internalType":"uint256"}]},{"type":"error","name":"InvalidGameAddress","inputs":[]},{"type":"error","name":"TimeRemaingOnSuspension","inputs":[{"name":"suspensionTime","type":"uint256","internalType":"uint256"}]},{"type":"error","name":"TransferFailed","inputs":[]}],"bytecode":{"object":"0x608060405273d9bdd5f7fa4b52a2f583864a3934dc7233af2d09600b5f6101000a81548173ffffffffffffffffffffffffffffffffffffffff021916908373ffffffffffffffffffffffffffffffffffffffff160217905550678ac7230489e80000600c5561012c600d55348015610075575f5ffd5b5060405161430d38038061430d833981810160405281019061009791906101fc565b335f5f6101000a81548173ffffffffffffffffffffffffffffffffffffffff021916908373ffffffffffffffffffffffffffffffffffffffff1602179055508260095f6101000a81548173ffffffffffffffffffffffffffffffffffffffff021916908373ffffffffffffffffffffffffffffffffffffffff1602179055508160015f6101000a81548173ffffffffffffffffffffffffffffffffffffffff021916908373ffffffffffffffffffffffffffffffffffffffff16021790555080600a5f6101000a81548173ffffffffffffffffffffffffffffffffffffffff021916908373ffffffffffffffffffffffffffffffffffffffff16021790555050505061024c565b5f5ffd5b5f73ffffffffffffffffffffffffffffffffffffffff82169050919050565b5f6101cb826101a2565b9050919050565b6101db816101c1565b81146101e5575f5ffd5b50565b5f815190506101f6816101d2565b92915050565b5f5f5f606084860312156102135761021261019e565b5b5f610220868287016101e8565b9350506020610231868287016101e8565b9250506040610242868287016101e8565b9150509250925092565b6140b4806102595f395ff3fe60806040526004361061025f575f3560e01c80637beeb6d311610143578063b0e27f74116100b5578063d3ca2ea511610079578063d3ca2ea51461091c578063d6e982e514610946578063d770a58d1461096e578063f0f4426014610998578063f59b7f71146109c0578063faaebd21146109d6576102b4565b8063b0e27f7414610827578063b61d27f61461084f578063bfa01a5b1461088c578063bfd7f9cc146108b6578063c45a0155146108f2576102b4565b8063906b14ac11610107578063906b14ac1461072b57806398ea5fca14610753578063aa3cf18f1461075d578063aebea44214610799578063b0836e2e146107c3578063b08bb871146107eb576102b4565b80637beeb6d3146106495780637f7cb63a146106855780638177334f146106af578063893d20e8146106d75780638da5cb5b14610701576102b4565b80633d9f0e52116101dc5780635ab1bd53116101a05780635ab1bd531461052b57806361d027b3146105555780636c025ec21461057f5780636c24a76f146105a757806371b90d58146105e35780637b1039991461061f576102b4565b80633d9f0e521461047557806347e7ef241461048b5780634b865846146104b3578063509cac54146104db578063596766ff14610503576102b4565b806314135ce01161022357806314135ce014610397578063298729d8146103d35780632a0b5e9e1461040f5780632b7a0fd914610437578063372500ab1461045f576102b4565b806306389537146102b85780630a5748a8146102e05780630bd075a11461031d578063133d199a1461034557806313af40351461036f576102b4565b366102b4575f73ffffffffffffffffffffffffffffffffffffffff167f3c36b48cfb161a7c599cd559fc4ad5c62ed3312b3b79552ec9b15a8b8c102729346040516102aa9190613053565b60405180910390a2005b5f5ffd5b3480156102c3575f5ffd5b506102de60048036038101906102d99190613101565b610a12565b005b3480156102eb575f5ffd5b506103066004803603810190610301919061313f565b610ac1565b604051610314929190613184565b60405180910390f35b348015610328575f5ffd5b50610343600480360381019061033e91906131ab565b610b66565b005b348015610350575f5ffd5b50610359610baf565b6040516103669190613053565b60405180910390f35b34801561037a575f5ffd5b506103956004803603810190610390919061313f565b610bb8565b005b3480156103a2575f5ffd5b506103bd60048036038101906103b8919061313f565b610c02565b6040516103ca9190613053565b60405180910390f35b3480156103de575f5ffd5b506103f960048036038101906103f4919061313f565b610c17565b60405161040691906131d6565b60405180910390f35b34801561041a575f5ffd5b5061043560048036038101906104309190613219565b610c71565b005b348015610442575f5ffd5b5061045d60048036038101906104589190613101565b610d13565b005b34801561046a575f5ffd5b50610473610e94565b005b348015610480575f5ffd5b506104896110fe565b005b348015610496575f5ffd5b506104b160048036038101906104ac9190613101565b6112af565b005b3480156104be575f5ffd5b506104d960048036038101906104d491906131ab565b6118e9565b005b3480156104e6575f5ffd5b5061050160048036038101906104fc919061313f565b611af3565b005b34801561050e575f5ffd5b5061052960048036038101906105249190613257565b611b47565b005b348015610536575f5ffd5b5061053f611c56565b60405161054c91906132b6565b60405180910390f35b348015610560575f5ffd5b50610569611c7e565b604051610576919061332a565b60405180910390f35b34801561058a575f5ffd5b506105a560048036038101906105a09190613343565b611ca3565b005b3480156105b2575f5ffd5b506105cd60048036038101906105c8919061313f565b6120e0565b6040516105da9190613053565b60405180910390f35b3480156105ee575f5ffd5b5061060960048036038101906106049190613257565b6121fc565b60405161061691906131d6565b60405180910390f35b34801561062a575f5ffd5b506106336122d5565b60405161064091906132b6565b60405180910390f35b348015610654575f5ffd5b5061066f600480360381019061066a919061313f565b6122fa565b60405161067c9190613053565b60405180910390f35b348015610690575f5ffd5b5061069961230f565b6040516106a69190613053565b60405180910390f35b3480156106ba575f5ffd5b506106d560048036038101906106d091906131ab565b612353565b005b3480156106e2575f5ffd5b506106eb612492565b6040516106f891906132b6565b60405180910390f35b34801561070c575f5ffd5b506107156124b9565b60405161072291906132b6565b60405180910390f35b348015610736575f5ffd5b50610751600480360381019061074c919061313f565b6124dd565b005b61075b612528565b005b348015610768575f5ffd5b50610783600480360381019061077e919061313f565b612715565b60405161079091906132b6565b60405180910390f35b3480156107a4575f5ffd5b506107ad612745565b6040516107ba91906131d6565b60405180910390f35b3480156107ce575f5ffd5b506107e960048036038101906107e49190613219565b612874565b005b3480156107f6575f5ffd5b50610811600480360381019061080c919061313f565b612915565b60405161081e9190613053565b60405180910390f35b348015610832575f5ffd5b5061084d60048036038101906108489190613101565b61292a565b005b34801561085a575f5ffd5b50610875600480360381019061087091906133f4565b6129c2565b6040516108839291906134d5565b60405180910390f35b348015610897575f5ffd5b506108a0612a4c565b6040516108ad9190613053565b60405180910390f35b3480156108c1575f5ffd5b506108dc60048036038101906108d79190613503565b612a52565b6040516108e991906131d6565b60405180910390f35b3480156108fd575f5ffd5b50610906612b1b565b6040516109139190613572565b60405180910390f35b348015610927575f5ffd5b50610930612b40565b60405161093d9190613053565b60405180910390f35b348015610951575f5ffd5b5061096c60048036038101906109679190613101565b612b46565b005b348015610979575f5ffd5b50610982612c25565b60405161098f91906132b6565b60405180910390f35b3480156109a3575f5ffd5b506109be60048036038101906109b9919061313f565b612c4a565b005b3480156109cb575f5ffd5b506109d4612c95565b005b3480156109e1575f5ffd5b506109fc60048036038101906109f7919061313f565b612de2565b604051610a099190613053565b60405180910390f35b610a1a612df7565b5f610a24836120e0565b905081811015610a69576040517f08c379a0000000000000000000000000000000000000000000000000000000008152600401610a609061360b565b60405180910390fd5b8160065f8573ffffffffffffffffffffffffffffffffffffffff1673ffffffffffffffffffffffffffffffffffffffff1681526020019081526020015f205f828254610ab59190613656565b92505081905550505050565b5f5f610acb612e8a565b6005015f8473ffffffffffffffffffffffffffffffffffffffff1673ffffffffffffffffffffffffffffffffffffffff1681526020019081526020015f205f9054906101000a900460ff16610b1e612e8a565b6004015f8573ffffffffffffffffffffffffffffffffffffffff1673ffffffffffffffffffffffffffffffffffffffff1681526020019081526020015f205491509150915091565b610b6e612e98565b80600d819055507f13e3d3d66db40a9288af7fdf86538a27d72a90a14b0fe05d456ae06b8332634781604051610ba49190613053565b60405180910390a150565b5f600d54905090565b610bc0612e98565b805f5f6101000a81548173ffffffffffffffffffffffffffffffffffffffff021916908373ffffffffffffffffffffffffffffffffffffffff16021790555050565b6006602052805f5260405f205f915090505481565b5f610c20612e8a565b5f015f8373ffffffffffffffffffffffffffffffffffffffff1673ffffffffffffffffffffffffffffffffffffffff1681526020019081526020015f205f9054906101000a900460ff169050919050565b610c79612e98565b80610c82612e8a565b6001015f8473ffffffffffffffffffffffffffffffffffffffff1673ffffffffffffffffffffffffffffffffffffffff1681526020019081526020015f205f6101000a81548160ff0219169083151502179055507fd371cc87ec694236589d1bdc930c8276a4335e3b49a288dc5ee58da7f094d7a88282604051610d07929190613689565b60405180910390a15050565b5f73ffffffffffffffffffffffffffffffffffffffff168273ffffffffffffffffffffffffffffffffffffffff1603610d81576040517f08c379a0000000000000000000000000000000000000000000000000000000008152600401610d78906136fa565b60405180910390fd5b5f8273ffffffffffffffffffffffffffffffffffffffff166323b872dd3330856040518463ffffffff1660e01b8152600401610dbf93929190613718565b6020604051808303815f875af1158015610ddb573d5f5f3e3d5ffd5b505050506040513d601f19601f82011682018060405250810190610dff9190613761565b905080610e41576040517f08c379a0000000000000000000000000000000000000000000000000000000008152600401610e38906137d6565b60405180910390fd5b8273ffffffffffffffffffffffffffffffffffffffff167f3c36b48cfb161a7c599cd559fc4ad5c62ed3312b3b79552ec9b15a8b8c10272983604051610e879190613053565b60405180910390a2505050565b5f60045f3373ffffffffffffffffffffffffffffffffffffffff1673ffffffffffffffffffffffffffffffffffffffff1681526020019081526020015f20549050600c548111610f19576040517f08c379a0000000000000000000000000000000000000000000000000000000008152600401610f109061383e565b60405180910390fd5b5f60045f3373ffffffffffffffffffffffffffffffffffffffff1673ffffffffffffffffffffffffffffffffffffffff1681526020019081526020015f2081905550600b5f9054906101000a900473ffffffffffffffffffffffffffffffffffffffff1673ffffffffffffffffffffffffffffffffffffffff1663a0712d68826040518263ffffffff1660e01b8152600401610fb59190613053565b5f604051808303815f87803b158015610fcc575f5ffd5b505af1158015610fde573d5f5f3e3d5ffd5b505050505f600b5f9054906101000a900473ffffffffffffffffffffffffffffffffffffffff1673ffffffffffffffffffffffffffffffffffffffff1663a9059cbb33846040518363ffffffff1660e01b815260040161103f92919061385c565b6020604051808303815f875af115801561105b573d5f5f3e3d5ffd5b505050506040513d601f19601f8201168201806040525081019061107f9190613761565b9050806110c1576040517f08c379a00000000000000000000000000000000000000000000000000000000081526004016110b8906138cd565b60405180910390fd5b7ff0024d2a098d59d752063013dc1661ededfddf2defd20b51c29113fd07b7c6cd33836040516110f292919061385c565b60405180910390a15050565b42611107612e8a565b6004015f3373ffffffffffffffffffffffffffffffffffffffff1673ffffffffffffffffffffffffffffffffffffffff1681526020019081526020015f205411156111cf57611154612e8a565b6004015f3373ffffffffffffffffffffffffffffffffffffffff1673ffffffffffffffffffffffffffffffffffffffff1681526020019081526020015f20546040517f5d60b9ed0000000000000000000000000000000000000000000000000000000081526004016111c69190613053565b60405180910390fd5b5f6111d8612e8a565b6005015f3373ffffffffffffffffffffffffffffffffffffffff1673ffffffffffffffffffffffffffffffffffffffff1681526020019081526020015f205f6101000a81548160ff0219169083151502179055507f1999d1d326b344e9f33c9a1305a30930cfe24ad351a8ce69e616abc21682f3c833611256612e8a565b6004015f3373ffffffffffffffffffffffffffffffffffffffff1673ffffffffffffffffffffffffffffffffffffffff1681526020019081526020015f20545f6040516112a5939291906138eb565b60405180910390a1565b5f60646062836112bf9190613920565b6112c9919061398e565b90505f81836112d891906139be565b90508060055f8673ffffffffffffffffffffffffffffffffffffffff1673ffffffffffffffffffffffffffffffffffffffff1681526020019081526020015f205f8282546113269190613656565b925050819055505f8473ffffffffffffffffffffffffffffffffffffffff166323b872dd3330876040518463ffffffff1660e01b815260040161136b93929190613718565b6020604051808303815f875af1158015611387573d5f5f3e3d5ffd5b505050506040513d601f19601f820116820180604052508101906113ab9190613761565b9050806113ed576040517f08c379a00000000000000000000000000000000000000000000000000000000081526004016113e4906138cd565b60405180910390fd5b5f3390505f5f90505f60085f8473ffffffffffffffffffffffffffffffffffffffff1673ffffffffffffffffffffffffffffffffffffffff1681526020019081526020015f205f9054906101000a900473ffffffffffffffffffffffffffffffffffffffff1690505f60075f8573ffffffffffffffffffffffffffffffffffffffff1673ffffffffffffffffffffffffffffffffffffffff1681526020019081526020015f205490505f73ffffffffffffffffffffffffffffffffffffffff168273ffffffffffffffffffffffffffffffffffffffff16141580156114d157505f81115b1561169c5761271081876114e59190613920565b6114ef919061398e565b92505f83111561169b575f73ffffffffffffffffffffffffffffffffffffffff168973ffffffffffffffffffffffffffffffffffffffff16036115da575f8273ffffffffffffffffffffffffffffffffffffffff168460405161155190613a1e565b5f6040518083038185875af1925050503d805f811461158b576040519150601f19603f3d011682016040523d82523d5f602084013e611590565b606091505b50509050806115d4576040517f08c379a00000000000000000000000000000000000000000000000000000000081526004016115cb90613a7c565b60405180910390fd5b5061169a565b5f8973ffffffffffffffffffffffffffffffffffffffff1663a9059cbb84866040518363ffffffff1660e01b815260040161161692919061385c565b6020604051808303815f875af1158015611632573d5f5f3e3d5ffd5b505050506040513d601f19601f820116820180604052508101906116569190613761565b905080611698576040517f08c379a000000000000000000000000000000000000000000000000000000000815260040161168f90613ae4565b60405180910390fd5b505b5b5b5f83876116a991906139be565b90508973ffffffffffffffffffffffffffffffffffffffff1663095ea7b360095f9054906101000a900473ffffffffffffffffffffffffffffffffffffffff16836040518363ffffffff1660e01b815260040161170792919061385c565b6020604051808303815f875af1158015611723573d5f5f3e3d5ffd5b505050506040513d601f19601f820116820180604052508101906117479190613761565b5060095f9054906101000a900473ffffffffffffffffffffffffffffffffffffffff1673ffffffffffffffffffffffffffffffffffffffff166347e7ef248b836040518363ffffffff1660e01b81526004016117a492919061385c565b5f604051808303815f87803b1580156117bb575f5ffd5b505af11580156117cd573d5f5f3e3d5ffd5b505050508973ffffffffffffffffffffffffffffffffffffffff167f59a585ce31f33718c7fde58f79ecc899708739e830f9df536355d742fbf78fed896040516118179190613053565b60405180910390a28973ffffffffffffffffffffffffffffffffffffffff167f98d1a44edf4cf655d3b06ecdb6388bc02f076a9b2b9e591c17cbb9461c93aa8d826040516118659190613053565b60405180910390a25f8411156118dd578273ffffffffffffffffffffffffffffffffffffffff168573ffffffffffffffffffffffffffffffffffffffff167f7f70757b9cb4fc17983ed6d36348b05813693d947a65c4f138558534326d52fe868d6040516118d4929190613b02565b60405180910390a35b50505050505050505050565b426118f2612e8a565b6004015f3373ffffffffffffffffffffffffffffffffffffffff1673ffffffffffffffffffffffffffffffffffffffff1681526020019081526020015f205411156119ba5761193f612e8a565b6004015f3373ffffffffffffffffffffffffffffffffffffffff1673ffffffffffffffffffffffffffffffffffffffff1681526020019081526020015f20546040517f20faaa950000000000000000000000000000000000000000000000000000000081526004016119b19190613053565b60405180910390fd5b80426119c69190613656565b6119ce612e8a565b6004015f3373ffffffffffffffffffffffffffffffffffffffff1673ffffffffffffffffffffffffffffffffffffffff1681526020019081526020015f20819055506001611a1a612e8a565b6005015f3373ffffffffffffffffffffffffffffffffffffffff1673ffffffffffffffffffffffffffffffffffffffff1681526020019081526020015f205f6101000a81548160ff0219169083151502179055507f1999d1d326b344e9f33c9a1305a30930cfe24ad351a8ce69e616abc21682f3c833611a98612e8a565b6004015f3373ffffffffffffffffffffffffffffffffffffffff1673ffffffffffffffffffffffffffffffffffffffff1681526020019081526020015f20546001604051611ae8939291906138eb565b60405180910390a150565b611afb612e98565b80611b04612e8a565b6003015f6101000a81548173ffffffffffffffffffffffffffffffffffffffff021916908373ffffffffffffffffffffffffffffffffffffffff16021790555050565b611b4f612f28565b6107d0811115611b94576040517f08c379a0000000000000000000000000000000000000000000000000000000008152600401611b8b90613b73565b60405180910390fd5b8160085f8573ffffffffffffffffffffffffffffffffffffffff1673ffffffffffffffffffffffffffffffffffffffff1681526020019081526020015f205f6101000a81548173ffffffffffffffffffffffffffffffffffffffff021916908373ffffffffffffffffffffffffffffffffffffffff1602179055508060075f8573ffffffffffffffffffffffffffffffffffffffff1673ffffffffffffffffffffffffffffffffffffffff1681526020019081526020015f2081905550505050565b5f60015f9054906101000a900473ffffffffffffffffffffffffffffffffffffffff16905090565b60095f9054906101000a900473ffffffffffffffffffffffffffffffffffffffff1681565b611cab612e8a565b5f015f3373ffffffffffffffffffffffffffffffffffffffff1673ffffffffffffffffffffffffffffffffffffffff1681526020019081526020015f205f9054906101000a900460ff16611d2b576040517f9b8d1cd900000000000000000000000000000000000000000000000000000000815260040160405180910390fd5b5f73ffffffffffffffffffffffffffffffffffffffff168173ffffffffffffffffffffffffffffffffffffffff1614611e22575f8173ffffffffffffffffffffffffffffffffffffffff1663a9059cbb85856040518363ffffffff1660e01b8152600401611d9a92919061385c565b6020604051808303815f875af1158015611db6573d5f5f3e3d5ffd5b505050506040513d601f19601f82011682018060405250810190611dda9190613761565b905080611e1c576040517f08c379a0000000000000000000000000000000000000000000000000000000008152600401611e1390613bdb565b60405180910390fd5b506120a0565b5f8373ffffffffffffffffffffffffffffffffffffffff168361096090604051611e4b90613a1e565b5f60405180830381858888f193505050503d805f8114611e86576040519150601f19603f3d011682016040523d82523d5f602084013e611e8b565b606091505b505090508061209e575f611e9d612e8a565b6003015f9054906101000a900473ffffffffffffffffffffffffffffffffffffffff1673ffffffffffffffffffffffffffffffffffffffff16846040516024016040516020818303038152906040527fd0e30db0000000000000000000000000000000000000000000000000000000007bffffffffffffffffffffffffffffffffffffffffffffffffffffffff19166020820180517bffffffffffffffffffffffffffffffffffffffffffffffffffffffff8381831617835250505050604051611f679190613c29565b5f6040518083038185875af1925050503d805f8114611fa1576040519150601f19603f3d011682016040523d82523d5f602084013e611fa6565b606091505b5050905080611fb3575f5ffd5b5f611fbc612e8a565b6003015f9054906101000a900473ffffffffffffffffffffffffffffffffffffffff1673ffffffffffffffffffffffffffffffffffffffff1663a9059cbb87876040518363ffffffff1660e01b815260040161201992919061385c565b6020604051808303815f875af1158015612035573d5f5f3e3d5ffd5b505050506040513d601f19601f820116820180604052508101906120599190613761565b90508061209b576040517f08c379a0000000000000000000000000000000000000000000000000000000008152600401612092906138cd565b60405180910390fd5b50505b505b7f9faa8e57af6aface120d035b97eedc4e1c5781c30c45758eeb2bd719354fdaa63384846040516120d393929190613718565b60405180910390a1505050565b5f5f5f73ffffffffffffffffffffffffffffffffffffffff168373ffffffffffffffffffffffffffffffffffffffff160361211d57479050612198565b8273ffffffffffffffffffffffffffffffffffffffff166370a08231306040518263ffffffff1660e01b815260040161215691906132b6565b602060405180830381865afa158015612171573d5f5f3e3d5ffd5b505050506040513d601f19601f820116820180604052508101906121959190613c53565b90505b5f60065f8573ffffffffffffffffffffffffffffffffffffffff1673ffffffffffffffffffffffffffffffffffffffff1681526020019081526020015f205490508082116121e6575f6121f3565b80826121f291906139be565b5b92505050919050565b5f612205612e8a565b5f015f8573ffffffffffffffffffffffffffffffffffffffff1673ffffffffffffffffffffffffffffffffffffffff1681526020019081526020015f205f9054906101000a900460ff1661225b575f90506122ce565b612263612e8a565b6001015f8473ffffffffffffffffffffffffffffffffffffffff1673ffffffffffffffffffffffffffffffffffffffff1681526020019081526020015f205f9054906101000a900460ff166122ba575f90506122ce565b5f6122c4846120e0565b9050828110159150505b9392505050565b60015f9054906101000a900473ffffffffffffffffffffffffffffffffffffffff1681565b6004602052805f5260405f205f915090505481565b5f60045f3373ffffffffffffffffffffffffffffffffffffffff1673ffffffffffffffffffffffffffffffffffffffff1681526020019081526020015f2054905090565b8061235c612e8a565b6004015f3373ffffffffffffffffffffffffffffffffffffffff1673ffffffffffffffffffffffffffffffffffffffff1681526020019081526020015f205f8282546123a89190613656565b9250508190555060016123b9612e8a565b6005015f3373ffffffffffffffffffffffffffffffffffffffff1673ffffffffffffffffffffffffffffffffffffffff1681526020019081526020015f205f6101000a81548160ff0219169083151502179055507f1999d1d326b344e9f33c9a1305a30930cfe24ad351a8ce69e616abc21682f3c833612437612e8a565b6004015f3373ffffffffffffffffffffffffffffffffffffffff1673ffffffffffffffffffffffffffffffffffffffff1681526020019081526020015f20546001604051612487939291906138eb565b60405180910390a150565b5f5f5f9054906101000a900473ffffffffffffffffffffffffffffffffffffffff16905090565b5f5f9054906101000a900473ffffffffffffffffffffffffffffffffffffffff1681565b6124e5612e98565b80600b5f6101000a81548173ffffffffffffffffffffffffffffffffffffffff021916908373ffffffffffffffffffffffffffffffffffffffff16021790555050565b5f3490505f606460628361253c9190613920565b612546919061398e565b90505f818361255591906139be565b90508060055f5f73ffffffffffffffffffffffffffffffffffffffff1673ffffffffffffffffffffffffffffffffffffffff1681526020019081526020015f205f8282546125a39190613656565b925050819055505f60095f9054906101000a900473ffffffffffffffffffffffffffffffffffffffff1673ffffffffffffffffffffffffffffffffffffffff16826040516125f090613a1e565b5f6040518083038185875af1925050503d805f811461262a576040519150601f19603f3d011682016040523d82523d5f602084013e61262f565b606091505b5050905080612673576040517f08c379a000000000000000000000000000000000000000000000000000000000815260040161266a90613cc8565b60405180910390fd5b5f73ffffffffffffffffffffffffffffffffffffffff167f59a585ce31f33718c7fde58f79ecc899708739e830f9df536355d742fbf78fed846040516126b99190613053565b60405180910390a25f73ffffffffffffffffffffffffffffffffffffffff167f98d1a44edf4cf655d3b06ecdb6388bc02f076a9b2b9e591c17cbb9461c93aa8d836040516127079190613053565b60405180910390a250505050565b6008602052805f5260405f205f915054906101000a900473ffffffffffffffffffffffffffffffffffffffff1681565b5f5f73ffffffffffffffffffffffffffffffffffffffff1660015f9054906101000a900473ffffffffffffffffffffffffffffffffffffffff1673ffffffffffffffffffffffffffffffffffffffff16036127a35760019050612871565b60015f9054906101000a900473ffffffffffffffffffffffffffffffffffffffff1673ffffffffffffffffffffffffffffffffffffffff166337336b1c6040518163ffffffff1660e01b81526004015f60405180830381865afa92505050801561282f57506040513d5f823e3d601f19601f8201168201806040525081019061282c9190613e14565b60015b61283b575f9050612871565b3073ffffffffffffffffffffffffffffffffffffffff168473ffffffffffffffffffffffffffffffffffffffff16149450505050505b90565b61287c612e98565b80612885612e8a565b5f015f8473ffffffffffffffffffffffffffffffffffffffff1673ffffffffffffffffffffffffffffffffffffffff1681526020019081526020015f205f6101000a81548160ff0219169083151502179055507fdbd1aaf28b8f98e5d4e0c894cc0a5d00595709f1f072f52fa3fbab1a0802aa218282604051612909929190613689565b60405180910390a15050565b6007602052805f5260405f205f915090505481565b612932612df7565b8060045f8473ffffffffffffffffffffffffffffffffffffffff1673ffffffffffffffffffffffffffffffffffffffff1681526020019081526020015f205f82825461297e9190613656565b925050819055507f3fd29567c3f82fd3f719d71c4ecc26918acbe172cd590b0baa4be52b878d0f3482826040516129b692919061385c565b60405180910390a15050565b5f60606129cd612e98565b5f5f8773ffffffffffffffffffffffffffffffffffffffff168787876040516129f7929190613ec6565b5f6040518083038185875af1925050503d805f8114612a31576040519150601f19603f3d011682016040523d82523d5f602084013e612a36565b606091505b5091509150818193509350505094509492505050565b600d5481565b5f612a5b612e8a565b5f015f8473ffffffffffffffffffffffffffffffffffffffff1673ffffffffffffffffffffffffffffffffffffffff1681526020019081526020015f205f9054906101000a900460ff16612ab1575f9050612b15565b612ab9612e8a565b6001015f8373ffffffffffffffffffffffffffffffffffffffff1673ffffffffffffffffffffffffffffffffffffffff1681526020019081526020015f205f9054906101000a900460ff16612b10575f9050612b15565b600190505b92915050565b600a5f9054906101000a900473ffffffffffffffffffffffffffffffffffffffff1681565b600c5481565b612b4e612df7565b8060065f8473ffffffffffffffffffffffffffffffffffffffff1673ffffffffffffffffffffffffffffffffffffffff1681526020019081526020015f20541015612bce576040517f08c379a0000000000000000000000000000000000000000000000000000000008152600401612bc590613f28565b60405180910390fd5b8060065f8473ffffffffffffffffffffffffffffffffffffffff1673ffffffffffffffffffffffffffffffffffffffff1681526020019081526020015f205f828254612c1a91906139be565b925050819055505050565b600b5f9054906101000a900473ffffffffffffffffffffffffffffffffffffffff1681565b612c52612e98565b8060095f6101000a81548173ffffffffffffffffffffffffffffffffffffffff021916908373ffffffffffffffffffffffffffffffffffffffff16021790555050565b7fffffffffffffffffffffffffffffffffffffffffffffffffffffffffffffffff612cbe612e8a565b6004015f3373ffffffffffffffffffffffffffffffffffffffff1673ffffffffffffffffffffffffffffffffffffffff1681526020019081526020015f20819055506001612d0a612e8a565b6005015f3373ffffffffffffffffffffffffffffffffffffffff1673ffffffffffffffffffffffffffffffffffffffff1681526020019081526020015f205f6101000a81548160ff0219169083151502179055507f1999d1d326b344e9f33c9a1305a30930cfe24ad351a8ce69e616abc21682f3c833612d88612e8a565b6004015f3373ffffffffffffffffffffffffffffffffffffffff1673ffffffffffffffffffffffffffffffffffffffff1681526020019081526020015f20546001604051612dd8939291906138eb565b60405180910390a1565b6005602052805f5260405f205f915090505481565b612dff612e8a565b5f015f3373ffffffffffffffffffffffffffffffffffffffff1673ffffffffffffffffffffffffffffffffffffffff1681526020019081526020015f205f9054906101000a900460ff16612e88576040517f08c379a0000000000000000000000000000000000000000000000000000000008152600401612e7f90613f90565b60405180910390fd5b565b5f612e9361300f565b905090565b5f5f9054906101000a900473ffffffffffffffffffffffffffffffffffffffff1673ffffffffffffffffffffffffffffffffffffffff163373ffffffffffffffffffffffffffffffffffffffff1614612f26576040517f08c379a0000000000000000000000000000000000000000000000000000000008152600401612f1d90613ff8565b60405180910390fd5b565b600a5f9054906101000a900473ffffffffffffffffffffffffffffffffffffffff1673ffffffffffffffffffffffffffffffffffffffff163373ffffffffffffffffffffffffffffffffffffffff161480612fce57505f5f9054906101000a900473ffffffffffffffffffffffffffffffffffffffff1673ffffffffffffffffffffffffffffffffffffffff163373ffffffffffffffffffffffffffffffffffffffff16145b61300d576040517f08c379a000000000000000000000000000000000000000000000000000000000815260040161300490614060565b60405180910390fd5b565b5f5f7fd9e36f72af3979441da6bdc5e2ae692d0d0f87795721100b003b032f99a83f8190508091505090565b5f819050919050565b61304d8161303b565b82525050565b5f6020820190506130665f830184613044565b92915050565b5f604051905090565b5f5ffd5b5f5ffd5b5f73ffffffffffffffffffffffffffffffffffffffff82169050919050565b5f6130a68261307d565b9050919050565b6130b68161309c565b81146130c0575f5ffd5b50565b5f813590506130d1816130ad565b92915050565b6130e08161303b565b81146130ea575f5ffd5b50565b5f813590506130fb816130d7565b92915050565b5f5f6040838503121561311757613116613075565b5b5f613124858286016130c3565b9250506020613135858286016130ed565b9150509250929050565b5f6020828403121561315457613153613075565b5b5f613161848285016130c3565b91505092915050565b5f8115159050919050565b61317e8161316a565b82525050565b5f6040820190506131975f830185613175565b6131a46020830184613044565b9392505050565b5f602082840312156131c0576131bf613075565b5b5f6131cd848285016130ed565b91505092915050565b5f6020820190506131e95f830184613175565b92915050565b6131f88161316a565b8114613202575f5ffd5b50565b5f81359050613213816131ef565b92915050565b5f5f6040838503121561322f5761322e613075565b5b5f61323c858286016130c3565b925050602061324d85828601613205565b9150509250929050565b5f5f5f6060848603121561326e5761326d613075565b5b5f61327b868287016130c3565b935050602061328c868287016130c3565b925050604061329d868287016130ed565b9150509250925092565b6132b08161309c565b82525050565b5f6020820190506132c95f8301846132a7565b92915050565b5f819050919050565b5f6132f26132ed6132e88461307d565b6132cf565b61307d565b9050919050565b5f613303826132d8565b9050919050565b5f613314826132f9565b9050919050565b6133248161330a565b82525050565b5f60208201905061333d5f83018461331b565b92915050565b5f5f5f6060848603121561335a57613359613075565b5b5f613367868287016130c3565b9350506020613378868287016130ed565b9250506040613389868287016130c3565b9150509250925092565b5f5ffd5b5f5ffd5b5f5ffd5b5f5f83601f8401126133b4576133b3613393565b5b8235905067ffffffffffffffff8111156133d1576133d0613397565b5b6020830191508360018202830111156133ed576133ec61339b565b5b9250929050565b5f5f5f5f6060858703121561340c5761340b613075565b5b5f613419878288016130c3565b945050602061342a878288016130ed565b935050604085013567ffffffffffffffff81111561344b5761344a613079565b5b6134578782880161339f565b925092505092959194509250565b5f81519050919050565b5f82825260208201905092915050565b8281835e5f83830152505050565b5f601f19601f8301169050919050565b5f6134a782613465565b6134b1818561346f565b93506134c181856020860161347f565b6134ca8161348d565b840191505092915050565b5f6040820190506134e85f830185613175565b81810360208301526134fa818461349d565b90509392505050565b5f5f6040838503121561351957613518613075565b5b5f613526858286016130c3565b9250506020613537858286016130c3565b9150509250929050565b5f61354b826132d8565b9050919050565b5f61355c82613541565b9050919050565b61356c81613552565b82525050565b5f6020820190506135855f830184613563565b92915050565b5f82825260208201905092915050565b7f496e73756666696369656e20617661696c61626c652062616c616e636520746f5f8201527f2072657365727665000000000000000000000000000000000000000000000000602082015250565b5f6135f560288361358b565b91506136008261359b565b604082019050919050565b5f6020820190508181035f830152613622816135e9565b9050919050565b7f4e487b71000000000000000000000000000000000000000000000000000000005f52601160045260245ffd5b5f6136608261303b565b915061366b8361303b565b925082820190508082111561368357613682613629565b5b92915050565b5f60408201905061369c5f8301856132a7565b6136a96020830184613175565b9392505050565b7f5573652072656365697665282920666f72204554482066756e64696e670000005f82015250565b5f6136e4601d8361358b565b91506136ef826136b0565b602082019050919050565b5f6020820190508181035f830152613711816136d8565b9050919050565b5f60608201905061372b5f8301866132a7565b61373860208301856132a7565b6137456040830184613044565b949350505050565b5f8151905061375b816131ef565b92915050565b5f6020828403121561377657613775613075565b5b5f6137838482850161374d565b91505092915050565b7f45524332303a207472616e73666572206661696c6564000000000000000000005f82015250565b5f6137c060168361358b565b91506137cb8261378c565b602082019050919050565b5f6020820190508181035f8301526137ed816137b4565b9050919050565b7f6e6f7420656e6f756768207265776172647320616371756972656400000000005f82015250565b5f613828601b8361358b565b9150613833826137f4565b602082019050919050565b5f6020820190508181035f8301526138558161381c565b9050919050565b5f60408201905061386f5f8301856132a7565b61387c6020830184613044565b9392505050565b7f4945524332303a205472616e73666572206661696c65640000000000000000005f82015250565b5f6138b760178361358b565b91506138c282613883565b602082019050919050565b5f6020820190508181035f8301526138e4816138ab565b9050919050565b5f6060820190506138fe5f8301866132a7565b61390b6020830185613044565b6139186040830184613175565b949350505050565b5f61392a8261303b565b91506139358361303b565b92508282026139438161303b565b9150828204841483151761395a57613959613629565b5b5092915050565b7f4e487b71000000000000000000000000000000000000000000000000000000005f52601260045260245ffd5b5f6139988261303b565b91506139a38361303b565b9250826139b3576139b2613961565b5b828204905092915050565b5f6139c88261303b565b91506139d38361303b565b92508282039050818111156139eb576139ea613629565b5b92915050565b5f81905092915050565b50565b5f613a095f836139f1565b9150613a14826139fb565b5f82019050919050565b5f613a28826139fe565b9150819050919050565b7f43726561746f7220455448207472616e73666572206661696c656400000000005f82015250565b5f613a66601b8361358b565b9150613a7182613a32565b602082019050919050565b5f6020820190508181035f830152613a9381613a5a565b9050919050565b7f43726561746f7220746f6b656e207472616e73666572206661696c65640000005f82015250565b5f613ace601d8361358b565b9150613ad982613a9a565b602082019050919050565b5f6020820190508181035f830152613afb81613ac2565b9050919050565b5f604082019050613b155f830185613044565b613b2260208301846132a7565b9392505050565b7f46656520746f6f206869676800000000000000000000000000000000000000005f82015250565b5f613b5d600c8361358b565b9150613b6882613b29565b602082019050919050565b5f6020820190508181035f830152613b8a81613b51565b9050919050565b7f45524332303a205472616e73666572206661696c6564000000000000000000005f82015250565b5f613bc560168361358b565b9150613bd082613b91565b602082019050919050565b5f6020820190508181035f830152613bf281613bb9565b9050919050565b5f613c0382613465565b613c0d81856139f1565b9350613c1d81856020860161347f565b80840191505092915050565b5f613c348284613bf9565b915081905092915050565b5f81519050613c4d816130d7565b92915050565b5f60208284031215613c6857613c67613075565b5b5f613c7584828501613c3f565b91505092915050565b7f5472656173757279207472616e73666572206661696c656400000000000000005f82015250565b5f613cb260188361358b565b9150613cbd82613c7e565b602082019050919050565b5f6020820190508181035f830152613cdf81613ca6565b9050919050565b5f81519050613cf4816130ad565b92915050565b5f5ffd5b7f4e487b71000000000000000000000000000000000000000000000000000000005f52604160045260245ffd5b613d348261348d565b810181811067ffffffffffffffff82111715613d5357613d52613cfe565b5b80604052505050565b5f613d6561306c565b9050613d718282613d2b565b919050565b5f67ffffffffffffffff821115613d9057613d8f613cfe565b5b613d998261348d565b9050602081019050919050565b5f613db8613db384613d76565b613d5c565b905082815260208101848484011115613dd457613dd3613cfa565b5b613ddf84828561347f565b509392505050565b5f82601f830112613dfb57613dfa613393565b5b8151613e0b848260208601613da6565b91505092915050565b5f5f5f5f60808587031215613e2c57613e2b613075565b5b5f613e3987828801613ce6565b9450506020613e4a87828801613ce6565b935050604085015167ffffffffffffffff811115613e6b57613e6a613079565b5b613e7787828801613de7565b9250506060613e8887828801613c3f565b91505092959194509250565b828183375f83830152505050565b5f613ead83856139f1565b9350613eba838584613e94565b82840190509392505050565b5f613ed2828486613ea2565b91508190509392505050565b7f496e73756666696369656e742072657365727665642066756e647300000000005f82015250565b5f613f12601b8361358b565b9150613f1d82613ede565b602082019050919050565b5f6020820190508181035f830152613f3f81613f06565b9050919050565b7f43616c6c6572206973206e6f7420612067616d650000000000000000000000005f82015250565b5f613f7a60148361358b565b9150613f8582613f46565b602082019050919050565b5f6020820190508181035f830152613fa781613f6e565b9050919050565b7f4e6f7420616e206f776e657200000000000000000000000000000000000000005f82015250565b5f613fe2600c8361358b565b9150613fed82613fae565b602082019050919050565b5f6020820190508181035f83015261400f81613fd6565b9050919050565b7f4e6f742067616d6520666163746f7279206f72206f776e6572000000000000005f82015250565b5f61404a60198361358b565b915061405582614016565b602082019050919050565b5f6020820190508181035f8301526140778161403e565b905091905056fea264697066735822122056b210339dab0c594eab01c3ba61eb6cc82ef2fe5431891ca6a1d1e9f32d0b8264736f6c634300081c0033","linkReferences":{}},"methodIdentifiers":{"addPlayerReward(address,uint256)":"b0e27f74","claimRewards()":"372500ab","creatorFeeBps(address)":"b08bb871","deposit(address,uint256)":"47e7ef24","depositEther()":"98ea5fca","execute(address,uint256,bytes)":"b61d27f6","factory()":"c45a0155","fees(address)":"faaebd21","fundBankroll(address,uint256)":"2b7a0fd9","gameCreator(address)":"aa3cf18f","getAvailableBalance(address)":"6c24a76f","getIsGame(address)":"298729d8","getIsValidWager(address,address)":"bfd7f9cc","getIsValidWagerWithReserve(address,address,uint256)":"71b90d58","getOwner()":"893d20e8","getPlayerReward()":"133d199a","getPlayerRewards()":"7f7cb63a","getRegistry()":"5ab1bd53","increaseSuspensionTime(uint256)":"8177334f","isActiveBankroll()":"aebea442","isPlayerSuspended(address)":"0a5748a8","liftSuspension()":"3d9f0e52","minRewardPayout()":"d3ca2ea5","owner()":"8da5cb5b","permantlyBan()":"f59b7f71","playReward()":"bfa01a5b","playRewardToken()":"d770a58d","playRewards(address)":"7beeb6d3","registry()":"7b103999","releaseFunds(address,uint256)":"d6e982e5","reserveFunds(address,uint256)":"06389537","reservedFunds(address)":"14135ce0","setGame(address,bool)":"b0836e2e","setGameCreator(address,address,uint256)":"596766ff","setOwner(address)":"13af4035","setPlayRewardToken(address)":"906b14ac","setRewardMultiplier(uint256)":"0bd075a1","setTokenAddress(address,bool)":"2a0b5e9e","setTreasury(address)":"f0f44260","setWrappedAddress(address)":"509cac54","suspend(uint256)":"4b865846","transferPayout(address,uint256,address)":"6c025ec2","treasury()":"61d027b3"},"id":2}